:020000040800F2
:10800000483F00200181000863B500085FB5000803
:1080100061B500088186000899D7000800000000BB
:10802000000000000000000000000000F3B800089D
:10803000D98C000800000000F1B80008D5BE000887
:108040001B8100081B8100081B8100081B810008A0
:108050001B8100081B8100081B8100081B81000890
:108060001B8100081B8100081B810008B58C0008DB
:108070001B8100081B810008C18C0008CD8C000802
:108080001B8100081B8100081B8100081B81000860
:1080900035D700081B8100081B810008DB8C000815
:1080A0001B8100081B8100081B8100081B81000840
:1080B0001B8100081B8100081B8100081B81000830
:1080C0001B8100081B8100081B8100081B81000820
:1080D0001B8100082DC600081B8100081B810008B9
:1080E0001B8100081B8100081B810008DFF80CD0F1
:1080F00000F04CF800480047BDD70008483F00207A
:108100000648804706480047FEE7FEE7FEE7FEE731
:10811000FEE7FEE7FEE7FEE7FEE7FEE74DBF0008ED
:10812000ED800008202A04DB203A21FA02F0002129
:10813000704721FA02F3D040C2F120029140084377
:108140001946704740EA01039B0703D009E008C9BC
:10815000121F08C0042AFAD203E011F8013B00F80C
:10816000013B521EF9D27047D2B201E000F8012B58
:10817000491EFBD270470022F6E710B513460A46A7
:1081800004461946FFF7F0FF204610BD064C074D88
:1081900006E0E06840F0010394E8070098471034D7
:1081A000AC42F6D3FFF7A6FF64DC000884DC0008CD
:1081B00070B58C1810F8015B15F0070301D110F8A9
:1081C000013B2A1106D110F8012B03E010F8016BD6
:1081D00001F8016B5B1EF9D12B0705D40023521E59
:1081E0000DD401F8013BFAE710F8013BCB1A921CC1
:1081F00003E013F8015B01F8015B521EF9D5A142BF
:10820000D8D3002070BD000094B04E4800F076FA3C
:1082100000F0FEF800F0FEF84B484C4D4C4E006864
:108220004C4F411C2AD0B8427ED103F09FFB4A4CF0
:108230004FEA37412068884252D1002001C447A04C
:1082400050350FC80FC40FCD0FC495E80F0084E858
:108250000F0004F1100010224449243CFFF772FF84
:1082600043482146007884F8440036480068C4F842
:108270001A00304603F038FC0A2059E03D493046E8
:1082800003F012FC3B483C490068884219D00120A9
:1082900000F0DAFE2D49482270316846FFF752FFA0
:1082A0002868129003F05DFB12A9304603F0C8FC69
:1082B0000021304603F020FC6A460021304603F0DE
:1082C00077FC012000F0C0FE01F016F83A460023CA
:1082D0002A49022000F082FF00F076FF012027E00B
:1082E00000F0D8FB04F0DEF804F0B4F803F016FD5B
:1082F000164914484C22091D0C30FFF723FF114882
:108300000C3003F0C1FC002003F05EFD002000F003
:108310000DFC002004F0D6F8002004F0A9F894F831
:1083200022000028EFD000E006E015480760642036
:1083300000F08AFE03F026F900F0A8F8192000F0FA
:1083400083FEF9E75823002000A00008FCD70008AE
:1083500000F00008AB89EFCD702C00204D697865E6
:108360006420436F6E74726F6C00000041D9000886
:1083700040D9000890210020000301FF00A0000860
:10838000001F0020FEE7000000B585B0092802D9D3
:10839000012005B000BD11498A6942F004028A61DA
:1083A0008A6902F0040204928A6942F008028A6132
:1083B000896901F008010491094931F81010009110
:1083C000002101910121029102210391054951F8F7
:1083D0002000694600F0BCFF0020DAE700100240F0
:1083E000E8D700080C20002010B5092808D8064955
:1083F000064A31F8101052F8200001F037F908B1A0
:10840000002010BD012010BDE8D700080C2000207E
:108410000020704730B5104885B0816941F01001E7
:10842000816180694FF4005400F010000490012035
:10843000CDE90040002002900220084D03906946DB
:10844000284600F085FF01222146284601F06AF9FE
:1084500005B0002030BD00000010024000100140B7
:1084600010B501225103024801F05CF9002010BD53
:108470000010014010B500224FF40051024801F0F5
:1084800051F9002010BD00000010014010B54FF45C
:108490000051024801F018F9002010BD0010014001
:1084A000F0B5344D8BB0A86940F00800A861A86908
:1084B000022600F008000A9033200024CDE90006CF
:1084C0002D4FCDE902466946384600F041FF0120B4
:1084D00000906946384600F03BFF694638460096F2
:1084E00000F036FF2548416821F4406141F4006105
:1084F0004160E86940F00200E861E869204900F065
:1085000002000A901F4801604721C0E9011440F2AF
:10851000E731C0E9031402F025FB1A4802F064FEBB
:10852000A814049004A9174802F088FB089408A92D
:108530001448099402F0B4FA124D60203C35002230
:10854000AC602C61C5E9000629460E4802F050FDDA
:1085500000210C4802F0BAFE0422294609486E6048
:1085600002F046FD0421074802F0B0FE0BB02046A1
:10857000F0BD000000100240000C0140000001406E
:10858000000400400023002010B50024174A0229EF
:1085900001D2002103E040F2E733994201D2516059
:1085A00000E0536010B101280DD01CE00F480021FD
:1085B0003C3802F0EFFE0D490022A1F13C0002F030
:1085C00017FD00210BE0094804213C3802F0E2FECF
:1085D00006490422A1F13C0002F00AFD04210348EF
:1085E0003C3802F073FE204610BD00003C23002002
:1085F000642900D9642140F2E73251436422B1FB7F
:10860000F2F1FFF7C1BF000030B5104885B08169B5
:1086100041F00401816180694FF4004400F00400DE
:1086200004900120CDE90040002002900220084D76
:1086300003906946284600F08BFE01222146284619
:1086400001F070F805B0002030BD000000100240BD
:108650000008014010B50122D103024801F062F880
:10866000002010BD0008014010B500224FF4004169
:10867000024801F057F8002010BD0000000801403A
:10868000FEE70020704700207047000010B5002270
:108690000549064804F0A6F803490448403904F0A7
:1086A0009BF8002010BD0000F0230020FC2F0020CC
:1086B00010B5044604F06EF82146044804F08CF826
:1086C000024804F06DF8002010BD0000FC2F0020CF
:1086D0000A46094910B5D1F81812D1F8141209B197
:1086E000012010BD0146044804F07CF8BDE81040AC
:1086F000014804F0B7B80000FC2F002005490968C4
:1087000001600449091D096841600249083109688E
:1087100081607047E8F7FF1F70B5044600200246ED
:10872000064D07E0A65CC3B27340521C35F8133007
:1087300083EA10208A42F5D370BD000052D90008A8
:1087400070B504464FF6FF700022064D07E0A65CA8
:10875000C3B27340521C35F8133083EA10208A42AA
:10876000F5D370BD52D9000810B588B0044603296E
:1087700030D3207800F00F00012802D0022813D057
:1087800028E0A27860780DF1010100F091F810F076
:10879000FF0014D1207800F0F000401C8DF800009C
:1087A000A1786846491C13E0A278D01C884205D104
:1087B0006078E11C00F0F0F8C0B200E00120217800
:1087C00001F0F0018DF800108DF8010002216846DB
:1087D00000F004F808B0002010BD00002DE9F041C1
:1087E0001E4C0022251D3C235355012251550222C7
:1087F0002260002206E02668835C735523685B1CB8
:10880000521C23608A4201D23C2AF4D3201D2168E5
:10881000FFF796FF21684FF4007648552168000A5B
:10882000491C2160485525680D486D1C002100F148
:10883000080325600CE0621847681279FA54426810
:10884000521C4260B24202D3A2F500724260491C3F
:108850008D42F0D80020BDE8F081000000370020F4
:10886000AC3200201CB500F095FF0E4908604A6844
:10887000831A0D4AB2F83540A34210D3486092F8EB
:108880003400FE280BD050B1F5208DF800000748C9
:10889000022100788DF801006846FFF79FFF002055
:1088A0001CBD0000A8210020702C0020B021002059
:1088B00010B50300354C4FF000001ED0012B22D024
:1088C000022B25D0062B28D00A2B2CD00C2B2ED0F7
:1088D0000E2B31D00F2B34D0102B37D0112B3AD098
:1088E000312B3DD02A4C402B3FD0412B41D0422B45
:1088F00043D0432B45D0032010BD012A01D1227D56
:1089000004E0012010BD012AFBD1627D0A7010BD78
:10891000042AF6D1D4F8162003E0042AF1D1D4F8C1
:108920001A200A6010BD022AEBD1E28B02E0022A73
:10893000E7D1228C0A8010BD012AE2D194F82220CE
:10894000E4E7012ADDD194F82320DFE7012AD8D11A
:1089500094F83420DAE7022AD3D1B4F83520E9E7D5
:10896000012ACED10B4A1278D0E7012AC9D1227848
:10897000CCE7012AC5D16278C8E7012AC1D1A27823
:10898000C4E7012ABDD1E278C0E70000702C0020C6
:10899000C0210020B021002070B50024E0B10128E2
:1089A0001DD0384D384E02281BD006281FD00A286B
:1089B00023D00C2826D00E2829D00F282DD01028FF
:1089C00039D011283DD0314B402844D0412847D0E0
:1089D00042284AD043284DD00324204670BD10249D
:1089E000FBE7042A48D10868C5F816002EE0042ADF
:1089F00042D10868C5F81A0028E0022A3CD108884C
:108A0000E88323E0022A37D1088828841EE0012A5F
:108A100032D1087885F82200DFE7012A2CD11948E5
:108A200010221B493430FFF78DFB1948401E007897
:108A300085F844000AE0012A1ED1087885F8340040
:108A400004E0022A18D10888A5F835000D493046FF
:108A500003F04AF8C1E7012A0ED108781870BCE784
:108A6000012A09D108785870B7E7012A04D108789B
:108A70009870B2E7012A01D00124AEE70878D870D7
:108A8000ABE70000702C002000F00008C02100209F
:108A900041D90008114910B5002048604421104810
:108AA000FFF769FB44210F48FFF765FBFFF7ACFDBB
:108AB000FFF7D0FD00220C490C4804F03CF80C49AB
:108AC0000A4804F0E0F90B49084803F07DFE074826
:108AD00004F026FABDE81040FFF7C6BDA021002033
:108AE000AC320020B434002058210020FC2F00209C
:108AF0001021002048210020F0B50B4C002204F189
:108B000008054FF400760BE06768835C7B5563686B
:108B10005B1C6360B34202D3A3F500736360521C15
:108B20008A42F1D30020F0BDB434002010B50020FB
:108B300000F030F8002000F087F80020FFF792FEE8
:108B40001149486868B101281CD1086890F8FC01F7
:108B5000032817D000204860BDE810400B4803F000
:108B6000FBB8086890F8FC0103280BD1012048608D
:108B70004C2207490548FFF7E5FABDE810400348D5
:108B800003F082B810BD0000A02100202032002098
:108B9000F4D8000870B52A4C4FF40076D4E90001EF
:108BA000091A01F50071B14201D3A1F50071042940
:108BB00041D3234A0832825C3C2A3ED1214DA0F5A4
:108BC0008072FF3A03D0A5F2FF12825C00E0227AA5
:108BD000121D2A608A422ED8002109E022186B1843
:108BE000127A401C1A71B04201D3A0F50070491CE2
:108BF0002A688A4201D94029F0D3911E281DFFF727
:108C00009FFD104B29689B1CC2B2CB5C9A4214D1C9
:108C10000C4AD21C895CB1EB102F0ED16979A81DCA
:108C2000FFF7A2FD2068296808442060B04202D303
:108C3000A0F500702060002070BD2068401CF4E7A3
:108C4000B4340020BC3600202DE9F041174D4FF41C
:108C50000077D5E90010411A01F50071B94201D33E
:108C6000A1F50071F1B1114B002005F10806403B60
:108C70000AE02A68945D521C1C542A60BA4202D34E
:108C8000A2F500722A60401C884201D24028F0D32D
:108C9000074991F8FC11032904D181B203484038F7
:108CA000FFF716FD0020BDE8F0810000AC32002087
:108CB000FC2F0020014800F0A1B80000C8220020CD
:108CC000014800F09BB8000028220020014800F075
:108CD00095B8000060220020704710B5202000F0F9
:108CE0002BFBBDE81040402000F026BB10B501284A
:108CF00004D040F26721084804F05EFD07490020D7
:108D0000C8610748016941F004010161016941F04E
:108D10004001016110BD000098DB0008C82100205F
:108D200000200240064A0021D16106490A6942F04A
:108D300002020A614861086940F04000086170471A
:108D4000C821002000200240044B0022DA61044ABE
:108D5000136943F00103136101807047C8210020AB
:108D6000002002400E49C868C2060E4803D5C269F9
:108D700042F00202C261CA68520703D5C26942F0DA
:108D80000102C261CA69D20707D0C26942F0040277
:108D9000C261C86920F00100C8611420C860704732
:108DA00000200240C821002070B5044600F0F2FC0B
:108DB0000546114E09E0601C07D024B100F0EAFC22
:108DC000401BA04201D9032070BDF068C007F2D15A
:108DD000F068800601D52020F060F068C00605D458
:108DE000F069C00702D1F068400703D5FFF7BAFF6A
:108DF000012070BD002070BD002002402DE9F05F11
:108E0000DFF840820446D8F800C0DFF838B28D4D54
:108E10008C4E8C4F00684FF40061DFF82892DFF829
:108E200024A20BF1080B0B011C35303644374FF4EC
:108E3000002E09F158090AF16C0A584501D108229F
:108E400016E0A84201D1802212E0B04201D10A46C8
:108E50000EE0B84201D11A460AE0484501D17246F7
:108E600006E0504502D14FF4000201E04FF00062ED
:108E70001CEA020F31D00268D24312072DD40268D7
:108E800022F0080202602068584501D1082114E050
:108E9000A84201D1802110E0B0420ED0B84201D1E9
:108EA00019460AE0484501D1714606E0504502D115
:108EB0004FF4000101E04FF00061C8F80410606B4E
:108EC00040F001006063042084F82100002084F851
:108ED0002000216B09B1204688475A48D0F800800D
:108EE0004FF4806120680B014FF4802E4FF0806CAE
:108EF000584501D1042215E0A84201D1402211E0D9
:108F0000B04201D10A460DE0B84201D11A4609E04B
:108F1000484501D1724605E0504502D14FF4800228
:108F200000E0624618EA020F2CD00268D2435207D2
:108F300028D40268920603D4026822F00402026078
:108F40002068584501D1042113E0A84201D14021F5
:108F50000FE0B0420DD0B84201D1194609E04845B2
:108F600001D1714605E0504502D14FF4800100E087
:108F7000614634484160112084F82100E16A09B15A
:108F8000204688472F4BD3F80080DC4620685915CF
:108F90004FF4005B4FF4003E604501D1022216E021
:108FA000A84201D1202212E0B04201D10A460EE0CF
:108FB000B84201D15A460AE0484501D1724606E05E
:108FC000504502D14FF4001201E04FF0007218EA50
:108FD000020F34D00268D243920730D4026892065E
:108FE00003D4026822F0020202602068604501D1C9
:108FF000022114E0A84201D1202110E0B0420ED09D
:10900000B84201D159460AE0484501D1714606E00F
:10901000504502D14FF4001101E04FF0007159604A
:10902000606B6063012084F82100002084F8200038
:10903000A16A002903D02046BDE8F05F0847BDE8DB
:10904000F09F00000000024031B500F0A3FB044691
:1090500000F0A0FB0099001B8842F9D338BD000046
:109060002DE9F05F044650480F460126017E012994
:1090700041D001218146017620684CF2503840B140
:1090800002283BD0B921494804F096FB2068022809
:1090900034D0A068DFF818B1DFF818A14FF0FF3521
:1090A000B0F1006F0AD3BAF80010802938D04029F7
:1090B00040D0202948D0404988420BD9FA213B486A
:1090C00004F07AFBBAF8000080282BD0402834D076
:1090D00020283CD0D4E9020105EB81210144364827
:1090E000814203D9FB21314804F066FB4046FFF77B
:1090F0005BFE98B352E00220BDE8F09F4446404634
:10910000FFF752FE58BB0120FFF7F0FD2046FFF7A6
:109110004BFE06462948016921F0040101613DE04A
:109120005845CBD8D4E9020105EB812101445945CA
:10913000DCD9D7E722498842C0D8D4E9020105EB3F
:10914000812101441E48CBE71E498842B6D8D4E9A4
:10915000020105EB812101441A48C1E700E01DE04E
:109160003D60C246DFF85480A56811E02846FFF74D
:10917000D9FD5046FFF718FED8F81010060021F070
:109180000201C8F8101001D03D6007E005F58065C8
:10919000D4E9020100EB8120A842E7D8002189F838
:1091A00018103046A8E70000C821002098DB00080E
:1091B000FFFF0108E0F7FF1FFF3F0008002002400B
:1091C000FFFF0008FF7F00080348016941F08001AC
:1091D0000161002070470000002002402DE9F05F8F
:1091E00006462E480D460024017E17469846012962
:1091F00025D0012181460176012E07D0022E05D00F
:10920000032E03D0C42126A004F0D6FAB5F1006FD6
:109210000AD333480088802814D0402814D020284E
:1092200014D03048854203D9C5211DA004F0C4FAEA
:109230004CF2503A5046FFF7B7FD48B129E0022002
:10924000BDE8F09F2848EDE72848EBE72848E9E724
:10925000012E02D0022E00D00426D346DFF894A0BF
:1092600015E0220141463846FEF75CFF81B205EB6E
:109270004400FFF769FD5846FFF796FDDAF8102025
:1092800022F00102CAF8102018B9641CE4B2B442FA
:10929000E7D3002289F81820D2E70000C821002077
:1092A0002E2E5C2E2E5C2E2E5C44726976657273B7
:1092B0005C53544D3332463178785F48414C5F44BB
:1092C00072697665725C5372635C73746D33326677
:1092D0003178785F68616C5F666C6173682E6300DB
:1092E000E0F7FF1FFF3F0008FFFF0108FFFF000836
:1092F000FF7F00080020024005480169090605D5E6
:1093000004494160044941600020704701207047D2
:109310000020024023016745AB89EFCD10B520281E
:1093200004D0402801D100F005F810BD00F001F88C
:1093300010BD704770470000044910B50A6802422A
:1093400002D00860FFF7EAFF10BD000014040140DE
:109350002DE9F84FDFF890A20027DFF890B20C4615
:10936000054650450ED05D450CD0A148854209D038
:10937000A048854206D0A048854203D0CF219FA0B7
:1093800004F01AFA20880004000C03D1D0219BA01D
:1093900004F012FA6068F8B101281DD011281BD022
:1093A000022819D0122817D0A449884214D0A44901
:1093B000884211D0A34988420ED0A34988420BD0DD
:1093C000A249884208D0A249884205D0032803D088
:1093D000D1218AA004F0F0F94FF00008012026689E
:1093E00000FA08F906EA09064E456ED155450ED039
:1093F0005D450CD07E48854209D07E48854206D026
:109400007D48854203D0DF217CA004F0D5F98B4A4A
:109410006068811A904259D00EDC032870D006DCB7
:10942000002853D0012819D002286AD131E0112830
:1094300021D0122865D13AE0B1F5881F46D006DC6C
:10944000B1F5803F42D0B1F5801F5AD13EE0B1F571
:10945000001F3BD0B1F5041F53D137E0E06802286C
:1094600007D0012805D0032803D0E72163A004F02A
:10947000A3F9E76845E0E068022807D0012805D095
:10948000032803D0EE215DA004F096F9E7683F1DA4
:1094900037E0E068022807D0012805D0032803D070
:1094A000F52156A004F088F9E768083729E0E0685C
:1094B000022807D0012805D0032803D0FC214FA0A3
:1094C00004F07AF9E7680C371BE084E0A06880B10B
:1094D000012810D0022808D040F2091147A004F05A
:1094E0006BF9A06828B1012805D00827C5F81490A9
:1094F00007E0042705E00827C5F8109001E0FFE722
:109500000027FF2E01D8294601E005F104014FEAAA
:10951000880001D9A0F120000A684FF00F0303FA78
:1095200000FC22EA0C0207FA00F042EA00020A609C
:109530006068C0004FD54748816941F001018161F1
:10954000806928F0030100F00100009042480A18E9
:10955000D2F808C04FEA8870010F8B402CEA030C48
:10956000554501D100200EE05D4501D101200AE002
:109570001F48854201D1022005E01E48854201D1E5
:10958000032000E00420884040EA0C0090606068FE
:10959000C0033248016801D5314300E0B1430160A6
:1095A000606880032E48016801D5314300E0B14373
:1095B00001606068C0022B48016801D5314300E0BA
:1095C000B1430160606880022748016801D53143DA
:1095D00000E0B143016008F10108B8F1100FFFF499
:1095E000FDAEBDE8F88F000000080140000C01400E
:1095F0000010014000140140001801402E2E5C2E86
:109600002E5C2E2E5C447269766572735C53544DE9
:109610003332463178785F48414C5F4472697665F1
:10962000725C5372635C73746D3332663178785F49
:1096300068616C5F6770696F2E6300000000111035
:109640000000211000003110000012100000221054
:1096500000003210001002400000014000040140F0
:1096600004040140080401400C04014070B50C00E2
:10967000054604D14FF4E27103A004F09DF8A868F8
:10968000204000D0012070BD2E2E5C2E2E5C2E2E90
:109690005C447269766572735C53544D3332463163
:1096A00078785F48414C5F4472697665725C5372AA
:1096B000635C73746D3332663178785F68616C5FB8
:1096C0006770696F2E63000070B50C00054604D109
:1096D0004FF4FD7103A004F06FF8E8686040E860A3
:1096E00070BD00002E2E5C2E2E5C2E2E5C44726906
:1096F000766572735C53544D3332463178785F48E7
:10970000414C5F4472697665725C5372635C73743A
:109710006D3332663178785F68616C5F6770696F4E
:109720002E63000070B515460C00064604D14FF4B8
:10973000F27108A004F040F845B1012D04D040F2C8
:10974000E51104A004F038F8346170BD20043061E4
:1097500070BD00002E2E5C2E2E5C2E2E5C44726995
:10976000766572735C53544D3332463178785F4876
:10977000414C5F4472697665725C5372635C7374CA
:109780006D3332663178785F68616C5F6770696FDE
:109790002E6300000148006870470000042000208C
:1097A00002480168491C0160704700000420002045
:1097B000074810B5016841F010010160032000F076
:1097C000A1F8002000F006F800F016F8002010BD07
:1097D0000020024010B5044600F05CFD4FF47A71A1
:1097E000B0FBF1F001F044F900222146501E00F0D8
:1097F00057F8002010BD00001D4808B5816941F0F0
:1098000001018161806900F001000090032000F0F7
:1098100079F8002211466FF00B0000F041F80022A9
:1098200011466FF00A0000F03BF8002211466FF07D
:10983000090000F035F800221146501F00F030F802
:1098400000221146101F00F02BF800221146901E36
:1098500000F026F800221146501E00F021F80548BD
:10986000416821F0E06141F00071416008BD0000F5
:10987000001002400000014010B5040003D5E621AD
:10988000064803F099FF04F01F0101208840610998
:10989000890001F1E021C1F8000110BD54DB00088E
:1098A00070B514460D460646102A03D3D22113483C
:1098B00003F082FF102D03D3D321104803F07CFF67
:1098C0000F480068C0F30223C3F10700042800D941
:1098D0000420191D072901D2002300E0DB1E01220C
:1098E00002FA00F1491E294099409A40521E224036
:1098F0003046BDE87040114301F034BE54DB00082F
:109900000CED00E010B5044607280BD0062C09D05A
:10991000052C07D0042C05D0032C03D0BA2108480D
:1099200003F04AFF074A04F0070110684FF6FF03EF
:10993000184040EA012004490843106010BD0000AF
:1099400054DB00080CED00E00000FA0510B50C0631
:1099500005D501F07F0100EB4110283003E000EB5A
:10996000411000F5027099B232B101228272C180B9
:10997000190C0181002010BD002282728180F9E75C
:10998000704700EB4112D0F81C04D26B03F0F6B81C
:1099900000EB4112D0F81C04D2F81C2203F043B9AA
:1099A00010B504460A460B0601F07F0004EB401197
:1099B00001D5283101E001F502710870D009487025
:1099C00094F8E803012809D0012084F8E80320680E
:1099D00003F0DDFC002084F8E80310BD022010BD78
:1099E00070B50A460446090602F07F0003D504EB71
:1099F0004011283103E004EB421101F5027100250A
:109A00008D700870D009487094F8E803012809D0D7
:109A1000012084F8E803206803F057FD84F8E85338
:109A2000002070BD022070BD01F07F0100EB4110ED
:109A3000B0F8240280B2704770B504460D460E0699
:109A400001F07F0004EB401101D5283101E001F560
:109A500002710870E80948700A61CB7094F8E80355
:109A6000012809D0012084F8E803206803F064FB92
:109A7000002084F8E80370BD022070BD70B5044674
:109A80000E4601F07F0004EB401101F5077100253F
:109A90002CC101F81F5C01F8200D94F8E80301289F
:109AA0000AD0012084F8E8037006206803F067FDFF
:109AB00084F8E853002070BD022070BD70B50D46DB
:109AC0000446090605F07F0003D504EB4011283158
:109AD00003E004EB451101F5027101228A70087060
:109AE000E809487094F8E803012807D084F8E823CF
:109AF000206803F01FFD680602D006E0022070BD5A
:109B000004F57B71206803F0DEFC002084F8E80394
:109B100070BD70B504460E4601F07F0004EB4011A5
:109B20003C3100252CC1012201F81F2C01F8200D29
:109B300094F8E803012809D084F8E8237006206827
:109B400003F01DFD84F8E853002070BD022070BDB5
:109B500010B50446006803F0F3FD000402D520466A
:109B600001F022FD206803F0EBFD40050CD52068D4
:109B700030F8441F21F480610180204600F014F980
:109B80000021204600F025F9206803F0D9FD4004AB
:109B900005D5206830F8441F21F4804101802068F9
:109BA00003F0CEFD800405D5206830F8441F21F471
:109BB00000510180206803F0C3FDC00413D5206864
:109BC00030F8401F21F00401018021684FF43D402E
:109BD000A1F84000204600F0F4F8206830F8441F57
:109BE00021F480510180206803F0AAFD00051AD5F8
:109BF000206830F8441F21F400610180206830F8AB
:109C0000401F41F008010180206830F8401F41F0FA
:109C100004010180206803F093FDC043C00402D515
:109C2000204600F00BF9206803F08AFD800508D576
:109C3000206830F8441F21F400710180204600F0B4
:109C4000C4F8206803F07CFDC00505D5206830F815
:109C5000441F21F48071018010BD00002DE9F04106
:109C600086B004004FF000050CD02F4920688842D0
:109C700003D0A1212DA003F09FFD94F8E903002655
:109C800020B108E0012006B0BDE8F08184F8E86367
:109C9000204600F06BF8032084F8E903206803F005
:109CA0000BFC04F11001142288466846FEF74AFABC
:109CB00094E80F0003F069FB0021206803F051FDD8
:109CC000012704EB451080F8297000F8285F858192
:109CD000C670066146616D1C86610F2DF1D30021AF
:109CE00004EB411080F8096280F80812818680F840
:109CF0000B62C0F81862C0F81C62491CC0F82062F0
:109D00000F29EDD3142241466846FEF71BFA94E86A
:109D10000F0003F0C8FB84F8246084F8E97320681E
:109D200003F0BFFB0020AEE7005C00402E2E5C2E4F
:109D30002E5C2E2E5C447269766572735C53544DB2
:109D40003332463178785F48414C5F4472697665BA
:109D5000725C5372635C73746D3332663178785F12
:109D600068616C5F7063642E6300000008B5006872
:109D70000B49884212D10B48C16941F40001C1610D
:109D8000C069002200F40000009005211420FFF7B4
:109D900087FDBDE808401420FFF76EBD08BD000038
:109DA000005C00400010024010B504460121D0F8CC
:109DB0001C0402F0FFFFD4F81C04BDE8104002F0C0
:109DC000C8BFD0F81C0402F0E3BFD0F81C0402F0B6
:109DD000E5BF10B5044690F8E80301280BD0012038
:109DE00084F8E80384F82410206803F0BCFC002009
:109DF00084F8E80310BD022010BDD0F81C2400F543
:109E00007B71104602F0E0BF10B5044690F8E803FD
:109E1000012810D0012084F8E80301462046FFF70E
:109E2000AFFD206803F03BFB206803F07BFC0020C3
:109E300084F8E80310BD022010BD000010B50446F0
:109E4000D0F81C0402F0FBFFA069002804D00348EE
:109E5000016841F00601016010BD000010ED00E056
:109E60002DE9F84304460068604EC1070AD1810716
:109E70006FD4C0066ED47E215D4803F09DFC20782F
:109E8000C00768D0606860B1B0F5807F09D0B0F5D8
:109E9000007F06D0B0F5407F03D08421544803F002
:109EA0008BFCF06940F08050F061F069514F00F098
:109EB00080500090386840F480703860FFF76AFC8A
:109EC000054604E0FFF766FC401B642832D838687A
:109ED000C005F7D5306A10F4407053D0A18801F462
:109EE000407181424ED0306A01273B0493FAA3F1BE
:109EF000B1FA81F18A00404920F440700A44C2F866
:109F0000007493FAA3F3B3FA83F301EB8301002205
:109F1000C1F800243062C00734D0FFF73BFC05468F
:109F200041F288394FF0020807E0FFF733FC411B8C
:109F3000494502D90320BDE8F88398FAA8F0B0FAA1
:109F400080F040F040004146B7EB501F04D130682C
:109F50000EE020E037E01BE091FAA1F0B0FA80F0CB
:109F600040F04000B1EB501F01D1306A00E0706A50
:109F700098FAA8F1B1FA81F101F01F0207FA02F193
:109F80000842D2D0306A616820F4407008433062E1
:109F90002078800714D5A06860B1B0F5804F09D053
:109FA000B0F5004F06D0B0F5404F03D0BA211048AD
:109FB00003F002FC7068A16820F440400843706020
:109FC0002078C0060FD5E068B0F5800F05D020B12D
:109FD0004FF48B71064803F0EFFB7068E16820F4E2
:109FE0008000084370600020A5E7000000100240D8
:109FF000DCDB000800700040000042427047704700
:10A00000FFFFFFFF2DE9F0470D46040004D14FF498
:10A010002F718CA003F0D0FB2068C1070AD1810703
:10A0200008D4410706D4000704D440F2BD2185A01E
:10A0300003F0C2FB45B1012D06D0022D04D040F241
:10A04000BE2180A003F0B8FBDFF83882D8F800000A
:10A0500000F00700A8420CD2D8F8001021F0070148
:10A060002943C8F80010D8F8000000F00700A84203
:10A0700079D12078844E80071CD5A068A0B18028B3
:10A0800012D0902810D0A0280ED0B0280CD0C02814
:10A090000AD0D02808D0E02806D0F02804D040F21A
:10A0A000D72168A003F088FB7068A16820F0F00059
:10A0B000084370602078C00762D06068012768B1EB
:10A0C000012816D0022833D040F2DE215DA003F033
:10A0D00073FB606801280CD0022829D0022191FA74
:10A0E000A1F0B0FA80F040F02000400904D03068C0
:10A0F00003E04FF40031F2E7706A91FAA1F1B1FA8E
:10A1000081F101F01F018F4038424AD070686168C8
:10A1100020F0030008437060FFF73CFB07466068CF
:10A1200041F2883101280CD00228894615D023E05D
:10A130004FF00071D3E7FFF72DFBC11B494501D953
:10A1400017E089467068C0F381000128F3D117E059
:10A15000FFF720FBC11B49450BD87068C0F3810095
:10A160000228F5D10CE01CE0FFF714FBC11B4945A8
:10A1700002D90320BDE8F087706810F00C0FF3D10E
:10A18000D8F80010404601F00701A9420BD9016838
:10A1900021F0070129430160006800F00700A84290
:10A1A00001D00120E6E720784FF4806540074FF4A6
:10A1B000A0674FF4C0684FF4E06914D5E06860B15F
:10A1C000A8420AD0B84208D0404506D0484504D03D
:10A1D00040F232311BA003F0EFFA7068E16820F41E
:10A1E000E060084370602078000715D5206960B1F1
:10A1F000A8420AD0B84208D0404506D0484504D00D
:10A2000040F239310FA003F0D7FA7068216920F4C9
:10A21000605040EAC100706000F042F87168F022BE
:10A2200092FAA2F201F0F001B2FA82F2D140174A9A
:10A23000515CC840164908600020FFF7CBFA0020A7
:10A2400098E700002E2E5C2E2E5C2E2E5C44726948
:10A25000766572735C53544D3332463178785F487B
:10A26000414C5F4472697665725C5372635C7374CF
:10A270006D3332663178785F68616C5F7263632E2C
:10A28000630000000020024000100240D8D7000800
:10A2900000200020014800687047000000200020D6
:10A2A00010B519A085B00FC88DE80F001AA01B4B80
:10A2B0000068049059681A4801F00C02042A1DD065
:10A2C000082A1BD14FF4701494FAA4F401F470120C
:10A2D000B4FA84F4E240C9031DF8022010D559688D
:10A2E0004FF4003393FAA3F301F40031B3FA83F38C
:10A2F000D94004AB595CB0FBF1F0504305B010BD40
:10A3000008485043FAE7000002030405060708095D
:10A310000A0B0C0D0E0F101001020000001002407D
:10A3200000127A0000093D002DE9F84F040004D125
:10A330004FF48771F2A003F03FFADFF804844FF482
:10A34000003B4FF0000A0226FE4F2068012560B155
:10A35000C1070DD1810779D4010778D4400777D49C
:10A3600040F20F11E6A003F027FA2078C00732D0A0
:10A3700060684FF4A02948B1B0F5803F06D0484549
:10A3800004D040F21511DEA003F016FA7868C0F38D
:10A390008100012807D07868C0F3810002281BD112
:10A3A0007868C00318D59BFAABF0B0FA80F040F0A3
:10A3B0002000400901D0386800E0786A9BFAABF1D0
:10A3C000B1FA81F101F01F0105FA01F1084260D0F4
:10A3D000606800287ED05CE06068B0F5803F0AD0FD
:10A3E00008B1484511D0386820F4803038603868AA
:10A3F00020F4802002E0386840F4803038606068E3
:10A4000038B3FFF7C7F981460AE0386840F4802086
:10A410003860F0E7FFF7BEF9A0EB090064287DD8AB
:10A420009BFAABF0B0FA80F040F02000400901D078
:10A43000386800E0786A9BFAABF1B1FA81F101F07B
:10A440001F0105FA01F10842E4D022E024E0C6E051
:10A4500040E1FFE7FFF79EF9814605E0FFF79AF933
:10A46000A0EB09006428DAD89BFAABF0B0FA80F0D0
:10A4700040F02000400901D0386800E0786A9BFA7B
:10A48000ABF1B1FA81F101F01F0105FA01F10842C7
:10A49000E4D12078800744D5206930B1012804D068
:10A4A00040F2491196A003F087F960691F2804D98A
:10A4B0004FF4A57192A003F07FF9786810F00C0FAB
:10A4C00007D07868C0F3810002282BD17868C003D8
:10A4D00028D400E095E096FAA6F0B0FA80F040F0BB
:10A4E0002000400901D0386800E0786A96FAA6F1A9
:10A4F000B1FA81F101F01F0105FA01F1084202D021
:10A50000206901287DD13868F82220F0F80192FAFC
:10A51000A2F26069B2FA82F2904000E073E2014375
:10A52000396059E0206988B395FAA5F0B0FA80F057
:10A5300048F82050FFF72EF9814605E0FFF72AF989
:10A54000A0EB090002288ED896FAA6F0B0FA80F0A7
:10A5500040F02000400901D0386800E0786A96FA9F
:10A56000A6F1B1FA81F101F01F0105FA01F10842EB
:10A57000E4D03868616920F0F802F82090FAA0F081
:10A58000B0FA80F081400A433A6025E0FFE795FA8F
:10A59000A5F0B0FA80F048F820A0FFF7FBF881465C
:10A5A00005E0FFF7F7F8A0EB09000228CBD896FAF0
:10A5B000A6F0B0FA80F040F02000400901D03868E1
:10A5C00000E0786A96FAA6F1B1FA81F101F01F0174
:10A5D00005FA01F10842E4D12078000777D5A06997
:10A5E00090B3012806D04FF4C57145A003F0E4F8FC
:10A5F000A06948B395FAA5F0B0FA80F008EB8000A6
:10A6000000E0BDE1C0F88054FFF7C4F8814605E0E2
:10A61000FFF7C0F8A0EB0900022894D896FAA6F03C
:10A62000B0FA80F040F06000B5EB501F01D13868FF
:10A630000CE096FAA6F0B0FA80F040F06000B6EBBD
:10A64000501F02D1386A01E00EE0786A96FAA6F14E
:10A65000B1FA81F101F01F0105FA01F21042D7D0E1
:10A660000120FEF7F1FC32E095FAA5F0B0FA80F097
:10A6700008EB8000C0F880A4FFF78CF8814605E065
:10A68000FFF788F8A0EB090002288FD896FAA6F009
:10A69000B0FA80F040F06000B5EB501F01D138688F
:10A6A0000BE096FAA6F0B0FA80F040F06000B6EB4E
:10A6B000501F01D1386A00E0786A96FAA6F1B1FA23
:10A6C00081F101F01F0105FA01F21042D8D1207882
:10A6D00040077CD5E06840B1012806D0052804D0A9
:10A6E00040F2B71106A003F067F8F86940F0805017
:10A6F000F861F86900F0805000901348016825E087
:10A700002E2E5C2E2E5C2E2E5C4472697665727342
:10A710005C53544D3332463178785F48414C5F4446
:10A7200072697665725C5372635C73746D33326602
:10A730003178785F68616C5F7263632E630000003C
:10A7400000004242001002400070004041F480715D
:10A750000160FFF71FF8814605E0FFF71BF8A0EB4B
:10A760000900642891D8B6480068C005F5D5E068AE
:10A7700001280AD008B1052811D0386A20F001005C
:10A780003862386A20F0040002E0386A40F00100C4
:10A790003862E06898B3FEF7FDFF81460CE0386A46
:10A7A00040F004003862F0E7FEF7F4FFA0EB090187
:10A7B00041F288308142D5D896FAA6F0B0FA80F0FE
:10A7C00040F04000B5EB501F02D138680CE044E087
:10A7D00096FAA6F0B0FA80F040F04000B6EB501FB9
:10A7E00001D1386A00E0786A96FAA6F1B1FA81F1EF
:10A7F00001F01F0205FA02F10842D5D02DE0FFE773
:10A80000FEF7C8FF814607E0FEF7C4FFA0EB090191
:10A8100041F288308142A5D896FAA6F0B0FA80F0CD
:10A8200040F04000B5EB501F01D138680BE096FABC
:10A83000A6F0B0FA80F040F04000B6EB501F01D116
:10A84000386A00E0786A96FAA6F1B1FA81F101F06F
:10A850001F0205FA02F10842D6D1E06900286ED045
:10A8600001280AD0022808D040F24721AFF2701028
:10A8700002F0A2FFE069002861D07868C0F381008F
:10A8800002287DD0E0694FF0807602280AD096FA3F
:10A89000A6F1B1FA81F148F821A0FEF77BFF04464A
:10A8A0007600B3E0206A40B1B0F5803F05D04FF4A8
:10A8B0001471AFF2B41002F07FFF606A78B3B0F5A4
:10A8C000802F2CD0B0F5002F29D0B0F5402F26D006
:10A8D000B0F5801F23D0B0F5A01F20D0B0F5C01F69
:10A8E0001DD0B0F5E01F1AD0B0F5001F17D0B0F59D
:10A8F000101F14D0B0F5201F11D0B0F5301F0ED0AE
:10A90000B0F5401F0BD0B0F5501F08D0B0F5601F58
:10A9100005D040F25121AFF2182002F04DFF96FA17
:10A92000A6F15046B1FA81F1B246C14648F821007D
:10A93000FEF730FFA84606464FF0007505E07AE0C6
:10A94000FEF728FF801B02285DD895FAA5F0B0FA23
:10A9500080F040F02000400901D0386800E0786ABB
:10A9600095FAA5F1B1FA81F101F01F0208FA02F19E
:10A970000842E5D1206AB0F5803F11D1A06800E01F
:10A980005BE038B1584505D040F26721AFF2902026
:10A9900002F012FF7868A16820F400300843786064
:10A9A000D4E908010843796821F4741108437860F8
:10A9B0009AFAAAF0B0FA80F0464649F82080FEF7ED
:10A9C000E9FE044604E0FEF7E5FE001B02281AD863
:10A9D00095FAA5F0B0FA80F040F02000400901D0CF
:10A9E000386800E0786A95FAA5F1B1FA81F101F0D2
:10A9F0001F0106FA01F10842E5D01CE0FEF7CAFE8D
:10AA0000001B022802D90320BDE8F88F96FAA6F0B1
:10AA1000B0FA80F040F02000400901D0386800E032
:10AA2000786A96FAA6F1B1FA81F101F01F0105FAF0
:10AA300001F10842E2D10020E6E70120E4E700004E
:10AA40000070004010B54FF0E02404280AD020B177
:10AA50004FF4DF71054802F0AFFE206920F00400DA
:10AA6000206110BD206940F00400F9E754DB0008C4
:10AA700010B5401EB0F1807F01D3012010BD4FF012
:10AA8000E02460610F21601700F06CFD0020A061E0
:10AA900007202061002010BD10B5FFF7AFFA10BDF0
:10AAA00070B50D46044600682A4988420DD0B0F1C1
:10AAB000804F0AD02849884207D02849884204D0CC
:10AAC00040F28C61264802F077FE286890B1102889
:10AAD00010D020280ED030280CD040280AD0502882
:10AAE00008D0602806D0702804D040F28D611C4840
:10AAF00002F062FE6868802805D020B140F28E61C5
:10AB0000174802F059FE94F8380001281FD001219F
:10AB100084F83810022084F839002068426822F056
:10AB200070024260206842682B681A4342602068C5
:10AB3000826822F080028260206882686B681A4313
:10AB4000826084F83910002084F8380070BD02203B
:10AB500070BD0000002C01400004004000080040CF
:10AB600020DC000810B504002ED02149206888425E
:10AB70000CD0B0F1804F09D01E49884206D01E4942
:10AB8000884203D0D7211DA002F016FEA06858B15C
:10AB9000102809D0202807D0402805D0602803D0ED
:10ABA000D82116A002F008FE206948B1B0F5807FD8
:10ABB00006D0B0F5007F03D0D92110A002F0FCFD33
:10ABC00094F8390010B107E0012010BD002084F88E
:10ABD00038002046FFF713FA022084F83900211DBF
:10ABE000206801F0D7F9012084F83900002010BD59
:10ABF000002C014000040040000800402E2E5C2E76
:10AC00002E5C2E2E5C447269766572735C53544DD3
:10AC10003332463178785F48414C5F4472697665DB
:10AC2000725C5372635C73746D3332663178785F33
:10AC300068616C5F74696D2E630000002DE9F04758
:10AC4000044690F838000D4601283CD04FF0010929
:10AC500084F83890022084F8390028684FF480572F
:10AC60004FF40058B84215D0404513D090B1102889
:10AC700010D020280ED030280CD040280AD05028E0
:10AC800008D0602806D0702804D040F64B71C5A0CB
:10AC900002F092FD2068816821F0770121F47F4164
:10ACA0008160D14A2868CF49D04BD6134FF0804CF1
:10ACB00050287DD00FDC20287BD007DC002879D0FD
:10ACC000102878D13BE10220BDE8F087302873D00E
:10ACD0004028F6D1F7E060286FD04FF4405A702832
:10ACE00051D0B8423CD04045EBD1206888420AD0D0
:10ACF000604508D0904206D0984204D040F67A7160
:10AD0000A8A002F059FDA86850B1B84208D040454B
:10AD100006D0504504D040F67D71A2A002F04CFD53
:10AD20006868B04209D040B1022806D00A2804D091
:10AD300040F67E719BA002F03FFDE8680F2804D921
:10AD400040F67F7197A002F037FDD5E90121EB684D
:10AD5000206801F0A5F92068816841F4804153E042
:10AD6000206888420AD0604508D0904206D09842B8
:10AD700004D040F657718BA002F01EFD2068816858
:10AD800021F0070140E0206888420AD0604508D0E1
:10AD9000904206D0984204D04FF4766181A002F030
:10ADA0000BFDA86888B1B8420FD040450DD005E032
:10ADB0002CE0D5E0B2E080E0E3E052E0504504D082
:10ADC00040F6637177A002F0F7FC6868B04209D0E2
:10ADD00040B1022806D00A2804D040F6647171A060
:10ADE00002F0EAFCE8680F2804D940F665716DA00E
:10ADF00002F0E2FCD5E90121EB68206801F050F98E
:10AE00002068816841F07701816056E020688842BF
:10AE10000AD0604508D0904206D0984204D040F64F
:10AE20008E7160A002F0C8FC6868B04209D040B1E1
:10AE3000022806D00A2804D040F6917159A002F0E9
:10AE4000BBFCE8680F2804D940F6927155A002F0C7
:10AE5000B3FCEA686968206801F0D8FA50212068DC
:10AE600029E0206888420AD0604508D0904206D088
:10AE7000984204D040F69D714AA002F09DFC68689B
:10AE8000B04209D040B1022806D00A2804D04FF4BD
:10AE90007A6144A002F090FCE8680F2804D940F6DB
:10AEA000A17140A002F088FCEA686968206801F09E
:10AEB000BEFA6021206801F0FDF884F83990002086
:10AEC00084F8380000E7206888420AD0604508D03E
:10AED000904206D0984204D040F6AC7131A002F006
:10AEE0006BFC6868B04209D040B1022806D00A283D
:10AEF00004D040F6AF712BA002F05EFCE8680F288A
:10AF000004D94FF47B6127A002F056FCEA68696817
:10AF1000206801F07BFA40212068CCE72068884255
:10AF20000AD0604508D0904206D0984204D040F63E
:10AF3000BB711CA002F040FC00212068BBE7206828
:10AF400088420AD0604508D0904206D0984204D08A
:10AF500040F6C37113A002F02FFC10212068AAE76D
:10AF6000206888420AD0604508D0904206D09842B6
:10AF700004D040F6CB710BA002F01EFC202120680B
:10AF800099E7206888420AD0604508D0904206D0F0
:10AF9000984204D040F6D37102A002F00DFC30219B
:10AFA000206888E72E2E5C2E2E5C2E2E5C44726963
:10AFB000766572735C53544D3332463178785F480E
:10AFC000414C5F4472697665725C5372635C737462
:10AFD0006D3332663178785F68616C5F74696D2EAD
:10AFE00063000000002C0140000400400008004005
:10AFF0002DE9F041044690F8380016460D46012828
:10B000003CD0012784F8387066B1042E0AD0082E8F
:10B0100008D00C2E06D0182E04D040F60D415FA0AB
:10B0200002F0CAFB2868602806D0702804D040F6D9
:10B030000E415AA002F0C0FBA86830B1022804D02B
:10B0400040F60F4155A002F0B7FB286930B1042843
:10B0500004D04FF4416151A002F0AEFB022084F80D
:10B0600039005E495E4A5F4B4FF0804C4EB1042E72
:10B0700028D0082E49D00C2E46D167E00220BDE82A
:10B08000F081206888420AD0604508D0904206D0FE
:10B09000984204D040F6184140A002F08DFB2946AA
:10B0A000206801F00FF82068816941F00801816192
:10B0B0002068816921F004018161206881692A6921
:10B0C000114320E0206888420AD0604508D09042B1
:10B0D00006D0984204D040F6274130A002F06CFB25
:10B0E0002946206801F05CF82068816941F400611C
:10B0F00081612068816921F48061816120688169B2
:10B100002A6941EA0221816142E0206888420AD02E
:10B11000604508D0904206D0984204D040F63641AF
:10B120001EA002F049FB2946206801F0ABF8206818
:10B13000C16941F00801C1612068C16921F00401C1
:10B14000C1612068C1692A69114320E020688842F2
:10B150000AD0604508D0904206D0984204D040F60C
:10B1600045410EA002F028FB2946206801F0FCF8BA
:10B170002068C16941F40061C1612068C16921F49E
:10B180008061C1612068C1692A6941EA0221C16107
:10B1900084F83970002084F8380070E72E2E5C2E79
:10B1A0002E5C2E2E5C447269766572735C53544D2E
:10B1B0003332463178785F48414C5F447269766536
:10B1C000725C5372635C73746D3332663178785F8E
:10B1D00068616C5F74696D2E63000000002C014093
:10B1E000000400400008004010B5040031D023499D
:10B1F000206888420DD0B0F1804F0AD020498842A3
:10B2000007D02049884204D040F2E2311EA002F06B
:10B21000D3FAA06860B110280AD0202808D04028AE
:10B2200006D0602804D040F2E33117A002F0C4FA3F
:10B23000206950B1B0F5807F07D0B0F5007F04D011
:10B240004FF4797110A002F0B7FA94F8390010B1F8
:10B2500007E0012010BD002084F83800204600F0EF
:10B2600033F8022084F83900211D206800F092FE96
:10B27000012084F83900002010BD0000002C01409E
:10B2800000040040000800402E2E5C2E2E5C2E2E66
:10B290005C447269766572735C53544D3332463147
:10B2A00078785F48414C5F4472697665725C53728E
:10B2B000635C73746D3332663178785F68616C5F9C
:10B2C00074696D2E630000007047000070B505467C
:10B2D00000681D4E0C46B04206D10CB3042C1FD0A2
:10B2E000082C1DD00C2C1BD0B0F1804F0CD017496E
:10B2F000884206D1A4B1042C12D0082C10D00C2CFA
:10B300000ED01349884206D154B1042C08D0082C21
:10B3100006D00C2C04D04FF488610EA002F04CFA39
:10B3200001222146286800F067FE2868B04203D158
:10B33000416C41F4004141642868016841F0010119
:10B340000160002070BD0000002C0140000400409E
:10B35000000800402E2E5C2E2E5C2E2E5C4472695E
:10B36000766572735C53544D3332463178785F485A
:10B37000414C5F4472697665725C5372635C7374AE
:10B380006D3332663178785F68616C5F74696D2EF9
:10B390006300000070B505460068264E0C46B042BA
:10B3A00006D10CB3042C1FD0082C1DD00C2C1BD0A4
:10B3B000B0F1804F0CD02049884206D1A4B1042CB2
:10B3C00012D0082C10D00C2C0ED01C49884206D16B
:10B3D00054B1042C08D0082C06D00C2C04D04FF407
:10B3E0008C6117A002F0E8F900222146286800F0DD
:10B3F00003FE41F2111228689310B04209D1016A8C
:10B40000114206D1016A194203D1416C21F4004175
:10B4100041642868016A114206D1016A194203D1C8
:10B42000016821F001010160012085F83900002048
:10B4300070BD0000002C01400004004000080040E6
:10B440002E2E5C2E2E5C2E2E5C44726976657273F5
:10B450005C53544D3332463178785F48414C5F44F9
:10B4600072697665725C5372635C73746D333266B5
:10B470003178785F68616C5F74696D2E63000000DD
:10B48000704738B5044600680168C268C1F300011E
:10B4900002F4807221B11AB1E16B41F00101E16364
:10B4A0000168C1F34002416901F0010122B119B103
:10B4B000E26B42F00402E2630268C2F3800222B14E
:10B4C00019B1E26B42F00202E2630268C2F3C00209
:10B4D00022B119B1E16B41F00801E1630168C06874
:10B4E000C1F3401100F0200019B110B1204601F065
:10B4F00017F820680168C068C1F3C01100F080002F
:10B5000019B110B1204601F05EF821680868CA68D8
:10B51000C0F3801002F04002012568B162B1CA6830
:10B52000204622F04002CA6094F83910322910D027
:10B5300080F8395000F012F8E06B002808D020683D
:10B5400001684068009084F839502046FFF798FF62
:10B5500038BD222180F83910ECE770477047FEE7CC
:10B56000FEE7FEE70907090E002806DA00F00F00E3
:10B5700000F1E02080F8141D704700F1E02080F811
:10B5800000147047BFF34F8F05480168054A01F466
:10B59000E06111430160BFF34F8F00BFFDE7000082
:10B5A0000CED00E00400FA052DE9FC5F04460020E4
:10B5B000ADF80000ADF8040040F68F7B4FF00609AF
:10B5C0004FF0020A4FF4806884E1BDF8001011F0DA
:10B5D0000F0628D030F82610ADF80410BDF804107E
:10B5E000090475D530F8261001EA0B0120F8261061
:10B5F00004EB461595F8120205F50275002820683F
:10B6000067D0297830F82120B0F8503052047CD52A
:10B610000AEBC1015A1808EB4201415A8F05BF0DD0
:10B6200074D0EA88C7E0BDF80010C9062CD40188A0
:10B6300048F60F7211400180206804F12805B0F827
:10B6400050202B780AEBC3010A4408EB4201405A10
:10B65000C0F309006064E16B0844E0630021204608
:10B66000FEF78FF994F824000028ADD0A8690028CF
:10B67000AAD194F82400216840F08000A1F84C0081
:10B68000002084F8240025E1018804F50275ADF856
:10B690000410BDF8041009051CD5B0F850202B7813
:10B6A00009EBC3010A4408EB4201405A04F57B71DF
:10B6B000C0F30903EB61AA88206802F044F820680F
:10B6C000018801EA0B0101802046FEF796FB01E1AB
:10B6D00095E054E0BDF804100904D4D5018801EACE
:10B6E0000B0101802068B0F850202B78464609EB0A
:10B6F000C301114408EB4101405A83059B0DEB61E6
:10B700000BD0AA886969206801E04AE057E002F09E
:10B710001AF8E96968690844686100212046FEF763
:10B7200037F92068B0F85010891D06EB4101421826
:10B7300028693E280CD9C0F34F11C00601D1491E1B
:10B7400089B24FF6FF7000EA812040F4004009E022
:10B75000C0F34F01C00701D0491C89B24FF6FF70FA
:10B7600000EA81201060206801884BF68F7211403A
:10B7700081F4405148F2800211430180AAE0B0F800
:10B7800050202B7809EBC3010A4408EB4201415ACF
:10B790008F05BF0D1FD0AA883B46696901F0D3FF12
:10B7A00019E009EBC1015A1808EB4201415A8F0513
:10B7B000BF0D04D02A893B46696901F0C4FF29788E
:10B7C000206830F8212048F68F731A4048F2C003F1
:10B7D0001A4320F82120E8693844E8616869C219F1
:10B7E0006A61AB6913B12869B84204D92978204647
:10B7F000FEF7CEF803E029782046FEF73FF9BDF8C2
:10B800000400000666D5206804EB461530F82610C3
:10B8100048F60F72114020F8261095F832002835AE
:10B820000028206812D0297830F82120B0F8503054
:10B8300052061ED50AEBC1015A1808EB4201405AC4
:10B8400083059B0DEB6123D0EA881DE0B0F8502002
:10B850002B780AEBC3010A4408EB4201405A8305E6
:10B860009B0DEB6120D0AA886969206801F081FFF7
:10B870001AE009EBC1015A1808EB4201405A83054E
:10B880009B0DEB6104D02A896969206801F071FF82
:10B890002978206830F8212048F68F731A404CF23E
:10B8A00080031A4320F821202068B0F850202B781C
:10B8B0000AEBC3010A4408EB4201405AC0F30900F5
:10B8C000E86169690A186A612978AB69204663B141
:10B8D000FEF71FF92068B0F84410ADF80010090415
:10B8E0003FF573AE0020BDE8FC9FFEF74AF8F1E794
:10B8F0007047704710B586B00024FDF7FDFC0020AE
:10B90000009001900748039004200490694601A824
:10B91000FDF7A6FB00B10124FDF756FC06B020465A
:10B9200010BD000000F000082DE9F04190460D46E2
:10B9300006460027FDF7E0FC00240BE055F8242024
:10B9400006EB840100230220FDF748FC08B1012723
:10B9500002E0641C4445F1D3FDF736FC3846BDE8EF
:10B96000F08110B5FFF7C6FF002010BD10B5FF2213
:10B9700004211348FCF7F8FB124C1149204600F053
:10B9800093F800281AD10E48FF220421001FFCF76B
:10B99000EBFB0B492046091F00F018F800280DD1D9
:10B9A000FF2248210848FCF7DFFB0548064A001F34
:10B9B00001682046BDE8104000F03AB810BD000014
:10B9C0009021002000F00008702C002070B50D467A
:10B9D000040003D1CD210EA0FCF7D4FC1DB9CE216B
:10B9E0000BA0FCF7CFFC002110480A4604EB8203B1
:10B9F0005B68834204D12A60521C102AF6D305E00A
:10BA000004EB82004068401C00D00121084670BD54
:10BA10002E2E5C4D6F64756C65735C7372635C7322
:10BA2000746F726167652E63000000006745230133
:10BA30002DE9F04117460E46050004D14FF4A471DC
:10BA400012A0FCF79FFC27B940F249110FA0FCF7A8
:10BA500099FC0024102E0FD206EB860005EB001592
:10BA6000686CB04208D105F14C0006464821FCF74D
:10BA700053FEA96C814201D0012404E031464822E2
:10BA80003846FCF75FFB2046BDE8F0812E2E5C4D6A
:10BA90006F64756C65735C7372635C73746F7261F1
:10BAA00067652E630000000070B50C46050003D1E9
:10BAB0009C2106A0FCF766FC1CB99D2103A0FCF7A5
:10BAC00061FC29680020216070BD00002E2E5C4DB5
:10BAD0006F64756C65735C7372635C73746F7261B1
:10BAE00067652E63000000000A4602490968491C88
:10BAF00000F05EB88C21002038B50C46050003D15B
:10BB0000AE210DA0FCF73EFC102C03D3AF210AA000
:10BB1000FCF738FC05EB8403002059680D4A4C1CE7
:10BB200003D0914200D0012038BD00926946012225
:10BB3000181DFFF7F9FE38BD2E2E5C4D6F64756C35
:10BB400065735C7372635C73746F726167652E6397
:10BB5000000000006745230170B515460C4606003D
:10BB600003D1EF210BA0FCF70DFC1DB9F02109A0BA
:10BB7000FCF708FC102C01D3012070BD04EB8400FD
:10BB800006EB00102946BDE8704014224430FFF750
:10BB9000CBBE00002E2E5C4D6F64756C65735C73BC
:10BBA00072635C73746F726167652E6300000000DE
:10BBB000F0B595B015460C46060004D140F22511AB
:10BBC00016A0FCF7DFFB25B94FF4937113A0FCF727
:10BBD000D9FB02A8482229460746FCF7B3FA164DBE
:10BBE0002868A0420DD0102C06D30024FFF782FE57
:10BBF000291D124800F024F8214630462C60FFF73A
:10BC00007BFF482138460094FCF786FD01906A4688
:10BC100021463046FFF7A0FF15B0F0BD2E2E5C4D3B
:10BC20006F64756C65735C7372635C73746F72615F
:10BC300067652E63000000008C21002000F00008E2
:10BC400038B50D46040003D1802108A0FCF79AFB0B
:10BC50002068401C01D0012038BD29680091204691
:10BC600069460122FFF760FE38BD00002E2E5C4DB4
:10BC70006F64756C65735C7372635C73746F72610F
:10BC800067652E63000000002DE9F04706003ED0F6
:10BC90000027DFF88090DFF880803D4605EB450007
:10BCA00000EB051008EB80044146E06840BBD9F882
:10BCB000000030606060B068E0607068012740B9E3
:10BCC000086800EB400202EB001001EB8000806886
:10BCD000401CA06004F11000402206F10C01FCF7AA
:10BCE00031FAD9F800100020491CC9F80010C8F832
:10BCF0000000A168D8F80800814201D9C8F80050B6
:10BD00006D1C17B10020BDE8F0870A2DC6D30120B5
:10BD1000F9E7000094210020B82C002010B5FCF7B2
:10BD200079FB0A4800214A1E0160C0E90212402244
:10BD300007491030FCF706FA064C2068401C2060CA
:10BD4000FDF728FDA060606010BD0000B82C002049
:10BD5000B4D8000894210020F0B5A8B10024194BF4
:10BD60002146254601EB410202EB011203EB820260
:10BD7000D66836B156680768BE4202D1D560012444
:10BD80009560491C14B103E00120F0BD0A29E9D3F4
:10BD9000002000EB400101EB001103EB8101CA68B8
:10BDA0005AB18A68196801EB410404EB011103EBF5
:10BDB000810189688A4200D91860401C0A28E8D3AA
:10BDC0000020F0BDB82C00202DE9F041FDF7E2FC89
:10BDD0003E4948608A6890422AD03D4F8860A7F566
:10BDE0003F7439682568002604F54178A9420CD0D3
:10BDF00005EB450000EB051004EB8001C7E9005698
:10BE000040224046091DFCF79DF9786807EB800049
:10BE1000806800280EDDFCF72DFB786807EB8001B9
:10BE20008868401E88607968002801DC491C7960B8
:10BE3000BDE8F0810ADAFCF713FB786807EB8001B4
:10BE40008868401C88607968F0D5F1E705EB45000B
:10BE500000EB051004EB8000C1684A1C09D0491EA4
:10BE6000C160206800EB400202EB001004EB800090
:10BE70000ED07E602068402200EB400101EB0010F4
:10BE800004EB80014046BDE8F0411031FCF75AB99F
:10BE90008660002000EB400101EB001104EB810102
:10BEA000CA685AB18A68216801EB410303EB0111AA
:10BEB00004EB810189688A4200D92060401C0A286D
:10BEC000E8D3BDE8F041FCF7CBBA00009421002094
:10BED000B42F002010B5FDF763FCBDE81040FEF75D
:10BEE000DBBD30B593B001210804CDE9001000247A
:10BEF000029402250491CDE907504FF4E010099017
:10BF00006846FEF711FA0F20CDE90A056802CDE96F
:10BF10000C4002210AA80E94FEF774F810200F902E
:10BF200012940FA8FDF79CFFFEF7B4F94FF47A7155
:10BF3000B0FBF1F0FEF79CFD0420FEF783FD00222C
:10BF40001146501EFDF7ACFC13B030BD0D48016822
:10BF500041F00101016041680B4A114041600168F4
:10BF60000A4A11400160016821F4802101604168A2
:10BF700021F4FE0141604FF41F0181600449C003B8
:10BF800008607047001002400000FFF8FFFFF6FE57
:10BF900008ED00E0F0B50268144C154D154E4FF059
:10BFA0008047A04205D0B84203D0A84201D0B04299
:10BFB00003D122F070034A681A43A04205D0B84268
:10BFC00003D0A84201D0B04203D122F44073CA6822
:10BFD0001A4302608A68C2620A688262A04201D182
:10BFE0000969016301214161F0BD0000002C01409D
:10BFF000000400400008004070B50446154816468D
:10C000000D4684420DD0B4F1804F0AD012488442CC
:10C0100007D01248844204D041F2EB4110A001F055
:10C02000CBFB65B1042D0AD0082D08D00C2D06D00D
:10C03000182D04D041F2EC4109A001F0BDFB012014
:10C04000216AA84081432162206AAE4030432062C9
:10C0500070BD0000002C01400004004000080040BA
:10C060002E2E5C2E2E5C2E2E5C44726976657273C9
:10C070005C53544D3332463178785F48414C5F44CD
:10C0800072697665725C5372635C73746D33326689
:10C090003178785F68616C5F74696D2E63000000B1
:10C0A00010B5846842EA032224F47F440A43224301
:10C0B000826010BD826822F070020A4342F00701DC
:10C0C000816070472DE9F0470446006A0D4620F074
:10C0D00001002062216A6768A0692A6820F0730065
:10C0E00042EA0008AE6821F00200DFF870900643D3
:10C0F0004C450ED1E86830B1082804D041F2152132
:10C1000017A001F059FBE96826F00800014321F06F
:10C1100004064C4519D1A869B0F5007F05D020B1BF
:10C1200041F222210EA001F047FB6869B0F5807F43
:10C1300005D020B141F2232109A001F03DFB27F4F5
:10C1400040716869AF69084307436760C4F81880A5
:10C15000686860632662BDE8F0870000002C01403B
:10C160002E2E5C2E2E5C2E2E5C44726976657273C8
:10C170005C53544D3332463178785F48414C5F44CC
:10C1800072697665725C5372635C73746D33326688
:10C190003178785F68616C5F74696D2E63000000B0
:10C1A0002DE9F0470446006A0D4620F01000206299
:10C1B000206A6768A1692A6821F4E64141EA0228F9
:10C1C000A968DFF87C9020F0200040EA01164C4579
:10C1D0000FD1E86830B1082804D041F25F2119A0DE
:10C1E00001F0EAFAE96826F0800040EA011020F048
:10C1F00040064C451BD1A869B0F5007F05D020B1A1
:10C2000041F26D210FA001F0D7FA6869B0F5807F87
:10C2100005D020B141F26E210AA001F0CDFA696982
:10C2200027F4406040EA8100A96940EA810767601D
:10C23000C4F818806868A0632662BDE8F087000033
:10C24000002C01402E2E5C2E2E5C2E2E5C4472693A
:10C25000766572735C53544D3332463178785F485B
:10C26000414C5F4472697665725C5372635C7374AF
:10C270006D3332663178785F68616C5F74696D2EFA
:10C28000630000002DE9F0470446006A0D4620F4E3
:10C2900080702062206A6768E1692A6821F0730172
:10C2A00042EA0108A968DFF87C9020F4007040EAB7
:10C2B00001264C450FD1E86830B1082804D041F27E
:10C2C000AA2119A001F078FAE96826F4006040EA92
:10C2D000012020F480664C451BD1A869B0F5007F91
:10C2E00005D020B141F2B7210FA001F065FA6869CD
:10C2F000B0F5807F05D020B141F2B8210AA001F04D
:10C300005BFA696927F4405040EA0110A96940EAE4
:10C3100001176760C4F81C806868E0632662BDE8A6
:10C32000F0870000002C01402E2E5C2E2E5C2E2E5D
:10C330005C447269766572735C53544D3332463196
:10C3400078785F48414C5F4472697665725C5372DD
:10C35000635C73746D3332663178785F68616C5FEB
:10C3600074696D2E630000002DE9F0410446006AF7
:10C370000D4620F480502062206A6668E1692A68D0
:10C3800021F4E64141EA0228A96820F4005040EA7D
:10C3900001370D4884420ED16869B0F5807F05D021
:10C3A00020B141F2F52109A001F006FA696926F4ED
:10C3B000804040EA81166660C4F81C80686820648A
:10C3C0002762BDE8F0810000002C01402E2E5C2E7B
:10C3D0002E5C2E2E5C447269766572735C53544DEC
:10C3E0003332463178785F48414C5F4472697665F4
:10C3F000725C5372635C73746D3332663178785F4C
:10C4000068616C5F74696D2E6300000010B5046A8A
:10C41000036A23F001030362836923F0F00343EA14
:10C42000021324F00A020A438361026210BD10B5B0
:10C43000036A23F0100303628469036A24F47044DE
:10C4400044EA023223F0A00343EA0111826101624F
:10C4500010BD000010B5FCF723F80020034A014688
:10C460001154401C0228FBD310BD0000C021002045
:10C4700070B5FDF78FF90A4908604A6890420DD0FF
:10C48000002401F1080548602957002900DA4942D3
:10C490002046FCF7ADF8641C022CF5D370BD0000FB
:10C4A000B821002010B50020FBF76EFF0120FBF73C
:10C4B0006BFF0220FBF768FFBDE810400320FBF78D
:10C4C00063BF000010B5FDF765F914494A68904252
:10C4D00023D048600C4600202070FBF785FF18B180
:10C4E000207840F0010020700120FBF77DFF18B19B
:10C4F000207840F0020020700220FBF775FF18B191
:10C50000207840F0040020700320FBF76DFF002826
:10C5100003D0207840F00800207010BDB02100202A
:10C5200010B590F83910222903D0322901D0022009
:10C5300010BD8168B1F5805F11D0016900290168E3
:10C540001FD0496801F07F03816A4A1C82620B7028
:10C55000C18D491E0904090CC18518D02FE002695C
:10C56000816A002A0268526805D0D2B20A80816AC4
:10C57000491C8162ECE7C2F308020A80816A891CC7
:10C58000F7E74A68816A4B1C83620A70E0E701683A
:10C59000CA6822F02002CA6090F83910322910D0FF
:10C5A0000168CA6822F48072CA6001684A6922F090
:10C5B00001024A61012180F83910FEF7CEFF002008
:10C5C00010BD1221F7E790F83910122903D0322953
:10C5D00001D0022070478168B1F5805F016A0BD0FD
:10C5E0004A1C0262026809785160C18C491E090424
:10C5F000090CC1840ED017E009880268C1F3080154
:10C60000516001690029016A02D0491C0162ECE70E
:10C61000891CFBE70168CA6822F08002CA600068D2
:10C62000C16841F04001C160002070470148FEF739
:10C6300028BF0000E8210020D0F8180220B1002116
:10C64000C0F81412084670470220704770B50546BE
:10C65000D0F8184200F01CFBC4F80C02D5F8180200
:10C6600048B1D5F81C12D4F80402CA6804F5037165
:10C670009047002070BD022070BD70B504460025B3
:10C68000812100F074FA0121204600F070FA822125
:10C69000204600F06CFAD4F8180250B1D4F81C020D
:10C6A00004F5067440688047206800F03FFD0020D4
:10C6B0002060284670BD10B5D0E9864159B194F884
:10C6C0000002FF2807D08B6894F801222146984782
:10C6D000FF2084F80002002010BD00000A21018024
:10C6E00000487047382000204321018000487047EF
:10C6F000882000204321018000487047442000200A
:10C700004321018000487047CC2000202DE9F041F2
:10C710000546007C00264FF4007770B340230222C8
:10C720008121284600F004FB4023022201212846F3
:10C7300000F0FEFA082303228221284600F0F8FACE
:10C740004FF4077000F0F4FCC5F81802F0B104468D
:10C75000D5F81C02006880470021C4F81412C4F800
:10C760001812287CD4F8042290B1402301212846D5
:10C7700000F0E8FA3046BDE8F081FFE73B460222D0
:10C780008121284600F0D4FA3B46CEE70126F1E7A6
:10C790003B46EBE700B50968FCF7AEF9002000BDA9
:10C7A00010B5D0F8181269B1027C002AD1F8042221
:10C7B00005D04023012100F0C5FA002010BD4FF440
:10C7C0000073F7E7022010BD02460220002902D0C4
:10C7D0000020C2F81C127047D0F81802C0F80412EA
:10C7E00000207047D0F81802C0F81022C0F80812D4
:10C7F0000020704770B50646D0F8185208780C46ED
:10C8000010F0600121D0202927D1E288AAB10006CA
:10C81000607807D5D6F81C128B6829469847E288BD
:10C82000294617E085F80002A07985F80102E28820
:10C830002946304600F050F80FE0D6F81C12607818
:10C8400000228B682146984707E060780A2804D1C7
:10C8500003490122304600F059F8002070BD000065
:10C860003420002010B5D0F8181289B1D1F8142264
:10C870000AB1012010BD0122C1F81422B1F8102222
:10C8800093B2D1F80822812100F0E2FA002010BD15
:10C89000022010BD10B5D0F8142252689047002035
:10C8A00010BD134610B50A46002100F04BFA0020D7
:10C8B00010BD134610B50A46002100F0C9FA002049
:10C8C00010BD10B50446802100F0ABFA2046BDE84B
:10C8D0001040002100F0A5BA10B50323C0F80821CC
:10C8E000C0F8F431C0F80C2113460A46002100F0CC
:10C8F00029FA002010BD10B505210023C0F8F4115D
:10C900001A46194600F01EFA002010BD10B5022389
:10C910008261C0F8F431C26113460A46002100F07A
:10C9200097FA002010BD10B504210023C0F8F411BF
:10C930001A46194600F08CFA002010BD10B50A46C0
:10C94000024903A000F0D4F8004810BD702A00206E
:10C9500043444320436F6E666967000012200880DD
:10C96000004870477821002010B50A46024903A00C
:10C9700000F0BEF8004810BD702A00204344432058
:10C98000496E74657266616365000000042008806A
:10C99000004870477421002010B50A46024903A0E0
:10C9A00000F0A6F8004810BD702A002053544D69CD
:10C9B00063726F656C656374726F6E696373000098
:10C9C00010B50A46024903A000F092F8004810BDD5
:10C9D000702A002053544D333220566972747561A9
:10C9E0006C20436F6D506F727400000010B50A46E2
:10C9F000024903A000F07CF8004810BD702A002016
:10CA000030303030303030303030314100000000D4
:10CA1000F8B5044648880D46010A08294BD2DFE8DC
:10CA200001F04A0409174A4A4048D4F81012207C01
:10CA30000A6832E0207C02260028D4F8140205D0CF
:10CA4000C16A684688470146467041E0816AF8E756
:10CA5000C0B206282FD2DFE800F003080D12171C21
:10CA6000D4F81012207C4A6817E0D4F81012207C09
:10CA70008A6812E0D4F81012207CCA680DE0D4F85D
:10CA80001012207C0A6908E0D4F81012207C4A6950
:10CA900003E0D4F81012207C8A6969469047014669
:10CAA00016E0207C38B9D4F81402416B68468847F8
:10CAB000F5E7207C20B129462046FFF702FFF8BDAC
:10CAC000D4F81402016B6846884701460720487075
:10CAD000BDF800000028F2D0EA88002AEFD0824298
:10CAE00000D90246ADF800202046FFF70FFFF8BD41
:10CAF00070B5002300281DD00446002502E06D1CFF
:10CB0000EDB2641C2678002EF9D1022404EB450412
:10CB10001480CC545B1C0322CA5400245B1C06E026
:10CB2000CA545B1CDAB28C54521CD3B2401C02783B
:10CB3000002AF5D170BD10B580B1D0F8143213B110
:10CB40000023C0F8143209B1C0F81012012180F896
:10CB5000FC11027000F0A0F8002010BD022010BDF2
:10CB600010B5D0F82002FCF73BFF002010BD10B537
:10CB7000D0F82002FCF714FF002010BD2DE9F04191
:10CB80001746044641B1D4F8140242698AB394F8B6
:10CB9000FC01032842D043E0D4F8F411002504F14D
:10CBA0001400022933D1D0E902639E4207D9F31A57
:10CBB00083609AB239462046FFF77BFE12E0406858
:10CBC000B0FBF3F103FB1101A1B9984212D3D4F8E1
:10CBD000F81188420ED2002211462046FFF769FE66
:10CBE000C4F8F85100231A461946204600F0AAF866
:10CBF0000DE012E0D4F81402C16829B194F8FC01E8
:10CC0000032801D1204688472046FFF774FE94F898
:10CC10000002012804D184F8005201E02046904728
:10CC20000020BDE8F08170B51546044641B1D4F846
:10CC3000140282693AB394F8FC01032824D025E059
:10CC4000D4F8F41104F5827003291FD1D0E9023120
:10CC50008B420BD95B1A83600846834200D303469C
:10CC60009AB229462046FFF71CFE0FE0D4F81402C2
:10CC7000016929B194F8FC01032801D120468847B5
:10CC80002046FFF750FE01E020469047002070BD8F
:10CC9000D0F82002FCF7C8BE10B504461B481C495A
:10CCA000C0F81C44C4F82002016008214160022140
:10CCB00081600321C16000218161C161016204F5CD
:10CCC0000874FCF7CBFF0022182311462068FCF7FC
:10CCD0003DFE5823002280212068FCF737FEC02348
:10CCE000002281212068FCF731FE4FF48873002276
:10CCF00001212068FCF72AFE4FF480730022822174
:10CD00002068FCF723FE002010BD00005026002004
:10CD1000005C00400A06D0F8200201F07F0100EB21
:10CD2000411002D590F82A00704790F80A02704727
:10CD300010B51C461346D0F820022246FCF77CFEB4
:10CD4000002010BD10B5D0F82002FCF797FE00209F
:10CD500010BD70B50022044640231146FFF7E8FFDE
:10CD600040252B46002280212046C4F81051FFF7B1
:10CD7000DFFF0120256284F8FC01D4F8180228B1F5
:10CD8000D4F814022179426820469047002070BDF3
:10CD900090F8FD1180F8FC110020704710B590F854
:10CDA000FC11032904D1D0F81412C96901B18847D4
:10CDB000002010BD01740020704710B5D0F820028B
:10CDC000FDF707F8002010BD70B5044600F50270AD
:10CDD000054600F044F80120C4F8F401B4F80E024E
:10CDE000C4F8F80194F8082212F01F000AD00128B4
:10CDF0000DD0022810D002F08001204600F011F87A
:10CE0000002070BD2946204600F08FF8F8E729463B
:10CE1000204600F071F9F3E72946204600F0FEF8BD
:10CE2000EEE710B5D0F82002FCF748FE002010BD58
:10CE300010B5D0F82002FCF7E7FF002010BD90F8F5
:10CE4000FC1180F8FD11042180F8FC1100207047CE
:10CE500010B5D0F82002FCF75CFE002010BD0A7867
:10CE600002704A7842708A78CB7802EB03224280C3
:10CE70000A794B7902EB032282808A79C97902EB25
:10CE80000121C18070470246002011B1C2F814127E
:10CE900070470220704710B5D0F8142202241AB14E
:10CEA0001268904700B90024204610BD70B50D46A9
:10CEB0001A4E897804463170012928D894F8FC016B
:10CEC000022802D0032822D105E099B10320616035
:10CED00084F8FC0109E091B1606888420AD0C1B2CF
:10CEE0002046FFF7D7FC317861602046FFF7D3FF7B
:10CEF00002280CD02046BDE87040FFF714BD022088
:10CF000084F8FC0120466160FFF7C4FCF2E7294683
:10CF10002046BDE87040FFF7D4BC00000820002088
:10CF200010B5FFF785FF002010BD2DE9F041002767
:10CF30004A7801263B460A2A43D2DFE802F03C58F1
:10CF40004251420805422A27FFF762FD63E004468A
:10CF50008888C8B9C888B8B9887800F07F0594F87F
:10CF6000FC01032810D084F8FE5129462046FFF723
:10CF700024FF2046FFF7D7FC1DB1022084F8FC01F6
:10CF800049E084F8FC6146E020461AE0FFF78EFF96
:10CF900041E0CA88012A14D190F8FC21022A02D06B
:10CFA000032A0ED104E0012200F10801836014E09D
:10CFB0000122011D11E090F8FC21022A04D0032A6D
:10CFC00002D0FFF77EFC26E0C660D0F8041209B15B
:10CFD0000321C160022200F10C01FFF797FC1AE067
:10CFE00004464888012816D1C4F804620BE00446C0
:10CFF00090F8FC01022801D00328C5D148880128F7
:10D0000009D1C4F80432D4F814028268204690474B
:10D010002046FFF788FC3846BDE8F08170B50D4624
:10D020000446287800260979C0F34110012806D06B
:10D030006878A0B301281FD003283FD107E0D4F8B7
:10D0400014022946826820469047002070BD94F85B
:10D05000FC01022817D003282CD1688828B921B1F7
:10D06000802902D02046FFF7DCFED4F814022946BE
:10D0700082682046904713E094F8FC01022802D011
:10D08000032817D103E0C9B180291BD116E06888B5
:10D09000A0B9480604D02046FFF762FDE5E703E0AB
:10D0A0002046FFF740FC09E094F8FC01022807D075
:10D0B00003280BD029462046FFF703FC304670BDFD
:10D0C0004806FBD02046FFF7ACFEF7E7080601F064
:10D0D0007F0004EB001501D5143501E005F58275DC
:10D0E0002046FFF717FE00B10120286002222946E2
:10D0F0002046FFF70BFCE1E770B5054690F8FC0110
:10D100000C4603280DD1207901280AD8D5F814023D
:10D11000826828469047E08830B92846FFF703FC2C
:10D1200002E02846FFF7CDFB002070BD70470000ED
:10D1300000487047302400202DE9F047CB780A786A
:10D1400048F68F1433B1012B67D0022B08D0032B84
:10D150000BD17FE030F82230234043F4007302E02B
:10D1600030F82230234020F822300A7830F822406C
:10D1700048F68F731C4048F280052C43144320F876
:10D1800022408A7A48F6BF794FF0040C4BF68F7A2A
:10D1900048F2C0044CF28007F2B30A7830F82260FB
:10D1A00048F280181E4046EA080620F82260CA8825
:10D1B000B0F8506022F0010291F8008006EBC8063A
:10D1C00000EB4606C6F800240A89B0F8506022F049
:10D1D000010291F800800CEBC80C664400EB460697
:10D1E000C6F800244A78002A0A7830F822604FEA0C
:10D1F00046467DD0002E05DA30F822601E403E43C0
:10D2000020F822600A7830F82260760608D530F8D7
:10D2100022601E40264301E028E021E020F8226041
:10D220000A7830F822401C403C4320F822400A781B
:10D2300030F8223003EA09032B4320F82230097822
:10D2400030F8212002EA0A022A4320F82120002097
:10D25000BDE8F08730F82230234043F4C06382E712
:10D2600030F82230234043F480637CE74A78002A78
:10D270008A8822F001021BD0B0F850600F7806EBCC
:10D28000C70600EB4606C6F800240A7830F822608C
:10D29000760605D530F822601E40264320F822602D
:10D2A000097830F8212002EA090282F02002CBE757
:10D2B000B0F850400E780CEBC606344400EB440442
:10D2C000C4F80024B0F850200C78062606EBC404FD
:10D2D000224400EB42060A694FF6FF7C06F58066A1
:10D2E0003E2A0CD9C2F34F14D20603D1641E00E0CB
:10D2F00021E0A4B20CEA842242F4004207E0C2F327
:10D300004F04D20701D0641CA4B20CEA842232601C
:10D310000A7830F82240640405D530F822401C40D9
:10D320003C4320F82240097830F8212002EA0A0222
:10D3300082F4405288E7002E05DA30F822601E4061
:10D340003E4320F822600A7830F82260760605D540
:10D3500030F822601E40264320F822600A7830F818
:10D3600022601E40264320F822600A7830F82230DE
:10D3700003EA0A0383F440532B4320F82230097850
:10D3800030F8212002EA09025EE7002070472DE90B
:10D39000F04391F80A804C780A7848F6BF794BF64A
:10D3A0008F7748F2800548F2C0064CF2800C48F6B0
:10D3B0008F73B8F1000F2AD0002C30F822404FEACA
:10D3C000444449D0002C06DA30F822401C4044EA9C
:10D3D0000C0420F822400A7830F82240640605D573
:10D3E00030F822401C40344320F822400A7830F8BC
:10D3F00022401C4044EA0C0420F822400A7830F80D
:10D40000223003EA09032B4320F822301AE0002CD3
:10D4100030F822400DD0640605D530F822401C407B
:10D42000344320F82240097830F8212002EA09022A
:10D430000CE0640406D530F822401C4044EA0C0499
:10D4400020F82240097830F821203A402A4320F879
:10D4500021200020BDE8F083002C06DA30F82240BD
:10D460001C4044EA0C0420F822400A7830F822409C
:10D47000640605D530F822401C40344320F8224091
:10D480000A7830F822401C40344320F822400A78C1
:10D4900030F822303B402B4320F82230C3E70020F5
:10D4A000704700207047012120F8401F00210180B3
:10D4B000818001820846704730F8401F21F43D41C9
:10D4C0000180002070470020704730B54C780A7802
:10D4D000002C48F68F7530F8224048F2800312D0B5
:10D4E000640607D530F822402C4048F2C0052C4392
:10D4F00020F82240097830F8212048F6BF742240F5
:10D5000082F0300211E0640407D530F822402C404C
:10D510004CF280052C4320F82240097830F8212075
:10D520004BF68F74224082F440521A4320F8212097
:10D53000002030BD10B50A7848F2800352B1497816
:10D54000002930F8221010D048F6BF74214081F035
:10D5500010010FE001884BF6BF72114081F4805139
:10D5600081F010011943018007E04BF68F742140D0
:10D5700081F48051194320F82210002010BD2DE9BC
:10D58000F0410D460646896995F801C00023AA7A44
:10D59000022728690C4648F28008BCF1010F05D02B
:10D5A000814252D90446081AA8614FE0814203D94A
:10D5B0000446081AA86100E0AB617AB1287836F811
:10D5C00020104906B6F8501007EBC000084406EBDF
:10D5D0004000C0F8004412D52A8911E0A3B2AA88FD
:10D5E0003046696900F0C5F8B6F85000297807EBB5
:10D5F000C101084406EB4000C0F800441CE0EA8882
:10D60000A3B23046696900F0B4F8687848F68F72C2
:10D6100010B1012807D00FE0287836F8201011400B
:10D6200048F2C00205E0287836F8201011404CF28C
:10D630008002114326F82010287836F8201048F68A
:10D64000BF72114081F0300165E0AB6106234FF6F7
:10D65000FF711AB1BCF1000F19D054E0B6F85000B8
:10D660002A783E2C03EBC202104406EB400202F57E
:10D67000806237D9C4F34F10E30630D001EA80202E
:10D6800040F4004001E001EA802010603BE0B6F881
:10D6900050002A783E2C07EBC202104406EB4002F1
:10D6A00002F580620BD9C4F34F105FEAC46C01D15C
:10D6B000401E80B201EA802040F4004008E0C4F33C
:10D6C0004F005FEAC47C01D0401C80B201EA802098
:10D6D000106068780028C1D001280AD013E0401EED
:10D6E00080B2CBE7C4F34F00E307CCD0401C80B23C
:10D6F000C9E7B6F85000297807EBC101084406EBEA
:10D700004000C0F80044287836F820104BF68F729D
:10D71000114081F4405141EA080126F82010002010
:10D72000BDE8F08130F8401F41F43D410180002008
:10D73000704700000148FCF70BBA0000502600209B
:10D74000B0F8440070475B1C00EB42005B0800F53A
:10D75000806005D030F8042B21F8022B5B1EF9D134
:10D7600070470020704711B98021A0F84C100020AC
:10D77000704710B55B1C00EB42005B0800F5806051
:10D7800009D011F8012B5B1E11F8014B42EA04226B
:10D7900020F8042BF5D110BDFEE702E008C8121FE7
:10D7A00008C1002AFAD170477047002001E001C18A
:10D7B000121F002AFBD17047FEE70000054904480C
:10D7C0000860FBF7F5FFFEF78CFBFAF71DFDFEE79F
:10D7D0000080000808ED00E00000000000000000EC
:10D7E00001020304060708090200040008001000F3
:10D7F000200040001000200001000200000301FF93
:10D800000000000000000000FFFFFFFF1900000003
:10D8100018FCFFFF000000000000000000000000F6
:10D8200000000000000000000000000000000000F8
:10D8300000000000000000000000000000000000E8
:10D8400000000000000000000000000000000003D5
:10D8500001FFFFFFFFFF10F120F10000EFCDAB89CA
:10D86000000000000000000000000000EFCDAB89C8
:10D8700000000000000000000000000000000000A8
:10D880000000000000000000000000000000000098
:10D890000000000000000000000000000000000088
:10D8A0000000000000000000000000000000000078
:10D8B00000000000000000700000000000000000F8
:10D8C0000000000000000000000000000000000058
:10D8D0000000000000000000000000000000000048
:10D8E0000000000000000000000000000000000038
:10D8F000000000000000000000000000FFFFFFFF2C
:10D9000084030000E7FFFFFF64000000E7FFFFFF64
:10D910000000000000000000000000000000000007
:10D9200000000000000000000000000000000000F7
:10D9300000000000000000000000000000000000E7
:10D9400000011400000000000000000000000000C2
:10D9500000000000C1C081C1400101C3C0038002BA
:10D9600041C201C6C006800741C70005C1C581C4C8
:10D97000400401CCC00C800D41CD000FC1CF81CE41
:10D98000400E000AC1CA81CB400B01C9C009800802
:10D9900041C801D8C018801941D9001BC1DB81DA08
:10D9A000401A001EC1DE81DF401F01DDC01D801C4A
:10D9B00041DC0014C1D481D5401501D7C0178016B1
:10D9C00041D601D2C012801341D30011C1D181D000
:10D9D000401001F0C030803141F10033C1F381F2D9
:10D9E00040320036C1F681F7403701F5C03580344A
:10D9F00041F4003CC1FC81FD403D01FFC03F803E41
:10DA000041FE01FAC03A803B41FB0039C1F981F87F
:10DA100040380028C1E881E9402901EBC02B802A69
:10DA200041EA01EEC02E802F41EF002DC1ED81ECC7
:10DA3000402C01E4C024802541E50027C1E781E6B0
:10DA400040260022C1E281E3402301E1C021802081
:10DA500041E001A0C060806141A10063C1A381A237
:10DA600040620066C1A681A7406701A5C0658064C9
:10DA700041A4006CC1AC81AD406D01AFC06F806E40
:10DA800041AE01AAC06A806B41AB0069C1A981A8FF
:10DA900040680078C1B881B9407901BBC07B807A09
:10DAA00041BA01BEC07E807F41BF007DC1BD81BC47
:10DAB000407C01B4C074807541B50077C1B781B6B0
:10DAC00040760072C1B281B3407301B1C071807001
:10DAD00041B00050C190819140510193C053805298
