:020000040800F2
:1080000070440020018100088F9D00088B9D0008AE
:108010008D9D000825850008EDB3000800000000D4
:1080200000000000000000000000000015A1000892
:10803000BD8500080000000013A1000817A100087A
:108040001B8100081B8100081B8100081B810008A0
:108050001B8100081B810008BF850008C58500083A
:108060001B8100081B8100081B8100081B81000880
:108070001B8100081B8100081B8100081B81000870
:108080001B8100081B8100081B8100081B81000860
:1080900085B300081B8100081B8100081B810008B4
:1080A0001B8100081B8100081B8100081B81000840
:1080B0001B8100081B8100081B8100081B81000830
:1080C0001B8100081B8100081B8100081B81000820
:1080D0001B8100081B8100081B8100081B81000810
:1080E0001B8100081B8100081B810008DFF80CD0F1
:1080F00000F02AF80048004711B40008704400203E
:108100000648804706480047FEE7FEE7FEE7FEE731
:10811000FEE7FEE7FEE7FEE7FEE7FEE791A10008C7
:10812000ED80000840EA01039B0703D009E008C97D
:10813000121F08C0042AFAD203E011F8013B00F82C
:10814000013B521EF9D27047064C074D06E0E0682D
:1081500040F0010394E8070098471034AC42F6D38E
:10816000FFF7C8FF30B5000850B5000870B58C188F
:1081700010F8015B15F0070301D110F8013B2A113B
:1081800006D110F8012B03E010F8016B01F8016B28
:108190005B1EF9D12B0705D40023521E0DD401F824
:1081A000013BFAE710F8013BCB1A921C03E013F8ED
:1081B000015B01F8015B521EF9D5A142D8D3002022
:1081C00070BD00000EB5684600F0EAF900F026F92F
:1081D00000F026F900F06AF900F0D4F800F0F8F8A1
:1081E00000F04EF9192000F0F0F900F03FF91920E5
:1081F00000F0EBF9DFF840B14FF0000A4F4CCBF83C
:1082000000A06426CBF804A00A212660C4E9011A64
:10821000502003F00BF9E06018B96F2148A000F07E
:10822000AFF8464801F0F6FFDFF80C91102009F195
:1082300008094D46C9F8006003F0F8F86860E06886
:10824000A04618B976213EA000F09AF800242746EF
:108250002646254600F050F900224149414802F0E7
:1082600082FA41493F4802F026FC40493D4802F06D
:10827000C3F83C4802F06CFC00F048F900F006FC42
:10828000A04203D06D1C761C04467F1C322F07D3FE
:108290003448002790F8FC01032830D000F0FCF8A7
:1082A000D8E90010B1FBF0F0B04205D80026234811
:1082B000DBF8041001F090FFD9F80010A94224D88F
:1082C000D9F8040010210522017080F801A0827005
:1082D00080F803A080F804A098F808304371B8F83B
:1082E0000820FF21120A827180F807A001724172F2
:1082F0001C49002591F8FC11032903D005E000F08A
:10830000BFF8CDE70A2100F035F91948016819488E
:108310008142B3D100F0F0F8022000F056F9BFF32B
:108320004F8F15480168154A01F4E061114301605F
:10833000BFF34F8F00BFFDE70C200020A0230020DB
:108340002E2E5C4D6F64756C65735C7372635C613B
:1083500070706C69636174696F6E2E630000000059
:10836000402100207C210020F82000203021002026
:10837000001F0020AB89EFCD0CED00E00400FA05F2
:10838000FEE700000F4800B5816985B041F00801A3
:10839000816180690C4900F0080004900120CDE95A
:1083A000000102906946094800F04EF900220521BB
:1083B000062000F0F1FB062000F0DAFB05B00020FB
:1083C00000BD00000010024000002110000C014020
:1083D0000F4800B5816985B041F00801816180696D
:1083E000694600F0080004900220009009480190BE
:1083F00001200290084800F027F9002205210720FB
:1084000000F0CAFB072000F0B3FB05B0002000BD60
:108410000010024000002110000C014000207047B5
:1084200030B5104885B0816941F0100181618069E3
:108430004FF4005400F0100004900120CDE90040FA
:10844000002002900220084D03906946284600F063
:10845000FBF801222146284600F0E0FA05B0002092
:1084600030BD0000001002400010014010B5012294
:108470005103024800F0D2FA002010BD0010014064
:1084800010B500224FF40051024800F0C7FA002056
:1084900010BD00000010014010B54FF4005102481B
:1084A00000F08EFA002010BD0010014030B51048D9
:1084B00085B0816941F00401816180694FF4004415
:1084C00000F0040004900120CDE90040002002905B
:1084D0000220084D03906946284600F0B5F80122B5
:1084E0002146284600F09AFA05B0002030BD000071
:1084F000001002400008014010B50122D1030248DB
:1085000000F08CFA002010BD0008014010B50022D8
:108510004FF40041024800F081FA002010BD000035
:1085200000080140FEE7002070470020704700006F
:1085300010B500220549064801F06CFF03490448C4
:10854000403901F061FF002010BD0000F023002041
:108550007C21002010B5044601F01CFF2146044890
:1085600001F052FF024801F033FF002010BD00006F
:108570007C210020094A10B5D2F81822D2F8142222
:108580000AB1012010BD0A460146044801F042FF2D
:10859000BDE81040014801F07DBF00007C210020B3
:1085A0000549096801600449091D096841600249DB
:1085B0000831096881607047E8F7FF1F70470120A4
:1085C00000F036B8022000F033B831B500F05EFAA2
:1085D000044600F05BFA0099001B8842F9D338BDCD
:1085E00010B5012804D0022801D100F01FF810BDF9
:1085F00000F002F810BD000010B50A4C0A482168CE
:1086000000294FF0020103D000F0ACF918B106E0E8
:1086100000F0A8F918B16068401C606010BD606887
:10862000401EFAE70C200020000C014070470000BB
:10863000044910B50A68024202D00860FFF7D0FF73
:1086400010BD0000140401402DE9F84FDFF890B28E
:108650000D4604464FF0000958450FD0A14884420A
:108660000CD0A148844209D0A048844206D0A0483A
:10867000844203D0CF219FA002F0C8FE28880004C6
:10868000000C03D1D0219BA002F0C0FE6868F8B1B5
:1086900001281DD011281BD0022819D0122817D06C
:1086A000A449884214D0A449884211D0A3498842E1
:1086B0000ED0A34988420BD0A249884208D0A249D3
:1086C000884205D0032803D0D1218AA002F09EFE63
:1086D00000274FF0010A00BF2E680AFA07F806EAE1
:1086E000080646456FD15C450FD07E4884420CD0C9
:1086F0007D48844209D07D48844206D07C4884422B
:1087000003D0DF217BA002F081FE8A496868421A0B
:10871000884259D00EDC032876D006DC002853D0DE
:10872000012819D002286AD131E0112821D012285D
:1087300065D13AE0B2F5881F46D006DCB2F5803F3D
:1087400042D0B2F5801F5AD13EE0B2F5001F3BD0B7
:10875000B2F5041F53D137E0E868022807D001289A
:1087600005D0032803D0E72162A002F04FFEE8689D
:108770003FE0E868022807D0012805D0032803D08D
:10878000EE215CA002F042FEE868001D31E0E868DE
:10879000022807D0012805D0032803D0F52155A0D1
:1087A00002F034FEE868083023E0E868022807D0C9
:1087B000012805D0032803D0FC214EA002F026FE9C
:1087C000E8680C3015E085E0A86888B1012812D06F
:1087D000022808D040F2091146A002F017FEA8684E
:1087E00030B1012807D04FF00809C4F8148006E022
:1087F0000420814603E04FF00809C4F81080FF2EE2
:1088000005D8224605E0FFE74FF00000F1E704F14C
:1088100004024FEA870001D9A0F1200013684FF04D
:108820000F0101FA00FC23EA0C0309FA00FC43EAF9
:108830000C0313606868C0004CD54448826942F05C
:1088400001028261806927F0030200F001000090BC
:108850003F4802449068BB071B0F994088435C4522
:1088600001D100210FE01F498C4201D101210AE012
:108870001D498C4201D1022105E01C498C4201D1E5
:10888000032100E004219940014391606868C0031E
:108890003048016801D5314300E0B14301606868A8
:1088A00080032D48016801D5314300E0B1430160E8
:1088B0006868C0022948016801D5314300E0B1432E
:1088C0000160686880022648016801D5314300E0F4
:1088D000B14301607F1C102FFFF4FEAEBDE8F88F9E
:1088E00000080140000C014000100140001401404C
:1088F000001801402E2E5C2E2E5C2E2E5C447269D8
:10890000766572735C53544D3332463178785F48E4
:10891000414C5F4472697665725C5372635C737438
:108920006D3332663178785F68616C5F6770696F4C
:108930002E63000000001110000021100000311013
:10894000000012100000221000003210001002403F
:1089500000000140000401400404014008040140FB
:108960000C04014070B50C00054604D14FF4E271CF
:1089700003A002F04BFDA868204000D0012070BD8C
:108980002E2E5C2E2E5C2E2E5C44726976657273E0
:108990005C53544D3332463178785F48414C5F44E4
:1089A00072697665725C5372635C73746D333266A0
:1089B0003178785F68616C5F6770696F2E63000063
:1089C00070B50C00054604D14FF4FD7103A002F010
:1089D0001DFDE8686040E86070BD00002E2E5C2E32
:1089E0002E5C2E2E5C447269766572735C53544D16
:1089F0003332463178785F48414C5F44726976651E
:108A0000725C5372635C73746D3332663178785F75
:108A100068616C5F6770696F2E63000070B5154602
:108A20000C00064604D14FF4F27108A002F0EEFCEF
:108A300045B1012D04D040F2E51104A002F0E6FC9E
:108A4000346170BD2004306170BD00002E2E5C2E9C
:108A50002E5C2E2E5C447269766572735C53544DA5
:108A60003332463178785F48414C5F4472697665AD
:108A7000725C5372635C73746D3332663178785F05
:108A800068616C5F6770696F2E6300000148006861
:108A9000704700000420002002480168491C016062
:108AA0007047000004200020074810B5016841F01D
:108AB00010010160032000F0A3F8002000F006F888
:108AC00000F016F8002010BD0020024010B504464A
:108AD00000F05EFD4FF47A71B0FBF1F001F03DF96A
:108AE00000222146501E00F057F8002010BD000063
:108AF0001D4808B5816941F001018161806900F07C
:108B000001000090032000F07BF8002211466FF076
:108B10000B0000F041F8002211466FF00A0000F04F
:108B20003BF8002211466FF0090000F035F80022F2
:108B30001146501F00F030F800221146101F00F0BF
:108B40002BF800221146901E00F026F80022114654
:108B5000501E00F021F80548416821F0E06141F025
:108B60000071416008BD000000100240000001409B
:108B700010B5040003D5E621064802F047FC04F0D6
:108B80001F01012088406109890001F1E021C1F83D
:108B9000000110BDA8B4000870B515460C46064685
:108BA000102A03D3D221144802F030FC102C03D336
:108BB000D321114802F02AFC10480068C0F30223B8
:108BC000C3F107022046042A00D90422191D0729EF
:108BD00001D2002300E0DB1E012404FA02F1491E49
:108BE000014099409C40641E2C4021433046BDE822
:108BF000704001F0CDB80000A8B400080CED00E012
:108C000010B5044607280BD0062C09D0052C07D038
:108C1000042C05D0032C03D0BA21084802F0F6FB3F
:108C2000074904F0070208684FF6FF03184040EABE
:108C30000220044A1043086010BD0000A8B40008D8
:108C40000CED00E00000FA0510B50C0605D501F0AA
:108C50007F0100EB4110283003E000EB411000F5EC
:108C6000027099B232B101228272C180190C018165
:108C7000002010BD002282728180F9E7704700EB6E
:108C80004112D0F81C04D26B01F090BD00EB4112F0
:108C9000D0F81C04D2F81C2201F0DDBD10B504464A
:108CA0000A460B0601F07F0004EB401101D5283184
:108CB00001E001F502710870D009487094F8E803EA
:108CC000012809D0012084F8E803206802F07CF92B
:108CD000002084F8E80310BD022010BD70B50A46DC
:108CE0000446090602F07F0003D504EB4011283149
:108CF00003E004EB421101F5027100258D7008704C
:108D0000D009487094F8E803012809D0012084F8BC
:108D1000E803206802F000FA84F8E853002070BDF0
:108D2000022070BD01F07F0100EB4110B0F8240279
:108D300080B2704770B504460D460E0601F07F0004
:108D400004EB401101D5283101E001F502710870F2
:108D5000E80948700A61CB7094F8E803012809D04B
:108D6000012084F8E803206801F0FEFF002084F869
:108D7000E80370BD022070BD70B504460E4601F0D8
:108D80007F0004EB401101F5077100252CC101F8AB
:108D90001F5C01F8200D94F8E80301280AD0012097
:108DA00084F8E8037006206802F010FA84F8E853AB
:108DB000002070BD022070BD70B50D460446090646
:108DC00005F07F0003D504EB4011283103E004EBEC
:108DD000451101F5027101228A700870E809487096
:108DE00094F8E803012807D084F8E823206802F00B
:108DF000C8F9680602D006E0022070BD04F57B7158
:108E0000206802F087F9002084F8E80370BD70B58F
:108E100004460E4601F07F0004EB40113C31002572
:108E20002CC1012201F81F2C01F8200D94F8E80351
:108E3000012809D084F8E8237006206802F0C6F9FA
:108E400084F8E853002070BD022070BD10B50446C0
:108E5000006802F09DFA000402D5204600F0A8FF49
:108E6000206802F095FA40050CD5206830F8441FC0
:108E700021F480610180204600F016F9002120468F
:108E800000F027F9206802F083FA400405D5206835
:108E900030F8441F21F480410180206802F078FA04
:108EA000800405D5206830F8441F21F4005101806A
:108EB000206802F06DFAC00413D5206830F8401F16
:108EC00021F00401018021684FF43D40A1F84000E9
:108ED000204600F0F6F8206830F8441F21F4805155
:108EE0000180206802F054FA00051AD5206830F895
:108EF000441F21F400610180206830F8401F41F0D8
:108F000008010180206830F8401F41F00401018011
:108F1000206802F03DFAC043C00402D5204600F0AC
:108F20000DF9206802F034FA800508D5206830F881
:108F3000441F21F400710180204600F0C6F820682B
:108F400002F026FAC00505D5206830F8441F21F448
:108F50008071018010BD00002DE9F04186B0040051
:108F60004FF000050CD030492068884203D0A12181
:108F70002EA002F04BFA94F8E903002620B108E095
:108F8000012006B0BDE8F08184F8E863204600F0D7
:108F90006DF8032084F8E903206802F0B4F804F1C6
:108FA0001001142288466846FFF7BCF894E80F00C9
:108FB00002F008F80021206802F0FDF95FF00107D7
:108FC00004EB451080F8297000F8285F8581C67091
:108FD000066146616D1C86610F2DF1D35FF00000C4
:108FE00004EB401181F8096281F80802888681F853
:108FF0000B62C1F81862C1F81C62401CC1F8206203
:109000000F28EDD3142241466846FFF78BF894E809
:109010000F0002F06FF884F8246084F8E973206888
:1090200002F066F80020ACE7005C00402E2E5C2EBB
:109030002E5C2E2E5C447269766572735C53544DBF
:109040003332463178785F48414C5F4472697665C7
:10905000725C5372635C73746D3332663178785F1F
:1090600068616C5F7063642E6300000008B500687F
:109070000B49884212D10B48C16941F40001C1611A
:10908000C069002200F40000009005211420FFF7C1
:1090900083FDBDE808401420FFF76ABD08BD00004D
:1090A000005C00400010024010B504460121D0F8D9
:1090B0001C0401F097FCD4F81C04BDE8104001F03A
:1090C00060BCD0F81C0401F07BBCD0F81C0401F09B
:1090D0007DBC10B5044690F8E80301280BD00120B0
:1090E00084F8E80384F82410206802F066F9002070
:1090F00084F8E80310BD022010BDD0F81C2400F550
:109100007B71104601F078BC10B5044690F8E80376
:10911000012810D0012084F8E80301462046FFF71B
:10912000ADFD206801F0E2FF206802F024F9002084
:1091300084F8E80310BD022010BD000010B50446FD
:10914000D0F81C0401F093FCA069002804D0034867
:10915000016841F00601016010BD000010ED00E063
:109160002DE9F84304460068604DC1070AD1810724
:1091700070D4C0066FD47E215D4802F047F9207894
:10918000C00769D0606860B1B0F5807F09D0B0F5E4
:10919000007F06D0B0F5407F03D08421544802F010
:1091A00035F9E86940F08050E861E869514E00F017
:1091B00080500090306840F480703060FFF766FCAB
:1091C000074604E0FFF762FCC01B642833D8306810
:1091D000C005F7D5286A10F4407054D0A18801F476
:1091E000407181424FD0286A0126310491FAA1F2E0
:1091F000B2FA82F29300404A20F440701344C3F85C
:10920000006491FAA1F1B1FA81F102EB810100232E
:10921000C1F800342862C00735D0FFF737FC074695
:1092200041F288394FF0020808E000BFFFF72EFC3A
:10923000C11B494502D90320BDE8F88398FAA8F17B
:10924000B1FA81F141F040014046B6EB511F04D123
:1092500029680EE020E037E01BE090FAA0F1B1FAB7
:1092600081F141F04001B0EB511F01D1296A00E0CA
:10927000696A98FAA8F0B0FA80F000F01F0206FAC6
:1092800002F00142D2D0286A616820F4407008439D
:1092900028622078800714D5A06860B1B0F5804FAF
:1092A00009D0B0F5004F06D0B0F5404F03D0BA2139
:1092B0000F4802F0ABF86868A16820F4404008430A
:1092C00068602078C0060FD5E068B0F5800F05D043
:1092D00020B14FF48B71064802F098F86868E16895
:1092E00020F48000084368600020A5E700100240D9
:1092F000ECB4000800700040000042422DE9F04745
:109300000E46050004D14FF42F718DA002F07EF8B7
:109310002868C1070AD1810708D4410706D400078D
:1093200004D440F2BD2186A002F070F846B1012EAF
:1093300006D0022E04D040F2BE2181A002F066F8D1
:10934000DFF83C82D8F8000000F00700B0420CD2F1
:10935000D8F8001021F007013143C8F80010D8F800
:10936000000000F00700B0426FD12878854C8007DC
:109370001CD5A868A0B1802812D0902810D0A028B1
:109380000ED0B0280CD0C0280AD0D02808D0E028B1
:1093900006D0F02804D040F2D72169A002F036F8B8
:1093A0006068A96820F0F000084360602878C00772
:1093B00064D06868012768B1012817D0022834D02A
:1093C00040F2DE215EA002F021F8686801280DD08D
:1093D00002282AD05FF0020191FAA1F0B0FA80F0E1
:1093E00040F02000400904D0206803E04FF4003131
:1093F000F2E7606A91FAA1F1B1FA81F101F01F017F
:109400008F4038424BD06068696820F00300084301
:109410006060FFF73BFB6968074641F2883001292D
:109420000CD00229814616D024E04FF00071D3E71A
:10943000FFF72CFBC11B494501D918E08146606844
:10944000C0F381000128F3D118E028E0FFF71EFBEC
:10945000C11B49450BD86068C0F381000228F5D1D3
:109460000CE000BFFFF712FBC11B494502D90320E6
:10947000BDE8F087606810F00C0FF3D1D8F8001049
:10948000404601F00701B1420BD9016821F0070104
:1094900031430160006800F00700B04201D00120B4
:1094A000E6E728784FF4806640074FF4A0674FF452
:1094B000C0684FF4E06914D5E86860B1B0420AD0E2
:1094C000B84208D0404506D0484504D040F2323179
:1094D0001BA001F09BFF6068E96820F4E06008438E
:1094E00060602878000715D5286960B1B0420AD0BD
:1094F000B84208D0404506D0484504D040F2393142
:109500000FA001F083FF6068296920F4605040EAF1
:10951000C100606000F042F86168F02292FAA2F2A5
:1095200001F0F001B2FA82F2D140174A515CC84012
:10953000164908600020FFF7C9FA002098E70000EC
:109540002E2E5C2E2E5C2E2E5C4472697665727314
:109550005C53544D3332463178785F48414C5F4418
:1095600072697665725C5372635C73746D333266D4
:109570003178785F68616C5F7263632E630000000E
:10958000002002400010024098B400080020002093
:1095900001480068704700000020002010B519A3A2
:1095A00085B00FCB8DE80F001AA01B4B006804900C
:1095B0005A681A4802F00C0104291DD008291BD151
:1095C0004FF4701494FAA4F402F47011B4FA84F411
:1095D000E140D2031DF8011010D55A684FF4003352
:1095E00093FAA3F302F40032B3FA83F3DA4004AB44
:1095F0009A5CB0FBF2F0484305B010BD0848484300
:10960000FAE7000002030405060708090A0B0C0D1F
:109610000E0F1010010200000010024000127A002C
:1096200000093D002DE9F84F040004D14FF4877183
:10963000EFA001F0EBFE0227DFF8F483FD4D206878
:109640004FF4003A4FF000094FF4803B012660B11F
:10965000C1070DD1810777D4010776D4400775D4AF
:1096600040F20F11E2A001F0D1FE2078C00730D007
:10967000606848B1584507D0B0F5A02F04D040F23B
:109680001511DBA001F0C2FE6868C0F3810001285B
:1096900007D06868C0F3810002281BD16868C00346
:1096A00018D59AFAAAF1B1FA81F141F020014909DD
:1096B00001D0296800E0696A9AFAAAF0B0FA80F04D
:1096C00000F01F0006FA00F0014260D06068002838
:1096D0007ED05CE06068584503D1286840F4803053
:1096E0000AE010B1B0F5A02F0DD0286820F480302A
:1096F0002860286820F480202860606838B3FFF76D
:10970000C5F900900AE0286840F480202860E4E76A
:10971000FFF7BCF90099401A642873D89AFAAAF0A6
:10972000B0FA80F040F02000400901D0286800E045
:10973000686A9AFAAAF1B1FA81F101F01F0106FAFA
:1097400001F10842E4D022E024E0BBE034E1FFE78D
:10975000FFF79CF9009005E0FFF798F90099401A8F
:109760006428DAD89AFAAAF0B0FA80F040F0200023
:10977000400901D0286800E0686A9AFAAAF1B1FAB3
:1097800081F101F01F0106FA01F10842E4D12078CD
:1097900080076DD5206930B1012804D040F249110D
:1097A00093A001F033FE60691F2804D94FF4A5711E
:1097B0008FA001F02BFE686810F00C0F07D06868CE
:1097C000C0F3810002281ED16868C0031BD400E0EA
:1097D0008FE097FAA7F0B0FA80F040F0200040093F
:1097E00001D0286800E0686A97FAA7F1B1FA81F120
:1097F00001F01F0106FA01F108422DD0206901286D
:1098000077D129E073E2206998B396FAA6F0B0FA0E
:1098100080F048F82060FFF739F9009007E000BFBA
:10982000FFF734F901460098081A022899D897FAE8
:10983000A7F0B0FA80F040F02000400901D028687D
:1098400000E0686A97FAA7F1B1FA81F101F01F010F
:1098500006FA01F10842E3D02868F82292FAA2F24F
:109860006169B2FA82F220F0F80091400843286062
:1098700025E0FFE796FAA6F1B1FA81F148F82190C8
:10988000FFF704F9009005E0FFF700F90099401A8E
:109890000228CBD897FAA7F0B0FA80F040F0200069
:1098A000400901D0286800E0686A97FAA7F1B1FA88
:1098B00081F101F01F0106FA01F10842E4D120789C
:1098C000000776D5A06988B3012806D04FF4C5718A
:1098D00047A001F09BFDA06940B396FAA6F0B0FA4C
:1098E00080F008EB8000C0F88064FFF7CFF80090AC
:1098F00006E0B7E1FFF7CAF80099401A022895D8A8
:1099000097FAA7F0B0FA80F040F06000B6EB501F75
:1099100001D128680CE097FAA7F0B0FA80F040F087
:109920006000B7EB501F02D1286A01E00EE0686AC0
:1099300097FAA7F1B1FA81F101F01F0106FA01F2DD
:109940001042D7D00120FEF740FE32E096FAA6F191
:10995000B1FA81F108EB8101C1F88094FFF796F824
:10996000009005E0FFF792F80099401A022890D87D
:1099700097FAA7F0B0FA80F040F06000B6EB501F05
:1099800001D128680BE097FAA7F0B0FA80F040F018
:109990006000B7EB501F01D1286A00E0686A97FAAF
:1099A000A7F1B1FA81F101F01F0106FA01F21042AC
:1099B000D8D1207840077CD5E06840B1012806D096
:1099C000052804D040F2B71109A001F01FFDE86995
:1099D00040F08050E861E86900F08050009016483F
:1099E000016841F480710160FFF750F800902BE0AE
:1099F0002E2E5C2E2E5C2E2E5C4472697665727360
:109A00005C53544D3332463178785F48414C5F4463
:109A100072697665725C5372635C73746D3332661F
:109A20003178785F68616C5F7263632E6300000059
:109A3000000042420010024000700040FFF726F88C
:109A40000099401A642892D8B7480068C005F5D537
:109A5000E06801280AD008B1052811D0286A20F052
:109A600001002862286A20F0040002E0286A40F021
:109A700001002862E068A0B3FFF708F800900DE04D
:109A8000286A40F004002862F0E700BFFEF7FEFFFE
:109A90000099411A41F288308142D4D897FAA7F050
:109AA000B0FA80F040F04000B6EB501F02D12868B9
:109AB0000CE044E097FAA7F0B0FA80F040F04000E4
:109AC000B7EB501F01D1286A00E0686A97FAA7F146
:109AD000B1FA81F101F01F0206FA02F10842D5D075
:109AE0002DE0FFE7FEF7D2FF009007E0FEF7CEFF84
:109AF0000099411A41F288308142A4D897FAA7F020
:109B0000B0FA80F040F04000B6EB501F01D1286859
:109B10000BE097FAA7F0B0FA80F040F04000B7EB06
:109B2000501F01D1286A00E0686A97FAA7F1B1FADC
:109B300081F101F01F0206FA02F10842D6D1E06974
:109B400000286ED001280AD0022808D040F2472110
:109B5000AFF2641001F05AFCE069002861D0686837
:109B6000C0F3810002287DD0E0694FF080770228A1
:109B70000BD097FAA7F1B1FA81F148F82190FEF7DE
:109B800085FF07464FF00074B4E0206A38B15845AD
:109B900005D04FF41471AFF2A81001F037FC606AE1
:109BA00078B3B0F5802F2CD0B0F5002F29D0B0F5C8
:109BB000402F26D0B0F5801F23D0B0F5A01F20D0B5
:109BC000B0F5C01F1DD0B0F5E01F1AD0B0F5001FD2
:109BD00017D0B0F5101F14D0B0F5201F11D0B0F57C
:109BE000301F0ED0B0F5401F0BD0B0F5501F08D07D
:109BF000B0F5601F05D040F25121AFF20C2001F00A
:109C000005FC4FF0807191FAA1F14846B1FA81F15B
:109C1000C14648F82100FEF739FF80464FF0007733
:109C200006E07CE0FEF732FFA0EB080002285ED8D9
:109C300097FAA7F0B0FA80F040F02000400901D078
:109C4000286800E0686A97FAA7F1B1FA81F101F09B
:109C50001F0106FA01F10842E4D1206A584511D1EA
:109C6000A06800E05DE038B1504505D040F26721C2
:109C7000AFF2842001F0CAFB6868A16820F40030CC
:109C800008436860D4E908010843696821F4741145
:109C9000084368604FF0807090FAA0F0B0FA80F04E
:109CA00049F82060FEF7F2FE044604E0FEF7EEFEFF
:109CB000001B02281BD897FAA7F0B0FA80F040F0FA
:109CC0002000400901D0286800E0686A97FAA7F1EF
:109CD000B1FA81F101F01F0106FA01F10842E5D065
:109CE0001DE000BFFEF7D2FEC01B022802D90320F0
:109CF000BDE8F88F94FAA4F0B0FA80F040F02000AC
:109D0000400901D0286800E0686A94FAA4F1B1FA29
:109D100081F101F01F0106FA01F10842E2D10020B1
:109D2000E6E70120E4E700000070004010B54FF0C6
:109D3000E024042809D020B14FF4DF71054801F078
:109D400065FB206920F0040002E0206940F0040077
:109D5000206110BDA8B40008704710B5401EB0F1D6
:109D6000807F01D3012010BD4FF0E02460610F21FE
:109D7000601700F00DF80020A0610720206100208E
:109D800010BD10B5FFF7E8FF10BDFEE7FEE7FEE7E8
:109D90000907090E002806DA00F00F0000F1E020A4
:109DA00080F8141D704700F1E02080F8001470471F
:109DB0002DE9FC5F4FF000080446ADF80480ADF8D3
:109DC000008048F60F7B4FF002094FF4806692E165
:109DD000BDF8041011F00F072BD030F82710ADF8A4
:109DE0000010BDF80010090478D530F8272040F69F
:109DF0008F710A4020F8272004EB471595F81202CE
:109E000005F502750028206869D0297830F82120EE
:109E100052047DD5B0F8503009EBC101194406EB6E
:109E20004101415AC1F309015FEA010A71D0EA8890
:109E3000D0E0BDF80410C9062AD4018801EA0B015C
:109E40000180206804F12805B0F850202B7809EB38
:109E5000C301114406EB4101405AC0F3090060649C
:109E6000E16B0844E06300212046FEF708FF94F808
:109E700024000028ABD0A8690028A8D194F82400B9
:109E8000216840F08000A1F84C0084F8248032E181
:109E9000018804F50275ADF80010BDF80010090541
:109EA0001ED5B0F850302978062202EBC1011944C2
:109EB00006EB4101405A04F57B71C0F30903EB61E5
:109EC000AA88206801F068FA2068018840F68F723D
:109ED000114001802046FFF710F90CE1A0E055E0A9
:109EE000BDF800100904D2D5028840F68F710A40EF
:109EF00002802068B0F850302978062202EBC101B8
:109F0000194406EB4101405A83059B0DEB6101E0CA
:109F100051E063E008D0AA886969206801F03CFA42
:109F2000E96968690844686100212046FEF7AEFED1
:109F30002068B0F85010891D06EB410101442869E2
:109F40003E280CD9C0F34F12C00601D1521E92B266
:109F50004FF6FF7000EA822040F4004009E0C0F3B1
:109F60004F02C00701D0521C92B24FF6FF7000EAB8
:109F700082200860216808884BF68F72104080F4B8
:109F8000405048F2800210430880B4E0B0F85020FE
:109F90002B78062101EBC301114406EB4101415A24
:109FA000C1F309015FEA010A24D0AA88534669690E
:109FB00001F0F2F91EE0B0F85020062303EBC101D6
:109FC000114406EB4101415AC1F309015FEA010A5C
:109FD00004D02A895346696901F0DEF9297820689E
:109FE00030F8213048F68F72134048F2C002134314
:109FF00020F82130E96901EB0A00E861696901EBA9
:10A000000A026A61AB6913B12869504504D92978FD
:10A010002046FEF73BFE03E029782046FEF7ACFE23
:10A02000BDF80000000666D5206804EB471530F83F
:10A03000271001EA0B0120F8271095F83200283587
:10A040000028206812D0297830F82120B0F850304C
:10A0500052061ED509EBC101194406EB4101405AD5
:10A0600083059B0DEB6124D0EA881EE0B0F85030E8
:10A070002A7809EBC201194406EB4101405A8305D5
:10A080009B0DEB6121D0AA886969206801F09BF9DA
:10A090001BE0062202EBC101194406EB4101405AC4
:10A0A00083059B0DEB6104D02A896969206801F062
:10A0B0008AF92978206830F8212048F68F731A40F1
:10A0C0004CF280031A4320F821202068B0F8502079
:10A0D0002B7809EBC301114406EB4101405AC0F350
:10A0E0000900E86169690A186A612978AB69204644
:10A0F00063B1FEF78CFE2068B0F84410ADF8041090
:10A1000009043FF565AE0020BDE8FC9FFEF7B7FDF2
:10A11000F1E77047704710B5FEF7BEFCBDE8104090
:10A12000FFF72FBE30B593B001210804CDE9001030
:10A130000024029402250491CDE907504FF4E01069
:10A1400009906846FFF76EFA0F20CDE90A0568020C
:10A15000CDE90C4002210AA80E94FFF7CFF8102099
:10A160000F9012940FA8FEF7FBFFFFF711FA4FF4C0
:10A170007A71B0FBF1F0FFF7F0FD0420FFF7D6FD98
:10A1800000221146501EFEF707FD13B030BD00003F
:10A190000D48016841F00101016041680B4A11401E
:10A1A000416001680A4A11400160016821F4802180
:10A1B0000160416821F4FE0141604FF41F0181609C
:10A1C0000449C00308607047001002400000FFF817
:10A1D000FFFFF6FE08ED00E0F0B50022164604246D
:10A1E00013E0C56855F832305B1C45F832304768DB
:10A1F000C568BB4208D345F83260C36804EBC205AA
:10A200005F59CF1B87605951521C43689342E8D86D
:10A210000020F0BD30B500210A46042307E0C468E1
:10A2200003EBC10544F83110C468491C625144680D
:10A230008C42F4D8002030BDD0F8180220B10021A3
:10A24000C0F81412084670470220704770B50546E2
:10A25000D0F8184200F034FBC4F80C02D5F818020C
:10A2600048B1D5F81C12D4F80402CA6804F5037189
:10A270009047002070BD022070BD70B504460025D7
:10A28000812100F08CFA0121204600F088FA822119
:10A29000204600F084FAD4F8180250B1D4F81C0219
:10A2A00004F5067440688047206800F057FD0020E0
:10A2B0002060284670BD10B5D0E9864159B194F8A8
:10A2C0000002FF2807D08B6894F8012221469847A6
:10A2D000FF2084F80002002010BD00000A21018048
:10A2E000004870472020002043210180004870472B
:10A2F0007020002043210180004870472C2000205E
:10A300004321018000487047B42000202DE9F0412E
:10A310000446007C00254FF4007670B340230222EF
:10A320008121204600F01CFB40230222012120460F
:10A3300000F016FB082303228221204600F010FBC8
:10A340004FF4077000F00CFDC4F81802F0B1074696
:10A35000D4F81C02006880470020C7F81402C7F830
:10A360001802207CD7F8042290B140230121204616
:10A3700000F000FB2846BDE8F081FFE733460222EB
:10A380008121204600F0ECFA3346CEE70125F1E7C3
:10A390003346EBE70968042914D30178AB2911D1BE
:10A3A00000221146435C491C5A400329FAD3C17864
:10A3B000914207D1417829B98078012802D1034917
:10A3C0000148086000207047AB89EFCD001F0020D6
:10A3D00010B5D0F8181269B1027C002AD1F8042215
:10A3E00005D04023012100F0C5FA002010BD4FF434
:10A3F0000073F7E7022010BD02460220002902D0B8
:10A400000020C2F81C127047D0F81802C0F80412DD
:10A4100000207047D0F81802C0F81022C0F80812C7
:10A420000020704770B50646D0F8185208780C46E0
:10A4300010F0600121D0202927D1E288AAB10006BE
:10A44000607807D5D6F81C128B6829469847E288B1
:10A45000294617E085F80002A07985F80102E28814
:10A460002946304600F050F80FE0D6F81C1260780C
:10A4700000228B682146984707E060780A2804D1BB
:10A4800003490122304600F059F8002070BD000059
:10A490001C20002010B5D0F8181289B1D1F8142270
:10A4A0000AB1012010BD0122C1F81422B1F8102216
:10A4B00093B2D1F80822812100F0E2FA002010BD09
:10A4C000022010BD10B5D0F8142252689047002029
:10A4D00010BD134610B50A46002100F04BFA0020CB
:10A4E00010BD134610B50A46002100F0C9FA00203D
:10A4F00010BD10B50446802100F0ABFA2046BDE83F
:10A500001040002100F0A5BA10B50323C0F80821BF
:10A51000C0F8F431C0F80C2113460A46002100F0BF
:10A5200029FA002010BD10B505210023C0F8F41150
:10A530001A46194600F01EFA002010BD10B502237D
:10A540008261C0F8F431C26113460A46002100F06E
:10A5500097FA002010BD10B504210023C0F8F411B3
:10A560001A46194600F08CFA002010BD10B50A46B4
:10A57000024903A000F0D4F8004810BD702A002062
:10A5800043444320436F6E666967000012200880D1
:10A59000004870476021002010B50A46024903A018
:10A5A00000F0BEF8004810BD702A0020434443204C
:10A5B000496E74657266616365000000042008805E
:10A5C000004870475C21002010B50A46024903A0EC
:10A5D00000F0A6F8004810BD702A002053544D69C1
:10A5E00063726F656C656374726F6E69637300008C
:10A5F00010B50A46024903A000F092F8004810BDC9
:10A60000702A002053544D3332205669727475619C
:10A610006C20436F6D506F727400000010B50A46D5
:10A62000024903A000F07CF8004810BD702A002009
:10A6300030303030303030303030314100000000C8
:10A64000F8B5044648880D46010A08294BD2DFE8D0
:10A6500001F04A0409174A4A4048D4F81012207CF5
:10A660000A6832E0207C02260028D4F8140205D0C3
:10A67000C16A684688470146467041E0816AF8E74A
:10A68000C0B206282FD2DFE800F003080D12171C15
:10A69000D4F81012207C4A6817E0D4F81012207CFD
:10A6A0008A6812E0D4F81012207CCA680DE0D4F851
:10A6B0001012207C0A6908E0D4F81012207C4A6944
:10A6C00003E0D4F81012207C8A696946904701465D
:10A6D00016E0207C38B9D4F81402416B68468847EC
:10A6E000F5E7207C20B129462046FFF702FFF8BDA0
:10A6F000D4F81402016B6846884701460720487069
:10A70000BDF800000028F2D0EA88002AEFD082428B
:10A7100000D90246ADF800202046FFF70FFFF8BD34
:10A7200070B5002300281DD00446002502E06D1CF2
:10A73000EDB2641C2678002EF9D1022404EB450406
:10A740001480CC545B1C0322CA5400245B1C06E01A
:10A75000CA545B1CDAB28C54521CD3B2401C02782F
:10A76000002AF5D170BD10B580B1D0F8143213B104
:10A770000023C0F8143209B1C0F81012012180F88A
:10A78000FC11027000F0A0F8002010BD022010BDE6
:10A7900010B5D0F82002FEF7A1FA002010BD10B5C8
:10A7A000D0F82002FEF77AFA002010BD2DE9F04122
:10A7B0001746044641B1D4F8140242698AB394F8AA
:10A7C000FC01032842D043E0D4F8F411002504F141
:10A7D0001400022933D1D0E902639E4207D9F31A4B
:10A7E00083609AB239462046FFF77BFE12E040684C
:10A7F000B0FBF3F103FB1101A1B9984212D3D4F8D5
:10A80000F81188420ED2002211462046FFF769FE59
:10A81000C4F8F85100231A461946204600F0AAF859
:10A820000DE012E0D4F81402C16829B194F8FC01DB
:10A83000032801D1204688472046FFF774FE94F88C
:10A840000002012804D184F8005201E0204690471C
:10A850000020BDE8F08170B51546044641B1D4F83A
:10A86000140282693AB394F8FC01032824D025E04D
:10A87000D4F8F41104F5827003291FD1D0E9022124
:10A880008A420BD9531A83600846834200D3034699
:10A890009AB229462046FFF71CFE0FE0D4F81402B6
:10A8A000016929B194F8FC01032801D120468847A9
:10A8B0002046FFF750FE01E020469047002070BD83
:10A8C000D0F82002FEF72EBA10B51C49044604F554
:10A8D0000874C1F81C04C0F8201219480860082048
:10A8E0004860022088600320C86000208861C86139
:10A8F00008620846FEF730FB002218231146206844
:10A90000FEF7A2F95823002280212068FEF79CF967
:10A91000C023002281212068FEF796F94FF4887346
:10A92000002201212068FEF78FF94FF48073002286
:10A9300082212068FEF788F9002010BD50260020F3
:10A94000005C00400A06D0F8200201F07F0100EB15
:10A95000411002D590F82A00704790F80A0270471B
:10A9600010B51C461346D0F820022246FEF7E2F945
:10A97000002010BD10B5D0F82002FEF7FDF9002030
:10A9800010BD70B50022044640231146FFF7E8FFD2
:10A9900040252B46002280212046C4F81051FFF7A5
:10A9A000DFFF0120256284F8FC01D4F8180228B1E9
:10A9B000D4F814022179426820469047002070BDE7
:10A9C00090F8FD1180F8FC110020704710B590F848
:10A9D000FC11032904D1D0F81412C96901B18847C8
:10A9E000002010BD01740020704710B5D0F820027F
:10A9F000FEF76FFB002010BD70B5044600F5027035
:10AA0000054600F044F80120C4F8F401B4F80E0241
:10AA1000C4F8F80194F8080210F01F010AD00129C7
:10AA20000DD0022910D000F08001204600F011F86E
:10AA3000002070BD2946204600F08FF8F8E729462F
:10AA4000204600F071F9F3E72946204600F0FEF8B1
:10AA5000EEE710B5D0F82002FEF7AEF9002010BDE9
:10AA600010B5D0F82002FEF74FFB002010BD90F883
:10AA7000FC1180F8FD11042180F8FC1100207047C2
:10AA800010B5D0F82002FEF7C2F9002010BD0A78F8
:10AA900002704A7842708A78CB7802EB03224280B7
:10AAA0000A794B7902EB032282808A79C97902EB19
:10AAB0000121C18070470246002011B1C2F8141272
:10AAC00070470220704710B5D0F8142202241AB142
:10AAD0001268904700B90024204610BD70B50E469C
:10AAE0001A4D897804462970012928D894F8FC0168
:10AAF000022802D0032822D105E099B10320616029
:10AB000084F8FC0109E091B1606888420AD0C1B2C2
:10AB10002046FFF7D7FC297861602046FFF7D3FF76
:10AB200002280CD02046BDE87040FFF714BD02207B
:10AB300084F8FC0120466160FFF7C4FCF2E731466F
:10AB40002046BDE87040FFF7D4BC0000082000207C
:10AB500010B5FFF785FF002010BD2DE9F04100265C
:10AB60004B78012532460A2B43D2DFE803F03C58EC
:10AB70004251420805422A27FFF762FD63E004467E
:10AB80008888C8B9C888B8B9887800F07F0794F871
:10AB9000FC01032810D084F8FE7139462046FFF7E7
:10ABA00024FF2046FFF7D7FC1FB1022084F8FC01E8
:10ABB00049E084F8FC5146E020461AE0FFF78EFF9A
:10ABC00041E0CB88012B14D190F8FC31022B02D04C
:10ABD000032B0ED104E08260012200F1080114E091
:10ABE0000122011D11E090F8FC21022A04D0032A61
:10ABF00002D0FFF77EFC26E0C560D0F8041209B150
:10AC00000321C160022200F10C01FFF797FC1AE05A
:10AC100004464888012816D1C4F804520BE00446C3
:10AC200090F8FC01022801D00328C5D148880128EA
:10AC300009D1C4F80422D4F814028268204690474F
:10AC40002046FFF788FC3046BDE8F08170B50D4620
:10AC50000446287800260979C0F34110012806D05F
:10AC60006878A0B301281FD003283FD107E0D4F8AB
:10AC700014022946826820469047002070BD94F84F
:10AC8000FC01022817D003282CD1688828B921B1EB
:10AC9000802902D02046FFF7DCFED4F814022946B2
:10ACA00082682046904713E094F8FC01022802D005
:10ACB000032817D103E0C9B180291BD116E06888A9
:10ACC000A0B9480604D02046FFF762FDE5E703E09F
:10ACD0002046FFF740FC09E094F8FC01022807D069
:10ACE00003280BD029462046FFF703FC304670BDF1
:10ACF0004806FBD02046FFF7ACFEF7E7080601F058
:10AD00007F0004EB001501D5143501E005F58275CF
:10AD10002046FFF717FE00B10120286002222946D5
:10AD20002046FFF70BFCE1E770B5054690F8FC0103
:10AD30000C4603280DD1207901280AD8D5F8140231
:10AD4000826828469047E08830B92846FFF703FC20
:10AD500002E02846FFF7CDFB002070BD70470000E1
:10AD600000487047302400202DE9F047CC780A785D
:10AD700048F68F1334B1012C6DD0022C08D0032C6F
:10AD800013D10BE030F822401C4044F400730AE079
:10AD900030F822401C4020F8224006E030F82240E3
:10ADA0001C4044F4C06320F822300C7830F8245062
:10ADB00048F68F72154048F280031D43254320F862
:10ADC00024508D7A48F6BF7904274BF68F7A48F2E3
:10ADD000C0044CF28006EDB30D7830F825C048F27F
:10ADE00080180CEA020C4CEA080C20F825C0CD882B
:10ADF000B0F850C025F0010591F800800CEBC80CAC
:10AE000000EB4C0CCCF800540D89B0F850C025F084
:10AE1000010591F8008007EBC807674400EB47077E
:10AE2000C7F800544D78002D0D7830F825704FEAA2
:10AE300047477DD0002F05DA30F82570174037439B
:10AE400020F825700D7830F825707F0608D530F889
:10AE5000257001E024E01DE01740274320F825700D
:10AE60000C7830F824501540354320F824500C78E5
:10AE700030F8242002EA09021A4320F824200A7834
:10AE800030F8221001EA0A01194320F822100020AC
:10AE9000BDE8F08730F822401C4044F4806382E72C
:10AEA0004D78F5B18D88B0F8506025F001050F7828
:10AEB00006EBC70600EB4606C6F800540D7830F8DE
:10AEC0002560760605D530F825601640264320F823
:10AED00025600A7830F8221001EA090181F020018A
:10AEE000D2E78C88B0F8505024F0010491F800C0EB
:10AEF00007EBCC073D4400EB4505C5F80044B0F82E
:10AF000050400D78062707EBC5052C4400EB44079D
:10AF10000C694FF6FF7C07F580673E2C0CD9C4F313
:10AF20004F15E40601D16D1EADB20CEA852400E098
:10AF30001EE044F4004407E0C4F34F05E40701D0E9
:10AF40006D1CADB20CEA85243C600C7830F82450BE
:10AF50006D0405D530F824501540354320F82450B1
:10AF60000A7830F8221001EA0A0181F440518BE797
:10AF7000002F05DA30F825701740374320F8257088
:10AF80000D7830F82560760605D530F82560164036
:10AF9000264320F825600E7830F8265015402543CA
:10AFA00020F826500C7830F8242002EA0A0282F4B5
:10AFB00040521A4320F824200A7830F8221001EA7F
:10AFC000090161E7002070472DE9F04391F80A80FC
:10AFD00091F801C00A7848F6BF774BF68F7948F2AE
:10AFE000800348F2C0054CF2800648F68F74B8F131
:10AFF000000F2ED0BCF1000F30F822C04FEA4C4CAD
:10B000004ED0BCF1000F07DA30F822C00CEA040C75
:10B010004CEA060C20F822C00A7830F822C05FEA19
:10B020004C6C07D530F822C00CEA040C4CEA050C35
:10B0300020F822C00A7830F822502540354320F805
:10B0400022500C7830F824203A401A4320F824206B
:10B050001BE0BCF1000F0ED030F82260760605D55B
:10B0600030F8226026402E4320F822600A7830F81B
:10B07000221039400EE030F822506D0405D530F82A
:10B0800022502540354320F822500A7830F822100B
:10B0900001EA0901194320F822100020BDE8F083DD
:10B0A000BCF1000F07DA30F822C00CEA040C4CEABD
:10B0B000060C20F822C00A7830F82260760605D502
:10B0C00030F8226026402E4320F822600E7830F8B7
:10B0D000262022402A4320F826200C7830F824200D
:10B0E00002EA09021A4320F82420BFE70020704733
:10B0F00000207047012120F8401F0021018081803D
:10B1000001820846704730F8401F21F43D4101801C
:10B11000002070470020704730B54D780A78002D28
:10B1200048F68F7430F8225048F2800312D06D0632
:10B1300007D530F82250254048F2C004254320F8B6
:10B1400022500A7830F8221048F6BF74214081F06E
:10B15000300111E06D0407D530F8225025404CF243
:10B160008004254320F822500A7830F822104BF64C
:10B170008F74214081F44051194320F8221000209F
:10B1800030BD10B50A7848F2800352B149780029E1
:10B1900030F8221010D048F6BF74214081F0100121
:10B1A0000FE001884BF6BF72114081F4805181F0AD
:10B1B00010011943018007E04BF68F74214081F4A0
:10B1C0008051194320F82210002010BD2DE9F041D4
:10B1D0000D460646896995F801C00023AA7A022720
:10B1E00028690C4648F28008BCF1010F05D0814265
:10B1F00052D90446081AA8614FE0814203D9044697
:10B20000081AA86100E0AB617AB1287836F82010FE
:10B210004906B6F8501007EBC000084406EB4000A2
:10B22000C0F8004412D52A8911E0A3B2AA8830469A
:10B23000696900F0C8F8B6F85000297807EBC10139
:10B24000084406EB4000C0F800441CE0EA88A3B2C2
:10B250003046696900F0B7F8687848F68F7110B128
:10B26000012807D00FE0287836F820200A4048F25D
:10B27000C00105E0287836F820200A404CF2800111
:10B280000A4326F82020297836F8210048F6BF72B4
:10B29000104080F0300067E0AB6106234FF6FF708E
:10B2A0001AB1BCF1000F1BD056E0B6F850102A7846
:10B2B0003E2C03EBC202114406EB410202F5806210
:10B2C00039D9C4F34F11E30632D000BF00EA812020
:10B2D00040F4004002E000BF00EA812010603BE043
:10B2E000B6F850102A783E2C07EBC202114406EB48
:10B2F000410202F580620BD9C4F34F115FEAC46CBE
:10B3000001D1491E89B200EA812141F4004108E0DF
:10B31000C4F34F015FEAC47C01D0491C89B200EA42
:10B320008121116069780029BFD001290AD013E07A
:10B33000491E89B2CAE7C4F34F01E307CCD0491CC8
:10B3400089B2C9E7B6F85000297807EBC101084473
:10B3500006EB4000C0F80044297836F821004BF68F
:10B360008F72104080F4405040EA080026F8210017
:10B370000020BDE8F08130F8401F41F43D410180DC
:10B38000002070470148FDF761BD000050260020F5
:10B39000B0F84400704700005B1C00EB42005B0803
:10B3A00000F5806006D000BF30F8042B21F8022B96
:10B3B0005B1EF9D170470020704711B98021A0F8B9
:10B3C0004C100020704710B55B1C00EB42005B087E
:10B3D00000F5806009D011F8012B5B1E11F8014BBC
:10B3E00042EA042220F8042BF5D110BDFEE702E06A
:10B3F00008C8121F08C1002AFAD170477047002000
:10B4000001E001C1121F002AFBD17047FEE70000D6
:10B41000054904480860FDF747FBFEF783FEFCF78B
:10B42000D1FEFEE70080000808ED00E0F0B50B302B
:10B43000154D20F007010024144A0FE003688B42E9
:10B440000BD38B4205D95E1A43184768C3E90067DE
:10B4500000E04368136002C004E0021D1068002889
:10B46000ECD12046002802D1286808B10020F0BDA8
:10B47000064A07481060074A121A22F00702C0E97C
:10B48000002401202860D7E77821002074210020C3
:10B49000742C0020703C0020000000000000000020
:10B4A00001020304060708092E2E5C2E2E5C2E2EA8
:10B4B0005C447269766572735C53544D3332463125
:10B4C00078785F48414C5F4472697665725C53726C
:10B4D000635C73746D3332663178785F68616C5F7A
:10B4E000636F727465782E63000000002E2E5C2E50
:10B4F0002E5C2E2E5C447269766572735C53544DDB
:10B500003332463178785F48414C5F4472697665E2
:10B51000725C5372635C73746D3332663178785F3A
:10B5200068616C5F7263635F65782E630000000082
:10B5300050B50008002000207C0100006C8100084C
:10B5400010B600087C210020F4220000FEB30008A1
:10B5500011041CA24A04130A0632023340011409E2
:10B5600002431302011CC03209331B01020B1305F5
:10B5700024161001052401100901042402020524E7
:10B580000617010705820308151009040133020A92
:10B590001D07050102432C070581070938442A408D
:10B5A000072A8107112B0907440A2204440A16FFBF
:10B5B00044130DA314087BA2140825A442081AB74B
:10B5C0000C1A39041A4D04C11AF5101AE9041A01AB
:10B5D000301ADD081331851B082B041A27041A556D
:10B5E00004138DA51B08BD041AC9041AF104131D08
:10B5F000A61B086D081A99041E04030904127F1380
:10B6000002021E4083044057B5A40203010000005B
:04000005080080ED82
:00000001FF
