:020000040800F2
:108000005845002001810008FB9F0008F79F0008E9
:10801000F99F00081D8A00082DCB00080000000011
:10802000000000000000000000000000FF9F0008AA
:10803000F58A000800000000FD9F0008A5B40008B4
:108040001B8100081B8100081B8100081B810008A0
:108050001B8100081B810008F78A0008FD8A0008C0
:108060001B8100081B8100081B8100081B81000880
:108070001B8100081B810008DD8A0008E98A0008CE
:108080001B8100081B8100081B8100081B81000860
:10809000C5CA00081B8100081B8100081B8100085D
:1080A0001B8100081B8100081B8100081B81000840
:1080B0001B8100081B8100081B8100081B81000830
:1080C0001B8100081B8100081B8100081B81000820
:1080D0001B8100086DB900081B8100081B81000886
:1080E0001B8100081B8100081B810008DFF80CD0F1
:1080F00000F084F800480047E9CF00085845002008
:108100000648804706480047FEE7FEE7FEE7FEE731
:10811000FEE7FEE7FEE7FEE7FEE7FEE71DB5000827
:10812000ED800008202A04DB203A21FA02F0002129
:10813000704721FA02F3D040C2F120029140084377
:108140001946704740EA01039B0703D009E008C9BC
:10815000121F08C0042AFAD203E011F8013B00F80C
:10816000013B521EF9D27047D2B201E000F8012B58
:10817000491EFBD270470022F6E710B513460A46A7
:1081800004461946FFF7F0FF204610BD421C10F8C8
:10819000011B0029FBD1801A70472DE9F05F0546CD
:1081A000002092469B4688460646814640241BE0B6
:1081B0002846414647462246FFF7B4FF53465A46F3
:1081C000C01A914110D311461846224600F028F8F3
:1081D0002D1A67EB01084F4622460120002100F0CE
:1081E0001FF817EB00094E41201EA4F10104DFDC4B
:1081F000484631462A464346BDE8F09F064C074DA7
:1082000006E0E06840F0010394E807009847103466
:10821000AC42F6D3FFF76EFF58D3000878D30008BE
:10822000202A04DB203A00FA02F100207047914036
:10823000C2F1200320FA03F319439040704770B550
:108240008C1810F8015B15F0070301D110F8013B01
:108250002A1106D110F8012B03E010F8016B01F888
:10826000016B5B1EF9D12B0705D40023521E0DD4E0
:1082700001F8013BFAE710F8013BCB1A921C03E02E
:1082800013F8015B01F8015B521EF9D5A142D8D366
:10829000002070BD08B5934800F0FEFB00F016FA10
:1082A00000F016FA00F05AFA00F0F6FA00F0C2F9FF
:1082B00000F0E6F900F046F900F096F900F038FA1F
:1082C000192000F093FE00F029FA192000F08EFE2C
:1082D0008548864C864D0068411C1FD0AB465845EA
:1082E0007ED102F093FFC0B34FF4C864204600F083
:1082F0007DFE00F01DFAFA2000F078FE00F00EFA84
:10830000322000F073FE00F013FA322000F06EFE0F
:1083100000F004FA322000F069FEE7E7012000F0E7
:1083200065FE00F0B9FF2A4600237249022000F0E2
:1083300027FF00F01BFF012000F058FE02F052FF63
:108340006D48002100680090204602F0EDFF6A466B
:108350000021204603F046F80DE0FFE7674D68492D
:1083600000262868884208D100F0D2FA2946204623
:108370002E6002F0D1FF0120A9E000F009F900F021
:108380001DF9012000F032FE00F00CF9642000F02D
:108390002DFE5C495C4CB1460E604E603046642652
:1083A0000A212660C4E90110502004F02BFEE06091
:1083B00018B9C42155A000F0C3F8534803F0F0F8F1
:1083C000DFF840A110200AF1080A5546CAF80060FB
:1083D00004F018FE6860E068A04628B9CB2100E0F0
:1083E00079E04AA000F0ACF800242746264625464E
:1083F00000F078FA3B4800224C490C3003F053FD62
:1084000038484B490C3003F0F6FE364849490C30E9
:1084100003F092FB33480C3003F03AFF00F06CFAA3
:1084200001F0A2F9A04203D06D1C761C04467F1C0B
:10843000322F08D32B4800270C3090F8FC0103287A
:1084400031D000F081F9D8E90010B1FBF0F0B04272
:1084500005D82C48002641682B4803F083F8DAF849
:108460000010A9422CD8DAF804001021052201706E
:1084700080F80190827080F8039080F8049098F85A
:1084800008304371B8F80820FF21120A827180F881
:10849000079001724172134900250C3191F8FC11CB
:1084A000032903D005E000F043F9CCE70A2100F0EE
:1084B000DDFA02230A222048DAF8041002F00EFC4A
:1084C0001E4801685945ABD100F00CFA022000F0BB
:1084D0008DFD02F08BFC00F037F9192000F086FDCD
:1084E000F9E700005822002000A0000800E0000882
:1084F000AB89EFCD00A0000888D0000878210020CB
:10850000EFCDAB890C200020882400202E2E5C4D5E
:108510006F64756C65735C7372635C6170706C69B9
:10852000636174696F6E2E630000000040210020BB
:10853000F820002030210020A8210020001F00206A
:10854000FEE7000030B5104885B0816941F00801B0
:10855000816180694FF4004400F00800049001201C
:10856000CDE90040002002900220084D03906946AA
:10857000284600F0D7FE01222146284601F0BCF82B
:1085800005B0002030BD000000100240000C01408A
:1085900010B50122D103024801F0AEF8002010BD51
:1085A000000C014010B500224FF40041024801F0D8
:1085B000A3F8002010BD0000000C014010B50022FF
:1085C0004FF48071024801F097F8002010BD0000C0
:1085D0000008014010B501221102024801F08CF898
:1085E000002010BD0008014030B5104885B08169F9
:1085F00041F00401816180694FF4807400F004004F
:1086000004900120CDE90040002002900220084D96
:1086100003906946284600F085FE0122214628463F
:1086200001F06AF805B0002030BD000000100240E3
:10863000000801400F4800B5816985B041F008018C
:10864000816180690C4900F0080004900120CDE9A7
:10865000000102906946094800F064FE00220521ED
:10866000062001F007F9062001F0F0F805B000201F
:1086700000BD00000010024000002110000C01406D
:108680000F4800B5816985B041F0080181618069BA
:10869000694600F00800049002200090094801900B
:1086A00001200290084800F03DFE0022052107202D
:1086B00001F0E0F8072001F0C9F805B0002000BD86
:1086C0000010024000002110000C01400020704703
:1086D00030B5104885B0816941F010018161806931
:1086E0004FF4005400F0100004900120CDE9004048
:1086F000002002900220084D03906946284600F0B1
:1087000011FE01222146284600F0F6FF05B00020A8
:1087100030BD0000001002400010014010B50122E1
:108720005103024800F0E8FF002010BD0010014096
:1087300010B500224FF40051024800F0DDFF002088
:1087400010BD00000010014010B54FF40051024868
:1087500000F0A4FF002010BD001001402DE9F04101
:10876000434D86B0A86940F00400A861A86901AA39
:1087700000F00400049068150090022001260024F7
:1087800082E851003B4F6946384600F0CBFD281582
:10879000CDE90004CDE902466946384600F0C2FD45
:1087A000686940F0010068616869344F00F00100B9
:1087B00004903148C7E900044FF08008C7E9024837
:1087C0003C617C61BC613846FC6100F059FBA7F15B
:1087D00078060022776305210F207E6201F04AF8B7
:1087E0000F2001F033F8686940F0010068616869A2
:1087F000383F00F0010004901F48143801C71020D2
:10880000A7E8110106F1400047F810497C61BC61FE
:10881000FC6100F035FB3763002205210E207E62EB
:1088200001F028F80E2001F011F8A86940F480400A
:10883000A861A86900F480400490114830604FF4AA
:10884000E130C6E901040C20F460C6E90440B461DB
:108850003046F46102F0B0F900220521252001F034
:1088600009F8252000F0F2FF06B00020BDE8F081F5
:108870000010024000080140580002402022002061
:1088800000380140034910B54860084602F094F9E9
:10889000002010BDA821002030B5104885B08169A6
:1088A00041F00401816180694FF4004400F004004C
:1088B00004900120CDE90040002002900220084DE4
:1088C00003906946284600F02DFD012221462846E6
:1088D00000F012FF05B0002030BD00000010024083
:1088E0000008014010B50122D103024800F004FF46
:1088F000002010BD0008014010B500224FF40041D7
:10890000024800F0F9FE002010BD00000008014000
:108910001CB54FF41640FFF7B5FFFFF739FEFFF720
:1089200059FE0A2000F062FBFFF73CFE4FF4FA7498
:10893000204600F05BFB1DA002F036FA642000F038
:1089400055FB1AA002F030FA642000F04FFB19A08A
:1089500002F02AFA642000F049FB19A002F024FA80
:10896000642000F043FB1CA002F01EFA642000F01B
:108970003DFB20A002F018FA234824A102686846B3
:1089800004F0D6F8022308226946224802F0A6F92C
:1089900021A002F009FA642000F028FBFFF7F8FD9F
:1089A000204600F023FB00201CBD000041540D0AAE
:1089B0000000000041542B524F4C453D300D0A0041
:1089C00041542B554152543D3131353230302C30E9
:1089D0002C300D0A0000000041542B505357443DE9
:1089E0004A4953484956525F57414C4B45520D0A2C
:1089F0000000000041542B4E414D453D4A4953482B
:108A00004956525F00000000582200202530385897
:108A100000000000A82100200D0A0000FEE7002051
:108A2000704700207047000010B500220549064835
:108A300003F090F803490448403903F085F800201A
:108A400010BD0000D82400206422002010B5044688
:108A500003F040F82146044803F076F8024803F09A
:108A600057F8002010BD000064220020094A10B50C
:108A7000D2F81822D2F814220AB1012010BD0A46F9
:108A80000146044803F066F8BDE81040014803F0D1
:108A9000A1B800006422002005490968016004496A
:108AA000091D096841600249083109688160704701
:108AB000E8F7FF1F70B5044600200246064D07E0A8
:108AC000A65CC3B27340521C35F8133083EA102001
:108AD0008A42F5D370BD00008CD00008014800F038
:108AE00099B80000E8210020014800F093B8000088
:108AF000202200207047012000F008BC022000F076
:108B000005BC000010B5012804D040F267210848D8
:108B100004F068FA07490020C8610748016941F07C
:108B200004010161016941F04001016110BD0000D3
:108B3000D0D200088821002000200240064A0021EF
:108B4000D16106490A6942F002020A614861086976
:108B500040F040000861704788210020002002405A
:108B6000044B0022DA61044A136943F001031361E4
:108B70000180704788210020002002400E49C8680B
:108B8000C2060E4803D5C26942F00202C261CA6839
:108B9000520703D5C26942F00102C261CA69D20715
:108BA00007D0C26942F00402C261C86920F0010026
:108BB000C8611420C860704700200240882100204E
:108BC00070B5054600F0D0FD0646114C09E0681C62
:108BD00007D025B100F0C8FD801BA84201D90320B1
:108BE00070BDE068C007F2D1E068800601D52020A2
:108BF000E060E068C00605D4E069C00702D1E06823
:108C0000400703D5FFF7BAFF012070BD002070BDFB
:108C1000002002402DE9F05FDFF860820446D8F8BA
:108C20000020DFF858B2954D944E944F0068DFF85D
:108C30004C92DFF848A20BF1080B1C353036443754
:108C40004FF400614FF4004C4FF4002E09F1580925
:108C50000AF16C0A584501D1082316E0A84201D157
:108C6000802312E0B04201D10B460EE0B84201D1A0
:108C700063460AE0484501D1734606E0504502D1FB
:108C80004FF4000301E04FF000631A4231D0026854
:108C9000D24312072DD4026822F008020260206835
:108CA000584501D1082114E0A84201D1802110E0EB
:108CB000B0420ED0B84201D161460AE0484501D128
:108CC000714606E0504502D14FF4000101E04FF03B
:108CD0000061C8F80410606B40F00100606304207C
:108CE00084F82100002084F82000216B09B120467F
:108CF00088476248D0F800C04FF4806120680A01BC
:108D00000B044FF4802E584502D14FF0040816E0B2
:108D1000A84202D14FF0400811E0B04201D188468C
:108D20000DE0B84201D1904609E0484501D1F04636
:108D300005E0504502D14FF4800800E098461CEA57
:108D4000080F33D0D0F800C06FEA0C0C5FEA4C7CFF
:108D50002CD4D0F800C05FEA8C6C05D4D0F800C0E9
:108D60002CF0040CC0F800C02068584501D1042143
:108D700013E0A84201D140210FE0B0420DD0B8422B
:108D800001D1114609E0484501D1714605E0504541
:108D900002D14FF4800100E01946384841601120AB
:108DA00084F82100E16A09B120468847334AD2F8A5
:108DB00000C05B46206851154FF4005B4FF4003E45
:108DC000984202D14FF0020817E0A84202D14FF0BA
:108DD000200812E0B04201D188460EE0B84201D12D
:108DE000D8460AE0484501D1F04606E0504502D198
:108DF0004FF4001801E04FF000781CEA080F3BD058
:108E0000D0F800C06FEA0C0C5FEA8C7C34D4D0F848
:108E100000C05FEA8C6C05D4D0F800C02CF0020CC6
:108E2000C0F800C02068984201D1022114E0A84295
:108E300001D1202110E0B0420ED0B84201D15946F4
:108E40000AE0484501D1714606E0504502D14FF491
:108E5000001101E04FF000715160606B6063012010
:108E600084F82100002084F82000A16A002903D0A2
:108E70002046BDE8F05F0847BDE8F09F00000240D3
:108E800070B504006ED04849206888421BD046491E
:108E90001431884217D044492831884213D04249BE
:108EA0003C3188420FD04049503188420BD03E4976
:108EB0006431884207D03C497831884203D0B521DB
:108EC0003AA004F08FF8606840B1102806D0B0F5E1
:108ED000804F03D0B62135A004F084F8A068402864
:108EE00004D018B1B72131A004F07CF8E0688028E4
:108EF00004D018B1B8212DA004F074F8206948B14D
:108F0000B0F5807F06D0B0F5007F03D0B92127A04F
:108F100004F068F8606948B1B0F5806F06D0B0F52C
:108F2000006F03D0BA2121A004F05CF8A06928B139
:108F3000202803D0BB211DA004F054F8E06960B1E3
:108F4000B0F5805F09D0B0F5005F06D0B0F5405FA6
:108F500003D0BC2115A004F045F894F821000023AB
:108F600010B103E0012070BD84F82030022084F8A5
:108F700021002268116843F6F0708143D4E90105AD
:108F80002843D4E903563543284365692843A56936
:108F90002843E5692843084310606363012084F88F
:108FA0002100002070BD0000080002402E2E5C2E23
:108FB0002E5C2E2E5C447269766572735C53544D40
:108FC0003332463178785F48414C5F447269766548
:108FD000725C5372635C73746D3332663178785FA0
:108FE00068616C5F646D612E6300000031B500F054
:108FF000BBFB044600F0B8FB0099001B8842F9D384
:1090000038BD00002DE9F05F044650480F460126A8
:10901000017E012943D0012182460176DFF83081AB
:10902000206840B102283DD0B9214A4803F0DAFF58
:109030002068022836D0A068DFF81CB1DFF81C9148
:109040004FF0FF35B0F1006F0AD3B9F80010802956
:109050003CD0402944D020294CD0414988420BD9EA
:10906000FA213C4803F0BEFFB9F8000080282FD059
:10907000402838D0202840D0D4E9020105EB8121D6
:1090800001443748814203D9FB21324803F0AAFF4B
:109090004CF250394846FFF793FDA8B351E0022047
:1090A000BDE8F09F4CF250342046FFF789FD60BBCD
:1090B0000120FFF727FD2046FFF782FDD8F81010AA
:1090C000064621F00401C8F810103AE05845C7D808
:1090D000D4E9020105EB812101445945D8D9D3E7F0
:1090E00020498842BCD8D4E9020105EB8121014422
:1090F0001C48C7E71C498842B2D8D4E9020105EBF5
:10910000812101441848BDE700E01AE03D60A568F0
:1091100011E02846FFF712FD4846FFF751FDD8F849
:109120001010060021F00201C8F8101001D03D60B7
:1091300007E005F58065D4E9020100EB8120A84233
:10914000E7D800218AF818103046A9E788210020C6
:1091500000200240D0D20008FFFF0108E0F7FF1F07
:10916000FF3F0008FFFF0008FF7F00080348016978
:1091700041F08001016100207047000000200240A2
:109180002DE9F05F06462D480D460024017E174666
:109190009846012925D0012181460176012E07D06C
:1091A000022E05D0032E03D0C42125A003F01AFF00
:1091B000B5F1006F0AD332480088802814D04028C7
:1091C00014D0202814D02F48854203D9C5211CA0D3
:1091D00003F008FF4CF2503A5046FFF7F1FC48B15B
:1091E00028E00220BDE8F09F2748EDE72748EBE79D
:1091F0002748E9E7012E02D0022E00D00426D346EC
:10920000DFF890A0220141463846FEF78BFF81B27D
:1092100005EB4400FFF7A4FC5846FFF7D1FCDAF851
:10922000102022F00102CAF8102018B9641CE4B220
:10923000B442E7D3002289F81820D3E78821002020
:109240002E2E5C2E2E5C2E2E5C4472697665727317
:109250005C53544D3332463178785F48414C5F441B
:1092600072697665725C5372635C73746D333266D7
:109270003178785F68616C5F666C6173682E63003B
:10928000E0F7FF1FFF3F0008FFFF0108FFFF000896
:10929000FF7F00080020024005480169090605D546
:1092A0000449416004494160002070470120704733
:1092B0000020024023016745AB89EFCD10B501289E
:1092C00004D0022801D100F01FF810BD00F002F810
:1092D00010BD000010B50A4C0A48216800294FF063
:1092E000020103D000F0ACF918B106E000F0A8F9D3
:1092F00018B16068401C606010BD6068401EFAE7ED
:109300000C200020000C014070470000044910B5FB
:109310000A68024202D00860FFF7D0FF10BD0000CB
:10932000140401402DE9F84FDFF890B20D460446D1
:109330004FF0000958450FD0A14884420CD0A148F5
:10934000844209D0A048844206D0A048844203D079
:10935000CF219FA003F046FE28880004000C03D113
:10936000D0219BA003F03EFE6868F8B101281DD013
:1093700011281BD0022819D0122817D0A4498842DE
:1093800014D0A449884211D0A34988420ED0A349E1
:1093900088420BD0A249884208D0A249884205D011
:1093A000032803D0D1218AA003F01CFE00274FF030
:1093B000010A00BF2E680AFA07F806EA08064645C1
:1093C0006FD15C450FD07E4884420CD07D488442EA
:1093D00009D07D48844206D07C48844203D0DF21F6
:1093E0007BA003F0FFFD8A496868421A884259D081
:1093F0000EDC032876D006DC002853D0012819D0D3
:1094000002286AD131E0112821D0122865D13AE032
:10941000B2F5881F46D006DCB2F5803F42D0B2F5E7
:10942000801F5AD13EE0B2F5001F3BD0B2F5041FB9
:1094300053D137E0E868022807D0012805D0032877
:1094400003D0E72162A003F0CDFDE8683FE0E868C3
:10945000022807D0012805D0032803D0EE215CA004
:1094600003F0C0FDE868001D31E0E868022807D07D
:10947000012805D0032803D0F52155A003F0B2FD43
:10948000E868083023E0E868022807D0012805D002
:10949000032803D0FC214EA003F0A4FDE8680C30A3
:1094A00015E085E0A86888B1012812D0022808D00C
:1094B00040F2091146A003F095FDA86830B10128DB
:1094C00007D04FF00809C4F8148006E00420814654
:1094D00003E04FF00809C4F81080FF2E05D822469B
:1094E00005E0FFE74FF00000F1E704F104024FEA66
:1094F000870001D9A0F1200013684FF00F0101FA95
:1095000000FC23EA0C0309FA00FC43EA0C03136095
:109510006868C0004CD54448826942F0010282610B
:10952000806927F0030200F0010000903F480244E8
:109530009068BB071B0F994088435C4501D100210F
:109540000FE01F498C4201D101210AE01D498C42E4
:1095500001D1022105E01C498C4201D1032100E028
:1095600004219940014391606868C0033048016854
:1095700001D5314300E0B1430160686880032D48A4
:10958000016801D5314300E0B14301606868C00261
:109590002948016801D5314300E0B14301606868A2
:1095A00080022648016801D5314300E0B1430160E3
:1095B0007F1C102FFFF4FEAEBDE8F88F00080140BD
:1095C000000C01400010014000140140001801404F
:1095D0002E2E5C2E2E5C2E2E5C4472697665727384
:1095E0005C53544D3332463178785F48414C5F4488
:1095F00072697665725C5372635C73746D33326644
:109600003178785F68616C5F6770696F2E63000006
:109610000000111000002110000031100000121095
:109620000000221000003210001002400000014033
:109630000004014004040140080401400C040140FE
:1096400070B50C00054604D14FF4E27103A003F09D
:10965000C9FCA868204000D0012070BD2E2E5C2ED1
:109660002E5C2E2E5C447269766572735C53544D89
:109670003332463178785F48414C5F447269766591
:10968000725C5372635C73746D3332663178785FE9
:1096900068616C5F6770696F2E63000070B50C00C5
:1096A000054604D14FF4FD7103A003F09BFCE8686C
:1096B0006040E86070BD00002E2E5C2E2E5C2E2EC9
:1096C0005C447269766572735C53544D3332463133
:1096D00078785F48414C5F4472697665725C53727A
:1096E000635C73746D3332663178785F68616C5F88
:1096F0006770696F2E63000070B515460C00064652
:1097000004D14FF4F27108A003F06CFC45B1012DB7
:1097100004D040F2E51104A003F064FC346170BD94
:109720002004306170BD00002E2E5C2E2E5C2E2E8B
:109730005C447269766572735C53544D33324631C2
:1097400078785F48414C5F4472697665725C537209
:10975000635C73746D3332663178785F68616C5F17
:109760006770696F2E630000014800687047000051
:109770000420002002480168491C01607047000075
:1097800004200020074810B5016841F01001016075
:10979000032000F0A3F8002000F006F800F016F80F
:1097A000002010BD0020024010B5044600F014FC5B
:1097B0004FF47A71B0FBF1F001F07CF90022214600
:1097C000501E00F057F8002010BD00001D4808B5DD
:1097D000816941F001018161806900F00100009020
:1097E000032000F07BF8002211466FF00B0000F020
:1097F00041F8002211466FF00A0000F03BF8002209
:1098000011466FF0090000F035F800221146501F94
:1098100000F030F800221146101F00F02BF8002253
:109820001146901E00F026F800221146501E00F04E
:1098300021F80548416821F0E06141F00071416084
:1098400008BD0000001002400000014010B50400F7
:1098500003D5E621064803F0C5FB04F01F010120F3
:1098600088406109890001F1E021C1F8000110BDC3
:109870008CD2000870B515460C460646102A03D354
:10988000D221144803F0AEFB102C03D3D32111488E
:1098900003F0A8FB10480068C0F30223C3F10702DD
:1098A0002046042A00D90422191D072901D20023C9
:1098B00000E0DB1E012404FA02F1491E0140994038
:1098C0009C40641E2C4021433046BDE8704001F0AE
:1098D0007DBA00008CD200080CED00E010B5044603
:1098E00007280BD0062C09D0052C07D0042C05D056
:1098F000032C03D0BA21084803F074FB074904F095
:10990000070208684FF6FF03184040EA0220044AA5
:109910001043086010BD00008CD200080CED00E080
:109920000000FA0510B50C0605D501F07F0100EB2B
:109930004110283003E000EB411000F5027099B2AD
:1099400032B101228272C180190C0181002010BD48
:10995000002282728180F9E7704700EB4112D0F853
:109960001C04D26B02F0C2BA00EB4112D0F81C0406
:10997000D2F81C2202F00FBB10B504460A460B06B3
:1099800001F07F0004EB401101D5283101E001F521
:1099900002710870D009487094F8E803012809D0D2
:1099A000012084F8E803206802F0AEFE002084F86D
:1099B000E80310BD022010BD70B50A460446090632
:1099C00002F07F0003D504EB4011283103E004EBE3
:1099D000421101F5027100258D700870D0094870A0
:1099E00094F8E803012809D0012084F8E8032068EE
:1099F00002F032FF84F8E853002070BD022070BDF1
:109A000001F07F0100EB4110B0F8240280B27047F2
:109A100070B504460D460E0601F07F0004EB4011C0
:109A200001D5283101E001F502710870E80948709C
:109A30000A61CB7094F8E803012809D0012084F86A
:109A4000E803206802F030FD002084F8E80370BDD0
:109A5000022070BD70B504460E4601F07F0004EB95
:109A6000401101F5077100252CC101F81F5C01F8B8
:109A7000200D94F8E80301280AD0012084F8E803B7
:109A80007006206802F042FF84F8E853002070BDA1
:109A9000022070BD70B50D460446090605F07F0032
:109AA00003D504EB4011283103E004EB451101F527
:109AB000027101228A700870E809487094F8E8037E
:109AC000012807D084F8E823206802F0FAFE68062F
:109AD00002D006E0022070BD04F57B71206802F020
:109AE000B9FE002084F8E80370BD70B504460E4648
:109AF00001F07F0004EB40113C3100252CC1012214
:109B000001F81F2C01F8200D94F8E803012809D072
:109B100084F8E8237006206802F0F8FE84F8E85321
:109B2000002070BD022070BD10B50446006802F030
:109B3000CFFF000402D5204601F06AF9206802F048
:109B4000C7FF40050CD5206830F8441F21F4806120
:109B50000180204600F016F90021204600F027F988
:109B6000206802F0B5FF400405D5206830F8441F96
:109B700021F480410180206802F0AAFF800405D50D
:109B8000206830F8441F21F400510180206802F061
:109B90009FFFC00413D5206830F8401F21F0040156
:109BA000018021684FF43D40A1F84000204600F0BC
:109BB000F6F8206830F8441F21F4805101802068B5
:109BC00002F086FF00051AD5206830F8441F21F402
:109BD00000610180206830F8401F41F008010180D9
:109BE000206830F8401F41F004010180206802F035
:109BF0006FFFC043C00402D5204600F00DF9206875
:109C000002F066FF800508D5206830F8441F21F473
:109C100000710180204600F0C6F8206802F058FF6D
:109C2000C00505D5206830F8441F21F480710180FB
:109C300010BD00002DE9F04186B004004FF0000592
:109C40000CD030492068884203D0A1212EA003F017
:109C5000C9F994F8E903002620B108E0012006B014
:109C6000BDE8F08184F8E863204600F06DF8032039
:109C700084F8E903206802F0E6FD04F110011422E3
:109C800088466846FEF75EFA94E80F0002F03AFD57
:109C90000021206802F02FFF5FF0010704EB451060
:109CA00080F8297000F8285F8581C67006614661DA
:109CB0006D1C86610F2DF1D35FF0000004EB4011A5
:109CC00081F8096281F80802888681F80B62C1F880
:109CD0001862C1F81C62401CC1F820620F28EDD345
:109CE000142241466846FEF72DFA94E80F0002F070
:109CF000A1FD84F8246084F8E973206802F098FDDF
:109D00000020ACE7005C00402E2E5C2E2E5C2E2E38
:109D10005C447269766572735C53544D33324631DC
:109D200078785F48414C5F4472697665725C537223
:109D3000635C73746D3332663178785F68616C5F31
:109D40007063642E6300000008B500680B49884208
:109D500012D10B48C16941F40001C161C069002200
:109D600000F40000009005211420FFF783FDBDE8FA
:109D700008401420FFF76ABD08BD0000005C0040E9
:109D80000010024010B504460121D0F81C0402F076
:109D9000C9F9D4F81C04BDE8104002F092B9D0F81B
:109DA0001C0402F0ADB9D0F81C0402F0AFB910B534
:109DB000044690F8E80301280BD0012084F8E8035A
:109DC00084F82410206802F098FE002084F8E8034C
:109DD00010BD022010BDD0F81C2400F57B71104688
:109DE00002F0AAB910B5044690F8E803012810D093
:109DF000012084F8E80301462046FFF7ADFD206806
:109E000002F014FD206802F056FE002084F8E803FA
:109E100010BD022010BD000010B50446D0F81C048F
:109E200002F0C5F9A069002804D00348016841F098
:109E30000601016010BD000010ED00E02DE9F843BF
:109E400004460068604DC1070AD1810770D4C0067E
:109E50006FD47E215D4803F0C5F82078C00769D033
:109E6000606860B1B0F5807F09D0B0F5007F06D0A2
:109E7000B0F5407F03D08421544803F0B3F8E8697B
:109E800040F08050E861E869514E00F08050009049
:109E9000306840F480703060FFF766FC074604E0ED
:109EA000FFF762FCC01B642833D83068C005F7D5C3
:109EB000286A10F4407054D0A18801F440718142A6
:109EC0004FD0286A0126310491FAA1F2B2FA82F247
:109ED0009300404A20F440701344C3F8006491FAA0
:109EE000A1F1B1FA81F102EB81010023C1F8003444
:109EF0002862C00735D0FFF737FC074641F28839A2
:109F00004FF0020808E000BFFFF72EFCC11B4945D7
:109F100002D90320BDE8F88398FAA8F1B1FA81F1DB
:109F200041F040014046B6EB511F04D129680EE0D4
:109F300020E037E01BE090FAA0F1B1FA81F141F0A6
:109F40004001B0EB511F01D1296A00E0696A98FA1B
:109F5000A8F0B0FA80F000F01F0206FA02F0014209
:109F6000D2D0286A616820F44070084328622078C3
:109F7000800714D5A06860B1B0F5804F09D0B0F566
:109F8000004F06D0B0F5404F03D0BA210F4803F080
:109F900029F86868A16820F4404008436860207888
:109FA000C0060FD5E068B0F5800F05D020B14FF4A2
:109FB0008B71064803F016F86868E16820F48000A9
:109FC000084368600020A5E70010024014D3000891
:109FD00000700040000042420148006870470000E5
:109FE00000200020704710B5FFF7FCFF10BD704740
:109FF000704770477047FEE7FEE7FEE7704770471F
:10A00000FFFFFFFF2DE9F0470E46050004D14FF496
:10A010002F718DA002F0E6FF2868C1070AD18107E1
:10A0200008D4410706D4000704D440F2BD2186A01D
:10A0300002F0D8FF46B1012E06D0022E04D040F225
:10A04000BE2181A002F0CEFFDFF83C82D8F80000EC
:10A0500000F00700B0420CD2D8F8001021F0070140
:10A060003143C8F80010D8F8000000F00700B042F3
:10A070006FD12878854C80071CD5A868A0B18028AE
:10A0800012D0902810D0A0280ED0B0280CD0C02814
:10A090000AD0D02808D0E02806D0F02804D040F21A
:10A0A000D72169A002F09EFF6068A96820F0F00047
:10A0B000084360602878C00764D06868012768B1E9
:10A0C000012817D0022834D040F2DE215EA002F031
:10A0D00089FF686801280DD002282AD05FF00201AC
:10A0E00091FAA1F0B0FA80F040F02000400904D0CD
:10A0F000206803E04FF40031F2E7606A91FAA1F1C1
:10A10000B1FA81F101F01F018F4038424BD06068F5
:10A11000696820F0030008436060FFF725FB696869
:10A12000074641F2883001290CD00229814616D019
:10A1300024E04FF00071D3E7FFF716FBC11B494540
:10A1400001D918E081466068C0F381000128F3D18D
:10A1500018E028E0FFF708FBC11B49450BD86068F1
:10A16000C0F381000228F5D10CE000BFFFF7FCFA34
:10A17000C11B494502D90320BDE8F087606810F093
:10A180000C0FF3D1D8F80010404601F00701B1429E
:10A190000BD9016821F0070131430160006800F02C
:10A1A0000700B04201D00120E6E728784FF480662E
:10A1B00040074FF4A0674FF4C0684FF4E06914D52E
:10A1C000E86860B1B0420AD0B84208D0404506D035
:10A1D000484504D040F232311BA002F003FF606812
:10A1E000E96820F4E060084360602878000715D52E
:10A1F000286960B1B0420AD0B84208D0404506D0C4
:10A20000484504D040F239310FA002F0EBFE6068FF
:10A21000296920F4605040EAC100606000F06CF8E9
:10A220006168F02292FAA2F201F0F001B2FA82F231
:10A23000D140174A515CC840164908600020FFF71A
:10A24000B3FA002098E700002E2E5C2E2E5C2E2EF6
:10A250005C447269766572735C53544D3332463197
:10A2600078785F48414C5F4472697665725C5372DE
:10A27000635C73746D3332663178785F68616C5FEC
:10A280007263632E63000000002002400010024051
:10A2900070D000080020002008480949006849687B
:10A2A0004FF4E06292FAA2F201F4E061B2FA82F2B3
:10A2B000D140044A515CC840704700000020002093
:10A2C0000010024080D00008084809490068496829
:10A2D0004FF4605292FAA2F201F46051B2FA82F2A3
:10A2E000D140044A515CC840704700000020002063
:10A2F0000010024080D0000810B519A385B00FCB24
:10A300008DE80F001AA01B4B006804905A681A4889
:10A3100002F00C0104291DD008291BD14FF4701440
:10A3200094FAA4F402F47011B4FA84F4E140D20374
:10A330001DF8011010D55A684FF4003393FAA3F3B7
:10A3400002F40032B3FA83F3DA4004AB9A5CB0FB58
:10A35000F2F0484305B010BD08484843FAE7000052
:10A3600002030405060708090A0B0C0D0E0F101056
:10A37000010200000010024000127A0000093D00B6
:10A380002DE9F84F040004D14FF48771EFA002F0DB
:10A3900029FE0227DFF8F483FD4D20684FF4003AD0
:10A3A0004FF000094FF4803B012660B1C1070DD189
:10A3B000810777D4010776D4400775D440F20F1196
:10A3C000E2A002F00FFE2078C00730D0606848B1EC
:10A3D000584507D0B0F5A02F04D040F21511DBA0EE
:10A3E00002F000FE6868C0F38100012807D06868A9
:10A3F000C0F3810002281BD16868C00318D59AFAFF
:10A40000AAF1B1FA81F141F02001490901D029688E
:10A4100000E0696A9AFAAAF0B0FA80F000F01F0032
:10A4200006FA00F0014260D0606800287ED05CE04F
:10A430006068584503D1286840F480300AE010B1C4
:10A44000B0F5A02F0DD0286820F48030286028684F
:10A4500020F480202860606838B3FFF785F9009009
:10A460000AE0286840F480202860E4E7FFF77CF9E0
:10A470000099401A642873D89AFAAAF0B0FA80F0CA
:10A4800040F02000400901D0286800E0686A9AFA8C
:10A49000AAF1B1FA81F101F01F0106FA01F10842B7
:10A4A000E4D022E024E0BBE034E1FFE7FFF75CF911
:10A4B000009005E0FFF758F90099401A6428DAD8AF
:10A4C0009AFAAAF0B0FA80F040F02000400901D0DA
:10A4D000286800E0686A9AFAAAF1B1FA81F101F0FD
:10A4E0001F0106FA01F10842E4D1207880076DD5FA
:10A4F000206930B1012804D040F2491193A002F044
:10A5000071FD60691F2804D94FF4A5718FA002F076
:10A5100069FD686810F00C0F07D06868C0F381000F
:10A5200002281ED16868C0031BD400E08FE097FAB0
:10A53000A7F0B0FA80F040F02000400901D0286870
:10A5400000E0686A97FAA7F1B1FA81F101F01F0102
:10A5500006FA01F108422DD02069012877D129E0BF
:10A5600073E2206998B396FAA6F0B0FA80F048F842
:10A570002060FFF7F9F8009007E000BFFFF7F4F85C
:10A5800001460098081A022899D897FAA7F0B0FA5D
:10A5900080F040F02000400901D0286800E0686A9F
:10A5A00097FAA7F1B1FA81F101F01F0106FA01F162
:10A5B0000842E3D02868F82292FAA2F26169B2FA5E
:10A5C00082F220F0F80091400843286025E0FFE780
:10A5D00096FAA6F1B1FA81F148F82190FFF7C4F894
:10A5E000009005E0FFF7C0F80099401A0228CBD888
:10A5F00097FAA7F0B0FA80F040F02000400901D0AF
:10A60000286800E0686A97FAA7F1B1FA81F101F0D1
:10A610001F0106FA01F10842E4D12078000776D53F
:10A62000A06988B3012806D04FF4C57147A002F095
:10A63000D9FCA06940B396FAA6F0B0FA80F008EB16
:10A640008000C0F88064FFF78FF8009006E0B7E163
:10A65000FFF78AF80099401A022895D897FAA7F0D0
:10A66000B0FA80F040F06000B6EB501F01D12868CE
:10A670000CE097FAA7F0B0FA80F040F06000B7EB7A
:10A68000501F02D1286A01E00EE0686A97FAA7F12C
:10A69000B1FA81F101F01F0106FA01F21042D7D0A0
:10A6A0000120FEF7A3FC32E096FAA6F1B1FA81F19F
:10A6B00008EB8101C1F88094FFF756F8009005E09F
:10A6C000FFF752F80099401A022890D897FAA7F09D
:10A6D000B0FA80F040F06000B6EB501F01D128685E
:10A6E0000BE097FAA7F0B0FA80F040F06000B7EB0B
:10A6F000501F01D1286A00E0686A97FAA7F1B1FA01
:10A7000081F101F01F0106FA01F21042D8D1207840
:10A7100040077CD5E06840B1012806D0052804D068
:10A7200040F2B71109A002F05DFCE86940F08050EA
:10A73000E861E86900F0805000901648016841F433
:10A7400080710160FFF710F800902BE02E2E5C2E38
:10A750002E5C2E2E5C447269766572735C53544D88
:10A760003332463178785F48414C5F447269766590
:10A77000725C5372635C73746D3332663178785FE8
:10A7800068616C5F7263632E6300000000004242E8
:10A790000010024000700040FEF7E6FF0099401AEA
:10A7A000642892D8B7480068C005F5D5E06801284C
:10A7B0000AD008B1052811D0286A20F001002862CB
:10A7C000286A20F0040002E0286A40F001002862B4
:10A7D000E068A0B3FEF7C8FF00900DE0286A40F0E3
:10A7E00004002862F0E700BFFEF7BEFF0099411A9F
:10A7F00041F288308142D4D897FAA7F0B0FA80F0BD
:10A8000040F04000B6EB501F02D128680CE044E055
:10A8100097FAA7F0B0FA80F040F04000B7EB501F75
:10A8200001D1286A00E0686A97FAA7F1B1FA81F1CC
:10A8300001F01F0206FA02F10842D5D02DE0FFE731
:10A84000FEF792FF009007E0FEF78EFF0099411A95
:10A8500041F288308142A4D897FAA7F0B0FA80F08C
:10A8600040F04000B6EB501F01D128680BE097FA8A
:10A87000A7F0B0FA80F040F04000B7EB501F01D1D4
:10A88000286A00E0686A97FAA7F1B1FA81F101F04D
:10A890001F0206FA02F10842D6D1E06900286ED004
:10A8A00001280AD0022808D040F24721AFF26410F4
:10A8B00002F098FBE069002861D06868C0F381006D
:10A8C00002287DD0E0694FF0807702280BD097FAFC
:10A8D000A7F1B1FA81F148F82190FEF745FF07464C
:10A8E0004FF00074B4E0206A38B1584505D04FF4F9
:10A8F0001471AFF2A81002F075FB606A78B3B0F57E
:10A90000802F2CD0B0F5002F29D0B0F5402F26D0C5
:10A91000B0F5801F23D0B0F5A01F20D0B0F5C01F28
:10A920001DD0B0F5E01F1AD0B0F5001F17D0B0F55C
:10A93000101F14D0B0F5201F11D0B0F5301F0ED06D
:10A94000B0F5401F0BD0B0F5501F08D0B0F5601F18
:10A9500005D040F25121AFF20C2002F043FB4FF042
:10A96000807191FAA1F14846B1FA81F1C14648F8E7
:10A970002100FEF7F9FE80464FF0007706E07CE00C
:10A98000FEF7F2FEA0EB080002285ED897FAA7F0C7
:10A99000B0FA80F040F02000400901D0286800E0C3
:10A9A000686A97FAA7F1B1FA81F101F01F0106FA7E
:10A9B00001F10842E4D1206A584511D1A06800E0B5
:10A9C0005DE038B1504505D040F26721AFF28420F8
:10A9D00002F008FB6868A16820F400300843686052
:10A9E000D4E908010843696821F4741108436860D8
:10A9F0004FF0807090FAA0F0B0FA80F049F8206033
:10AA0000FEF7B2FE044604E0FEF7AEFE001B02288D
:10AA10001BD897FAA7F0B0FA80F040F02000400968
:10AA200001D0286800E0686A97FAA7F1B1FA81F1CD
:10AA300001F01F0106FA01F10842E5D01DE000BF58
:10AA4000FEF792FEC01B022802D90320BDE8F88F52
:10AA500094FAA4F0B0FA80F040F02000400901D050
:10AA6000286800E0686A94FAA4F1B1FA81F101F073
:10AA70001F0106FA01F10842E2D10020E6E70120B9
:10AA8000E4E700000070004010B54FF0E024042817
:10AA900009D020B14FF4DF71054802F0A3FA206914
:10AAA00020F0040002E0206940F00400206110BDA5
:10AAB0008CD2000810B5401EB0F1807F01D3012078
:10AAC00010BD4FF0E02460610F21601700F07EF9A7
:10AAD0000020A06107202061002010BD38B5044689
:10AAE00000680168C26811F0010F02F4807204D09E
:10AAF0001AB1E16B41F00101E1630168C1F3400269
:10AB0000416901F0010122B119B1E26B42F0040286
:10AB1000E2630268C2F3800222B119B1E26B42F033
:10AB20000202E2630268C2F3C00222B119B1E16B12
:10AB300041F00801E1630168C068C1F3401100F011
:10AB4000200019B110B1204600F03CFD20680168DA
:10AB5000C068C1F3C01100F0800019B110B12046E7
:10AB600000F088FE21680868CA68C0F3801002F00F
:10AB70004002012570B16AB1CA68204622F0400245
:10AB8000CA6094F83910322911D080F8395000BFCA
:10AB9000FFF730FAE06B002808D0206801684068B1
:10ABA000009084F839502046FFF721FA38BD222161
:10ABB00080F83910ECE7000070B5040020D0A069DF
:10ABC00033490028334A344B20681BD088420AD0CE
:10ABD000904208D0984206D040F207112FA002F010
:10ABE00001FAA069C8B1A069B0F5807F15D0B0F5B1
:10ABF000007F12D0B0F5407F0FD04FF4847109E090
:10AC0000012070BD884208D0904206D0984204D0FE
:10AC10004FF4867121A002F0E5F9A06838B1B0F5D3
:10AC2000805F04D04FF487711CA002F0DBF9E0696B
:10AC300020B140F20F1119A002F0D4F994F83900B4
:10AC4000002520B984F838502046FFF7D1F90220BA
:10AC500084F839002068C16821F40051C1602046A1
:10AC600000F004FD2068016921F490410161206831
:10AC7000416921F02A0141612068C16841F4005115
:10AC8000C160E563012084F83900002070BD000038
:10AC90000038014000440040004800402E2E5C2E49
:10ACA0002E5C2E2E5C447269766572735C53544D33
:10ACB0003332463178785F48414C5F44726976653B
:10ACC000725C5372635C73746D3332663178785F93
:10ACD00068616C5F756172742E6300002DE9F04746
:10ACE000044690F8390099460D46012801D02228E3
:10ACF00058D12DB322B394F83800012852D0012640
:10AD000084F838600027E76394F8390022281AD0C5
:10AD10005FF0120084F83900A284E2844FF4805876
:10AD2000E08C4B46401EE084A0684FF00002404596
:10AD30004FF08001204613D100F0CFFD08BB04E0A6
:10AD40000120BDE8F0873220E4E728882168C0F3BD
:10AD500008004860206908B16D1C08E0AD1C06E0E1
:10AD600000F0BBFD68B9216815F8010B4860E08C64
:10AD70000028D5D14B4600224021204600F0ADFDF1
:10AD800008B10320DDE794F83900322806D084F8B2
:10AD9000396000BF84F838700020D2E7222084F8A0
:10ADA0003900F7E70220CCE710B50446FDF7EEF9CD
:10ADB0000521B0FBF1F382B2214603485B1CFFF78B
:10ADC0008DFF002010BD0000A82100200907090EFA
:10ADD000002806DA00F00F0000F1E02080F8141DD2
:10ADE000704700F1E02080F800147047BFF34F8FE8
:10ADF00005480168054A01F4E06111430160BFF3B1
:10AE00004F8F00BFFDE700000CED00E00400FA05E5
:10AE10002DE9FC5F4FF000080446ADF80480ADF862
:10AE2000008048F60F7B4FF002094FF4806692E1F4
:10AE3000BDF8041011F00F072BD030F82710ADF833
:10AE40000010BDF80010090478D530F8272040F62E
:10AE50008F710A4020F8272004EB471595F812025D
:10AE600005F502750028206869D0297830F821207E
:10AE700052047DD5B0F8503009EBC101194406EBFE
:10AE80004101415AC1F309015FEA010A71D0EA8820
:10AE9000D0E0BDF80410C9062AD4018801EA0B01EC
:10AEA0000180206804F12805B0F850202B7809EBC8
:10AEB000C301114406EB4101405AC0F3090060642C
:10AEC000E16B0844E06300212046FEF746FD94F85C
:10AED00024000028ABD0A8690028A8D194F8240049
:10AEE000216840F08000A1F84C0084F8248032E111
:10AEF000018804F50275ADF80010BDF800100905D1
:10AF00001ED5B0F850302978062202EBC101194451
:10AF100006EB4101405A04F57B71C0F30903EB6174
:10AF2000AA88206801F0D8FD2068018840F68F7259
:10AF3000114001802046FEF74EFF0CE1A0E055E0F5
:10AF4000BDF800100904D2D5028840F68F710A407E
:10AF500002802068B0F850302978062202EBC10147
:10AF6000194406EB4101405A83059B0DEB6101E05A
:10AF700051E063E008D0AA886969206801F0ACFD5F
:10AF8000E96968690844686100212046FEF7ECFC25
:10AF90002068B0F85010891D06EB41010144286972
:10AFA0003E280CD9C0F34F12C00601D1521E92B2F6
:10AFB0004FF6FF7000EA822040F4004009E0C0F341
:10AFC0004F02C00701D0521C92B24FF6FF7000EA48
:10AFD00082200860216808884BF68F72104080F448
:10AFE000405048F2800210430880B4E0B0F850208E
:10AFF0002B78062101EBC301114406EB4101415AB4
:10B00000C1F309015FEA010A24D0AA88534669699D
:10B0100001F062FD1EE0B0F85020062303EBC101F1
:10B02000114406EB4101415AC1F309015FEA010AEB
:10B0300004D02A895346696901F04EFD29782068B9
:10B0400030F8213048F68F72134048F2C0021343A3
:10B0500020F82130E96901EB0A00E861696901EB38
:10B060000A026A61AB6913B12869504504D929788D
:10B070002046FEF779FC03E029782046FEF7EAFC3B
:10B08000BDF80000000666D5206804EB471530F8CF
:10B09000271001EA0B0120F8271095F83200283517
:10B0A0000028206812D0297830F82120B0F85030DC
:10B0B00052061ED509EBC101194406EB4101405A65
:10B0C00083059B0DEB6124D0EA881EE0B0F8503078
:10B0D0002A7809EBC201194406EB4101405A830565
:10B0E0009B0DEB6121D0AA886969206801F00BFDF6
:10B0F0001BE0062202EBC101194406EB4101405A54
:10B1000083059B0DEB6104D02A896969206801F0F1
:10B11000FAFC2978206830F8212048F68F731A400D
:10B120004CF280031A4320F821202068B0F8502008
:10B130002B7809EBC301114406EB4101405AC0F3DF
:10B140000900E86169690A186A612978AB692046D3
:10B1500063B1FEF7CAFC2068B0F84410ADF80410E3
:10B1600009043FF565AE0020BDE8FC9FFEF7F5FB46
:10B17000F1E7000010B586B00024FEF78DF800203E
:10B1800004900090074802900420039004A96846A8
:10B19000FDF738FF00B10124FDF7E8FF06B02046B7
:10B1A00010BD000000E000082DE9F04190460027A6
:10B1B00006460D46FEF770F800240BE055F82420F3
:10B1C00006EB840100230220FDF7DAFF08B1012716
:10B1D00002E0641C4445F1D3FDF7C8FF3846BDE8E2
:10B1E000F081000008B5FFF7C5FFFF220421684683
:10B1F000FCF7BAFF034800906946034800F02EF9B7
:10B20000002008BD000100FF00E0000870B5094CF7
:10B210000020094D60602146284600F00FF830B943
:10B22000221D2846216800F03BF8002800D00120AC
:10B2300070BD00007421002000E0000870B50D46CC
:10B24000040003D1CD210EA0FDF77AF91DB9CE215E
:10B250000BA0FDF775F900201049024604EB8203AC
:10B260005B688B4204D12A60521CF02AF6D370BD71
:10B2700004EB82014968491CF9D0012070BD00002F
:10B280002E2E5C4D6F64756C65735C7372635C73BA
:10B29000746F726167652E630000000067452301CB
:10B2A0002DE9F04117460E46040004D140F2471143
:10B2B00012A0FDF745F927B94FF4A4710FA0FDF7CF
:10B2C0003FF90025F02E10D206EB460004EB800477
:10B2D000D4F8C403B04208D104F573700421FDF71B
:10B2E000E9FBD4F8C813814201D0012502E0D4F86B
:10B2F000CC0338602846BDE8F08100002E2E5C4D5E
:10B300006F64756C65735C7372635C73746F726188
:10B3100067652E63000000000A4602490968491C5F
:10B3200000F060B87421002038B50D46040003D148
:10B33000AE210EA0FDF704F9F02D03D3AF210BA031
:10B34000FDF7FEF804EB8500002243680E495C1C03
:10B3500004D08B4200D00122104638BD00916946CE
:10B360000122001DFFF720FF0246F5E72E2E5C4D5F
:10B370006F64756C65735C7372635C73746F726118
:10B3800067652E63000000006745230170B5144611
:10B390000D46060003D1EF210BA0FDF7D1F81CB933
:10B3A000F02109A0FDF7CCF8F02D01D3012070BDEC
:10B3B00005EB450006EB80002146BDE87040032206
:10B3C00000F57170FFF7F0BE2E2E5C4D6F64756C4A
:10B3D00065735C7372635C73746F726167652E630F
:10B3E00000000000FEB515460C46060004D140F2F0
:10B3F000251112A0FDF7A4F825B94FF493710FA001
:10B40000FDF79EF82868144D02902868A04209D0E4
:10B41000F02C02D30024FFF7E5FE214630462C60D5
:10B42000FFF782FF042102A80094FDF743FB01907F
:10B430006A4621463046FFF7A9FFFEBD2E2E5C4D21
:10B440006F64756C65735C7372635C73746F726147
:10B4500067652E63000000007421002038B50D469A
:10B46000040003D1802108A0FDF76AF82068401C81
:10B4700001D0012038BD296800912046694601228B
:10B48000FFF792FE38BD00002E2E5C4D6F64756C88
:10B4900065735C7372635C73746F726167652E634E
:10B4A0000000000010B5FEF765F9BDE81040FEF79A
:10B4B0009ABD30B593B001210804CDE900100024F5
:10B4C000029402250491CDE907504FF4E010099051
:10B4D0006846FEF755FF0F20CDE90A056802CDE961
:10B4E0000C4002210AA80E94FEF78CFD10200F904C
:10B4F00012940FA8FEF7A2FCFEF76EFD4FF47A71CE
:10B50000B0FBF1F0FFF7D6FA0420FFF7BDFA0022F6
:10B510001146501EFEF7AEF913B030BD0D4801685C
:10B5200041F00101016041680B4A1140416001682E
:10B530000A4A11400160016821F4802101604168DC
:10B5400021F4FE0141604FF41F0181600449C003F2
:10B5500008607047001002400000FFF8FFFFF6FE91
:10B5600008ED00E0F0B500221646042413E0C5689B
:10B5700055F832305B1C45F832304768C568BB422D
:10B5800008D345F83260C36804EBC2055F59CF1B8E
:10B5900087605951521C43689342E8D80020F0BD9F
:10B5A00030B500210A46042307E0C46803EBC10557
:10B5B00044F83110C468491C625144688C42F4D884
:10B5C000002030BD10B590F83910222903D032295F
:10B5D00001D0022010BD8168B1F5805F11D00169F2
:10B5E000002901681FD0496801F07F03816A4A1C65
:10B5F00082620B70C18D491E0904090CC18518D0E7
:10B6000030E00269816A002A0268526805D0D2B22D
:10B610000A80816A491C8162ECE7C2F308020A8051
:10B62000816A891CF7E74A68816A4B1C83620A7049
:10B63000E0E70168CA6822F02002CA6090F8391079
:10B64000322911D00168CA6822F48072CA60016888
:10B650004A6922F001024A615FF0010180F8391065
:10B66000FEF7C7FC002010BD1221F7E72DE9F041DD
:10B67000044640686D49884204D340F252716CA080
:10B6800001F0B0FCE06838B1B0F5005F04D040F2E2
:10B69000537167A001F0A6FC206950B1B0F5806F2E
:10B6A00007D0B0F5C06F04D040F2547160A001F033
:10B6B00099FC606930F00C0100D120B940F255715D
:10B6C0005BA001F08FFC20680169E26821F4405121
:10B6D000114301612169A068084361690843216839
:10B6E000CA6841F20C639A430243CA602068416908
:10B6F000A26921F44071114341615D4920686425CC
:10B70000322688423CD1FEF7DFFD00EBC00101EBA1
:10B71000001061688900B0FBF1F7FEF7D5FD00EB82
:10B72000C00101EB00106168B0468900B0FBF1F088
:10B73000B0FBF5F06FF01801484307EB800106EB12
:10B740000110B0FBF5F000F0F006FEF7BDFD00EBD8
:10B75000C00101EB001061688900B0FBF1F0B0FBA3
:10B76000F5F006EB0016FEF7AFFD00EBC00101EBB4
:10B77000001061688900B0FBF1F7FEF7A5FD3BE022
:10B78000FEF78AFD00EBC00101EB00106168890043
:10B79000B0FBF1F7FEF780FD00EBC00101EB0010FC
:10B7A0006168B0468900B0FBF1F0B0FBF5F06FF0D6
:10B7B0001801484307EB800106EB0110B0FBF5F0E0
:10B7C00000F0F006FEF768FD00EBC00101EB001091
:10B7D00061688900B0FBF1F0B0FBF5F006EB0016F4
:10B7E000FEF75AFD00EBC00101EB00106168890013
:10B7F000B0FBF1F7FEF750FD00EBC00101EB0010CC
:10B8000061688900B0FBF1F0B0FBF5F06FF0180152
:10B81000484307EB800108EB0110B0FBF5F021680D
:10B8200000F00F0030448860BDE8F08121AA440098
:10B830002E2E5C2E2E5C2E2E5C4472697665727301
:10B840005C53544D3332463178785F48414C5F4405
:10B8500072697665725C5372635C73746D333266C1
:10B860003178785F68616C5F756172742E63000077
:10B870000038014090F83910122903D0322901D044
:10B88000022070478168B1F5805F016A0BD04A1CC5
:10B890000262026809785160C18C491E0904090CD2
:10B8A000C1840ED017E009880268C1F30801516015
:10B8B00001690029016A02D0491C0162ECE7891C78
:10B8C000FBE70168CA6822F08002CA600068C168AC
:10B8D00041F04001C160002070472DE9F0471D464E
:10B8E00090460E460446FDF73FFF07465FEA080014
:10B8F0004FF000094FF0010808D030E0681C05D077
:10B9000095B1FDF731FFC01BA8420DD82068006833
:10B9100036EA0000F2D127E0681C20D025B1FDF7FF
:10B9200023FFC01BA8421AD92068C16821F08001FA
:10B93000C1602068C16821F02001C1602068C16831
:10B9400021F48071C1602068416921F001014161E9
:10B9500084F8398084F838900320BDE8F0872068A7
:10B96000006836EA0000D7D00020F6E70148FFF76C
:10B97000B5B80000A8210020D0F8180220B100219D
:10B98000C0F81412084670470220704770B505468B
:10B99000D0F8184200F034FBC4F80C02D5F81802B5
:10B9A00048B1D5F81C12D4F80402CA6804F5037132
:10B9B0009047002070BD022070BD70B50446002580
:10B9C000812100F08CFA0121204600F088FA8221C2
:10B9D000204600F084FAD4F8180250B1D4F81C02C2
:10B9E00004F5067440688047206800F057FD002089
:10B9F0002060284670BD10B5D0E9864159B194F851
:10BA00000002FF2807D08B6894F80122214698474E
:10BA1000FF2084F80002002010BD00000A210180F0
:10BA200000487047202000204321018000487047D3
:10BA30007020002043210180004870472C20002006
:10BA40004321018000487047B42000202DE9F041D7
:10BA50000446007C00254FF4007670B34023022298
:10BA60008121204600F01CFB4023022201212046B8
:10BA700000F016FB082303228221204600F010FB71
:10BA80004FF4077000F00CFDC4F81802F0B107463F
:10BA9000D4F81C02006880470020C7F81402C7F8D9
:10BAA0001802207CD7F8042290B1402301212046BF
:10BAB00000F000FB2846BDE8F081FFE73346022294
:10BAC0008121204600F0ECFA3346CEE70125F1E76C
:10BAD0003346EBE70968042914D30178AB2911D167
:10BAE00000221146435C491C5A400329FAD3C1780D
:10BAF000914207D1417829B98078012802D10349C0
:10BB00000148086000207047AB89EFCD001F00207E
:10BB100010B5D0F8181269B1027C002AD1F80422BD
:10BB200005D04023012100F0C5FA002010BD4FF4DC
:10BB30000073F7E7022010BD02460220002902D060
:10BB40000020C2F81C127047D0F81802C0F8041286
:10BB500000207047D0F81802C0F81022C0F8081270
:10BB60000020704770B50646D0F8185208780C4689
:10BB700010F0600121D0202927D1E288AAB1000667
:10BB8000607807D5D6F81C128B6829469847E2885A
:10BB9000294617E085F80002A07985F80102E288BD
:10BBA0002946304600F050F80FE0D6F81C126078B5
:10BBB00000228B682146984707E060780A2804D164
:10BBC00003490122304600F059F8002070BD000002
:10BBD0001C20002010B5D0F8181289B1D1F8142219
:10BBE0000AB1012010BD0122C1F81422B1F81022BF
:10BBF00093B2D1F80822812100F0E2FA002010BDB2
:10BC0000022010BD10B5D0F81422526890470020D1
:10BC100010BD134610B50A46002100F04BFA002073
:10BC200010BD134610B50A46002100F0C9FA0020E5
:10BC300010BD10B50446802100F0ABFA2046BDE8E7
:10BC40001040002100F0A5BA10B50323C0F8082168
:10BC5000C0F8F431C0F80C2113460A46002100F068
:10BC600029FA002010BD10B505210023C0F8F411F9
:10BC70001A46194600F01EFA002010BD10B5022326
:10BC80008261C0F8F431C26113460A46002100F017
:10BC900097FA002010BD10B504210023C0F8F4115C
:10BCA0001A46194600F08CFA002010BD10B50A465D
:10BCB000024903A000F0D4F8004810BD582B002022
:10BCC00043444320436F6E6669670000122008807A
:10BCD000004870476021002010B50A46024903A0C1
:10BCE00000F0BEF8004810BD582B0020434443200C
:10BCF000496E746572666163650000000420088007
:10BD0000004870475C21002010B50A46024903A094
:10BD100000F0A6F8004810BD582B002053544D6980
:10BD200063726F656C656374726F6E696373000034
:10BD300010B50A46024903A000F092F8004810BD71
:10BD4000582B002053544D3332205669727475615C
:10BD50006C20436F6D506F727400000010B50A467E
:10BD6000024903A000F07CF8004810BD582B0020C9
:10BD70003030303030303030303031410000000071
:10BD8000F8B5044648880D46010A08294BD2DFE879
:10BD900001F04A0409174A4A4048D4F81012207C9E
:10BDA0000A6832E0207C02260028D4F8140205D06C
:10BDB000C16A684688470146467041E0816AF8E7F3
:10BDC000C0B206282FD2DFE800F003080D12171CBE
:10BDD000D4F81012207C4A6817E0D4F81012207CA6
:10BDE0008A6812E0D4F81012207CCA680DE0D4F8FA
:10BDF0001012207C0A6908E0D4F81012207C4A69ED
:10BE000003E0D4F81012207C8A6969469047014605
:10BE100016E0207C38B9D4F81402416B6846884794
:10BE2000F5E7207C20B129462046FFF702FFF8BD48
:10BE3000D4F81402016B6846884701460720487011
:10BE4000BDF800000028F2D0EA88002AEFD0824234
:10BE500000D90246ADF800202046FFF70FFFF8BDDD
:10BE600070B5002300281DD00446002502E06D1C9B
:10BE7000EDB2641C2678002EF9D1022404EB4504AF
:10BE80001480CC545B1C0322CA5400245B1C06E0C3
:10BE9000CA545B1CDAB28C54521CD3B2401C0278D8
:10BEA000002AF5D170BD10B580B1D0F8143213B1AD
:10BEB0000023C0F8143209B1C0F81012012180F833
:10BEC000FC11027000F0A0F8002010BD022010BD8F
:10BED00010B5D0F82002FDF76FFD002010BD10B5A1
:10BEE000D0F82002FDF748FD002010BD2DE9F041FB
:10BEF0001746044641B1D4F8140242698AB394F853
:10BF0000FC01032842D043E0D4F8F411002504F1E9
:10BF10001400022933D1D0E902639E4207D9F31AF3
:10BF200083609AB239462046FFF77BFE12E04068F4
:10BF3000B0FBF3F103FB1101A1B9984212D3D4F87D
:10BF4000F81188420ED2002211462046FFF769FE02
:10BF5000C4F8F85100231A461946204600F0AAF802
:10BF60000DE012E0D4F81402C16829B194F8FC0184
:10BF7000032801D1204688472046FFF774FE94F835
:10BF80000002012804D184F8005201E020469047C5
:10BF90000020BDE8F08170B51546044641B1D4F8E3
:10BFA000140282693AB394F8FC01032824D025E0F6
:10BFB000D4F8F41104F5827003291FD1D0E90221CD
:10BFC0008A420BD9531A83600846834200D3034642
:10BFD0009AB229462046FFF71CFE0FE0D4F814025F
:10BFE000016929B194F8FC01032801D12046884752
:10BFF0002046FFF750FE01E020469047002070BD2C
:10C00000D0F82002FDF7FCBC10B51C49044604F52D
:10C010000874C1F81C04C0F82012194808600820F0
:10C020004860022088600320C86000208861C861E1
:10C0300008620846FDF7FEFD00221823114620681D
:10C04000FDF770FC5823002280212068FDF76AFC70
:10C05000C023002281212068FDF764FC4FF488731F
:10C06000002201212068FDF75DFC4FF4807300225F
:10C0700082212068FDF756FC002010BD38270020E3
:10C08000005C00400A06D0F8200201F07F0100EBBE
:10C09000411002D590F82A00704790F80A027047C4
:10C0A00010B51C461346D0F820022246FDF7B0FC1E
:10C0B000002010BD10B5D0F82002FDF7CBFC002009
:10C0C00010BD70B50022044640231146FFF7E8FF7B
:10C0D00040252B46002280212046C4F81051FFF74E
:10C0E000DFFF0120256284F8FC01D4F8180228B192
:10C0F000D4F814022179426820469047002070BD90
:10C1000090F8FD1180F8FC110020704710B590F8F0
:10C11000FC11032904D1D0F81412C96901B1884770
:10C12000002010BD01740020704710B5D0F8200227
:10C13000FDF73DFE002010BD70B5044600F502700D
:10C14000054600F044F80120C4F8F401B4F80E02EA
:10C15000C4F8F80194F8080210F01F010AD0012970
:10C160000DD0022910D000F08001204600F011F817
:10C17000002070BD2946204600F08FF8F8E72946D8
:10C18000204600F071F9F3E72946204600F0FEF85A
:10C19000EEE710B5D0F82002FDF77CFC002010BDC2
:10C1A00010B5D0F82002FDF71DFE002010BD90F85C
:10C1B000FC1180F8FD11042180F8FC11002070476B
:10C1C00010B5D0F82002FDF790FC002010BD0A78D1
:10C1D00002704A7842708A78CB7802EB0322428060
:10C1E0000A794B7902EB032282808A79C97902EBC2
:10C1F0000121C18070470246002011B1C2F814121B
:10C2000070470220704710B5D0F8142202241AB1EA
:10C210001268904700B90024204610BD70B50E4644
:10C220001A4D897804462970012928D894F8FC0110
:10C23000022802D0032822D105E099B103206160D1
:10C2400084F8FC0109E091B1606888420AD0C1B26B
:10C250002046FFF7D7FC297861602046FFF7D3FF1F
:10C2600002280CD02046BDE87040FFF714BD022024
:10C2700084F8FC0120466160FFF7C4FCF2E7314618
:10C280002046BDE87040FFF7D4BC00000820002025
:10C2900010B5FFF785FF002010BD2DE9F041002605
:10C2A0004B78012532460A2B43D2DFE803F03C5895
:10C2B0004251420805422A27FFF762FD63E0044627
:10C2C0008888C8B9C888B8B9887800F07F0794F81A
:10C2D000FC01032810D084F8FE7139462046FFF790
:10C2E00024FF2046FFF7D7FC1FB1022084F8FC0191
:10C2F00049E084F8FC5146E020461AE0FFF78EFF43
:10C3000041E0CB88012B14D190F8FC31022B02D0F4
:10C31000032B0ED104E08260012200F1080114E039
:10C320000122011D11E090F8FC21022A04D0032A09
:10C3300002D0FFF77EFC26E0C560D0F8041209B1F8
:10C340000321C160022200F10C01FFF797FC1AE003
:10C3500004464888012816D1C4F804520BE004466C
:10C3600090F8FC01022801D00328C5D14888012893
:10C3700009D1C4F80422D4F81402826820469047F8
:10C380002046FFF788FC3046BDE8F08170B50D46C9
:10C390000446287800260979C0F34110012806D008
:10C3A0006878A0B301281FD003283FD107E0D4F854
:10C3B00014022946826820469047002070BD94F8F8
:10C3C000FC01022817D003282CD1688828B921B194
:10C3D000802902D02046FFF7DCFED4F8140229465B
:10C3E00082682046904713E094F8FC01022802D0AE
:10C3F000032817D103E0C9B180291BD116E0688852
:10C40000A0B9480604D02046FFF762FDE5E703E047
:10C410002046FFF740FC09E094F8FC01022807D011
:10C4200003280BD029462046FFF703FC304670BD99
:10C430004806FBD02046FFF7ACFEF7E7080601F000
:10C440007F0004EB001501D5143501E005F5827578
:10C450002046FFF717FE00B101202860022229467E
:10C460002046FFF70BFCE1E770B5054690F8FC01AC
:10C470000C4603280DD1207901280AD8D5F81402DA
:10C48000826828469047E08830B92846FFF703FCC9
:10C4900002E02846FFF7CDFB002070BD704700008A
:10C4A00000487047182500202DE9F047CC780A781D
:10C4B00048F68F1334B1012C6DD0022C08D0032C18
:10C4C00013D10BE030F822401C4044F400730AE022
:10C4D00030F822401C4020F8224006E030F822408C
:10C4E0001C4044F4C06320F822300C7830F824500B
:10C4F00048F68F72154048F280031D43254320F80B
:10C5000024508D7A48F6BF7904274BF68F7A48F28B
:10C51000C0044CF28006EDB30D7830F825C048F227
:10C5200080180CEA020C4CEA080C20F825C0CD88D3
:10C53000B0F850C025F0010591F800800CEBC80C54
:10C5400000EB4C0CCCF800540D89B0F850C025F02D
:10C55000010591F8008007EBC807674400EB470727
:10C56000C7F800544D78002D0D7830F825704FEA4B
:10C5700047477DD0002F05DA30F825701740374344
:10C5800020F825700D7830F825707F0608D530F832
:10C59000257001E024E01DE01740274320F82570B6
:10C5A0000C7830F824501540354320F824500C788E
:10C5B00030F8242002EA09021A4320F824200A78DD
:10C5C00030F8221001EA0A01194320F82210002055
:10C5D000BDE8F08730F822401C4044F4806382E7D5
:10C5E0004D78F5B18D88B0F8506025F001050F78D1
:10C5F00006EBC70600EB4606C6F800540D7830F887
:10C600002560760605D530F825601640264320F8CB
:10C6100025600A7830F8221001EA090181F0200132
:10C62000D2E78C88B0F8505024F0010491F800C093
:10C6300007EBCC073D4400EB4505C5F80044B0F8D6
:10C6400050400D78062707EBC5052C4400EB440746
:10C650000C694FF6FF7C07F580673E2C0CD9C4F3BC
:10C660004F15E40601D16D1EADB20CEA852400E041
:10C670001EE044F4004407E0C4F34F05E40701D092
:10C680006D1CADB20CEA85243C600C7830F8245067
:10C690006D0405D530F824501540354320F824505A
:10C6A0000A7830F8221001EA0A0181F440518BE740
:10C6B000002F05DA30F825701740374320F8257031
:10C6C0000D7830F82560760605D530F825601640DF
:10C6D000264320F825600E7830F826501540254373
:10C6E00020F826500C7830F8242002EA0A0282F45E
:10C6F00040521A4320F824200A7830F8221001EA28
:10C70000090161E7002070472DE9F04391F80A80A4
:10C7100091F801C00A7848F6BF774BF68F7948F256
:10C72000800348F2C0054CF2800648F68F74B8F1D9
:10C73000000F2ED0BCF1000F30F822C04FEA4C4C55
:10C740004ED0BCF1000F07DA30F822C00CEA040C1E
:10C750004CEA060C20F822C00A7830F822C05FEAC2
:10C760004C6C07D530F822C00CEA040C4CEA050CDE
:10C7700020F822C00A7830F822502540354320F8AE
:10C7800022500C7830F824203A401A4320F8242014
:10C790001BE0BCF1000F0ED030F82260760605D504
:10C7A00030F8226026402E4320F822600A7830F8C4
:10C7B000221039400EE030F822506D0405D530F8D3
:10C7C00022502540354320F822500A7830F82210B4
:10C7D00001EA0901194320F822100020BDE8F08386
:10C7E000BCF1000F07DA30F822C00CEA040C4CEA66
:10C7F000060C20F822C00A7830F82260760605D5AB
:10C8000030F8226026402E4320F822600E7830F85F
:10C81000262022402A4320F826200C7830F82420B5
:10C8200002EA09021A4320F82420BFE700207047DB
:10C8300000207047012120F8401F002101808180E5
:10C8400001820846704730F8401F21F43D410180C5
:10C85000002070470020704730B54D780A78002DD1
:10C8600048F68F7430F8225048F2800312D06D06DB
:10C8700007D530F82250254048F2C004254320F85F
:10C8800022500A7830F8221048F6BF74214081F017
:10C89000300111E06D0407D530F8225025404CF2EC
:10C8A0008004254320F822500A7830F822104BF6F5
:10C8B0008F74214081F44051194320F82210002048
:10C8C00030BD10B50A7848F2800352B1497800298A
:10C8D00030F8221010D048F6BF74214081F01001CA
:10C8E0000FE001884BF6BF72114081F4805181F056
:10C8F00010011943018007E04BF68F74214081F449
:10C900008051194320F82210002010BD2DE9F0417C
:10C910000D460646896995F801C00023AA7A0227C8
:10C9200028690C4648F28008BCF1010F05D081420D
:10C9300052D90446081AA8614FE0814203D904463F
:10C94000081AA86100E0AB617AB1287836F82010A7
:10C950004906B6F8501007EBC000084406EB40004B
:10C96000C0F8004412D52A8911E0A3B2AA88304643
:10C97000696900F0C8F8B6F85000297807EBC101E2
:10C98000084406EB4000C0F800441CE0EA88A3B26B
:10C990003046696900F0B7F8687848F68F7110B1D1
:10C9A000012807D00FE0287836F820200A4048F206
:10C9B000C00105E0287836F820200A404CF28001BA
:10C9C0000A4326F82020297836F8210048F6BF725D
:10C9D000104080F0300067E0AB6106234FF6FF7037
:10C9E0001AB1BCF1000F1BD056E0B6F850102A78EF
:10C9F0003E2C03EBC202114406EB410202F58062B9
:10CA000039D9C4F34F11E30632D000BF00EA8120C8
:10CA100040F4004002E000BF00EA812010603BE0EB
:10CA2000B6F850102A783E2C07EBC202114406EBF0
:10CA3000410202F580620BD9C4F34F115FEAC46C66
:10CA400001D1491E89B200EA812141F4004108E088
:10CA5000C4F34F015FEAC47C01D0491C89B200EAEB
:10CA60008121116069780029BFD001290AD013E023
:10CA7000491E89B2CAE7C4F34F01E307CCD0491C71
:10CA800089B2C9E7B6F85000297807EBC10108441C
:10CA900006EB4000C0F80044297836F821004BF638
:10CAA0008F72104080F4405040EA080026F82100C0
:10CAB0000020BDE8F08130F8401F41F43D41018085
:10CAC000002070470148FDF72FB8000038270020EC
:10CAD000B0F84400704700005B1C00EB42005B08AC
:10CAE00000F5806006D000BF30F8042B21F8022B3F
:10CAF0005B1EF9D170470020704711B98021A0F862
:10CB00004C100020704710B55B1C00EB42005B0826
:10CB100000F5806009D011F8012B5B1E11F8014B64
:10CB200042EA042220F8042BF5D110BDFEE70000F4
:10CB30000FB4084B10B504A902AA039800F01CF822
:10CB4000044602A9002000F048FA204610BC5DF817
:10CB500014FB0000DBCF000802E008C8121F08C168
:10CB6000002AFAD170477047002001E001C1121F6E
:10CB7000002AFBD1704700002DE9FF4F8DB00F4612
:10CB80000546002606E025280BD0DDE90F12904768
:10CB90006D1C761C28780028F5D111B03046BDE810
:10CBA000F08F0024A246A1460122EC4900E0044394
:10CBB00015F8013F203B02FA03F00842F7D128782C
:10CBC0002A2810D06FF02F022878A0F1300109290F
:10CBD00014D80AEB8A0102EB410144F0020400EB95
:10CBE000010A6D1CF0E701CF5FEA000A03D544F4A7
:10CBF0000054CAF1000A44F002046D1C28782E2863
:10CC000017D115F8010F44F004042A280ED06FF054
:10CC10002F022878A0F1300109290AD809EB8901EF
:10CC200002EB410100EB01096D1CF2E757F8049B90
:10CC30006D1C28786C280FD006DC4C2817D068288B
:10CC40000DD06A2814D104E0742810D07A280FD1AE
:10CC50000DE044F400140AE044F4801401E044F4CC
:10CC600040146978814202D104F580146D1C6D1C5A
:10CC70002A786E2A1FD00CDC632A31D004DC002A0B
:10CC80008BD0582A11D1A3E0642A68D0692A0CD12C
:10CC900065E0732A2ED004DC6F2A73D0702A04D189
:10CCA0009BE0752A6FD0782A6ED01046DDE90F120E
:10CCB0009047761C50E1C4F30250022806D00328A6
:10CCC00009D0042801CF09D0066045E101CFF11752
:10CCD000C0E9006140E101CF06803DE106703BE123
:10CCE00017F8040B8DF8000000208DF80100EB46CA
:10CCF000012003E057F804BB4FF0FF3061074FF00D
:10CD0000000102D40DE008F10101884649450FDA1F
:10CD10008045F8DB1BF808100029F4D108E008F181
:10CD2000010188468142FADB1BF808100029F6D180
:10CD3000DDE90F23AAEB08008146214600F036F911
:10CD4000304400EB080604E0DDE90F121BF8010B8C
:10CD50009047B8F10108F7D221464846F7E00A218A
:10CD6000C4F302534FF0000B0891022B04D001CF03
:10CD7000C117032B09D00AE0FF1D27F00707F7E8CA
:10CD8000020108E032E01FE020E000B2C117042BEE
:10CD900001D140B2C117031E71F1000307DA4FF051
:10CDA000000CD0EB0C006CEB01012D2302E02305FD
:10CDB00004D52B238DF82430012303E0E30701D0B1
:10CDC0002023F7E7984658E00A2110E010210EE0F2
:10CDD00010204FF0000B08900CE010214FF0000BDA
:10CDE00044F004044FF00809089103E008214FF0D3
:10CDF000000B0891C4F30253022B04D001CF002191
:10CE0000032B06D006E0FF1D27F00707F7E8020115
:10CE100003E080B2042B00D1C0B24FF0000823071A
:10CE20002BD5702A07D0DDF820C08CF0100C5CEAFE
:10CE30000B0C05D00EE040238DF82430012308E0D0
:10CE400050EA010306D030238DF824308DF82520D8
:10CE500002239846DDF820C08CF0080C5CEA0B0C2D
:10CE60000BD150EA010301D1630706D530238DF8B9
:10CE700024304FF00108A9F10109582A04D038A242
:10CE80000B9208AA0A920BE03AA2F9E75B46089ACD
:10CE9000FBF783F90B9B9B5C0A9A521E0A92137054
:10CEA00050EA0102F2D10A98ADEB000000F1200B2C
:10CEB000600702D524F4803401E04FF00109D94520
:10CEC00002DDA9EB0B0000E0002000EB0B01414468
:10CED0000890AAEB010AE00306D4DDE90F232146FE
:10CEE000504600F063F806444FF0000908E009A935
:10CEF00011F80900DDE90F12904709F10109761CCC
:10CF0000C145F4DBE0030CD5DDE90F232146504693
:10CF100000F04CF8064404E0DDE90F1230209047A1
:10CF2000761C0899481E08900029F5DC08E00A984C
:10CF30000A990078491C0A91DDE90F129047761C86
:10CF4000BBF10001ABF1010BF1DC21465046DDE9FC
:10CF50000F2300F019F806446D1C1BE60928010098
:10CF6000303132333435363738396162636465665F
:10CF70000000000030313233343536373839414221
:10CF800043444546000000002DE9F04104460025D9
:10CF90001E461746880404D405E039462020B047D1
:10CFA0006D1C641EF9D52846BDE8F0812DE9F041DD
:10CFB000044600251E469046C80301D5302700E0F0
:10CFC0002027880404D505E041463846B0476D1C4B
:10CFD000641EF9D52846BDE8F0810A68531C0B6031
:10CFE00010707047FEE70000054904480860FCF730
:10CFF000C9FBFEF75EFAFBF74DF9FEE7008000087B
:10D0000008ED00E0F0B50B30154D20F007010024CD
:10D01000144A0FE003688B420BD38B4205D95E1A8A
:10D0200043184768C3E9006700E04368136002C023
:10D0300004E0021D10680028ECD12046002802D12F
:10D04000286808B10020F0BD064A07481060074A6A
:10D05000121A22F00702C0E9002401202860D7E755
:10D06000802100207C2100205C2D0020583D0020E4
:10D070000000000000000000010203040607080988
:10D080000000000001020304EFCDAB890000C1C025
:10D0900081C1400101C3C003800241C201C6C00674
:10D0A000800741C70005C1C581C4400401CCC00C44
:10D0B000800D41CD000FC1CF81CE400E000AC1CA04
:10D0C00081CB400B01C9C009800841C801D8C018F4
:10D0D000801941D9001BC1DB81DA401A001EC1DE74
:10D0E00081DF401F01DDC01D801C41DC0014C1D464
:10D0F00081D5401501D7C017801641D601D2C01284
:10D10000801341D30011C1D181D0401001F0C03053
:10D11000803141F10033C1F381F240320036C1F673
:10D1200081F7403701F5C035803441F4003CC1FC43
:10D1300081FD403D01FFC03F803E41FE01FAC03A03
:10D14000803B41FB0039C1F981F840380028C1E833
:10D1500081E9402901EBC02B802A41EA01EEC02E73
:10D16000802F41EF002DC1ED81EC402C01E4C02463
:10D17000802541E50027C1E781E640260022C1E283
:10D1800081E3402301E1C021802041E001A0C06093
:10D19000806141A10063C1A381A240620066C1A673
:10D1A00081A7406701A5C065806441A4006CC1AC43
:10D1B00081AD406D01AFC06F806E41AE01AAC06A03
:10D1C000806B41AB0069C1A981A840680078C1B8F3
:10D1D00081B9407901BBC07B807A41BA01BEC07E73
:10D1E000807F41BF007DC1BD81BC407C01B4C07463
:10D1F000807541B50077C1B781B640760072C1B283
:10D2000081B3407301B1C071807041B00050C190D2
:10D21000819140510193C053805241920196C05672
:10D22000805741970055C19581944054019CC05C42
:10D23000805D419D005FC19F819E405E005AC19A02
:10D24000819B405B0199C059805841980188C04832
:10D2500080494189004BC18B818A404A004EC18E72
:10D26000818F404F018DC04D804C418C0044C18462
:10D27000818540450187C047804641860182C04282
:10D28000804341830041C181818040402E2E5C2E2D
:10D290002E5C2E2E5C447269766572735C53544D1D
:10D2A0003332463178785F48414C5F447269766525
:10D2B000725C5372635C73746D3332663178785F7D
:10D2C00068616C5F636F727465782E6300000000A4
:10D2D0002E2E5C2E2E5C2E2E5C4472697665727347
:10D2E0005C53544D3332463178785F48414C5F444B
:10D2F00072697665725C5372635C73746D33326607
:10D300003178785F68616C5F666C6173685F6578BF
:10D310002E6300002E2E5C2E2E5C2E2E5C44726935
:10D32000766572735C53544D3332463178785F487A
:10D33000414C5F4472697665725C5372635C7374CE
:10D340006D3332663178785F68616C5F7263635FFA
:10D3500065782E630000000078D3000800200020CC
:10D36000840100003E82000838D400088421002097
:10D37000D423000068CB000811041CA24A04130A3D
:10D38000063202334001140902431302011CC03269
:10D3900009331B01020B130524161001052401108B
:10D3A0000901042402020524061701070582030867
:10D3B000151009040133020A1D07050102432C0759
:10D3C0000581070938442A40072A8107112B0907DC
:10D3D000440A2204440A16FF44134DBA1408BBB988
:10D3E000140865BB42081AF70C1A79041A8D04C197
:10D3F0001A35281A29041A41042A1D0C128A1B08FE
:10D4000023041A1F041A4D0413CDBC1B08FD04137A
:10D4100009BD1B0831041A5D041AAD101AD9041E87
:10D4200004030904127F1302021E4083044057B50F
:08D430000412020301000000D8
:04000005080080ED82
:00000001FF
