:020000040800F2
:1000000040190020010100085B250008A324000816
:100010005925000881060008E33D000800000000A3
:10002000000000000000000000000000E1280008BF
:10003000B909000800000000DF280008152C00089E
:100040001B0100081B0100081B0100081B01000820
:100050001B0100081B0100081B0100081B01000810
:100060001B0100081B0100081B0100081B01000800
:100070001B0100081B0100081B0100081B010008F0
:100080001B0100081B0100081B0100081B010008E0
:10009000693D00081B0100081B0100081B01000846
:1000A0001B0100081B0100081B0100081B010008C0
:1000B0001B0100081B0100081B0100081B010008B0
:1000C0001B0100081B0100081B0100081B010008A0
:1000D0001B0100081B0100081B0100081B01000890
:1000E0001B0100081B0100081B010008DFF80CD0F1
:1000F00000F04CF800480047A53F000840190020D8
:100100000648804706480047FEE7FEE7FEE7FEE7B1
:10011000FEE7FEE7FEE7FEE7FEE7FEE78D2C0008C0
:10012000ED000008202A04DB203A21FA02F0002129
:10013000704721FA02F3D040C2F1200291400843F7
:100140001946704740EA01039B0703D009E008C93C
:10015000121F08C0042AFAD203E011F8013B00F88C
:10016000013B521EF9D27047D2B201E000F8012BD8
:10017000491EFBD270470022F6E710B513460A4627
:1001800004461946FFF7F0FF204610BD064C074D08
:1001900006E0E06840F0010394E807009847103457
:1001A000AC42F6D3FFF7A6FF584300087843000897
:1001B000FEE700207047000030B5104885B0816927
:1001C00041F01001816180694FF4005400F010008B
:1001D00004900120CDE90040002002900220084D4B
:1001E00003906946284600F0D9FD012221462846A1
:1001F00000F0BEFF05B0002030BD0000001002403E
:100200000010014010B501225103024800F0B0FF78
:10021000002010BD0010014010B500224FF4005125
:10022000024800F0A5FF002010BD000000100140B2
:1002300010B54FF40051024800F06CFF002010BDD3
:100240000010014030B5104885B0816941F00401CB
:10025000816180694FF4004400F0040004900120A3
:10026000CDE90040002002900220084D039069462D
:10027000284600F093FD01222146284600F078FF31
:1002800005B0002030BD0000001002400008014011
:1002900010B500224FF40041024800F069FF002031
:1002A00010BD0000000801402DE9F74FADF58B6D42
:1002B0000DF58B60904603C8084340EA08008007AC
:1002C00004D001200DF2644DBDE8F08F4FF0000B1B
:1002D00000F052FD00244DE004F58060404502D25C
:1002E0004FF4806001E0A8EB04008146DDF85C0477
:1002F0004A4601196846FFF725FF0020CDF814048F
:10030000DDF858040DF24C4107190120CDF8200406
:10031000CDF81C740DF2144000F0E4FBF8B900268F
:1003200024E0684600EB461120220DF22440FFF73E
:1003300009FF134A6FF007010DF2244003F062FD3C
:1003400000250DF2244A00BF05EBC60007EB800133
:100350005AF825200023022000F082FC10B14FF053
:10036000010B09E06D1C082DEED3761CB6EB591F6E
:10037000D7D34C444445AFD300F068FC5846A1E7BE
:100380001040000890B001A800F07CF9FFF711FFC1
:10039000FFF712FFFFF756FFFFF73EFF192000F0AF
:1003A00095FBFFF72FFF192000F090FB9848994E1E
:1003B000DFF8649200684FF00008411C01AF2DD0B7
:1003C000B0426AD1954C002557F8250054F8251005
:1003D00080F0A530884203D0872191A0FFF7E8FE86
:1003E0006D1C032DF0D395480024816941F0040170
:1003F00081618069924D00F0040004900120CDE9F4
:100400000C080E9002200F900CA9284600F0C6FCA4
:100410000121284600F050FEF0B34AE0012000F030
:1004200055FB00F0A9FC324600238649022000F06B
:1004300017FC00F00BFC012000F048FB00F09CFCD6
:10044000804D002415F1040557F8240005EB8401C4
:1004500080F0A5320023022000F002FC641C032C73
:10046000F2D300F0F3FB012000F030FB02F072FA4F
:10047000754800214C4600680490484602F00CFB89
:1004800004AA0021204602F065FB012000F01EFBBB
:10049000BFF34F8F6D4801E00AE0B2E001686C4A9B
:1004A00001F4E06111430160BFF34F8F00BFFDE72E
:1004B00034466848016835464FF0FF37A94201D1FC
:1004C0000760344602F05AFAC8B14FF4E16420469E
:1004D00000F0FCFAFFF7A0FE322000F0F7FAFFF779
:1004E00091FE322000F0F2FAFFF796FE322000F083
:1004F000EDFAFFF787FE322000F0E8FAE7E7DFF8D1
:100500005881564EAC4208D13068404505D031463E
:100510004846C6F8008002F0B7FA514C3068D8B9A6
:100520002022214604A8FFF70DFE4E4A6FF0070176
:1005300004A803F067FC4C49049888420CD1484950
:10054000059A204620319200FFF7AEFE20B94349BC
:100550004846376002F098FA3068404521D10022C1
:100560004249434802F092FE4249414803F01EF8D6
:1005700041493F4802F0DEFC3D4803F065F8FFF7D3
:1005800087FE40F29E74204600F0A0FAFFF744FE7A
:10059000192000F09BFAFFF735FE192000F096FABB
:1005A000F1E7206835490840B0F1005F23D040F200
:1005B000A464204600F08AFAFFF72EFE322000F0F5
:1005C00085FAFFF71FFE322000F080FAFFF724FEC5
:1005D000322000F07BFAFFF715FE322000F076FAA9
:1005E000FFF71AFE322000F071FAFFF70BFE3220FF
:1005F00000F06CFADDE76068216881F308888047C5
:10060000FEE7FFF715FE192000F060FAF9E7000099
:1006100000400008AB89EFCD0070000804400008DE
:100620002E2E5C4D6F64756C65735C7372635C62D7
:100630006F6F746C6F616465722E6300001002400E
:100640000008014000400008C43F00080CED00E035
:100650000400FA05001F0020EFCDAB891000002038
:100660000080000810400008000100AA14000020CB
:10067000F800002048000020AC0000200000FE2F01
:10068000FEE700000549096801600449091D096881
:10069000416002490831096881607047E8F7FF1F2F
:1006A00070B5044600200246064D07E0A65CC3B2C2
:1006B0007340521C35F8133083EA10208A42F5D378
:1006C00070BD00008C40000810B5D0F81822044618
:1006D00092F80034022B07D0032B05D0052B03D052
:1006E000062B01D0092B13D1022082F8000400232D
:1006F00082F8013482F8023482F8033482F8043438
:1007000082F8050482F80634C2F80834C2F80C34C2
:100710000848407DC00607D5204603F09BF82046D8
:10072000BDE8104002F090BF4888BDE8104000F0DE
:10073000CDB900008400002030B40B46D0F8181268
:10074000DC8891F800248CB1022A01D0052A11D14D
:100750005A88C1F80824DA880323C1F80C2481F8E8
:10076000003481F8053430BC02F0D6BA052A05D031
:10077000022A03D030BC194602F0C3BA012081F826
:100780000704062281F80024002081F8020481F881
:10079000030481F8040481F8052430BC704700008C
:1007A00070B5D0F818420546002194F800040328DB
:1007B00002D0062845D128E0D4F80C0418B3042050
:1007C00084F8000484F8021484F8031484F80414F0
:1007D00084F80504D4F8080410B92078412809D019
:1007E000D5F81C12D4F8100404F201428B690121DF
:1007F000984726E0D5F81C12D4F8100404F2014200
:100800008B690021F4E7052011E094F80704012822
:1008100001D038B115E0072084F80004012284F8E3
:10082000022408E00B48007D40070AD5022084F826
:10083000000484F8021484F8031484F8041484F87F
:10084000050404F201412846BDE87040062202F08A
:100850007DBA00008400002010B50446D0F81812BC
:100860001A48002281F80724007D40070BD5062096
:1008700081F8000481F8022481F8032481F804241B
:1008800081F8050410BD082081F8000481F80224D5
:1008900081F8032481F8042481F80504204602F03D
:1008A000D9FFD4F81C0280688047D4F81C02C069C4
:1008B0008047BFF34F8F06480168064A01F4E061A4
:1008C00011430160BFF34F8F00BFFDE7840000209C
:1008D0000CED00E00400FA0570B50B460546C9882A
:1008E000D0F818420020B1B394F80014022906D0C1
:1008F000092904D0C4F80C04C4F808044AE0598853
:10090000C4F80814DA88C4F80C2401B3012936D9D4
:10091000092384F8003484F8020484F8030484F87A
:10092000040484F805348802D4F81014A0F500609B
:100930000844D5F81C124B69214698470146B4F883
:100940000C0482B22846BDE8704002F0FFB9032AC9
:1009500002D9022101E023E0092184F8001484F87F
:10096000020484F8030484F8040484F80514207055
:10097000212060704120A07003222146E2E70F2170
:1009800084F8001484F8020484F8030484F804044E
:1009900084F805142846BDE87040194602F0B1B944
:1009A000022184F8001484F8020484F8030484F813
:1009B000040484F8051470BD7047000010B50128C8
:1009C00004D040F26721084803F01BFA07490020D1
:1009D000C8610748016941F004010161016941F002
:1009E0004001016110BD0000D0420008D800002085
:1009F00000200240064A0021D16106490A6942F0FE
:100A000002020A614861086940F0400008617047CD
:100A1000D800002000200240044B0022DA61044A82
:100A2000136943F00103136101807047D80000206F
:100A3000002002400E49C868C2060E4803D5C269AC
:100A400042F00202C261CA68520703D5C26942F08D
:100A50000102C261CA69D20707D0C26942F004022A
:100A6000C261C86920F00100C8611420C8607047E5
:100A700000200240D800002070B5054600F0B0FB11
:100A80000646114C09E0681C07D025B100F0A8FB10
:100A9000801BA84201D9032070BDE068C007F2D1D5
:100AA000E068800601D52020E060E068C00605D43B
:100AB000E069C00702D1E068400703D5FFF7BAFF3D
:100AC000012070BD002070BD0020024031B500F053
:100AD00087FB044600F084FB0099001B8842F9D391
:100AE00038BD00002DE9F05F044650480F4601264E
:100AF000017E012943D0012182460176DFF8308151
:100B0000206840B102283DD0B9214A4803F079F964
:100B10002068022836D0A068DFF81CB1DFF81C91ED
:100B20004FF0FF35B0F1006F0AD3B9F800108029FB
:100B30003CD0402944D020294CD0414988420BD98F
:100B4000FA213C4803F05DF9B9F8000080282FD065
:100B5000402838D0202840D0D4E9020105EB81217B
:100B600001443748814203D9FB21324803F049F957
:100B70004CF250394846FFF77FFFA8B351E00220FE
:100B8000BDE8F09F4CF250342046FFF775FF60BB84
:100B90000120FFF713FF2046FFF76EFFD8F8101073
:100BA000064621F00401C8F810103AE05845C7D8AD
:100BB000D4E9020105EB812101445945D8D9D3E795
:100BC00020498842BCD8D4E9020105EB81210144C7
:100BD0001C48C7E71C498842B2D8D4E9020105EB9A
:100BE000812101441848BDE700E01AE03D60A56896
:100BF00011E02846FFF7FEFE4846FFF73DFFD8F814
:100C00001010060021F00201C8F8101001D03D605C
:100C100007E005F58065D4E9020100EB8120A842D8
:100C2000E7D800218AF818103046A9E7D80000203C
:100C300000200240D0420008FFFF0108E0F7FF1F3C
:100C4000FF3F0008FFFF0008FF7F0008034801691D
:100C500041F0800101610020704700000020024047
:100C60002DE9F05F06462D480D460024017E17460B
:100C70009846012925D0012181460176012E07D011
:100C8000022E05D0032E03D0C42125A003F0B9F80D
:100C9000B5F1006F0AD332480088802814D040286C
:100CA00014D0202814D02F48854203D9C5211CA078
:100CB00003F0A7F84CF2503A5046FFF7DDFE48B17A
:100CC00028E00220BDE8F09F2748EDE72748EBE742
:100CD0002748E9E7012E02D0022E00D00426D34691
:100CE000DFF890A0220141463846FFF71BFA81B297
:100CF00005EB4400FFF790FE5846FFF7BDFEDAF81B
:100D0000102022F00102CAF8102018B9641CE4B2C5
:100D1000B442E7D3002289F81820D3E7D800002096
:100D20002E2E5C2E2E5C2E2E5C44726976657273BC
:100D30005C53544D3332463178785F48414C5F44C0
:100D400072697665725C5372635C73746D3332667C
:100D50003178785F68616C5F666C6173682E6300E0
:100D6000E0F7FF1FFF3F0008FFFF0108FFFF00083B
:100D7000FF7F00080020024005480169090605D5EB
:100D800004494160044941600020704701207047D8
:100D90000020024023016745AB89EFCD2DE9F84FD4
:100DA000DFF890B20D4604464FF0000958450FD0C9
:100DB000A14884420CD0A148844209D0A048844272
:100DC00006D0A048844203D0CF219FA003F019F899
:100DD00028880004000C03D1D0219BA003F011F857
:100DE0006868F8B101281DD011281BD0022819D03D
:100DF000122817D0A449884214D0A449884211D09F
:100E0000A34988420ED0A34988420BD0A249884208
:100E100008D0A249884205D0032803D0D1218AA056
:100E200002F0EFFF00274FF0010A00BF2E680AFA18
:100E300007F806EA080646456FD15C450FD07E48A4
:100E400084420CD07D48844209D07D48844206D03B
:100E50007C48844203D0DF217BA002F0D2FF8A4984
:100E60006868421A884259D00EDC032876D006DC26
:100E7000002853D0012819D002286AD131E0112866
:100E800021D0122865D13AE0B2F5881F46D006DCA1
:100E9000B2F5803F42D0B2F5801F5AD13EE0B2F5A4
:100EA000001F3BD0B2F5041F53D137E0E868022899
:100EB00007D0012805D0032803D0E72162A002F063
:100EC000A0FFE8683FE0E868022807D0012805D0C5
:100ED000032803D0EE215CA002F093FFE868001D18
:100EE00031E0E868022807D0012805D0032803D0A4
:100EF000F52155A002F085FFE868083023E0E86896
:100F0000022807D0012805D0032803D0FC214EA0D9
:100F100002F077FFE8680C3015E085E0A86888B13A
:100F2000012812D0022808D040F2091146A002F090
:100F300068FFA86830B1012807D04FF00809C4F84D
:100F4000148006E00420814603E04FF00809C4F84D
:100F50001080FF2E05D8224605E0FFE74FF0000085
:100F6000F1E704F104024FEA870001D9A0F1200063
:100F700013684FF00F0101FA00FC23EA0C0309FA91
:100F800000FC43EA0C0313606868C0004CD5444879
:100F9000826942F001028261806927F0030200F059
:100FA000010000903F4802449068BB071B0F994026
:100FB00088435C4501D100210FE01F498C4201D1DB
:100FC00001210AE01D498C4201D1022105E01C49A2
:100FD0008C4201D1032100E004219940014391603A
:100FE0006868C0033048016801D5314300E0B1436F
:100FF0000160686880032D48016801D5314300E035
:10100000B14301606868C0022948016801D53143D5
:1010100000E0B1430160686880022648016801D59C
:10102000314300E0B14301607F1C102FFFF4FEAE9E
:10103000BDE8F88F00080140000C0140001001409D
:1010400000140140001801402E2E5C2E2E5C2E2E26
:101050005C447269766572735C53544D3332463129
:1010600078785F48414C5F4472697665725C537270
:10107000635C73746D3332663178785F68616C5F7E
:101080006770696F2E6300000000111000002110CE
:101090000000311000001210000022100000321079
:1010A000001002400000014000040140040401401F
:1010B000080401400C04014070B50C00054604D141
:1010C0004FF4E27103A002F09CFEA868204000D01B
:1010D000012070BD2E2E5C2E2E5C2E2E5C4472697B
:1010E000766572735C53544D3332463178785F487D
:1010F000414C5F4472697665725C5372635C7374D1
:101100006D3332663178785F68616C5F6770696FE4
:101110002E63000070B50C00054604D14FF4FD713C
:1011200003A002F06EFEE8686040E86070BD000059
:101130002E2E5C2E2E5C2E2E5C44726976657273A8
:101140005C53544D3332463178785F48414C5F44AC
:1011500072697665725C5372635C73746D33326668
:101160003178785F68616C5F6770696F2E6300002B
:1011700070B515460C00064604D14FF4F27108A074
:1011800002F03FFE45B1012D04D040F2E51104A06C
:1011900002F037FE346170BD2004306170BD000084
:1011A0002E2E5C2E2E5C2E2E5C4472697665727338
:1011B0005C53544D3332463178785F48414C5F443C
:1011C00072697665725C5372635C73746D333266F8
:1011D0003178785F68616C5F6770696F2E630000BB
:1011E00001480068704700000400002002480168C0
:1011F000491C01607047000004000020074810B53A
:10120000016841F010010160032000F0A3F8002004
:1012100000F006F800F016F8002010BD0020024093
:1012200010B5044600F040FD4FF47A71B0FBF1F0C8
:1012300001F01FF900222146501E00F057F800204F
:1012400010BD00001D4808B5816941F001018161B0
:10125000806900F001000090032000F07BF800227C
:1012600011466FF00B0000F041F8002211466FF0BC
:101270000A0000F03BF8002211466FF0090000F070
:1012800035F800221146501F00F030F800221146B8
:10129000101F00F02BF800221146901E00F026F8D7
:1012A00000221146501E00F021F80548416821F047
:1012B000E06141F00071416008BD00000010024093
:1012C0000000014010B5040003D5E621064802F0F5
:1012D00098FD04F01F01012088406109890001F197
:1012E000E021C1F8000110BD8C42000870B5154620
:1012F0000C460646102A03D3D221144802F081FD81
:10130000102C03D3D321114802F07BFD1048006854
:10131000C0F30223C3F107022046042A00D90422A5
:10132000191D072901D2002300E0DB1E012404FA65
:1013300002F1491E014099409C40641E2C4021430B
:101340003046BDE8704001F009B900008C42000849
:101350000CED00E010B5044607280BD0062C09D090
:10136000052C07D0042C05D0032C03D0BA21084843
:1013700002F047FD074904F0070208684FF6FF0333
:10138000184040EA0220044A1043086010BD0000E3
:101390008C4200080CED00E00000FA0510B50C06C8
:1013A00005D501F07F0100EB4110283003E000EB90
:1013B000411000F5027099B232B101228272C180EF
:1013C000190C0181002010BD002282728180F9E792
:1013D000704700EB4112D0F81C04D26B01F072BFD1
:1013E00000EB4112D0F81C04D2F81C2201F0BFBF60
:1013F00070B50A460446090602F07F0003D504EBE7
:101400004011283103E004EB421101F5027100257F
:101410008D700870D009487094F8E803012809D04D
:10142000012084F8E803206802F067FB84F8E853A1
:10143000002070BD022070BD70B504460D460E063A
:1014400001F07F0004EB401101D5283101E001F5E6
:1014500002710870E80948700A61CB7094F8E803DB
:10146000012809D0012084F8E803206802F0FFF980
:10147000002084F8E80370BD022070BD70B50446FA
:101480000E4601F07F0004EB401101F507710025C5
:101490002CC101F81F5C01F8200D94F8E803012825
:1014A0000AD0012084F8E8037006206802F080FB6F
:1014B00084F8E853002070BD022070BD70B50D4661
:1014C0000446090605F07F0003D504EB40112831DE
:1014D00003E004EB451101F5027101228A700870E6
:1014E000E809487094F8E803012807D084F8E82355
:1014F000206802F037FB680602D006E0022070BDCB
:1015000004F57B71206802F0F6FA002084F8E80305
:1015100070BD70B504460E4601F07F0004EB40112B
:101520003C3100252CC1012201F81F2C01F8200DAF
:1015300094F8E803012809D084F8E82370062068AD
:1015400002F036FB84F8E853002070BD022070BD25
:1015500010B50446006802F00DFC000402D52046D8
:1015600001F00CF8206802F005FC40050CD520685D
:1015700030F8441F21F480610180204600F016F904
:101580000021204600F027F9206802F0F3FB400418
:1015900005D5206830F8441F21F48041018020687F
:1015A00002F0E8FB800405D5206830F8441F21F4E0
:1015B00000510180206802F0DDFBC00413D52068D3
:1015C00030F8401F21F00401018021684FF43D40B4
:1015D000A1F84000204600F0F6F8206830F8441FDB
:1015E00021F480510180206802F0C4FB00051AD567
:1015F000206830F8441F21F400610180206830F831
:10160000401F41F008010180206830F8401F41F080
:1016100004010180206802F0ADFBC043C00402D584
:10162000204600F024F9206802F0A4FB800508D5CC
:10163000206830F8441F21F400710180204600F03A
:10164000C6F8206802F096FBC00505D5206830F882
:10165000441F21F48071018010BD00002DE9F0418C
:1016600086B004004FF000050CD030492068884255
:1016700003D0A1212EA002F0C4FB94F8E9030026B8
:1016800020B108E0012006B0BDE8F08184F8E863ED
:10169000204600F06DF8032084F8E903206802F08A
:1016A00023FA04F11001142288466846FEF74AFD29
:1016B00094E80F0002F009FA0021206802F06DFBA7
:1016C0005FF0010704EB451080F8297000F8285FEF
:1016D0008581C670066146616D1C86610F2DF1D350
:1016E0005FF0000004EB401181F8096281F8080204
:1016F000888681F80B62C1F81862C1F81C62401C30
:10170000C1F820620F28EDD3142241466846FEF747
:1017100019FD94E80F0002F0DEF984F8246084F8E3
:10172000E973206802F0D5F90020ACE7005C0040C6
:101730002E2E5C2E2E5C2E2E5C44726976657273A2
:101740005C53544D3332463178785F48414C5F44A6
:1017500072697665725C5372635C73746D33326662
:101760003178785F68616C5F7063642E630000009D
:1017700008B500680B49884212D10B48C16941F491
:101780000001C161C069002200F400000090052141
:101790001420FFF7ABFDBDE808401420FFF792BD11
:1017A00008BD0000005C00400010024010B5044677
:1017B0000121D0F81C0401F089FED4F81C04BDE816
:1017C000104001F052BED0F81C0401F06DBED0F8FC
:1017D0001C0401F06FBE10B5044690F8E803012820
:1017E0000BD0012084F8E80384F82410206802F06C
:1017F000D6FA002084F8E80310BD022010BDD0F80E
:101800001C2400F57B71104601F06ABE10B5044639
:1018100090F8E803012810D0012084F8E80301467D
:101820002046FFF7D5FD206802F051F9206802F04C
:1018300094FA002084F8E80310BD022010BD10B512
:10184000044690F8E80301280FD0012084F8E8034B
:10185000206802F049F9206802F0A7FA206802F037
:1018600038F9002084F8E80310BD022010BDD0F83C
:101870001C0401F077BE00002DE9F843044600681F
:10188000604DC1070AD1810770D4C0066FD47E2194
:101890005D4802F0B6FA2078C00769D0606860B190
:1018A000B0F5807F09D0B0F5007F06D0B0F5407F5D
:1018B00003D08421544802F0A4FAE86940F0805033
:1018C000E861E869514E00F080500090306840F4C3
:1018D00080703060FFF784FC074604E0FFF780FC6F
:1018E000C01B642833D83068C005F7D5286A10F4C7
:1018F000407054D0A18801F4407181424FD0286AD1
:101900000126310491FAA1F2B2FA82F29300404A20
:1019100020F440701344C3F8006491FAA1F1B1FAC5
:1019200081F102EB81010023C1F800342862C00775
:1019300035D0FFF755FC074641F288394FF00208D1
:1019400008E000BFFFF74CFCC11B494502D903204A
:10195000BDE8F88398FAA8F1B1FA81F141F04001AD
:101960004046B6EB511F04D129680EE020E037E075
:101970001BE090FAA0F1B1FA81F141F04001B0EB27
:10198000511F01D1296A00E0696A98FAA8F0B0FAFB
:1019900080F000F01F0206FA02F00142D2D0286A5D
:1019A000616820F44070084328622078800714D5CD
:1019B000A06860B1B0F5804F09D0B0F5004F06D0F7
:1019C000B0F5404F03D0BA210F4802F01AFA686808
:1019D000A16820F44040084368602078C0060FD515
:1019E000E068B0F5800F05D020B14FF48B71064848
:1019F00002F007FA6868E16820F480000843686034
:101A00000020A5E7001002401443000800700040C9
:101A1000000042422DE9F0470E46050004D14FF484
:101A20002F718DA002F0EDF92868C1070AD1810756
:101A300008D4410706D4000704D440F2BD2186A093
:101A400002F0DFF946B1012E06D0022E04D040F29A
:101A5000BE2181A002F0D5F9DFF83C82D8F8000061
:101A600000F00700B0420CD2D8F8001021F00701B6
:101A70003143C8F80010D8F8000000F00700B04269
:101A80006FD12878854C80071CD5A868A0B1802824
:101A900012D0902810D0A0280ED0B0280CD0C0288A
:101AA0000AD0D02808D0E02806D0F02804D040F290
:101AB000D72169A002F0A5F96068A96820F0F000BC
:101AC000084360602878C00764D06868012768B15F
:101AD000012817D0022834D040F2DE215EA002F0A7
:101AE00090F9686801280DD002282AD05FF0020121
:101AF00091FAA1F0B0FA80F040F02000400904D043
:101B0000206803E04FF40031F2E7606A91FAA1F136
:101B1000B1FA81F101F01F018F4038424BD060686B
:101B2000696820F0030008436060FFF759FB6968AB
:101B3000074641F2883001290CD00229814616D08F
:101B400024E04FF00071D3E7FFF74AFBC11B494582
:101B500001D918E081466068C0F381000128F3D103
:101B600018E028E0FFF73CFBC11B49450BD8606833
:101B7000C0F381000228F5D10CE000BFFFF730FB75
:101B8000C11B494502D90320BDE8F087606810F009
:101B90000C0FF3D1D8F80010404601F00701B14214
:101BA0000BD9016821F0070131430160006800F0A2
:101BB0000700B04201D00120E6E728784FF48066A4
:101BC00040074FF4A0674FF4C0684FF4E06914D5A4
:101BD000E86860B1B0420AD0B84208D0404506D0AB
:101BE000484504D040F232311BA002F00AF9606887
:101BF000E96820F4E060084360602878000715D5A4
:101C0000286960B1B0420AD0B84208D0404506D039
:101C1000484504D040F239310FA002F0F2F8606874
:101C2000296920F4605040EAC100606000F042F889
:101C30006168F02292FAA2F201F0F001B2FA82F2A7
:101C4000D140174A515CC840164908600020FFF790
:101C5000E7FA002098E700002E2E5C2E2E5C2E2E38
:101C60005C447269766572735C53544D333246310D
:101C700078785F48414C5F4472697665725C537254
:101C8000635C73746D3332663178785F68616C5F62
:101C90007263632E630000000020024000100240C7
:101CA000B23F0008000000200148006870470000B3
:101CB0000000002010B519A385B00FCB8DE80F00F0
:101CC0001AA01B4B006804905A681A4802F00C01D5
:101CD00004291DD008291BD14FF4701494FAA4F4E0
:101CE00002F47011B4FA84F4E140D2031DF801103B
:101CF00010D55A684FF4003393FAA3F302F400327C
:101D0000B3FA83F3DA4004AB9A5CB0FBF2F04843D9
:101D100005B010BD08484843FAE700000203040577
:101D2000060708090A0B0C0D0E0F10100102000027
:101D30000010024000127A0000093D002DE9F84F22
:101D4000040004D14FF48771EFA002F05AF8022783
:101D5000DFF8F483FD4D20684FF4003A4FF000099E
:101D60004FF4803B012660B1C1070DD1810777D4C4
:101D7000010776D4400775D440F20F11E2A002F0BB
:101D800040F82078C00730D0606848B1584507D087
:101D9000B0F5A02F04D040F21511DBA002F031F80D
:101DA0006868C0F38100012807D06868C0F381002B
:101DB00002281BD16868C00318D59AFAAAF1B1FAB3
:101DC00081F141F02001490901D0296800E0696AE8
:101DD0009AFAAAF0B0FA80F000F01F0006FA00F0BC
:101DE000014260D0606800287ED05CE060685845A1
:101DF00003D1286840F480300AE010B1B0F5A02F7C
:101E00000DD0286820F480302860286820F48020D5
:101E10002860606838B3FFF7E3F900900AE02868AB
:101E200040F480202860E4E7FFF7DAF90099401ACF
:101E3000642873D89AFAAAF0B0FA80F040F0200033
:101E4000400901D0286800E0686A9AFAAAF1B1FA5C
:101E500081F101F01F0106FA01F10842E4D022E00D
:101E600024E0BBE034E1FFE7FFF7BAF9009005E0BA
:101E7000FFF7B6F90099401A6428DAD89AFAAAF05E
:101E8000B0FA80F040F02000400901D0286800E05E
:101E9000686A9AFAAAF1B1FA81F101F01F0106FA13
:101EA00001F10842E4D1207880076DD5206930B176
:101EB000012804D040F2491193A001F0A2FF60690B
:101EC0001F2804D94FF4A5718FA001F09AFF68680C
:101ED00010F00C0F07D06868C0F3810002281ED1F3
:101EE0006868C0031BD400E08FE097FAA7F0B0FA4F
:101EF00080F040F02000400901D0286800E0686AC6
:101F000097FAA7F1B1FA81F101F01F0106FA01F188
:101F100008422DD02069012877D129E073E2206999
:101F200098B396FAA6F0B0FA80F048F82060FFF770
:101F300057F9009007E000BFFFF752F901460098FB
:101F4000081A022899D897FAA7F0B0FA80F040F062
:101F50002000400901D0286800E0686A97FAA7F1DC
:101F6000B1FA81F101F01F0106FA01F10842E3D054
:101F70002868F82292FAA2F26169B2FA82F220F09D
:101F8000F80091400843286025E0FFE796FAA6F1A3
:101F9000B1FA81F148F82190FFF722F9009005E0AD
:101FA000FFF71EF90099401A0228CBD897FAA7F03C
:101FB000B0FA80F040F02000400901D0286800E02D
:101FC000686A97FAA7F1B1FA81F101F01F0106FAE8
:101FD00001F10842E4D12078000776D5A06988B3E2
:101FE000012806D04FF4C57147A001F00AFFA0698F
:101FF00040B396FAA6F0B0FA80F008EB8000C0F883
:102000008064FFF7EDF8009006E0B7E1FFF7E8F82D
:102010000099401A022895D897FAA7F0B0FA80F0F4
:1020200040F06000B6EB501F01D128680CE097FA31
:10203000A7F0B0FA80F040F06000B7EB501F02D17B
:10204000286A01E00EE0686A97FAA7F1B1FA81F117
:1020500001F01F0106FA01F21042D7D00120FEF76D
:1020600035FD32E096FAA6F1B1FA81F108EB810173
:10207000C1F88094FFF7B4F8009005E0FFF7B0F8DE
:102080000099401A022890D897FAA7F0B0FA80F089
:1020900040F06000B6EB501F01D128680BE097FAC2
:1020A000A7F0B0FA80F040F06000B7EB501F01D10C
:1020B000286A00E0686A97FAA7F1B1FA81F101F0A5
:1020C0001F0106FA01F21042D8D1207840077CD5D2
:1020D000E06840B1012806D0052804D040F2B711CD
:1020E00009A001F08EFEE86940F08050E861E869DF
:1020F00000F0805000901648016841F48071016042
:10210000FFF76EF800902BE02E2E5C2E2E5C2E2E0C
:102110005C447269766572735C53544D3332463158
:1021200078785F48414C5F4472697665725C53729F
:10213000635C73746D3332663178785F68616C5FAD
:102140007263632E630000000000424200100240F0
:1021500000700040FFF744F80099401A642892D8B4
:10216000B7480068C005F5D5E06801280AD008B175
:10217000052811D0286A20F001002862286A20F082
:10218000040002E0286A40F001002862E068A0B381
:10219000FFF726F800900DE0286A40F0040028625E
:1021A000F0E700BFFFF71CF80099411A41F28830B0
:1021B0008142D4D897FAA7F0B0FA80F040F04000FE
:1021C000B6EB501F02D128680CE044E097FAA7F064
:1021D000B0FA80F040F04000B7EB501F01D1286A00
:1021E00000E0686A97FAA7F1B1FA81F101F01F02E5
:1021F00006FA02F10842D5D02DE0FFE7FEF7F0FF26
:10220000009007E0FEF7ECFF0099411A41F2883098
:102210008142A4D897FAA7F0B0FA80F040F04000CD
:10222000B6EB501F01D128680BE097FAA7F0B0FA7F
:1022300080F040F04000B7EB501F01D1286A00E069
:10224000686A97FAA7F1B1FA81F101F01F0206FA64
:1022500002F10842D6D1E06900286ED001280AD0E8
:10226000022808D040F24721AFF2641001F0C9FD06
:10227000E069002861D06868C0F3810002287DD041
:10228000E0694FF0807702280BD097FAA7F1B1FAF6
:1022900081F148F82190FEF7A3FF07464FF0007444
:1022A000B4E0206A38B1584505D04FF41471AFF24C
:1022B000A81001F0A6FD606A78B3B0F5802F2CD08D
:1022C000B0F5002F29D0B0F5402F26D0B0F5801FF3
:1022D00023D0B0F5A01F20D0B0F5C01F1DD0B0F5A1
:1022E000E01F1AD0B0F5001F17D0B0F5101F14D0A2
:1022F000B0F5201F11D0B0F5301F0ED0B0F5401F43
:102300000BD0B0F5501F08D0B0F5601F05D040F2DB
:102310005121AFF20C2001F074FD4FF0807191FA61
:10232000A1F14846B1FA81F1C14648F82100FEF713
:1023300057FF80464FF0007706E07CE0FEF750FF45
:10234000A0EB080002285ED897FAA7F0B0FA80F058
:1023500040F02000400901D0286800E0686A97FA40
:10236000A7F1B1FA81F101F01F0106FA01F108426B
:10237000E4D1206A584511D1A06800E05DE038B191
:10238000504505D040F26721AFF2842001F039FDBD
:102390006868A16820F4003008436860D4E9080147
:1023A0000843696821F47411084368604FF0807035
:1023B00090FAA0F0B0FA80F049F82060FEF710FF24
:1023C000044604E0FEF70CFF001B02281BD897FA16
:1023D000A7F0B0FA80F040F02000400901D0286852
:1023E00000E0686A97FAA7F1B1FA81F101F01F01E4
:1023F00006FA01F10842E5D01DE000BFFEF7F0FE4D
:10240000C01B022802D90320BDE8F88F94FAA4F07B
:10241000B0FA80F040F02000400901D0286800E0C8
:10242000686A94FAA4F1B1FA81F101F01F0106FA89
:1024300001F10842E2D10020E6E70120E4E70000D4
:102440000070004010B54FF0E024042809D020B1FE
:102450004FF4DF71054801F0D4FC206920F004003E
:1024600002E0206940F00400206110BD8C420008A9
:10247000704710B5401EB0F1807F01D3012010BD20
:102480004FF0E02460610F21601700F067F8002032
:10249000A06107202061002010BD10B5FFF7E8FF04
:1024A00010BDFEE7044910B500200860034800F0A5
:1024B000EBFA002010BD00001000002000700008A2
:1024C00010B5FEF7C3FB002010BD00B585B000219C
:1024D0000290012004910091039004A96846FEF740
:1024E00001FB002800D0022005B000BD002070478D
:1024F00010B5FEF741FC002010BD08460023FF2167
:1025000001E0C1545B1C9342FBD370472DE9F041BD
:1025100016460D46804600240E4F16E02919B94292
:1025200002D20320BDE8F08158F8042000230220E5
:10253000FEF796FB08B10120F4E758F8040029598A
:10254000884201D00220EDE7241DB442E6D30020EA
:10255000E8E7000000800008FEE7FEE70907090E33
:10256000002806DA00F00F0000F1E02080F8141DCA
:10257000704700F1E02080F8001470472DE9FC5FFF
:102580004FF000080446ADF80480ADF8008048F62E
:102590000F7B4FF002094FF4806692E1BDF8041002
:1025A00011F00F072BD030F82710ADF80010BDF850
:1025B0000010090478D530F8272040F68F710A40C2
:1025C00020F8272004EB471595F8120205F502754F
:1025D0000028206869D0297830F8212052047DD560
:1025E000B0F8503009EBC101194406EB4101415AE2
:1025F000C1F309015FEA010A71D0EA88D0E0BDF8B1
:102600000410C9062AD4018801EA0B010180206860
:1026100004F12805B0F850202B7809EBC3011144D0
:1026200006EB4101405AC0F309006064E16B0844C5
:10263000E06300212046FEF7CCFE94F82400002839
:10264000ABD0A8690028A8D194F82400216840F0F4
:102650008000A1F84C0084F8248032E1018804F560
:102660000275ADF80010BDF8001009051ED5B0F8D0
:1026700050302978062202EBC101194406EB4101D2
:10268000405A04F57B71C0F30903EB61AA88206806
:1026900001F074FB2068018840F68F7211400180C0
:1026A0002046FFF7ACF80CE1A0E055E0BDF80010C3
:1026B0000904D2D5028840F68F710A400280206852
:1026C000B0F850302978062202EBC101194406EB1C
:1026D0004101405A83059B0DEB6101E051E063E04D
:1026E00008D0AA886969206801F048FBE96968692F
:1026F0000844686100212046FEF772FE2068B0F8A9
:102700005010891D06EB4101014428693E280CD96F
:10271000C0F34F12C00601D1521E92B24FF6FF70A5
:1027200000EA822040F4004009E0C0F34F02C007F5
:1027300001D0521C92B24FF6FF7000EA822008606E
:10274000216808884BF68F72104080F4405048F2A0
:10275000800210430880B4E0B0F850202B780621A6
:1027600001EBC301114406EB4101415AC1F30901D8
:102770005FEA010A24D0AA885346696901F0FEFA8B
:102780001EE0B0F85020062303EBC101114406EB14
:102790004101415AC1F309015FEA010A04D02A89C3
:1027A0005346696901F0EAFA2978206830F8213047
:1027B00048F68F72134048F2C002134320F82130CC
:1027C000E96901EB0A00E861696901EB0A026A61E3
:1027D000AB6913B12869504504D929782046FEF722
:1027E000FFFD03E029782046FEF748FEBDF8000013
:1027F000000666D5206804EB471530F8271001EA7B
:102800000B0120F8271095F83200283500282068A1
:1028100012D0297830F82120B0F8503052061ED559
:1028200009EBC101194406EB4101405A83059B0D98
:10283000EB6124D0EA881EE0B0F850302A7809EB2A
:10284000C201194406EB4101405A83059B0DEB611F
:1028500021D0AA886969206801F0B0FA1BE006223D
:1028600002EBC101194406EB4101405A83059B0D5F
:10287000EB6104D02A896969206801F09FFA297800
:10288000206830F8212048F68F731A404CF28003FC
:102890001A4320F821202068B0F850202B7809EB4B
:1028A000C301114406EB4101405AC0F30900E8613D
:1028B00069690A186A612978AB69204663B1FEF735
:1028C00028FE2068B0F84410ADF8041009043FF564
:1028D00065AE0020BDE8FC9FFEF77BFDF1E7704789
:1028E0007047000010B586B00024FEF745FA0020BE
:1028F00004900090074802900420039004A96846C1
:10290000FEF7F0F800B10124FEF7A0F906B020466A
:1029100010BD0000007000082DE9F041904600272E
:1029200006460D46FEF728FA00240BE055F8242051
:1029300006EB840100230220FEF792F908B101277B
:1029400002E0641C4445F1D3FEF780F93846BDE847
:10295000F081000008B5FFF7C5FFFF22042168469B
:10296000FDF702FC034800906946034800F02EF989
:10297000002008BD000100FF0070000870B5094C80
:102980000020094D60602146284600F00FF830B95C
:10299000221D2846216800F03BF8002800D00120C5
:1029A00070BD00000C0000200070000870B50D46DE
:1029B000040003D1CD210EA0FDF7FAFB1DB9CE21F5
:1029C0000BA0FDF7F5FB00201049024604EB820343
:1029D0005B688B4204D12A60521CF02AF6D370BD8A
:1029E00004EB82014968491CF9D0012070BD000048
:1029F0002E2E5C4D6F64756C65735C7372635C73D3
:102A0000746F726167652E630000000067452301E3
:102A10002DE9F04117460E46040004D140F247115B
:102A200012A0FDF7C5FB27B94FF4A4710FA0FDF765
:102A3000BFFB0025F02E10D206EB460004EB80040D
:102A4000D4F8C403B04208D104F573700421FDF733
:102A500027FED4F8C813814201D0012502E0D4F842
:102A6000CC0338602846BDE8F08100002E2E5C4D76
:102A70006F64756C65735C7372635C73746F7261A1
:102A800067652E63000000000A4602490968491C78
:102A900000F060B80C00002038B50D46040003D1EA
:102AA000AE210EA0FDF784FBF02D03D3AF210BA0C8
:102AB000FDF77EFB04EB8500002243680E495C1C99
:102AC00004D08B4200D00122104638BD00916946E7
:102AD0000122001DFFF720FF0246F5E72E2E5C4D78
:102AE0006F64756C65735C7372635C73746F726131
:102AF00067652E63000000006745230170B514462A
:102B00000D46060003D1EF210BA0FDF751FB1CB9C8
:102B1000F02109A0FDF74CFBF02D01D3012070BD81
:102B200005EB450006EB80002146BDE8704003221E
:102B300000F57170FFF7F0BE2E2E5C4D6F64756C62
:102B400065735C7372635C73746F726167652E6327
:102B500000000000FEB515460C46060004D140F208
:102B6000251112A0FDF724FB25B94FF493710FA096
:102B7000FDF71EFB2868144D02902868A04209D07A
:102B8000F02C02D30024FFF7E5FE214630462C60EE
:102B9000FFF782FF042102A80094FDF781FD019058
:102BA0006A4621463046FFF7A9FFFEBD2E2E5C4D3A
:102BB0006F64756C65735C7372635C73746F726160
:102BC00067652E63000000000C00002038B50D463C
:102BD000040003D1802108A0FDF7EAFA2068401C18
:102BE00001D0012038BD29680091204669460122A4
:102BF000FFF792FE38BD00002E2E5C4D6F64756CA1
:102C000065735C7372635C73746F726167652E6366
:102C10000000000010B5FEF7E9FABDE81040FFF72C
:102C20003CBC30B593B001210804CDE9001000246C
:102C3000029402250491CDE907504FF4E010099069
:102C40006846FFF77BF80F20CDE90A056802CDE959
:102C50000C4002210AA80E94FEF7DCFE10200F9013
:102C600012940FA8FEF708FEFFF71EF84FF47A71D2
:102C7000B0FBF1F0FFF7FDFB0420FFF7E3FB0022C0
:102C80001146501EFEF732FB13B030BD0D480168EF
:102C900041F00101016041680B4A11404160016847
:102CA0000A4A11400160016821F4802101604168F5
:102CB00021F4FE0141604FF41F0181600449C0030B
:102CC00008607047001002400000FFF8FFFFF6FEAA
:102CD00008ED00E010B5D0F81422526890470020AB
:102CE00010BD134610B50A46002100F0B7FB0020C6
:102CF00010BD134610B50A46002100F03CFC002030
:102D000010BD10B50446802100F017FC2046BDE838
:102D10001040002100F011BC10B50323C0F80821B9
:102D2000C0F8F431C0F80C2113460A46002100F027
:102D300095FB002010BD10B505210023C0F8F4114B
:102D40001A46194600F08AFB002010BD10B5022378
:102D50008261C0F8F431C26113460A46002100F0D6
:102D60000AFC002010BD10B504210023C0F8F411A6
:102D70001A46194600F0FFFB002010BD00207047E6
:102D80000020704770B50446D0F8180200250221D3
:102D9000C0F80854C0F80C5480F8001480F80154AE
:102DA00080F80514D4F8180248B1D4F81C0204F5D0
:102DB000067480688047206801F0CCF82560002008
:102DC00070BD002070477CB5D0F8184294F800140C
:102DD000042902D0072963D064E0D4F80814002540
:102DE00089B101293AD9D0F81C028902D4F81024FB
:102DF000A1F5006111440369D4F80C2420469847DA
:102E000060B302207CBD217821B1212907D041295E
:102E100016D019E0D4F80C1401291FD014E0D4F80E
:102E20000C14052910D16078A17800EB0120E1781D
:102E300000EB0140217900EB0160C4F810040DE0C3
:102E4000D4F80C14052919D0C4F80C540121ADF89C
:102E500006108DF800506946FFF753FFC4F80C5474
:102E60000320C4F8085484F8000484F8025484F859
:102E7000035484F8045484F8050413E06178A278BC
:102E800001EB0221E27801EB0241227901EB0261C0
:102E9000C4F81014D0F81C02C26808469047AFE787
:102EA000FDF7DAFC00207CBD1B2101800048704743
:102EB000840000200A21018000487047A000002003
:102EC00010B5062907D8D0F81C020449006800F0A4
:102ED000BAF9024810BD002010BD00003C080020D7
:102EE00010B504464FF4836001F09AF8C4F8180254
:102EF000C0B10021C0F81414C0F808140A4A00F543
:102F00008060C0E90312C1710222027041708170B9
:102F1000C170017142718171D4F81C024068804710
:102F2000002800D0022010BD00800008002070475B
:102F30000020704709B1C0F81C1200207047002023
:102F4000704700002DE9F0410B4600251E78D0F8AF
:102F500018122A462C4616F0600660D0202E0DD19D
:102F60005E7800220225072E78D2DFE806F05404AE
:102F7000080C0F3135001946FDF7DEFB72E01946EB
:102F8000FDF7AAFC6EE0FDF70BFC6BE091F8000486
:102F90000A2810D00A2081F800040E2381F8013499
:102FA00081F8022481F8032481F8042481F80504BF
:102FB00081F8062456E081F8005481F8012481F854
:102FC000022481F8032481F8042481F80554EFE7F2
:102FD000012201F5806135E091F80004022807D054
:102FE000032805D0052803D0062801D0092839D1A7
:102FF00081F8005481F8012481F8022481F8032427
:1030000081F8042481F8055481F80624C1F80824C5
:10301000C1F80C2426E01946FDF756FB22E05E7845
:10302000062E04D00A2E11D00B2E17D112E059888B
:103030002126B6EB112F04D1DA880E4D092A00D9CA
:1030400009222946FFF782FE0CE007E0012201F287
:103050001441F7E75A8812F0FF0F06D01946FFF720
:1030600050FE02242046BDE8F081D0B2C1F814041D
:10307000F8E700009600002010B50A46024903A0B8
:1030800000F0E1F8004810BD3C0700204446552000
:10309000436F6E6669670000122008800048704721
:1030A0003400002010B50A46024903A000F0CBF816
:1030B000004810BD3C07002044465520496E746509
:1030C0007266616365000000042008800048704754
:1030D0003000002010B50A46024903A000F0B3F802
:1030E000004810BD3C07002053544D6963726F6562
:1030F0006C656374726F6E696373000010B50A4685
:10310000024903A000F09FF8004810BD3C070020D2
:1031100053544D333220446F776E4C6F61642046B8
:1031200069726D7761726520557064617465000025
:1031300010B50A46024903A000F085F8004810BD0A
:103140003C070020303030303030303030303141CA
:1031500000000000F8B5044648880D46010A082919
:1031600054D2DFE801F05304091753534951D4F8FE
:103170001012207C0A6819E0207C02260028D4F86E
:10318000140205D0C16A68468847014646704AE085
:10319000816AF8E7C1B2062926D2DFE801F0030A06
:1031A0000F14191ED4F81012207C4A686946904703
:1031B00018E0D4F81012207C8A68F7E7D4F81012CF
:1031C000207CCA68F2E7D4F81012207C0A69EDE787
:1031D000D4F81012207C4A69E8E7D4F81012207C59
:1031E0008A69E3E701461EE0C1B2D4F814026A46D8
:1031F000836B20469847F5E7207C38B9D4F8140251
:10320000416B68468847EDE7207C20B1294620467F
:10321000FFF777FDF8BDD4F81402016B68468847C4
:10322000014607204870BDF800000028F2D0EA8867
:10323000002AEFD0824200D90246ADF80020204695
:10324000FFF784FDF8BD70B5002300281DD00446AB
:10325000002502E06D1CEDB2641C2678002EF9D129
:10326000022404EB45041480CC545B1C0322CA5492
:1032700000245B1C06E0CA545B1CDAB28C54521C5E
:10328000D3B2401C0278002AF5D170BD10B580B1D0
:10329000D0F8143213B10023C0F8143209B1C0F8C9
:1032A0001012012180F8FC11027000F095F8002046
:1032B00010BD022010BD10B5D0F82002FEF798F81E
:1032C000002010BD2DE9F0411746044641B1D4F865
:1032D000140242698AB394F8FC01032842D043E007
:1032E000D4F8F411002504F11400022933D1D0E9F7
:1032F00002639E4207D9F31A83609AB23946204688
:10330000FFF7F7FC12E04068B0FBF3F103FB11019B
:10331000A1B9984212D3D4F8F81188420ED20022F3
:1033200011462046FFF7E5FCC4F8F85100231A4681
:103330001946204600F092F80DE012E0D4F814028D
:10334000C16829B194F8FC01032801D120468847BF
:103350002046FFF7F0FC94F80002012804D184F81D
:10336000005201E0204690470020BDE8F08170B592
:103370001546044641B1D4F8140282693AB394F870
:10338000FC01032824D025E0D4F8F41104F5827060
:1033900003291FD1D0E902218A420BD9531A836035
:1033A0000846834200D303469AB229462046FFF7D7
:1033B00098FC0FE0D4F81402016929B194F8FC01DB
:1033C000032801D1204688472046FFF7CCFC01E0C6
:1033D00020469047002070BD10B51249044604F500
:1033E0000874C1F81C04C0F820120F4808600820B7
:1033F0004860022088600320C86000208861C8619E
:1034000008620846FEF72AF90022182311462068B0
:10341000FDF7C4FF5823002280212068FDF7BEFF7E
:10342000002010BD1C030020005C00400A06D0F8FC
:10343000200201F07F0100EB411002D590F82A0034
:10344000704790F80A02704710B51C461346D0F832
:1034500020022246FDF7F0FF002010BD10B5D0F885
:103460002002FEF70BF8002010BD70B500220446C4
:1034700040231146FFF7E8FF40252B46002280211C
:103480002046C4F81051FFF7DFFF0120256284F8C1
:10349000FC01D4F8180228B1D4F81402217942684A
:1034A00020469047002070BD90F8FD1180F8FC1177
:1034B0000020704710B590F8FC11032904D1D0F812
:1034C0001412C96901B18847002010BD01740020A1
:1034D000704710B5D0F82002FEF77DF9002010BD2E
:1034E00070B5044600F50270054600F04BF8012067
:1034F000C4F8F401B4F80E02C4F8F80194F8080214
:1035000010F01F010AD001290DD0022910D000F0BF
:103510008001204600F011F8002070BD29462046A9
:1035200000F097F8F8E72946204600F079F9F3E72C
:103530002946204600F006F9EEE710B5D0F8200243
:10354000FDF7BCFF002010BD10B5D0F82002FEF73B
:103550005DF9002010BD10B5D0F82002FEF76FF91C
:10356000002010BD90F8FC1180F8FD11042180F8B6
:10357000FC110020704710B5D0F82002FDF7C9FFFC
:10358000002010BD0A7802704A7842708A78CB78A1
:1035900002EB032242800A794B7902EB03228280FC
:1035A0008A79C97902EB0121C18070470246002067
:1035B00011B1C2F8141270470220704710B5D0F84C
:1035C000142202241AB11268904700B90024204640
:1035D00010BD000070B50E461A4D8978044629705A
:1035E000012928D894F8FC01022802D0032822D10E
:1035F00005E099B10320616084F8FC0109E091B114
:10360000606888420AD0C1B22046FFF763FB297880
:1036100061602046FFF7D2FF02280CD02046BDE8AB
:103620007040FFF7A0BB022084F8FC0120466160D7
:10363000FFF750FBF2E731462046BDE87040FFF748
:1036400060BB00000800002010B5FFF77DFF0020E0
:1036500010BD2DE9F04100264B78012532460A2B9A
:1036600043D2DFE803F03C584251420805422A2782
:10367000FFF770FD63E004468888C8B9C888B8B908
:10368000887800F07F0794F8FC01032810D084F8B4
:10369000FE7139462046FFF71CFF2046FFF763FB0B
:1036A0001FB1022084F8FC0149E084F8FC5146E097
:1036B00020461AE0FFF78EFF41E0CB88012B14D1A2
:1036C00090F8FC31022B02D0032B0ED104E0826073
:1036D000012200F1080114E00122011D11E090F81F
:1036E000FC21022A04D0032A02D0FFF70AFB26E0BD
:1036F000C560D0F8041209B10321C160022200F1B3
:103700000C01FFF723FB1AE004464888012816D174
:10371000C4F804520BE0044690F8FC01022801D0E2
:103720000328C5D14888012809D1C4F80422D4F857
:1037300014028268204690472046FFF714FB30466B
:10374000BDE8F08170B50D46044628780026097959
:10375000C0F34110012806D06878A0B301281FD01B
:1037600003283FD107E0D4F8140229468268204696
:103770009047002070BD94F8FC01022817D0032860
:103780002CD1688828B921B1802902D02046FFF7C2
:10379000D4FED4F81402294682682046904713E0EC
:1037A00094F8FC01022802D0032817D103E0C9B124
:1037B00080291BD116E06888A0B9480604D02046AD
:1037C000FFF779FDE5E703E02046FFF7CCFA09E0D3
:1037D00094F8FC01022807D003280BD02946204684
:1037E000FFF78FFA304670BD4806FBD02046FFF742
:1037F000A4FEF7E7080601F07F0004EB001501D5F1
:10380000143501E005F582752046FFF70FFE00B183
:1038100001202860022229462046FFF797FAE1E7B7
:1038200070B5054690F8FC010C4603280DD12079AF
:1038300001280AD8D5F81402826828469047E08803
:1038400030B92846FFF78FFA02E02846FFF759FA09
:10385000002070BD10B504460179D0F8140242680A
:10386000204690472046FFF776FE002010BD2DE948
:10387000F047CC780A7848F68F1334B1012C6DD01C
:10388000022C08D0032C13D10BE030F822401C404E
:1038900044F400730AE030F822401C4020F8224033
:1038A00006E030F822401C4044F4C06320F8223087
:1038B0000C7830F8245048F68F72154048F2800397
:1038C0001D43254320F824508D7A48F6BF790427FC
:1038D0004BF68F7A48F2C0044CF28006EDB30D78B7
:1038E00030F825C048F280180CEA020C4CEA080CAB
:1038F00020F825C0CD88B0F850C025F0010591F81A
:1039000000800CEBC80C00EB4C0CCCF800540D897B
:10391000B0F850C025F0010591F8008007EBC8070A
:10392000674400EB4707C7F800544D78002D0D7829
:1039300030F825704FEA47477DD0002F05DA30F880
:1039400025701740374320F825700D7830F8257022
:103950007F0608D530F8257001E024E01DE017400F
:10396000274320F825700C7830F824501540354353
:1039700020F824500C7830F8242002EA09021A4377
:1039800020F824200A7830F8221001EA0A011943AD
:1039900020F822100020BDE8F08730F822401C40BB
:1039A00044F4806382E74D78F5B18D88B0F85060BB
:1039B00025F001050F7806EBC70600EB4606C6F8B2
:1039C00000540D7830F82560760605D530F825606E
:1039D0001640264320F825600A7830F8221001EAC4
:1039E000090181F02001D2E78C88B0F8505024F012
:1039F000010491F800C007EBCC073D4400EB4505FE
:103A0000C5F80044B0F850400D78062707EBC5050F
:103A10002C4400EB44070C694FF6FF7C07F58067E8
:103A20003E2C0CD9C4F34F15E40601D16D1EADB286
:103A30000CEA852400E01EE044F4004407E0C4F3EF
:103A40004F05E40701D06D1CADB20CEA85243C6043
:103A50000C7830F824506D0405D530F8245015400A
:103A6000354320F824500A7830F8221001EA0A0180
:103A700081F440518BE7002F05DA30F825701740AC
:103A8000374320F825700D7830F82560760605D587
:103A900030F825601640264320F825600E7830F86F
:103AA00026501540254320F826500C7830F8242065
:103AB00002EA0A0282F440521A4320F824200A78CB
:103AC00030F8221001EA090161E700207047002068
:103AD000704700207047012120F8401F002101801D
:103AE000818001820846704730F8401F21F43D4133
:103AF0000180002070470020704730B54D780A786B
:103B0000002D48F68F7430F8225048F2800312D00E
:103B10006D0607D530F82250254048F2C0042543F1
:103B200020F822500A7830F8221048F6BF7421405D
:103B300081F0300111E06D0407D530F822502540A6
:103B40004CF28004254320F822500A7830F82210E5
:103B50004BF68F74214081F44051194320F8221014
:103B6000002030BD10B50A7848F2800352B1497880
:103B7000002930F8221010D048F6BF74214081F09F
:103B800010010FE001884BF6BF72114081F48051A3
:103B900081F010011943018007E04BF68F7421403A
:103BA00081F48051194320F82210002010BD00003C
:103BB0002DE9F0410D460646896995F801C00023BC
:103BC000AA7A022728690C4648F28008BCF1010F46
:103BD00005D0814252D90446081AA8614FE08142BB
:103BE00003D90446081AA86100E0AB617AB12878CD
:103BF00036F820104906B6F8501007EBC00008440C
:103C000006EB4000C0F8004412D52A8911E0A3B2A7
:103C1000AA883046696900F0D1F8B6F850002978D2
:103C200007EBC101084406EB4000C0F800441CE06B
:103C3000EA88A3B23046696900F0C0F8687848F6AF
:103C40008F7110B1012807D00FE0287836F82020B6
:103C50000A4048F2C00105E0287836F820200A40E2
:103C60004CF280010A4326F82020297836F82100FA
:103C700048F6BF72104080F0300067E0AB61062369
:103C80004FF6FF701AB1BCF1000F1BD056E0B6F82A
:103C900050102A783E2C03EBC202114406EB41027D
:103CA00002F5806239D9C4F34F11E30632D000BF68
:103CB00000EA812040F4004002E000BF00EA8120D9
:103CC00010603BE0B6F850102A783E2C07EBC20299
:103CD000114406EB410202F580620BD9C4F34F1187
:103CE0005FEAC46C01D1491E89B200EA812141F426
:103CF000004108E0C4F34F015FEAC47C01D0491CD5
:103D000089B200EA8121116069780029BFD00129B8
:103D10000AD013E0491E89B2CAE7C4F34F01E30792
:103D2000CCD0491C89B2C9E7B6F85000297807EB16
:103D3000C101084406EB4000C0F80044297836F879
:103D400021004BF68F72104080F4405040EA08008A
:103D500026F821000020BDE8F08130F8401F41F432
:103D60003D410180002070470148FDF7F1BB000094
:103D70001C030020B0F84400704700005B1C00EBFF
:103D800042005B0800F5806006D000BF30F8042BCD
:103D900021F8022B5B1EF9D170470020704711B942
:103DA0008021A0F84C1000207047012120F8401F0E
:103DB00000218180032101800020704710B55B1C29
:103DC00000EB42005B0800F5806009D011F8012B80
:103DD0005B1E11F8014B42EA042220F8042BF5D1B6
:103DE00010BDFEE702E008C8121F08C1002AFAD180
:103DF00070477047002001E001C1121F002AFBD16B
:103E00007047FEE72DE9F04F3423012951DD93FB84
:103E1000F1F300EB810903F1060A002559F8043C8F
:103E2000DFF82CB1491E5D44C5F3810700241EE074
:103E300000EB84064FEA531C76684FEAD6088CEAFA
:103E4000860C88EA0318C44404F0030888EA0708CB
:103E50006E4052F8288088EA030806EB08038CEAD3
:103E6000030C50F82430634440F82430641C8C4226
:103E7000DED3066804F003047C404FEA531C4FEA8B
:103E8000D6088CEA860C52F8244088EA03186E4063
:103E90005C403319C4448CEA030C59F8043CAAF181
:103EA0000104634449F8043C5FEA040ABBD1BDE85D
:103EB000F08FB1F1FF3FFADA4D4293FBF5F324495D
:103EC00003F10609D0F8004009FB01F3C3F38107B1
:103ED000691E1FD000EB81064FEAD40856F8046C27
:103EE0004FEA561C8CEA840C88EA0618E04483EA00
:103EF000040C01F003047C4052F8244074406444F4
:103F000088EA040850F82140A4EB080440F8214056
:103F1000491EDFD100EB85014FEAD40C51F8041C97
:103F200052F827704E0986EA84068CEA011C5C4030
:103F30004F406644E1194E4001688C1B04490460FF
:103F400049420B44A9F101015FEA0109BED1AEE784
:103F5000B979379E10B5002821D0114B0022001FDF
:103F6000196803E0814203D80A4649680029F9D15B
:103F700052B11368841A9C4204D10068184410603E
:103F8000104602E0506000E0186039B102680B1A78
:103F9000934203D10B681A4402604968416010BD26
:103FA000CC000020FDF72AF9FEF73BFEFCF7EAF90A
:103FB000FEE7000000000000000001020304060705
:103FC00008090000EFCDAB8940496E7465726E61DF
:103FD0006C20466C6173682020202F307830383098
:103FE00030303030302F33322A3030314B612C3387
:103FF000322A3030314B6700000000000000000022
:10400000FFFFFFFFFFFFFFFFFFFFFFFFFFFFFFFFC0
:104010000B8FF7E9FD15F2437386E677823B6CD888
:10402000F0B50B30154D20F007010024144A0FE0C5
:1040300003688B420BD38B4205D95E1A431847683D
:10404000C3E9006700E04368136002C004E0021D9A
:1040500010680028ECD12046002802D1286808B159
:104060000020F0BD064A07481060074A121A22F0E5
:104070000702C0E9002401202860D7E7D000002013
:10408000CC00002044090020401100200000C1C0E5
:1040900081C1400101C3C003800241C201C6C00604
:1040A000800741C70005C1C581C4400401CCC00CD4
:1040B000800D41CD000FC1CF81CE400E000AC1CA94
:1040C00081CB400B01C9C009800841C801D8C01884
:1040D000801941D9001BC1DB81DA401A001EC1DE04
:1040E00081DF401F01DDC01D801C41DC0014C1D4F4
:1040F00081D5401501D7C017801641D601D2C01214
:10410000801341D30011C1D181D0401001F0C030E3
:10411000803141F10033C1F381F240320036C1F603
:1041200081F7403701F5C035803441F4003CC1FCD3
:1041300081FD403D01FFC03F803E41FE01FAC03A93
:10414000803B41FB0039C1F981F840380028C1E8C3
:1041500081E9402901EBC02B802A41EA01EEC02E03
:10416000802F41EF002DC1ED81EC402C01E4C024F3
:10417000802541E50027C1E781E640260022C1E213
:1041800081E3402301E1C021802041E001A0C06023
:10419000806141A10063C1A381A240620066C1A603
:1041A00081A7406701A5C065806441A4006CC1ACD3
:1041B00081AD406D01AFC06F806E41AE01AAC06A93
:1041C000806B41AB0069C1A981A840680078C1B883
:1041D00081B9407901BBC07B807A41BA01BEC07E03
:1041E000807F41BF007DC1BD81BC407C01B4C074F3
:1041F000807541B50077C1B781B640760072C1B213
:1042000081B3407301B1C071807041B00050C19062
:10421000819140510193C053805241920196C05602
:10422000805741970055C19581944054019CC05CD2
:10423000805D419D005FC19F819E405E005AC19A92
:10424000819B405B0199C059805841980188C048C2
:1042500080494189004BC18B818A404A004EC18E02
:10426000818F404F018DC04D804C418C0044C184F2
:10427000818540450187C047804641860182C04212
:10428000804341830041C181818040402E2E5C2EBD
:104290002E5C2E2E5C447269766572735C53544DAD
:1042A0003332463178785F48414C5F4472697665B5
:1042B000725C5372635C73746D3332663178785F0D
:1042C00068616C5F636F727465782E630000000034
:1042D0002E2E5C2E2E5C2E2E5C44726976657273D7
:1042E0005C53544D3332463178785F48414C5F44DB
:1042F00072697665725C5372635C73746D33326697
:104300003178785F68616C5F666C6173685F65784F
:104310002E6300002E2E5C2E2E5C2E2E5C447269C5
:10432000766572735C53544D3332463178785F480A
:10433000414C5F4472697665725C5372635C73745E
:104340006D3332663178785F68616C5F7263635F8A
:1043500065782E630000000078430008000000200C
:10436000D4000000E43D00084C440008D4000020C4
:104370006C180000F43D000800A24A040000000090
:10438000000000000000000000000000993000085C
:10439000C9300008D5300008FD3000083131000870
:1043A00079300008A5300008040309041201000256
:1043B00000000040830411DF00020102030100003D
:1043C000E12E0008852D0008452F0008C72D0008A4
:1043D000C32D00087D2D0008812D00083F2F000807
:1043E0002D2F0008312F0008A92E0008A92E000843
:1043F000A92E0008B52E0008C12E000809021B00D6
:10440000010102C0320904000000FE010206092178
:104410000BFF0000041A01000A0600020000004021
:1044200001000000C83F0008F1240008C124000872
:10443000CB2400080D250008FB240008ED2400080B
:0C444000A524000800000000000000009F
:04000005080000ED02
:00000001FF
