:020000040800F2
:10800000803B0020018100083BBC000837BC000811
:1080100039BC0008498F000815E000080000000086
:10802000000000000000000000000000E5BF0008A4
:108030003990000800000000E3BF0008D5C5000823
:108040001B8100081B8100081B8100081B810008A0
:108050001B8100081B8100083B900008419000082C
:108060001B8100081B8100081B8100081B81000880
:108070001B8100081B810008219000082D9000083A
:108080001B8100081B8100081B8100081B81000860
:10809000ADDF00081B8100081B8100081B81000860
:1080A0001B8100081B8100081B8100081B81000840
:1080B0001B8100081B8100081B8100081B81000830
:1080C0001B8100081B8100081B8100081B81000820
:1080D0001B81000855CE00081B8100081B81000889
:1080E0001B8100081B8100081B810008DFF80CD0F1
:1080F00000F04CF80048004739E00008803B0020C1
:108100000648804706480047FEE7FEE7FEE7FEE731
:10811000FEE7FEE7FEE7FEE7FEE7FEE74DC60008E6
:10812000ED800008202A04DB203A21FA02F0002129
:10813000704721FA02F3D040C2F120029140084377
:108140001946704740EA01039B0703D009E008C9BC
:10815000121F08C0042AFAD203E011F8013B00F80C
:10816000013B521EF9D27047D2B201E000F8012B58
:10817000491EFBD270470022F6E710B513460A46A7
:1081800004461946FFF7F0FF204610BD064C074D88
:1081900006E0E06840F0010394E8070098471034D7
:1081A000AC42F6D3FFF7A6FF78E4000898E4000895
:1081B00070B58C1810F8015B15F0070301D110F8A9
:1081C000013B2A1106D110F8012B03E010F8016BD6
:1081D00001F8016B5B1EF9D12B0705D40023521E59
:1081E0000DD401F8013BFAE710F8013BCB1A921CC1
:1081F00003E013F8015B01F8015B521EF9D5A142BF
:10820000D8D3002070BD00001CB501F035FD164923
:108210008860CA68821A142A23D3C860AA208DF8FD
:10822000000055208DF8010003208DF80200A220E7
:108230008DF8030000208DF8040009788DF80510F2
:108240008DF806004FEA0D019DF806200B5C401CDE
:108250005A408DF806200628F6D30721684600F01C
:10826000B1FE00201CBD00001C2000202DE9F041C3
:10827000FA4D9AB0D5E90060801B0830082800D379
:10828000083800287ED006EB061005EB800144225A
:1082900068460831FFF756FF761C00242E60082E32
:1082A00000D32C60009805286CD39DF80400AA2800
:1082B00068D19DF805005528FAD19DF80600009A6E
:1082C000011DAA25552602278A4272D10022114695
:1082D000EC46C31C07E000BF0CEB0108491C98F8F2
:1082E000048088EA02028B42F6D80CF10701405C58
:1082F000904279D19DF80700012831D0022859D049
:108300000821032879D0042870D005286FD061286F
:108310006ED020286DD021286CD0032122286AD06D
:10832000702869D003208DF844509DF807108DF80F
:1083300045608DF848008DF8467041F080018DF859
:1083400047108DF8494000200DF144029DF8491076
:10835000135C401C59408DF849100528F6D3B2E152
:1083600000208DF844508DF845600C218DF84610A2
:108370008DF848008121BAA08DF847100168CDF82A
:10838000491000E049E14168CDF84D100089ADF891
:1083900051008DF8534000200DF144019DF8532009
:1083A0000B5C401C5A408DF853200F28F6D3102147
:1083B00030E18AE100208DF844508DF845608DF859
:1083C000467082218DF848008DF847108DF849409D
:1083D0000DF144029DF84910135C401C59408DF882
:1083E00049100528F6D36EE152E106E027E049E0A6
:1083F00069E09AE0C2E0EEE013E18DF8445000201D
:108400008DF845608DF846108DF84800832197A0BF
:108410008DF847100168CDF849108088ADF84D00FF
:108420008DF84F40002011A99DF84F200B5C401C97
:108430005A408DF84F200B28F6D30C21EAE08DF836
:10844000445000208DF845608DF846108DF84800A6
:10845000842188A08DF847100168CDF849108088E4
:10846000ADF84D008DF84F40002011AA9DF84F1037
:10847000135C401C59408DF84F100B28F6D30C218B
:108480001046C8E08DF844508DF8456012218DF8F3
:108490004610002085218DF847108DF8480011AD59
:1084A00010227649681DFFF74DFE8DF859400021D6
:1084B0009DF859006A5C491C50408DF859001529F7
:1084C000F6D31621A6E09DF806004FF0000811280B
:1084D0001ED04FF0040800BF8DF844509DF80700EF
:1084E0008DF845608DF8467040F080008DF84700AB
:1084F0008DF848808DF84940002011A99DF8492049
:108500000B5C401C5A408DF849200528F6D360E0EA
:108510000DF1080E59489EE80E1080E80E10A0F1EB
:108520000801574803F058FED6E79DF808104FF0B1
:108530000008642903D8002000F02EFC01E04FF071
:1085400004088DF844509DF807008DF845608DF8BB
:10855000467040F080008DF847008DF848808DF817
:10856000494000200DF144029DF84910135C401C65
:1085700059408DF849100528F6D3A4E09DF808006D
:108580004FF00008642807D880016421B0FBF1F1A6
:10859000012000F001FC01E04FF004088DF8445088
:1085A0009DF807008DF845608DF8467040F080001A
:1085B0008DF847008DF848808DF84940002011A9BA
:1085C0009DF849200B5C401C5A408DF84920052835
:1085D000F6D306211EE08DF8445000208DF845604A
:1085E0008DF846108DF84800A22126488DF84710D6
:1085F0000DF1440100788DF849008DF84A400020C3
:108600009DF84A200B5C401C5A408DF84A200628F1
:10861000F6D3072111A800F0D5FC1AB00020BDE860
:10862000F0811A4B184A00201A608DF844508DF8DA
:1086300045608DF84610F0218DF848008DF8471000
:108640008DF849400DF144029DF84910135C401C1F
:1086500059408DF849100528F6D334E03C25002018
:108660004761746C696E5F47756E000056312E313C
:108670002E30000056322E312E3400002C300020D7
:1086800000F000081C200020AB89EFCD001F002067
:108690008DF844509DF807008DF845608DF84670C0
:1086A00040F080008DF847008DF848708DF8494003
:1086B000002011AA9DF84910135C401C59408DF808
:1086C00049100528F6D30621DAE68DF844509DF8C6
:1086D000071001208DF845608DF8467041F080014B
:1086E0008DF848008DF847108DF84940002011A9F9
:1086F0009DF849200B5C401C5A408DF84920052804
:10870000F6D366E788B07B4800F068FC00F05AF9C1
:1087100000F038FA00F048FB00F0DAFB7648774CBE
:10872000774E0068411C1FD0B0427DD103F098FC09
:1087300000284BD04FF4C864204600F0F9FE00F04A
:1087400051FAFA2000F0F4FE00F042FA322000F074
:10875000EFFE00F047FA322000F0EAFE00F038FAAF
:10876000322000F0E5FEE7E7012000F0E1FE01F035
:1087700035F8324600236349022000F0A3FF00F0E1
:1087800097FF614D5D49284603F006FD2068401CB7
:108790001AD1012000F0CCFE18225C496846FFF790
:1087A000D1FC5A489C380068069003F054FC06A996
:1087B000284603F0BDFD0021284603F015FD6A465A
:1087C0000021284603F06CFD012082E000F0AEF8A5
:1087D00000F0D2F8002000F0F7F8012000F0F4F8E3
:1087E00000F016FA00F02EF9012000F0BBF901218B
:1087F000002000F073F90121084600F06FF903F042
:1088000003FE42494C2298394148FFF79BFC4048FF
:1088100003F0B2FD3E4800254C302F460560456010
:1088200000F07CFB002200E05EE0324839490C3069
:1088300004F0ADFD2F4838490C3004F050FF2D48AE
:1088400036490C3004F0ECFB2A480C3004F094FF5D
:1088500000F06EFB324CDFF8CC80606890F8FC01D1
:10886000032815D1294901274C224C392848FFF704
:1088700069FC274803F080FD0AE0012F08D16068F9
:1088800090F8FC01032803D00027214803F0DAFD0B
:10889000002003F017FE0020256000F0C1F818B199
:1088A000206840F001002060012000F0B9F818B104
:1088B000206840F0020020600020FFF7D7FC002075
:1088C000FFF7A2FCD8F80000B04206D100F026FB6A
:1088D0000A2000F02DFE03F0C1F90121002001F073
:1088E00039FD002FB9D0C8E700F088F9192000F051
:1088F0001FFEF9E7C022002000A000088821002008
:10890000AB89EFCD00A0000800F0000810E10008DE
:10891000F0240020502100200821002040210020C8
:108920001C200020001F0020FEE700000F4800B5BB
:10893000816985B041F00801816180690C4900F0CE
:10894000080004900120CDE9000102906946094821
:1089500000F070FF00220521062001F013FA062026
:1089600001F0FCF905B0002000BD0000001002403D
:1089700000002110000C01400F4800B5816985B04E
:1089800041F0080181618069694600F008000490A7
:10899000022000900948019001200290084800F050
:1089A00049FF00220521072001F0ECF9072001F022
:1089B000D5F905B0002000BD0010024000002110D4
:1089C000000C01400020704700B5124985B0C0B1CD
:1089D000012816D0022814D0032812D00E4931F8ED
:1089E00010100091002101910121029102210391B7
:1089F0000A4951F82000694600F01CFF05B000202C
:108A000000BD8A6942F008028A61896901F00801A3
:108A10000491E3E7001002406CE000080C20002005
:108A2000064910B5064A31F8101052F8200001F03E
:108A30008FF808B1002010BD012010BD6CE00008C7
:108A40000C2000202DE9F041214C86B0A06940F0B7
:108A50000800A061A069012500F0080004904FF40F
:108A60007040002602278DE8E100DFF86880694643
:108A7000404600F0DFFE0022A114404601F0C4F899
:108A800000226903404601F0BFF80022A9034046D6
:108A900001F0BAF80022E903404601F0B5F8A069F8
:108AA00040F00400A061A069A41500F00400049047
:108AB0008DE8F000084D6946284600F0BBFE002214
:108AC0002146284601F0A0F806B00020BDE8F0815C
:108AD00000100240000C01400008014070B5020087
:108AE0001E4802D0012A1BD035E04FF480535D00B0
:108AF000002907DD4FF000021946044601F084F812
:108B000001220AE002DA4FF0010201E04FF0000218
:108B10001946044601F078F800222946204618E05C
:108B20004FF40043DC110E4D002906DD4FF000022A
:108B3000194601F069F8012209E002DA4FF001025A
:108B400001E04FF00002194601F05EF800222146D4
:108B5000284601F059F8002070BD0000000C0140CB
:108B60000008014010B5064B4FF4804108B10122C6
:108B700000E00022184601F047F8002010BD000078
:108B8000000C014030B5104885B0816941F01001FA
:108B9000816180694FF4005400F0100004900120BE
:108BA000CDE90040002002900220084D0390694664
:108BB000284600F03FFE01222146284601F024F815
:108BC00005B0002030BD0000001002400010014040
:108BD00010B501225103024801F016F8002010BD23
:108BE0000010014010B500224FF40051024801F07E
:108BF0000BF8002010BD00000010014010B54FF42C
:108C00000051024800F0D2FF002010BD00100140CA
:108C100070B5374D8CB0A86940F00800A861A8690C
:108C2000022600F008000A9033200024CDE9000657
:108C3000CDE9024669462F4800F0FCFD2E48416808
:108C400021F4406141F400614160E86940F00200B4
:108C5000E861E869294900F002000A9028480160AB
:108C60004721C0E90114C821C0E9031402F052FAF7
:108C7000234802F091FDA814049004A9204802F0B2
:108C8000B5FA089408A91E48099402F0E1F91C4DB0
:108C900060203C350022AC602C61C5E90006294605
:108CA000174802F07DFC0422294615486E6002F048
:108CB00077FC0822294612486E6002F071FC0C22F3
:108CC00029460F486E6002F06BFC00210C4802F050
:108CD000D3FD04210A4802F0CFFD0821084802F024
:108CE000CBFD0C21064802F0C7FD0CB0204670BD3C
:108CF00000100240000C0140000001400004004050
:108D00006822002010B50024224AC82900D3C821B7
:108D1000516030B1012811D002281CD0032827D07F
:108D200036E01C4800213C3802F00AFE19490022B6
:108D3000A1F13C0002F034FC002125E0154804219B
:108D40003C3802F0FDFD13490422A1F13C0002F081
:108D500027FC042118E00F4808213C3802F0F0FD00
:108D60000C490822A1F13C0002F01AFC08210BE09A
:108D700008480C213C3802F0E3FD06490C22A1F121
:108D80003C0002F00DFC0C2102483C3802F074FD5E
:108D9000204610BDA4220020C82251436422B1FB0A
:108DA000F2F1FFF7AFBF00002DE9F041434D86B06F
:108DB000A86940F00400A861A86901AA00F00400B5
:108DC00004906815009002200126002482E85100DA
:108DD0003B4F6946384600F02DFD2815CDE90004CB
:108DE000CDE902466946384600F024FD686940F046
:108DF000010068616869344F00F001000490314857
:108E0000C7E900044FF08008C7E902483C617C6173
:108E1000BC613846FC6100F0D5FAA7F17806002263
:108E2000776305210F207E6200F0ACFF0F2000F079
:108E300095FF686940F0010068616869383F00F09B
:108E4000010004901F48143801C71020A7E8110141
:108E500006F1400047F810497C61BC61FC6100F0FC
:108E6000B1FA3763002205210E207E6200F08AFFEE
:108E70000E2000F073FFA86940F48040A861A86943
:108E800000F480400490114830604FF4E130C6E9AE
:108E900001040C20F460C6E90440B4613046F4617A
:108EA00002F034FE00220521252000F06BFF252072
:108EB00000F054FF06B00020BDE8F0810010024031
:108EC00000080140580002403022002000380140D4
:108ED00030B5104885B0816941F004018161806935
:108EE0004FF4004400F0040004900120CDE900405C
:108EF000002002900220084D03906946284600F0A9
:108F000099FC01222146284600F07EFE05B0002093
:108F100030BD0000001002400008014010B50122E1
:108F2000D103024800F070FE002010BD000801408F
:108F300010B500224FF40041024800F065FE002009
:108F400010BD000000080140FEE70020704700202F
:108F50007047000010B500220549064804F06EF87D
:108F600003490448403904F063F8002010BD0000B4
:108F7000A4270020CC22002010B5044604F01EF8DF
:108F80002146044804F054F8024804F035F8002063
:108F900010BD0000CC220020094A10B5D2F81822DA
:108FA000D2F814220AB1012010BD0A460146044835
:108FB00004F044F8BDE81040014804F07FB8000018
:108FC000CC220020044A526892F8FC21032A02D1E4
:108FD00089B2FFF7E1BF70471C20002005490968EE
:108FE00001600449091D09684160024908310968A6
:108FF00081607047E8F7FF1F70B504460020024605
:10900000064D07E0A65CC3B27340521C35F813301E
:1090100083EA10208A42F5D370BD000068E10008A1
:10902000014800F099B80000F8210020014800F044
:1090300093B80000302200207047012000F0EEBB02
:10904000022000F0EBBB000010B5012804D040F274
:109050006721084804F0EEFF07490020C86107486F
:10906000016941F004010161016941F040010161C0
:1090700010BD0000ACE30008982100200020024051
:10908000064A0021D16106490A6942F002020A61DA
:109090004861086940F0400008617047982100204D
:1090A00000200240044B0022DA61044A136943F0B5
:1090B00001031361018070479821002000200240C5
:1090C0000E49C868C2060E4803D5C26942F00202C2
:1090D000C261CA68520703D5C26942F00102C26187
:1090E000CA69D20707D0C26942F00402C261C869E6
:1090F00020F00100C8611420C860704700200240C1
:109100009821002070B5054600F0B6FD0646114CCA
:1091100009E0681C07D025B100F0AEFD801BA84215
:1091200001D9032070BDE068C007F2D1E068800675
:1091300001D52020E060E068C00605D4E069C007E2
:1091400002D1E068400703D5FFF7BAFF012070BDE8
:10915000002070BD002002402DE9F05FDFF8608242
:109160000446D8F80020DFF858B2954D944E944F3D
:109170000068DFF84C92DFF848A20BF1080B1C35B1
:10918000303644374FF400614FF4004C4FF4002E5A
:1091900009F158090AF16C0A584501D1082316E073
:1091A000A84201D1802312E0B04201D10B460EE06B
:1091B000B84201D163460AE0484501D1734606E052
:1091C000504502D14FF4000301E04FF000631A4212
:1091D00031D00268D24312072DD4026822F008026F
:1091E00002602068584501D1082114E0A84201D14D
:1091F000802110E0B0420ED0B84201D161460AE0B1
:10920000484501D1714606E0504502D14FF40001B6
:1092100001E04FF00061C8F80410606B40F00100FD
:109220006063042084F82100002084F82000216B72
:1092300009B1204688476248D0F800C04FF48061E9
:1092400020680A010B044FF4802E584502D14FF0DC
:10925000040816E0A84202D14FF0400811E0B042E5
:1092600001D188460DE0B84201D1904609E0484559
:1092700001D1F04605E0504502D14FF4800800E0EE
:1092800098461CEA080F33D0D0F800C06FEA0C0CE7
:109290005FEA4C7C2CD4D0F800C05FEA8C6C05D41B
:1092A000D0F800C02CF0040CC0F800C0206858456D
:1092B00001D1042113E0A84201D140210FE0B042C6
:1092C0000DD0B84201D1114609E0484501D171469F
:1092D00005E0504502D14FF4800100E019463848BE
:1092E0004160112084F82100E16A09B120468847D5
:1092F000334AD2F800C05B46206851154FF4005B3A
:109300004FF4003E984202D14FF0020817E0A84205
:1093100002D14FF0200812E0B04201D188460EE0A1
:10932000B84201D1D8460AE0484501D1F04606E0EE
:10933000504502D14FF4001801E04FF000781CEACC
:10934000080F3BD0D0F800C06FEA0C0C5FEA8C7CB1
:1093500034D4D0F800C05FEA8C6C05D4D0F800C0DB
:109360002CF0020CC0F800C02068984201D1022104
:1093700014E0A84201D1202110E0B0420ED0B84242
:1093800001D159460AE0484501D1714606E05045F1
:1093900002D14FF4001101E04FF000715160606B99
:1093A0006063012084F82100002084F82000A16A75
:1093B000002903D02046BDE8F05F0847BDE8F09FD4
:1093C0000000024070B504006ED048492068884211
:1093D0001BD046491431884217D04449283188426D
:1093E00013D042493C3188420FD040495031884225
:1093F0000BD03E496431884207D03C4978318842DD
:1094000003D0B5213AA004F015FE606840B11028E1
:1094100006D0B0F5804F03D0B62135A004F00AFE87
:10942000A068402804D018B1B72131A004F002FE92
:10943000E068802804D018B1B8212DA004F0FAFD0E
:10944000206948B1B0F5807F06D0B0F5007F03D029
:10945000B92127A004F0EEFD606948B1B0F5806F36
:1094600006D0B0F5006F03D0BA2121A004F0E2FDD0
:10947000A06928B1202803D0BB211DA004F0DAFD8B
:10948000E06960B1B0F5805F09D0B0F5005F06D04B
:10949000B0F5405F03D0BC2115A004F0CBFD94F8DB
:1094A0002100002310B103E0012070BD84F82030BA
:1094B000022084F821002268116843F6F07081438D
:1094C000D4E901052843D4E90356354328436569A7
:1094D0002843A5692843E56928430843106063636E
:1094E000012084F82100002070BD00000800024027
:1094F0002E2E5C2E2E5C2E2E5C4472697665727365
:109500005C53544D3332463178785F48414C5F4468
:1095100072697665725C5372635C73746D33326624
:109520003178785F68616C5F646D612E6300000064
:1095300031B500F0A1FB044600F09EFB0099001B32
:109540008842F9D338BD00002DE9F05F0446504849
:109550000F460126017E012943D001218246017672
:10956000DFF83081206840B102283DD0B9214A4857
:1095700004F060FD2068022836D0A068DFF81CB136
:10958000DFF81C914FF0FF35B0F1006F0AD3B9F846
:10959000001080293CD0402944D020294CD041499A
:1095A00088420BD9FA213C4804F044FDB9F8000088
:1095B00080282FD0402838D0202840D0D4E902017C
:1095C00005EB812101443748814203D9FB21324810
:1095D00004F030FD4CF250394846FFF793FDA8B334
:1095E00051E00220BDE8F09F4CF250342046FFF7D6
:1095F00089FD60BB0120FFF727FD2046FFF782FDB4
:10960000D8F81010064621F00401C8F810103AE00E
:109610005845C7D8D4E9020105EB812101445945D9
:10962000D8D9D3E720498842BCD8D4E9020105EB58
:10963000812101441C48C7E71C498842B2D8D4E9BB
:10964000020105EB812101441848BDE700E01AE062
:109650003D60A56811E02846FFF712FD4846FFF778
:1096600051FDD8F81010060021F00201C8F81010C2
:1096700001D03D6007E005F58065D4E9020100EB0B
:109680008120A842E7D800218AF818103046A9E7BF
:109690009821002000200240ACE30008FFFF0108F1
:1096A000E0F7FF1FFF3F0008FFFF0008FF7F0008F3
:1096B0000348016941F0800101610020704700000A
:1096C000002002402DE9F05F06462D480D4600249B
:1096D000017E17469846012925D001218146017651
:1096E000012E07D0022E05D0032E03D0C42125A0C1
:1096F00004F0A0FCB5F1006F0AD33248008880283E
:1097000014D0402814D0202814D02F48854203D9E3
:10971000C5211CA004F08EFC4CF2503A5046FFF7D5
:10972000F1FC48B128E00220BDE8F09F2748EDE7B2
:109730002748EBE72748E9E7012E02D0022E00D0A8
:109740000426D346DFF890A0220141463846FEF7B2
:10975000E9FC81B205EB4400FFF7A4FC5846FFF793
:10976000D1FCDAF8102022F00102CAF8102018B952
:10977000641CE4B2B442E7D3002289F81820D3E78E
:10978000982100202E2E5C2E2E5C2E2E5C447269B9
:10979000766572735C53544D3332463178785F4846
:1097A000414C5F4472697665725C5372635C73749A
:1097B0006D3332663178785F68616C5F666C6173B7
:1097C000682E6300E0F7FF1FFF3F0008FFFF01085E
:1097D000FFFF0008FF7F00080020024005480169E4
:1097E000090605D5044941600449416000207047DD
:1097F000012070470020024023016745AB89EFCD6F
:1098000010B5012804D0022801D100F005F810BDE0
:1098100000F001F810BD704770470000044910B512
:109820000A68024202D00860FFF7EAFF10BD00009C
:10983000140401402DE9F84FDFF890B20D460446BC
:109840004FF0000958450FD0A14884420CD0A148E0
:10985000844209D0A048844206D0A048844203D064
:10986000CF219FA004F0E6FB28880004000C03D160
:10987000D0219BA004F0DEFB6868F8B101281DD060
:1098800011281BD0022819D0122817D0A4498842C9
:1098900014D0A449884211D0A34988420ED0A349CC
:1098A00088420BD0A249884208D0A249884205D0FC
:1098B000032803D0D1218AA004F0BCFB00274FF07D
:1098C000010A00BF2E680AFA07F806EA08064645AC
:1098D0006FD15C450FD07E4884420CD07D488442D5
:1098E00009D07D48844206D07C48844203D0DF21E1
:1098F0007BA004F09FFB8A496868421A884259D0CD
:109900000EDC032876D006DC002853D0012819D0BD
:1099100002286AD131E0112821D0122865D13AE01D
:10992000B2F5881F46D006DCB2F5803F42D0B2F5D2
:10993000801F5AD13EE0B2F5001F3BD0B2F5041FA4
:1099400053D137E0E868022807D0012805D0032862
:1099500003D0E72162A004F06DFBE8683FE0E8680F
:10996000022807D0012805D0032803D0EE215CA0EF
:1099700004F060FBE868001D31E0E868022807D0C9
:10998000012805D0032803D0F52155A004F052FB8F
:10999000E868083023E0E868022807D0012805D0ED
:1099A000032803D0FC214EA004F044FBE8680C30EF
:1099B00015E085E0A86888B1012812D0022808D0F7
:1099C00040F2091146A004F035FBA86830B1012827
:1099D00007D04FF00809C4F8148006E0042081463F
:1099E00003E04FF00809C4F81080FF2E05D8224686
:1099F00005E0FFE74FF00000F1E704F104024FEA51
:109A0000870001D9A0F1200013684FF00F0101FA7F
:109A100000FC23EA0C0309FA00FC43EA0C03136080
:109A20006868C0004CD54448826942F001028261F6
:109A3000806927F0030200F0010000903F480244D3
:109A40009068BB071B0F994088435C4501D10021FA
:109A50000FE01F498C4201D101210AE01D498C42CF
:109A600001D1022105E01C498C4201D1032100E013
:109A700004219940014391606868C003304801683F
:109A800001D5314300E0B1430160686880032D488F
:109A9000016801D5314300E0B14301606868C0024C
:109AA0002948016801D5314300E0B143016068688D
:109AB00080022648016801D5314300E0B1430160CE
:109AC0007F1C102FFFF4FEAEBDE8F88F00080140A8
:109AD000000C01400010014000140140001801403A
:109AE0002E2E5C2E2E5C2E2E5C447269766572736F
:109AF0005C53544D3332463178785F48414C5F4473
:109B000072697665725C5372635C73746D3332662E
:109B10003178785F68616C5F6770696F2E630000F1
:109B20000000111000002110000031100000121080
:109B3000000022100000321000100240000001401E
:109B40000004014004040140080401400C040140E9
:109B500070B50C00054604D14FF4E27103A004F087
:109B600069FAA868204000D0012070BD2E2E5C2E1E
:109B70002E5C2E2E5C447269766572735C53544D74
:109B80003332463178785F48414C5F44726976657C
:109B9000725C5372635C73746D3332663178785FD4
:109BA00068616C5F6770696F2E63000070B50C00B0
:109BB000054604D14FF4FD7103A004F03BFAE868B8
:109BC0006040E86070BD00002E2E5C2E2E5C2E2EB4
:109BD0005C447269766572735C53544D333246311E
:109BE00078785F48414C5F4472697665725C537265
:109BF000635C73746D3332663178785F68616C5F73
:109C00006770696F2E63000070B515460C0006463C
:109C100004D14FF4F27108A004F00CFA45B1012D03
:109C200004D040F2E51104A004F004FA346170BDE0
:109C30002004306170BD00002E2E5C2E2E5C2E2E76
:109C40005C447269766572735C53544D33324631AD
:109C500078785F48414C5F4472697665725C5372F4
:109C6000635C73746D3332663178785F68616C5F02
:109C70006770696F2E63000001480068704700003C
:109C80000420002002480168491C01607047000060
:109C900004200020074810B5016841F01001016060
:109CA000032000F0A3F8002000F006F800F016F8FA
:109CB000002010BD0020024010B5044600F09CFDBD
:109CC0004FF47A71B0FBF1F001F0AAF900222146BD
:109CD000501E00F057F8002010BD00001D4808B5C8
:109CE000816941F001018161806900F0010000900B
:109CF000032000F07BF8002211466FF00B0000F00B
:109D000041F8002211466FF00A0000F03BF80022F3
:109D100011466FF0090000F035F800221146501F7F
:109D200000F030F800221146101F00F02BF800223E
:109D30001146901E00F026F800221146501E00F039
:109D400021F80548416821F0E06141F0007141606F
:109D500008BD0000001002400000014010B50400E2
:109D600003D5E621064804F065F904F01F0101203F
:109D700088406109890001F1E021C1F8000110BDAE
:109D800068E3000870B515460C460646102A03D352
:109D9000D221144804F04EF9102C03D3D3211148DA
:109DA00004F048F910480068C0F30223C3F1070229
:109DB0002046042A00D90422191D072901D20023B4
:109DC00000E0DB1E012404FA02F1491E0140994023
:109DD0009C40641E2C4021433046BDE8704001F099
:109DE0002DBF000068E300080CED00E010B504464C
:109DF00007280BD0062C09D0052C07D0042C05D041
:109E0000032C03D0BA21084804F014F9074904F0E0
:109E1000070208684FF6FF03184040EA0220044A90
:109E20001043086010BD000068E300080CED00E07E
:109E30000000FA0510B50C0605D501F07F0100EB16
:109E40004110283003E000EB411000F5027099B298
:109E500032B101228272C180190C0181002010BD33
:109E6000002282728180F9E7704700EB4112D0F83E
:109E70001C04D26B03F0AEBA00EB4112D0F81C0404
:109E8000D2F81C2203F0FBBA10B504460A460B06B2
:109E900001F07F0004EB401101D5283101E001F50C
:109EA00002710870D009487094F8E803012809D0BD
:109EB000012084F8E803206803F09AFE002084F86B
:109EC000E80310BD022010BD70B50A46044609061D
:109ED00002F07F0003D504EB4011283103E004EBCE
:109EE000421101F5027100258D700870D00948708B
:109EF00094F8E803012809D0012084F8E8032068D9
:109F000003F01EFF84F8E853002070BD022070BDEE
:109F100001F07F0100EB4110B0F8240280B27047DD
:109F200070B504460D460E0601F07F0004EB4011AB
:109F300001D5283101E001F502710870E809487087
:109F40000A61CB7094F8E803012809D0012084F855
:109F5000E803206803F01CFD002084F8E80370BDCE
:109F6000022070BD70B504460E4601F07F0004EB80
:109F7000401101F5077100252CC101F81F5C01F8A3
:109F8000200D94F8E80301280AD0012084F8E803A2
:109F90007006206803F02EFF84F8E853002070BD9F
:109FA000022070BD70B50D460446090605F07F001D
:109FB00003D504EB4011283103E004EB451101F512
:109FC000027101228A700870E809487094F8E80369
:109FD000012807D084F8E823206803F0E6FE68062D
:109FE00002D006E0022070BD04F57B71206803F00A
:109FF000A5FE002084F8E80370BD704770477047E5
:10A00000FFFFFFFF70B504460E4601F07F0004EB32
:10A0100040113C3100252CC1012201F81F2C01F810
:10A02000200D94F8E803012809D084F8E82370068D
:10A03000206803F0DFFE84F8E853002070BD0220A2
:10A0400070BD10B50446006803F0B6FF000402D5E9
:10A05000204601F015FE206803F0AEFF40050CD548
:10A06000206830F8441F21F480610180204600F010
:10A0700015F90021204600F026F9206803F09CFF26
:10A08000400405D5206830F8441F21F48041018048
:10A09000206803F091FF800405D5206830F8441F44
:10A0A00021F400510180206803F086FFC00413D51D
:10A0B000206830F8401F21F00401018021684FF42E
:10A0C0003D40A1F84000204600F0F5F8206830F847
:10A0D000441F21F480510180206803F06DFF0005CA
:10A0E0001AD5206830F8441F21F4006101802068EF
:10A0F00030F8401F41F008010180206830F8401F0F
:10A1000041F004010180206803F056FFC043C00401
:10A1100002D5204600F00CF9206803F04DFF8005C1
:10A1200008D5206830F8441F21F4007101802046D2
:10A1300000F0C5F8206803F03FFFC00505D5206892
:10A1400030F8441F21F48071018010BD2DE9F041E9
:10A1500086B004004FF000050CD0304920688842DA
:10A1600003D0A1212EA003F065FF94F8E903002697
:10A1700020B108E0012006B0BDE8F08184F8E86372
:10A18000204600F06DF8032084F8E903206803F00E
:10A19000CEFD04F11001142288466846FDF7D2FF77
:10A1A00094E80F0003F022FD0021206803F017FF60
:10A1B0005FF0010704EB451080F8297000F8285F74
:10A1C0008581C670066146616D1C86610F2DF1D3D5
:10A1D0005FF0000004EB401181F8096281F8080289
:10A1E000888681F80B62C1F81862C1F81C62401CB5
:10A1F000C1F820620F28EDD3142241466846FDF7CE
:10A20000A1FF94E80F0003F089FD84F8246084F82E
:10A21000E973206803F080FD0020ACE7005C00409B
:10A220002E2E5C2E2E5C2E2E5C4472697665727327
:10A230005C53544D3332463178785F48414C5F442B
:10A2400072697665725C5372635C73746D333266E7
:10A250003178785F68616C5F7063642E6300000022
:10A2600008B500680B49884212D10B48C16941F416
:10A270000001C161C069002200F4000000900521C6
:10A280001420FFF77FFDBDE808401420FFF766BDEE
:10A2900008BD0000005C00400010024010B50446FC
:10A2A0000121D0F81C0403F0B1F9D4F81C04BDE876
:10A2B000104003F07AB9D0F81C0403F095B9D0F837
:10A2C0001C0403F097B910B5044690F8E803012880
:10A2D0000BD0012084F8E80384F82410206803F0F0
:10A2E00080FE002084F8E80310BD022010BDD0F8E5
:10A2F0001C2400F57B71104603F092B910B504469A
:10A3000090F8E803012810D0012084F8E803014602
:10A310002046FFF7A9FD206803F0FCFC206803F04D
:10A320003EFE002084F8E80310BD022010BD0000AE
:10A3300010B50446D0F81C0403F0ADF9A06900285C
:10A3400004D00348016841F00601016010BD00001F
:10A3500010ED00E010B50C46012906D0022C04D007
:10A3600040F2B71107A003F065FE1648016821F01E
:10A3700004010160012C03D040BF20BF20BF10BDED
:10A3800030BF10BD2E2E5C2E2E5C2E2E5C447269CA
:10A39000766572735C53544D3332463178785F483A
:10A3A000414C5F4472697665725C5372635C73748E
:10A3B0006D3332663178785F68616C5F7077722ECA
:10A3C0006300000010ED00E02DE9F843044600684A
:10A3D000604DC1070AD1810770D4C0066FD47E21B9
:10A3E0005D4803F027FE2078C00769D0606860B13F
:10A3F000B0F5807F09D0B0F5007F06D0B0F5407F82
:10A4000003D08421544803F015FEE86940F08050E1
:10A41000E861E869514E00F080500090306840F4E7
:10A4200080703060FFF728FC074604E0FFF724FC4B
:10A43000C01B642833D83068C005F7D5286A10F4EB
:10A44000407054D0A18801F4407181424FD0286AF5
:10A450000126310491FAA1F2B2FA82F29300404A45
:10A4600020F440701344C3F8006491FAA1F1B1FAEA
:10A4700081F102EB81010023C1F800342862C0079A
:10A4800035D0FFF7F9FB074641F288394FF0020853
:10A4900008E000BFFFF7F0FBC11B494502D90320CC
:10A4A000BDE8F88398FAA8F1B1FA81F141F04001D2
:10A4B0004046B6EB511F04D129680EE020E037E09A
:10A4C0001BE090FAA0F1B1FA81F141F04001B0EB4C
:10A4D000511F01D1296A00E0696A98FAA8F0B0FA20
:10A4E00080F000F01F0206FA02F00142D2D0286A82
:10A4F000616820F44070084328622078800714D5F2
:10A50000A06860B1B0F5804F09D0B0F5004F06D01B
:10A51000B0F5404F03D0BA210F4803F08BFD6868B7
:10A52000A16820F44040084368602078C0060FD539
:10A53000E068B0F5800F05D020B14FF48B7106486C
:10A5400003F078FD6868E16820F4800008436860E3
:10A550000020A5E700100240F0E300080070004072
:10A56000000042422DE9F0470E46050004D14FF4A9
:10A570002F718DA003F05EFD2868C1070AD1810705
:10A5800008D4410706D4000704D440F2BD2186A0B8
:10A5900003F050FD46B1012E06D0022E04D040F249
:10A5A000BE2181A003F046FDDFF83C82D8F8000010
:10A5B00000F00700B0420CD2D8F8001021F00701DB
:10A5C0003143C8F80010D8F8000000F00700B0428E
:10A5D0006FD12878854C80071CD5A868A0B1802849
:10A5E00012D0902810D0A0280ED0B0280CD0C028AF
:10A5F0000AD0D02808D0E02806D0F02804D040F2B5
:10A60000D72169A003F016FD6068A96820F0F0006A
:10A61000084360602878C00764D06868012768B183
:10A62000012817D0022834D040F2DE215EA003F0CA
:10A6300001FD686801280DD002282AD05FF00201D0
:10A6400091FAA1F0B0FA80F040F02000400904D067
:10A65000206803E04FF40031F2E7606A91FAA1F15B
:10A66000B1FA81F101F01F018F4038424BD0606890
:10A67000696820F0030008436060FFF7FDFA69682D
:10A68000074641F2883001290CD00229814616D0B4
:10A6900024E04FF00071D3E7FFF7EEFAC11B494504
:10A6A00001D918E081466068C0F381000128F3D128
:10A6B00018E028E0FFF7E0FAC11B49450BD86068B5
:10A6C000C0F381000228F5D10CE000BFFFF7D4FAF7
:10A6D000C11B494502D90320BDE8F087606810F02E
:10A6E0000C0FF3D1D8F80010404601F00701B14239
:10A6F0000BD9016821F0070131430160006800F0C7
:10A700000700B04201D00120E6E728784FF48066C8
:10A7100040074FF4A0674FF4C0684FF4E06914D5C8
:10A72000E86860B1B0420AD0B84208D0404506D0CF
:10A73000484504D040F232311BA003F07BFC606836
:10A74000E96820F4E060084360602878000715D5C8
:10A75000286960B1B0420AD0B84208D0404506D05E
:10A76000484504D040F239310FA003F063FC606823
:10A77000296920F4605040EAC100606000F072F87E
:10A780006168F02292FAA2F201F0F001B2FA82F2CC
:10A79000D140174A515CC840164908600020FFF7B5
:10A7A0008BFA002098E700002E2E5C2E2E5C2E2EB9
:10A7B0005C447269766572735C53544D3332463132
:10A7C00078785F48414C5F4472697665725C537279
:10A7D000635C73746D3332663178785F68616C5F87
:10A7E0007263632E630000000020024000100240EC
:10A7F00054E0000800200020014800687047000075
:10A800000020002008480949006849684FF4E062C8
:10A8100092FAA2F201F4E061B2FA82F2D140044A63
:10A82000515CC8407047000000200020001002402A
:10A8300064E0000808480949006849684FF460521C
:10A8400092FAA2F201F46051B2FA82F2D140044AC3
:10A85000515CC840704700000020002000100240FA
:10A8600064E0000810B519A385B00FCB8DE80F0088
:10A870001AA01B4B006804905A681A4802F00C0199
:10A8800004291DD008291BD14FF4701494FAA4F4A4
:10A8900002F47011B4FA84F4E140D2031DF80110FF
:10A8A00010D55A684FF4003393FAA3F302F4003240
:10A8B000B3FA83F3DA4004AB9A5CB0FBF2F048439E
:10A8C00005B010BD08484843FAE70000020304053C
:10A8D000060708090A0B0C0D0E0F101001020000EC
:10A8E0000010024000127A0000093D002DE9F84FE7
:10A8F000040004D14FF48771EFA003F09BFB022703
:10A90000DFF8F483FD4D20684FF4003A4FF0000962
:10A910004FF4803B012660B1C1070DD1810777D488
:10A92000010776D4400775D440F20F11E2A003F07E
:10A9300081FB2078C00730D0606848B1584507D007
:10A94000B0F5A02F04D040F21511DBA003F072FB8C
:10A950006868C0F38100012807D06868C0F38100EF
:10A9600002281BD16868C00318D59AFAAAF1B1FA77
:10A9700081F141F02001490901D0296800E0696AAC
:10A980009AFAAAF0B0FA80F000F01F0006FA00F080
:10A99000014260D0606800287ED05CE06068584565
:10A9A00003D1286840F480300AE010B1B0F5A02F40
:10A9B0000DD0286820F480302860286820F480209A
:10A9C0002860606838B3FFF757F900900AE02868FC
:10A9D00040F480202860E4E7FFF74EF90099401A20
:10A9E000642873D89AFAAAF0B0FA80F040F02000F8
:10A9F000400901D0286800E0686A9AFAAAF1B1FA21
:10AA000081F101F01F0106FA01F10842E4D022E0D1
:10AA100024E0BBE034E1FFE7FFF72EF9009005E00A
:10AA2000FFF72AF90099401A6428DAD89AFAAAF0AE
:10AA3000B0FA80F040F02000400901D0286800E022
:10AA4000686A9AFAAAF1B1FA81F101F01F0106FAD7
:10AA500001F10842E4D1207880076DD5206930B13A
:10AA6000012804D040F2491193A003F0E3FA606991
:10AA70001F2804D94FF4A5718FA003F0DBFA686892
:10AA800010F00C0F07D06868C0F3810002281ED1B7
:10AA90006868C0031BD400E08FE097FAA7F0B0FA13
:10AAA00080F040F02000400901D0286800E0686A8A
:10AAB00097FAA7F1B1FA81F101F01F0106FA01F14D
:10AAC00008422DD02069012877D129E073E220695E
:10AAD00098B396FAA6F0B0FA80F048F82060FFF735
:10AAE000CBF8009007E000BFFFF7C6F801460098DA
:10AAF000081A022899D897FAA7F0B0FA80F040F027
:10AB00002000400901D0286800E0686A97FAA7F1A0
:10AB1000B1FA81F101F01F0106FA01F10842E3D018
:10AB20002868F82292FAA2F26169B2FA82F220F061
:10AB3000F80091400843286025E0FFE796FAA6F167
:10AB4000B1FA81F148F82190FFF796F8009005E0FE
:10AB5000FFF792F80099401A0228CBD897FAA7F08D
:10AB6000B0FA80F040F02000400901D0286800E0F1
:10AB7000686A97FAA7F1B1FA81F101F01F0106FAAC
:10AB800001F10842E4D12078000776D5A06988B3A6
:10AB9000012806D04FF4C57147A003F04BFAA06915
:10ABA00040B396FAA6F0B0FA80F008EB8000C0F847
:10ABB0008064FFF761F8009006E0B7E1FFF75CF80A
:10ABC0000099401A022895D897FAA7F0B0FA80F0B9
:10ABD00040F06000B6EB501F01D128680CE097FAF6
:10ABE000A7F0B0FA80F040F06000B7EB501F02D140
:10ABF000286A01E00EE0686A97FAA7F1B1FA81F1DC
:10AC000001F01F0106FA01F21042D7D00120FEF731
:10AC10008FFC32E096FAA6F1B1FA81F108EB8101DE
:10AC2000C1F88094FFF728F8009005E0FFF724F8BA
:10AC30000099401A022890D897FAA7F0B0FA80F04D
:10AC400040F06000B6EB501F01D128680BE097FA86
:10AC5000A7F0B0FA80F040F06000B7EB501F01D1D0
:10AC6000286A00E0686A97FAA7F1B1FA81F101F069
:10AC70001F0106FA01F21042D8D1207840077CD596
:10AC8000E06840B1012806D0052804D040F2B71191
:10AC900009A003F0CFF9E86940F08050E861E86965
:10ACA00000F0805000901648016841F48071016006
:10ACB000FEF7E2FF00902BE02E2E5C2E2E5C2E2E57
:10ACC0005C447269766572735C53544D333246311D
:10ACD00078785F48414C5F4472697665725C537264
:10ACE000635C73746D3332663178785F68616C5F72
:10ACF0007263632E630000000000424200100240B5
:10AD000000700040FEF7B8FF0099401A642892D8FE
:10AD1000B7480068C005F5D5E06801280AD008B139
:10AD2000052811D0286A20F001002862286A20F046
:10AD3000040002E0286A40F001002862E068A0B345
:10AD4000FEF79AFF00900DE0286A40F004002862A8
:10AD5000F0E700BFFEF790FF0099411A41F28830FA
:10AD60008142D4D897FAA7F0B0FA80F040F04000C2
:10AD7000B6EB501F02D128680CE044E097FAA7F028
:10AD8000B0FA80F040F04000B7EB501F01D1286AC4
:10AD900000E0686A97FAA7F1B1FA81F101F01F02A9
:10ADA00006FA02F10842D5D02DE0FFE7FEF764FF76
:10ADB000009007E0FEF760FF0099411A41F28830E9
:10ADC0008142A4D897FAA7F0B0FA80F040F0400092
:10ADD000B6EB501F01D128680BE097FAA7F0B0FA44
:10ADE00080F040F04000B7EB501F01D1286A00E02E
:10ADF000686A97FAA7F1B1FA81F101F01F0206FA29
:10AE000002F10842D6D1E06900286ED001280AD0AC
:10AE1000022808D040F24721AFF2641003F00AF98B
:10AE2000E069002861D06868C0F3810002287DD005
:10AE3000E0694FF0807702280BD097FAA7F1B1FABA
:10AE400081F148F82190FEF717FF07464FF0007494
:10AE5000B4E0206A38B1584505D04FF41471AFF210
:10AE6000A81003F0E7F8606A78B3B0F5802F2CD013
:10AE7000B0F5002F29D0B0F5402F26D0B0F5801FB7
:10AE800023D0B0F5A01F20D0B0F5C01F1DD0B0F565
:10AE9000E01F1AD0B0F5001F17D0B0F5101F14D066
:10AEA000B0F5201F11D0B0F5301F0ED0B0F5401F07
:10AEB0000BD0B0F5501F08D0B0F5601F05D040F2A0
:10AEC0005121AFF20C2003F0B5F84FF0807191FAE8
:10AED000A1F14846B1FA81F1C14648F82100FEF7D8
:10AEE000CBFE80464FF0007706E07CE0FEF7C4FE24
:10AEF000A0EB080002285ED897FAA7F0B0FA80F01D
:10AF000040F02000400901D0286800E0686A97FA04
:10AF1000A7F1B1FA81F101F01F0106FA01F108422F
:10AF2000E4D1206A584511D1A06800E05DE038B155
:10AF3000504505D040F26721AFF2842003F07AF843
:10AF40006868A16820F4003008436860D4E908010B
:10AF50000843696821F47411084368604FF08070F9
:10AF600090FAA0F0B0FA80F049F82060FEF784FE75
:10AF7000044604E0FEF780FE001B02281BD897FA67
:10AF8000A7F0B0FA80F040F02000400901D0286816
:10AF900000E0686A97FAA7F1B1FA81F101F01F01A8
:10AFA00006FA01F10842E5D01DE000BFFEF764FE9D
:10AFB000C01B022802D90320BDE8F88F94FAA4F040
:10AFC000B0FA80F040F02000400901D0286800E08D
:10AFD000686A94FAA4F1B1FA81F101F01F0106FA4E
:10AFE00001F10842E2D10020E6E70120E4E7000099
:10AFF0000070004010B54FF0E024042809D020B1C3
:10B000004FF4DF71054803F015F8206920F00400C3
:10B0100002E0206940F00400206110BD68E30008F0
:10B0200010B5401EB0F1807F01D3012010BD4FF05C
:10B03000E02460610F21601700F000FE0020A06195
:10B0400007202061002010BD10B5FEF7D6FF10BD0F
:10B0500070B50D46044600682A4988420DD0B0F10B
:10B06000804F0AD02849884207D02849884204D016
:10B0700040F28C61264802F0DDFF286890B110286C
:10B0800010D020280ED030280CD040280AD05028CC
:10B0900008D0602806D0702804D040F28D611C488A
:10B0A00002F0C8FF6868802805D020B140F28E61A8
:10B0B000174802F0BFFF94F8380001281FD0012084
:10B0C00084F83800022184F8391021684A6822F097
:10B0D00070024A6021684A682B681A434A602168F6
:10B0E0008A6822F080028A6021688A686B681A4345
:10B0F0008A6084F83900002084F8380070BD02208E
:10B1000070BD0000002C0140000400400008004019
:10B1100034E4000810B504002ED02149206888428C
:10B120000CD0B0F1804F09D01E49884206D01E498C
:10B13000884203D0D7211DA002F07CFFA06858B13F
:10B14000102809D0202807D0402805D0602803D037
:10B15000D82116A002F06EFF206948B1B0F5807FBB
:10B1600006D0B0F5007F03D0D92110A002F062FF15
:10B1700094F8390010B107E0012010BD002084F8D8
:10B1800038002046FEF73AFF022084F83900211DDE
:10B19000206801F07FFA012084F83900002010BDFA
:10B1A000002C014000040040000800402E2E5C2EC0
:10B1B0002E5C2E2E5C447269766572735C53544D1E
:10B1C0003332463178785F48414C5F447269766526
:10B1D000725C5372635C73746D3332663178785F7E
:10B1E00068616C5F74696D2E630000002DE9F047A3
:10B1F000044690F838000D4601283CD04FF0010974
:10B2000084F83890022084F8390028684FF480567A
:10B210004FF40058B04215D0404513D090B11028DB
:10B2200010D020280ED030280CD040280AD050282A
:10B2300008D0602806D0702804D040F64B71C5A015
:10B2400002F0F8FE2068816821F0770121F47F4147
:10B250008160D1492B68CF48D04ACF134FF0804C42
:10B26000502B7DD00FDC202B7BD007DC002B79D03E
:10B27000102B78D13BE10220BDE8F087302B73D052
:10B28000402BF6D1F7E0602B6FD04FF4405A702B73
:10B2900051D0B3423CD04345EBD1236883420AD01E
:10B2A000634508D08B4206D0934204D040F67A71B1
:10B2B000A8A002F0BFFEA86850B1B04208D0404537
:10B2C00006D0504504D040F67D71A2A002F0B2FE37
:10B2D0006868B84209D040B1022806D00A2804D0D4
:10B2E00040F67E719BA002F0A5FEE8680F2804D905
:10B2F00040F67F7197A002F09DFED5E90121EB6831
:10B30000206801F04DFA2068816841F4804153E0E3
:10B31000236883420AD0634508D08B4206D093420B
:10B3200004D040F657718BA002F084FE206881683B
:10B3300021F0070140E0236883420AD0634508D02A
:10B340008B4206D0934204D04FF4766181A002F084
:10B3500071FEA86888B1B0420FD040450DD005E01D
:10B360002CE0D5E0B2E080E0E3E052E0504504D0CC
:10B3700040F6637177A002F05DFE6868B84209D0BC
:10B3800040B1022806D00A2804D040F6647171A0AA
:10B3900002F050FEE8680F2804D940F665716DA0F0
:10B3A00002F048FED5E90121EB68206801F0F8F9C8
:10B3B0002068816841F07701816056E0236883420C
:10B3C0000AD0634508D08B4206D0934204D040F6A1
:10B3D0008E7160A002F02EFE6868B84209D040B1BC
:10B3E000022806D00A2804D040F6917159A002F034
:10B3F00021FEE8680F2804D940F6927155A002F0AA
:10B4000019FEEA686968206801F074FB5021206821
:10B4100029E0236883420AD0634508D08B4206D0D6
:10B42000934204D040F69D714AA002F003FE686882
:10B43000B84209D040B1022806D00A2804D04FF4FF
:10B440007A6144A002F0F6FDE8680F2804D940F6BE
:10B45000A17140A002F0EEFDEA686968206801F081
:10B460005AFB6021206801F0A5F984F8399000208A
:10B4700084F8380000E7236883420AD0634508D087
:10B480008B4206D0934204D040F6AC7131A002F05A
:10B49000D1FD6868B84209D040B1022806D00A2818
:10B4A00004D040F6AF712BA002F0C4FDE8680F286D
:10B4B00004D94FF47B6127A002F0BCFDEA686968FB
:10B4C000206801F017FB40212068CCE72368834205
:10B4D0000AD0634508D08B4206D0934204D040F690
:10B4E000BB711CA002F0A6FD00212068BBE7236809
:10B4F00083420AD0634508D08B4206D0934204D0E1
:10B5000040F6C37113A002F095FD10212068AAE750
:10B51000236883420AD0634508D08B4206D0934209
:10B5200004D040F6CB710BA002F084FD20212068EE
:10B5300099E7236883420AD0634508D08B4206D03E
:10B54000934204D040F6D37102A002F073FD302183
:10B55000206888E72E2E5C2E2E5C2E2E5C447269AD
:10B56000766572735C53544D3332463178785F4858
:10B57000414C5F4472697665725C5372635C7374AC
:10B580006D3332663178785F68616C5F74696D2EF7
:10B5900063000000002C014000040040000800404F
:10B5A0002DE9F041044690F8380016460D46012872
:10B5B0003CD0012784F8387066B1042E0AD0082EDA
:10B5C00008D00C2E06D0182E04D040F60D415FA0F6
:10B5D00002F030FD2868602806D0702804D040F6BC
:10B5E0000E415AA002F026FDA86830B1022804D00E
:10B5F00040F60F4155A002F01DFD286930B1042826
:10B6000004D04FF4416151A002F014FD022084F8EF
:10B6100039005E485E495F4A4FF0804C4EB1042EBF
:10B6200028D0082E49D00C2E46D167E00220BDE874
:10B63000F081236883420AD0634508D08B4206D04C
:10B64000934204D040F6184140A002F0F3FC294692
:10B65000206801F0B7F82068816941F00801816134
:10B660002068816921F004018161206881692A696B
:10B67000114320E0236883420AD0634508D08B42FF
:10B6800006D0934204D040F6274130A002F0D2FC0D
:10B690002946206801F000F92068816941F40061C1
:10B6A00081612068816921F48061816120688169FC
:10B6B0002A6941EA0221816142E0236883420AD07B
:10B6C000634508D08B4206D0934204D040F6364101
:10B6D0001EA002F0AFFC2946206801F04BF920685B
:10B6E000C16941F00801C1612068C16921F004010C
:10B6F000C1612068C1692A69114320E0236883423F
:10B700000AD0634508D08B4206D0934204D040F65D
:10B7100045410EA002F08EFC2946206801F098F900
:10B720002068C16941F40061C1612068C16921F4E8
:10B730008061C1612068C1692A6941EA0221C16151
:10B7400084F83970002084F8380070E72E2E5C2EC3
:10B750002E5C2E2E5C447269766572735C53544D78
:10B760003332463178785F48414C5F447269766580
:10B77000725C5372635C73746D3332663178785FD8
:10B7800068616C5F74696D2E63000000002C0140DD
:10B79000000400400008004010B5040031D02349E7
:10B7A000206888420DD0B0F1804F0AD020498842ED
:10B7B00007D02049884204D040F2E2311EA002F0B6
:10B7C00039FCA06860B110280AD0202808D0402891
:10B7D00006D0602804D040F2E33117A002F02AFC22
:10B7E000206950B1B0F5807F07D0B0F5007F04D05C
:10B7F0004FF4797110A002F01DFC94F8390010B1DB
:10B8000007E0012010BD002084F838002046FEF734
:10B81000F6FB022084F83900211D206800F03AFF71
:10B82000012084F83900002010BD0000002C0140E8
:10B8300000040040000800402E2E5C2E2E5C2E2EB0
:10B840005C447269766572735C53544D3332463191
:10B8500078785F48414C5F4472697665725C5372D8
:10B86000635C73746D3332663178785F68616C5FE6
:10B8700074696D2E6300000070B5054600681D4EAA
:10B880000C46B04206D10CB3042C1FD0082C1DD09E
:10B890000C2C1BD0B0F1804F0CD01749884206D138
:10B8A000A4B1042C12D0082C10D00C2C0ED01349AB
:10B8B000884206D154B1042C08D0082C06D00C2C98
:10B8C00004D04FF488610EA002F0B4FB012221469F
:10B8D000286800F011FF2868B04203D1416C41F4A0
:10B8E000004141642868016841F0010101600020C5
:10B8F00070BD0000002C0140000400400008004022
:10B900002E2E5C2E2E5C2E2E5C4472697665727330
:10B910005C53544D3332463178785F48414C5F4434
:10B9200072697665725C5372635C73746D333266F0
:10B930003178785F68616C5F74696D2E6300000018
:10B9400070B505460068264E0C46B04206D10CB3D1
:10B95000042C1FD0082C1DD00C2C1BD0B0F1804F14
:10B960000CD02049884206D1A4B1042C12D0082C56
:10B9700010D00C2C0ED01C49884206D154B1042C96
:10B9800008D0082C06D00C2C04D04FF48C6117A0E2
:10B9900002F050FB00222146286800F0ADFE41F283
:10B9A000111128688A10B04209D1036A0B4206D1EE
:10B9B000036A134203D1436C23F4004343642868B1
:10B9C000036A0B4206D1016A114203D1016821F0DA
:10B9D00001010160012085F83900002070BD0000E0
:10B9E000002C014000040040000800402E2E5C2E78
:10B9F0002E5C2E2E5C447269766572735C53544DD6
:10BA00003332463178785F48414C5F4472697665DD
:10BA1000725C5372635C73746D3332663178785F35
:10BA200068616C5F74696D2E6300000070470000F0
:10BA300038B5044600680168C26811F0010F02F4CD
:10BA4000807204D01AB1E16B41F00101E163016839
:10BA5000C1F34002416901F0010122B119B1E26B69
:10BA600042F00402E2630268C2F3800222B119B11B
:10BA7000E26B42F00202E2630268C2F3C00222B14A
:10BA800019B1E16B41F00801E1630168C068C1F3DD
:10BA9000401100F0200019B110B1204601F04EF81D
:10BAA00020680168C068C1F3C01100F0800019B1BE
:10BAB00010B1204601F09AF921680868CA68C0F3FD
:10BAC000801002F04002012570B16AB1CA682046B8
:10BAD00022F04002CA6094F83910322911D080F85F
:10BAE000395000BF00F0A6F8E06B002808D02068AD
:10BAF00001684068009084F839502046FFF796FFAF
:10BB000038BD222180F83910ECE7000070B5040040
:10BB100020D0A06933490028334A344B20681BD019
:10BB200088420AD0904208D0984206D040F20711CD
:10BB30002FA002F07FFAA069C8B1A069B0F5807F9C
:10BB400015D0B0F5007F12D0B0F5407F0FD04FF484
:10BB5000847109E0012070BD884208D0904206D06F
:10BB6000984204D04FF4867121A002F063FAA068D5
:10BB700038B1B0F5805F04D04FF487711CA002F09B
:10BB800059FAE06920B140F20F1119A002F052FAFF
:10BB900094F83900002520B984F83850204600F088
:10BBA00047F8022084F839002068C16821F4005168
:10BBB000C160204601F016F82068016921F4904127
:10BBC00001612068416921F02A0141612068C16852
:10BBD00041F40051C160E563012084F83900002080
:10BBE00070BD0000003801400044004000480040A3
:10BBF0002E2E5C2E2E5C2E2E5C447269766572733E
:10BC00005C53544D3332463178785F48414C5F4441
:10BC100072697665725C5372635C73746D333266FD
:10BC20003178785F68616C5F756172742E630000B3
:10BC3000704770477047FEE7FEE7FEE70907090E09
:10BC4000002806DA00F00F0000F1E02080F8141D53
:10BC5000704700F1E02080F800147047BFF34F8F69
:10BC600005480168054A01F4E06111430160BFF332
:10BC70004F8F00BFFDE700000CED00E00400FA0567
:10BC80002DE9FC5F4FF000080446ADF80480ADF8E4
:10BC9000008048F60F7B4FF002094FF4806692E176
:10BCA000BDF8041011F00F072BD030F82710ADF8B5
:10BCB0000010BDF80010090478D530F8272040F6B0
:10BCC0008F710A4020F8272004EB471595F81202DF
:10BCD00005F502750028206869D0297830F8212000
:10BCE00052047DD5B0F8503009EBC101194406EB80
:10BCF0004101415AC1F309015FEA010A71D0EA88A2
:10BD0000D0E0BDF80410C9062AD4018801EA0B016D
:10BD10000180206804F12805B0F850202B7809EB49
:10BD2000C301114406EB4101405AC0F309006064AD
:10BD3000E16B0844E06300212046FEF796F894F892
:10BD400024000028ABD0A8690028A8D194F82400CA
:10BD5000216840F08000A1F84C0084F8248032E192
:10BD6000018804F50275ADF80010BDF80010090552
:10BD70001ED5B0F850302978062202EBC1011944D3
:10BD800006EB4101405A04F57B71C0F30903EB61F6
:10BD9000AA88206802F014F92068018840F68F72A2
:10BDA000114001802046FEF7A2FA0CE1A0E055E028
:10BDB000BDF800100904D2D5028840F68F710A4000
:10BDC00002802068B0F850302978062202EBC101C9
:10BDD000194406EB4101405A83059B0DEB6101E0DC
:10BDE00051E063E008D0AA886969206802F0E8F8A9
:10BDF000E96968690844686100212046FEF73CF85B
:10BE00002068B0F85010891D06EB410101442869F3
:10BE10003E280CD9C0F34F12C00601D1521E92B277
:10BE20004FF6FF7000EA822040F4004009E0C0F3C2
:10BE30004F02C00701D0521C92B24FF6FF7000EAC9
:10BE400082200860216808884BF68F72104080F4C9
:10BE5000405048F2800210430880B4E0B0F850200F
:10BE60002B78062101EBC301114406EB4101415A35
:10BE7000C1F309015FEA010A24D0AA88534669691F
:10BE800002F09EF81EE0B0F85020062303EBC1013B
:10BE9000114406EB4101415AC1F309015FEA010A6D
:10BEA00004D02A895346696902F08AF82978206803
:10BEB00030F8213048F68F72134048F2C002134325
:10BEC00020F82130E96901EB0A00E861696901EBBA
:10BED0000A026A61AB6913B12869504504D929780F
:10BEE0002046FDF7C9FF03E029782046FEF73AF81F
:10BEF000BDF80000000666D5206804EB471530F851
:10BF0000271001EA0B0120F8271095F83200283598
:10BF10000028206812D0297830F82120B0F850305D
:10BF200052061ED509EBC101194406EB4101405AE6
:10BF300083059B0DEB6124D0EA881EE0B0F85030F9
:10BF40002A7809EBC201194406EB4101405A8305E6
:10BF50009B0DEB6121D0AA886969206802F047F83F
:10BF60001BE0062202EBC101194406EB4101405AD5
:10BF700083059B0DEB6104D02A896969206802F072
:10BF800036F82978206830F8212048F68F731A4057
:10BF90004CF280031A4320F821202068B0F850208A
:10BFA0002B7809EBC301114406EB4101405AC0F361
:10BFB0000900E86169690A186A612978AB69204655
:10BFC00063B1FEF71FF82068B0F84410ADF8041014
:10BFD00009043FF565AE0020BDE8FC9FFDF745FF75
:10BFE000F1E770477047000010B586B00024FDF7F8
:10BFF000F5FB002004900090074802900420039075
:10C0000004A96846FDF7A0FA00B10124FDF750FB32
:10C0100006B0204610BD000000F000082DE9F041F8
:10C020009046002706460D46FDF7D8FB00240BE09E
:10C0300055F8242006EB840100230220FDF742FB83
:10C0400008B1012702E0641C4445F1D3FDF730FB41
:10C050003846BDE8F08110B5FFF7C6FF002010BDDF
:10C0600010B5FF2204211348FCF77EF8124C114949
:10C07000204600F091F800281AD10E48FF22042132
:10C08000001FFCF771F80B492046091F00F018F853
:10C0900000280DD1FF2218210848FCF765F8054853
:10C0A000064A001F01682046BDE8104000F03AB87B
:10C0B00010BD00008821002000F00008243000207E
:10C0C00070B50D46040003D1CD210EA0FCF72CFC69
:10C0D0001DB9CE210BA0FCF727FC00201049024619
:10C0E00004EB82035B688B4204D12A60521C102A45
:10C0F000F6D370BD04EB82014968491CF9D00120D8
:10C1000070BD00002E2E5C4D6F64756C65735C73A2
:10C1100072635C73746F726167652E630000000068
:10C12000674523012DE9F04117460C46050004D16F
:10C130004FF4A47111A0FCF7F7FB27B940F24911A5
:10C140000EA0FCF7F1FB0026102C0DD205EB4415D8
:10C15000686CA04208D105F14C0418212046FCF778
:10C160004BFFA96C814201D0012604E02146182230
:10C170003846FBF7E7FF3046BDE8F0812E2E5C4DD8
:10C180006F64756C65735C7372635C73746F7261FA
:10C1900067652E630000000070B50C46050003D1F2
:10C1A0009C2106A0FCF7C0FB1CB99D2103A0FCF755
:10C1B000BBFB29680020216070BD00002E2E5C4D65
:10C1C0006F64756C65735C7372635C73746F7261BA
:10C1D00067652E63000000000A4602490968491C91
:10C1E00000F05EB88421002038B50D46040003D16C
:10C1F000AE210EA0FCF798FB102D03D3AF210BA0AE
:10C20000FCF792FB04EB8500002243680E495C1C9E
:10C2100004D08B4200D00122104638BD00916946FF
:10C220000122001DFFF7FAFE0246F5E72E2E5C4DB7
:10C230006F64756C65735C7372635C73746F726149
:10C2400067652E63000000006745230170B5144642
:10C250000D46060003D1EF210AA0FCF765FB1CB9CF
:10C26000F02108A0FCF760FB102D01D3012070BD68
:10C2700006EB45102146BDE8704008224430FFF728
:10C28000CDBE00002E2E5C4D6F64756C65735C73C3
:10C2900072635C73746F726167652E6300000000E7
:10C2A000F0B589B015460C46060004D140F22511C0
:10C2B00016A0FCF739FB25B94FF4937113A0FCF7D6
:10C2C00033FB02A8182229460746FBF73BFF164D11
:10C2D0002868A0420DD0102C06D30024FFF784FE5E
:10C2E000291D124800F024F8214630462C60FFF743
:10C2F0007BFF182138460094FCF77EFE01906A46C9
:10C3000021463046FFF7A2FF09B0F0BD2E2E5C4D4E
:10C310006F64756C65735C7372635C73746F726168
:10C3200067652E63000000008421002000F00008F3
:10C3300038B50D46040003D1802108A0FCF7F4FABB
:10C340002068401C01D0012038BD2968009120469A
:10C3500069460122FFF762FE38BD00002E2E5C4DBB
:10C360006F64756C65735C7372635C73746F726118
:10C3700067652E63000000002DE9F041D0B3002175
:10C380001F4C0E4606EB460202EB061204EB82023D
:10C39000D26812B1761C71B329E01A4F06EB46023F
:10C3A00002EB0612396804EB82050160696081685E
:10C3B000E960416841B9216801EB410202EB0111DA
:10C3C00004EB81018968491CA96005F1100300F1A3
:10C3D0000C0140221846FBF7B5FE3868401C386057
:10C3E00000202060A868A168884200D9266000204B
:10C3F000BDE8F08102E0FFE70A2EC3D30120F7E792
:10C400003C3000208C21002010B5FCF7BBFB0A4813
:10C4100000214A1E0160C0E9021240220749103083
:10C42000FBF790FE064C2068401C2060FDF724FCC2
:10C43000A060606010BD00003C30002028E10008D2
:10C440008C21002070B5C8B100241D49224600BFD0
:10C4500002EB420303EB021301EB8303DD687DB1C2
:10C460005D680668B5420BD102EB420404EB02148E
:10C4700001EB84020020D060986005E0012070BDCF
:10C48000521C0CB90A2AE3D35FF0000000EB400213
:10C4900002EB001201EB8202D3685BB10B68926879
:10C4A00003EB430404EB031301EB83039B689A4201
:10C4B00000D90860401C0A28E8D3002070BD0000A5
:10C4C0003C3000202DE9F041FDF7D6FB3F494860A4
:10C4D0008A6890422AD03E4C8860A4F53F75216856
:10C4E0002F68002604F10808B9420CD007EB47007A
:10C4F00000EB071005EB8001C4E9007640224046BE
:10C50000091DFBF71FFE606804EB800080680028AF
:10C510000EDDFCF767FB606804EB80018868401E55
:10C5200088606168002801DC491C6160BDE8F08119
:10C530000CDAFCF74DFB606804EB80008168491C55
:10C5400081606068F2D4401C6060EFE707EB470051
:10C5500000EB071005EB8001C868421C09D0401EA3
:10C56000C860296801EB410202EB011105EB810172
:10C570000ED0666028684C2200EB400101EB0010F1
:10C5800005EB80014046BDE8F0411031FBF7DABD14
:10C5900000208E6000EB400101EB001105EB8101F2
:10C5A000CA685AB18A68296801EB410303EB01119B
:10C5B00005EB810189688A4200D92860401C0A285D
:10C5C000E8D3BDE8F041FCF703BB00008C2100205C
:10C5D0003833002010B5FDF755FBBDE81040FEF7DD
:10C5E00033BD30B593B001210804CDE9001000241B
:10C5F000029402250491CDE907504FF4E010099010
:10C600006846FEF773F90F20CDE90A056802CDE907
:10C610000C4002210AA80E94FDF7A4FF10200F90F1
:10C6200012940FA8FDF7D0FEFEF7E6F84FF47A71EA
:10C63000B0FBF1F0FEF7F4FC0420FEF7DBFC002277
:10C640001146501EFDF79EFB13B030BD0D4801682A
:10C6500041F00101016041680B4A114041600168ED
:10C660000A4A11400160016821F48021016041689B
:10C6700021F4FE0141604FF41F0181600449C003B1
:10C6800008607047001002400000FFF8FFFFF6FE50
:10C6900008ED00E0F0B50268144B154C154D4FF055
:10C6A0008047984205D0B84203D0A04201D0A842AA
:10C6B00003D122F070064A683243984205D0B8424E
:10C6C00003D0A04201D0A84203D122F44074CA682A
:10C6D000224302608A68C2620A688262984201D17B
:10C6E0000969016301214161F0BD0000002C014096
:10C6F000000400400008004070B504461548164686
:10C700000D4684420DD0B4F1804F0AD012488442C5
:10C7100007D01248844204D041F2EB4110A001F04E
:10C7200089FC65B1042D0AD0082D08D00C2D06D047
:10C73000182D04D041F2EC4109A001F07BFC01204E
:10C74000216AA84081432162206AAE4030432062C2
:10C7500070BD0000002C01400004004000080040B3
:10C760002E2E5C2E2E5C2E2E5C44726976657273C2
:10C770005C53544D3332463178785F48414C5F44C6
:10C7800072697665725C5372635C73746D33326682
:10C790003178785F68616C5F74696D2E63000000AA
:10C7A00010B5846842EA032224F47F440A432243FA
:10C7B000826010BD826822F070020A4342F00701D5
:10C7C000816070472DE9F0410446006A0D4620F073
:10C7D00001002062206A6768A169AE6820F002004B
:10C7E00021F07302064329681A4841EA020884428C
:10C7F00028D1E86830B1082804D041F2152116A0EC
:10C8000001F018FCE86826F00801084320F004064F
:10C81000A869B0F5007F05D020B141F222210EA019
:10C8200001F008FC6869B0F5807F05D020B141F2C5
:10C83000232109A001F0FEFB27F440716869AF696C
:10C84000084307436760C4F818806868606326621D
:10C85000BDE8F081002C01402E2E5C2E2E5C2E2E89
:10C860005C447269766572735C53544D3332463161
:10C8700078785F48414C5F4472697665725C5372A8
:10C88000635C73746D3332663178785F68616C5FB6
:10C8900074696D2E630000002DE9F0410446006AC2
:10C8A0000D4620F010002062206A6768A1692A689E
:10C8B00021F4E64141EA0228A96820F0200040EA7C
:10C8C00001161B4884422BD1E86830B1082804D0F7
:10C8D00041F25F2117A001F0ADFBE96826F080006E
:10C8E00040EA011020F04006A869B0F5007F05D0AD
:10C8F00020B141F26D210FA001F09CFB6869B0F5F9
:10C90000807F05D020B141F26E210AA001F092FB98
:10C91000696927F4406040EA8100A96940EA81071B
:10C920006760C4F818806868A0632662BDE8F0817B
:10C93000002C01402E2E5C2E2E5C2E2E5C44726943
:10C94000766572735C53544D3332463178785F4864
:10C95000414C5F4472697665725C5372635C7374B8
:10C960006D3332663178785F68616C5F74696D2E03
:10C97000630000002DE9F0410446006A0D4620F4F2
:10C9800080702062206A6768E16920F4007021F0FD
:10C990007302296841EA0208A96840EA01261B4897
:10C9A00084422BD1E86830B1082804D041F2AA2192
:10C9B00017A001F03FFBE96826F4006040EA01207F
:10C9C00020F48066A869B0F5007F05D020B141F25F
:10C9D000B7210FA001F02EFB6869B0F5807F05D06C
:10C9E00020B141F2B8210AA001F024FB696927F4C3
:10C9F000405040EA0110A96940EA01176760C4F895
:10CA00001C806868E0632662BDE8F081002C01406C
:10CA10002E2E5C2E2E5C2E2E5C447269766572730F
:10CA20005C53544D3332463178785F48414C5F4413
:10CA300072697665725C5372635C73746D333266CF
:10CA40003178785F68616C5F74696D2E63000000F7
:10CA50002DE9F0410446006A0D4620F48050206222
:10CA6000206A6668E1692A6821F4E64141EA022801
:10CA7000A96820F4005040EA01370D4884420ED1E5
:10CA80006869B0F5807F05D020B141F2F52109A099
:10CA900001F0D0FA696926F4804040EA81166660A8
:10CAA000C4F81C80686820642762BDE8F08100003B
:10CAB000002C01402E2E5C2E2E5C2E2E5C447269C2
:10CAC000766572735C53544D3332463178785F48E3
:10CAD000414C5F4472697665725C5372635C737437
:10CAE0006D3332663178785F68616C5F74696D2E82
:10CAF0006300000010B5036A046A24F001040462B4
:10CB0000846924F0F00444EA021423F00A020A4380
:10CB10008461026210BD10B5036A23F01003036242
:10CB20008369046A23F4704343EA023224F0A003C9
:10CB300043EA01118261016210BD000010B590F856
:10CB40003910222903D0322901D0022010BD81687A
:10CB5000B1F5805F11D00169002901681FD04968D3
:10CB600001F07F03816A4A1C82620B70C18D491EED
:10CB70000904090CC18518D030E00269816A002AD5
:10CB80000268526805D0D2B20A80816A491C81626B
:10CB9000ECE7C2F308020A80816A891CF7E74A6859
:10CBA000816A4B1C83620A70E0E70168CA6822F060
:10CBB0002002CA6090F83910322911D00168CA6881
:10CBC00022F48072CA6001684A6922F001024A6157
:10CBD0005FF0010180F83910FFF72BF8002010BD3D
:10CBE0001221F7E72DE9F041044640686D4988427B
:10CBF00004D340F252716CA001F01CFAE06838B125
:10CC0000B0F5005F04D040F2537167A001F012FA52
:10CC1000206950B1B0F5806F07D0B0F5C06F04D077
:10CC200040F2547160A001F005FA606930F00C0127
:10CC300000D120B940F255715BA001F0FBF92068EA
:10CC40000169E26821F44051114301612169A06842
:10CC50000843616908432168CA6841F20C639A433A
:10CC60000243CA6020684169A26921F440711143FE
:10CC700041615D4920686425322688423CD1FDF738
:10CC8000D9FD00EBC00101EB001061688900B0FB29
:10CC9000F1F7FDF7CFFD00EBC00101EB001061687B
:10CCA000B0468900B0FBF1F0B0FBF5F06FF0180171
:10CCB000484307EB800106EB0110B0FBF5F000F0F4
:10CCC000F006FDF7B7FD00EBC00101EB0010616855
:10CCD0008900B0FBF1F0B0FBF5F006EB0016FDF7B4
:10CCE000A9FD00EBC00101EB001061688900B0FBF9
:10CCF000F1F7FDF79FFD3BE0FDF784FD00EBC00180
:10CD000001EB001061688900B0FBF1F7FDF77AFDD7
:10CD100000EBC00101EB00106168B0468900B0FB78
:10CD2000F1F0B0FBF5F06FF01801484307EB80011C
:10CD300006EB0110B0FBF5F000F0F006FDF762FD28
:10CD400000EBC00101EB001061688900B0FBF1F05D
:10CD5000B0FBF5F006EB0016FDF754FD00EBC0014B
:10CD600001EB001061688900B0FBF1F7FDF74AFDA7
:10CD700000EBC00101EB001061688900B0FBF1F02D
:10CD8000B0FBF5F06FF01801484307EB800108EBAA
:10CD90000110B0FBF5F0216800F00F00304488600E
:10CDA000BDE8F08121AA44002E2E5C2E2E5C2E2E92
:10CDB0005C447269766572735C53544D333246310C
:10CDC00078785F48414C5F4472697665725C537253
:10CDD000635C73746D3332663178785F68616C5F61
:10CDE000756172742E6300000038014090F83910AC
:10CDF000122903D0322901D0022070478168B1F591
:10CE0000805F016A0BD04A1C026202680978516097
:10CE1000C18C491E0904090CC1840ED017E0098891
:10CE20000268C1F30801516001690029016A02D05A
:10CE3000491C0162ECE7891CFBE70168CA6822F023
:10CE40008002CA600068C16841F04001C1600020F2
:10CE5000704700000148FEF7EBBD0000B82100203C
:10CE6000D0F8180220B10021C0F81412084670470B
:10CE70000220704770B50546D0F8184200F034FB28
:10CE8000C4F80C02D5F8180248B1D5F81C12D4F831
:10CE90000402CA6804F503719047002070BD0220A7
:10CEA00070BD70B504460025812100F08CFA012187
:10CEB000204600F088FA8221204600F084FAD4F857
:10CEC000180250B1D4F81C0204F50674406880477B
:10CED000206800F057FD00202060284670BD10B586
:10CEE000D0E9864159B194F80002FF2807D08B6839
:10CEF00094F8012221469847FF2084F80002002080
:10CF000010BD00000A210180004870473020002039
:10CF10004321018000487047802000204321018088
:10CF2000004870473C2000204321018000487047A2
:10CF3000C42000202DE9F0410446007C00254FF478
:10CF4000007670B3402302228121204600F01CFBB2
:10CF5000402302220121204600F016FB0823032271
:10CF60008221204600F010FB4FF4077000F00CFD0A
:10CF7000C4F81802F0B10746D4F81C0200688047D4
:10CF80000020C7F81402C7F81802207CD7F8042242
:10CF900090B140230121204600F000FB2846BDE867
:10CFA000F081FFE7334602228121204600F0ECFAAF
:10CFB0003346CEE70125F1E73346EBE710B50D4CDC
:10CFC0000A4601466068126800EB001004EB80001E
:10CFD0008260606800EB001004EB80000C30FBF70F
:10CFE000B1F86068401C6060082801D300206060D0
:10CFF000002010BD3C25002010B5D0F8181269B1F2
:10D00000027C002AD1F8042205D04023012100F03F
:10D01000C5FA002010BD4FF40073F7E7022010BDE1
:10D0200002460220002902D00020C2F81C127047DC
:10D03000D0F81802C0F8041200207047D0F8180287
:10D04000C0F81022C0F808120020704770B50646DC
:10D05000D0F8185208780C4610F0600121D0202931
:10D0600027D1E288AAB10006607807D5D6F81C124D
:10D070008B6829469847E288294617E085F8000220
:10D08000A07985F80102E2882946304600F050F880
:10D090000FE0D6F81C12607800228B682146984772
:10D0A00007E060780A2804D103490122304600F0E5
:10D0B00059F8002070BD00002C20002010B5D0F8D9
:10D0C000181289B1D1F814220AB1012010BD012231
:10D0D000C1F81422B1F8102293B2D1F808228121AC
:10D0E00000F0E2FA002010BD022010BD10B5D0F80B
:10D0F000142252689047002010BD134610B50A460E
:10D10000002100F04BFA002010BD134610B50A466E
:10D11000002100F0C9FA002010BD10B5044680219E
:10D1200000F0ABFA2046BDE81040002100F0A5BA9F
:10D1300010B50323C0F80821C0F8F431C0F80C2161
:10D1400013460A46002100F029FA002010BD10B550
:10D1500005210023C0F8F4111A46194600F01EFA02
:10D16000002010BD10B502238261C0F8F431C26105
:10D1700013460A46002100F097FA002010BD10B5B2
:10D1800004210023C0F8F4111A46194600F08CFA65
:10D19000002010BD10B50A46024903A000F0D4F8E3
:10D1A000004810BD242E002043444320436F6E6688
:10D1B0006967000012200880004870477021002035
:10D1C00010B50A46024903A000F0BEF8004810BDA1
:10D1D000242E002043444320496E746572666163C7
:10D1E0006500000004200880004870476C21002082
:10D1F00010B50A46024903A000F0A6F8004810BD89
:10D20000242E002053544D6963726F656C656374FE
:10D21000726F6E696373000010B50A46024903A07D
:10D2200000F092F8004810BD242E002053544D33D6
:10D2300032205669727475616C20436F6D506F7245
:10D240007400000010B50A46024903A000F07CF803
:10D25000004810BD242E00203030303030303030C7
:10D260003030314100000000F8B5044648880D46D2
:10D27000010A08294BD2DFE801F04A0409174A4A9B
:10D280004048D4F81012207C0A6832E0207C022644
:10D290000028D4F8140205D0C16A684688470146C0
:10D2A000467041E0816AF8E7C0B206282FD2DFE875
:10D2B00000F003080D12171CD4F81012207C4A68E5
:10D2C00017E0D4F81012207C8A6812E0D4F810120B
:10D2D000207CCA680DE0D4F81012207C0A6908E0AE
:10D2E000D4F81012207C4A6903E0D4F81012207C94
:10D2F0008A6969469047014616E0207C38B9D4F81F
:10D300001402416B68468847F5E7207C20B1294626
:10D310002046FFF702FFF8BDD4F81402016B6846FF
:10D320008847014607204870BDF800000028F2D069
:10D33000EA88002AEFD0824200D90246ADF80020E8
:10D340002046FFF70FFFF8BD70B5002300281DD061
:10D350000446002502E06D1CEDB2641C2678002E08
:10D36000F9D1022404EB45041480CC545B1C032245
:10D37000CA5400245B1C06E0CA545B1CDAB28C540D
:10D38000521CD3B2401C0278002AF5D170BD10B5F2
:10D3900080B1D0F8143213B10023C0F8143209B1AF
:10D3A000C0F81012012180F8FC11027000F0A0F802
:10D3B000002010BD022010BD10B5D0F82002FCF7EF
:10D3C00083FD002010BD10B5D0F82002FCF75CFDF5
:10D3D000002010BD2DE9F0411746044641B1D4F8B4
:10D3E000140242698AB394F8FC01032842D043E056
:10D3F000D4F8F411002504F11400022933D1D0E946
:10D4000002639E4207D9F31A83609AB239462046D6
:10D41000FFF77BFE12E04068B0FBF3F103FB110164
:10D42000A1B9984212D3D4F8F81188420ED2002242
:10D4300011462046FFF769FEC4F8F85100231A464A
:10D440001946204600F0AAF80DE012E0D4F81402C4
:10D45000C16829B194F8FC01032801D1204688470E
:10D460002046FFF774FE94F80002012804D184F8E6
:10D47000005201E0204690470020BDE8F08170B5E1
:10D480001546044641B1D4F8140282693AB394F8BF
:10D49000FC01032824D025E0D4F8F41104F58270AF
:10D4A00003291FD1D0E902218A420BD9531A836084
:10D4B0000846834200D303469AB229462046FFF726
:10D4C0001CFE0FE0D4F81402016929B194F8FC01A4
:10D4D000032801D1204688472046FFF750FE01E08F
:10D4E00020469047002070BDD0F82002FCF710BD08
:10D4F00010B51C49044604F50874C1F81C04C0F8B2
:10D500002012194808600820486002208860032023
:10D51000C86000208861C86108620846FCF716FEF2
:10D520000022182311462068FCF784FC58230022AF
:10D5300080212068FCF77EFCC02300228121206826
:10D54000FCF778FC4FF48873002201212068FCF777
:10D5500071FC4FF48073002282212068FCF76AFC82
:10D56000002010BD042A0020005C00400A06D0F80C
:10D57000200201F07F0100EB411002D590F82A0053
:10D58000704790F80A02704710B51C461346D0F851
:10D5900020022246FCF7C4FC002010BD10B5D0F8D4
:10D5A0002002FCF7DFFC002010BD70B5002204460D
:10D5B00040231146FFF7E8FF40252B46002280213B
:10D5C0002046C4F81051FFF7DFFF0120256284F8E0
:10D5D000FC01D4F8180228B1D4F814022179426869
:10D5E00020469047002070BD90F8FD1180F8FC1196
:10D5F0000020704710B590F8FC11032904D1D0F831
:10D600001412C96901B18847002010BD01740020BF
:10D61000704710B5D0F82002FCF755FE002010BD71
:10D6200070B5044600F50270054600F044F801208C
:10D63000C4F8F401B4F80E02C4F8F80194F8080232
:10D6400010F01F010AD001290DD0022910D000F0DE
:10D650008001204600F011F8002070BD29462046C8
:10D6600000F08FF8F8E72946204600F071F9F3E75B
:10D670002946204600F0FEF8EEE710B5D0F820026B
:10D68000FCF790FC002010BD10B5D0F82002FCF78C
:10D6900035FE002010BD90F8FC1180F8FD1104212A
:10D6A00080F8FC110020704710B5D0F82002FCF77C
:10D6B000A9FC002010BD0A7802704A7842708A786E
:10D6C000CB7802EB032242800A794B7902EB0322EA
:10D6D00082808A79C97902EB0121C18070470246B4
:10D6E000002011B1C2F8141270470220704710B523
:10D6F000D0F8142202241AB11268904700B900240D
:10D70000204610BD70B50E461A4D89780446297022
:10D71000012928D894F8FC01022802D0032822D13C
:10D7200005E099B10320616084F8FC0109E091B142
:10D73000606888420AD0C1B22046FFF7D7FC29783A
:10D7400061602046FFF7D3FF02280CD02046BDE8D9
:10D750007040FFF714BD022084F8FC012046616090
:10D76000FFF7C4FCF2E731462046BDE87040FFF702
:10D77000D4BC00000820002010B5FFF785FF002072
:10D7800010BD2DE9F04100264B78012532460A2BC9
:10D7900043D2DFE803F03C584251420805422A27B1
:10D7A000FFF762FD63E004468888C8B9C888B8B945
:10D7B000887800F07F0794F8FC01032810D084F8E3
:10D7C000FE7139462046FFF724FF2046FFF7D7FCBD
:10D7D0001FB1022084F8FC0149E084F8FC5146E0C6
:10D7E00020461AE0FFF78EFF41E0CB88012B14D1D1
:10D7F00090F8FC31022B02D0032B0ED104E08260A2
:10D80000012200F1080114E00122011D11E090F84D
:10D81000FC21022A04D0032A02D0FFF77EFC26E076
:10D82000C560D0F8041209B10321C160022200F1E1
:10D830000C01FFF797FC1AE004464888012816D12E
:10D84000C4F804520BE0044690F8FC01022801D011
:10D850000328C5D14888012809D1C4F80422D4F886
:10D8600014028268204690472046FFF788FC304625
:10D87000BDE8F08170B50D46044628780026097988
:10D88000C0F34110012806D06878A0B301281FD04A
:10D8900003283FD107E0D4F81402294682682046C5
:10D8A0009047002070BD94F8FC01022817D003288F
:10D8B0002CD1688828B921B1802902D02046FFF7F1
:10D8C000DCFED4F81402294682682046904713E013
:10D8D00094F8FC01022802D0032817D103E0C9B153
:10D8E00080291BD116E06888A0B9480604D02046DC
:10D8F000FFF762FDE5E703E02046FFF740FC09E0A3
:10D9000094F8FC01022807D003280BD029462046B2
:10D91000FFF703FC304670BD4806FBD02046FFF7FA
:10D92000ACFEF7E7080601F07F0004EB001501D517
:10D93000143501E005F582752046FFF717FE00B1AA
:10D9400001202860022229462046FFF70BFCE1E770
:10D9500070B5054690F8FC010C4603280DD12079DE
:10D9600001280AD8D5F81402826828469047E08832
:10D9700030B92846FFF703FC02E02846FFF7CDFB4D
:10D98000002070BD7047000000487047E427002069
:10D990002DE9F047CC780A7848F68F1334B1012C82
:10D9A0006DD0022C08D0032C13D10BE030F82240AC
:10D9B0001C4044F400730AE030F822401C4020F878
:10D9C000224006E030F822401C4044F4C06320F8B6
:10D9D00022300C7830F8245048F68F72154048F207
:10D9E00080031D43254320F824508D7A48F6BF79E3
:10D9F00004274BF68F7A48F2C0044CF28006EDB350
:10DA00000D7830F825C048F280180CEA020C4CEA78
:10DA1000080C20F825C0CD88B0F850C025F00105CD
:10DA200091F800800CEBC80C00EB4C0CCCF80054C7
:10DA30000D89B0F850C025F0010591F8008007EB82
:10DA4000C807674400EB4707C7F800544D78002D1E
:10DA50000D7830F825704FEA47477DD0002F05DA62
:10DA600030F825701740374320F825700D7830F8CE
:10DA700025707F0608D530F8257001E024E01DE010
:10DA80001740274320F825700C7830F824501540B3
:10DA9000354320F824500C7830F8242002EA09029B
:10DAA0001A4320F824200A7830F8221001EA0A01EB
:10DAB000194320F822100020BDE8F08730F82240FA
:10DAC0001C4044F4806382E74D78F5B18D88B0F84E
:10DAD000506025F001050F7806EBC70600EB4606FF
