:020000040800F2
:10800000203F00200181000837C2000833C2000869
:1080100035C20008D987000819E5000800000000F3
:10802000000000000000000000000000C7C50008BC
:10803000E78F000800000000C5C50008B1CB0008AC
:108040001B8100081B8100081B8100081B810008A0
:108050001B8100081B8100081B8100081B81000890
:108060001B8100081B8100081B810008A58F0008E8
:108070001B8100081B810008B18F0008BD8F00081C
:108080001B8100081B8100081B8100081B81000860
:10809000B5E400081B8100081B810008E98F000877
:1080A0001B8100081B8100081B8100081B81000840
:1080B0001B8100081B8100081B8100081B81000830
:1080C0001B8100081B8100081B8100081B81000820
:1080D0001B81000881D300081B8100081B81000858
:1080E0001B8100081B8100081B810008DFF80CD0F1
:1080F00000F04CF8004800473DE50008203F002014
:108100000648804706480047FEE7FEE7FEE7FEE731
:10811000FEE7FEE7FEE7FEE7FEE7FEE729CC000804
:10812000ED800008202A04DB203A21FA02F0002129
:10813000704721FA02F3D040C2F120029140084377
:108140001946704740EA01039B0703D009E008C9BC
:10815000121F08C0042AFAD203E011F8013B00F80C
:10816000013B521EF9D27047D2B201E000F8012B58
:10817000491EFBD270470022F6E710B513460A46A7
:1081800004461946FFF7F0FF204610BD064C074D88
:1081900006E0E06840F0010394E8070098471034D7
:1081A000AC42F6D3FFF7A6FF2CEA00084CEA000821
:1081B00070B58C1810F8015B15F0070301D110F8A9
:1081C000013B2A1106D110F8012B03E010F8016BD6
:1081D00001F8016B5B1EF9D12B0705D40023521E59
:1081E0000DD401F8013BFAE710F8013BCB1A921CC1
:1081F00003E013F8015B01F8015B521EF9D5A142BF
:10820000D8D3002070BD70B5044600688168C943AA
:10821000C9071BD1816821F00101816001F0D0FE06
:1082200005460EE001F0CCFE401B022809D9A06AE9
:1082300040F01000A062E06A40F00100E06201201E
:1082400070BD20688068C043C007EBD0002070BDBF
:1082500010B50146406A826A12F0500F05D0006ADC
:10826000026BBDE8104008461047816A41F4007176
:10827000816201688968C1F3424107290CD1C16854
:1082800051B9816A21F480718162816AC90403D481
:10829000816A41F00101816201F0F6F810BD10B56C
:1082A000406A816A41F040018162C16A41F0040183
:1082B000C16201F0F6F810BD10B5406A01F0F0F8A7
:1082C00010BD0000F8B500260446009600688168DD
:1082D000C943C90727D0816841F001018160134873
:1082E00013490068B0FBF1F000E0401E0090002848
:1082F000FBD101F065FE054610E001F061FE401B78
:1083000002280BD9A06A40F01000A062E06A40F099
:108310000100E06284F824600120F8BD20688068D4
:10832000C043C007E9D10020F8BD000000200020B4
:1083300040420F0096B04D4800F08CFA00F08EF9E4
:1083400000F08EF94A484B4D4B4E00684B4F411C94
:108350002DD0B8427ED104F073F9494C4FEA374131
:108360002068884255D1002001C446A050350FC86E
:108370000FC40FCD0FC495E80F0084E80F0004F17F
:10838000100010224249243CFFF7DCFE41480168FE
:1083900061644168A1648068E064344821460068F3
:1083A000C4F81A00304604F00BFA0A2054E03A49A7
:1083B000304604F0E5F9384838490068884219D059
:1083C000012001F079FC2B49502270316846FFF7FB
:1083D000B9FE2868149004F02EF914A9304604F070
:1083E0009DFA0021304604F0F3F96A460021304638
:1083F00004F04CFA012001F05FFC01F0B5FD3A46B3
:1084000000232749022001F021FD01F015FD012084
:1084100022E000F0C1FC04F08BFE04F0EDFA1549F7
:1084200012484C22091D0C30FFF78CFE0F480C300F
:1084300004F098FA002004F035FB002000F0DEFC88
:10844000002004F0A9FE94F822000028F2D015487C
:10845000076000E004E0642001F02EFC03F0FCFE65
:1084600000F03AF9192001F027FCF9E70C2300206D
:1084700000A0000870E5000800F00008AB89EFCD0F
:10848000242C00204D6F746F726379636C6500005B
:10849000BCE60008CCE6000868210020000201FFCD
:1084A00000A00008001F0020FEE700002DE9F043B7
:1084B000394D89B0A86940F00400A861A869002777
:1084C00000F0040007901E204FF003080597CDE947
:1084D000030803A9314801F095FD686940F00100E7
:1084E000686168692F4C00F0010007902C48C4E9CE
:1084F00000078020C4E902704FF48079C000C4E90D
:1085000004902020C4E90607204601F0C1FAA4F136
:1085100030060022346205210B20666201F0FAFF6A
:108520000B2001F0E3FFA86940F40070A861A8697E
:10853000042500F4007007901B483060C6E90297DC
:10854000776177604FF4C0203561F061304600F00C
:10855000A9FF01240094019469463046029400F07A
:1085600049FE02200090CDE901046946304600F042
:1085700041FECDF80080CDE901846946304600F027
:1085800039FE0095CDE901546946304600F032FECF
:1085900009B00020BDE8F08300100240000801404F
:1085A00008000240D4220020002401400F4800B5FA
:1085B000816985B041F0040181618069694600F0FC
:1085C00004000490202000900948019001200290AE
:1085D000084801F017FD00220521172001F09AFF3D
:1085E000172001F083FF05B0002000BD00100240FD
:1085F00000002110000801402021014801F090BE38
:10860000000801400F4800B5816985B041F00401C0
:1086100081618069694600F0040004904020009068
:108620000948019001200290084801F0EBFC00226B
:108630000521172001F06EFF172001F057FF05B04C
:10864000002000BD00100240000021100008014081
:108650004021014801F064BE00080140002070473D
:1086600030B5104885B0816941F0100181618069A1
:108670004FF4005400F0100004900120CDE90040B8
:10868000002002900220084D03906946284601F020
:10869000B9FC01222146284601F09EFE05B00020CB
:1086A00030BD0000001002400010014010B5012252
:1086B0005103024801F090FE002010BD001001405F
:1086C00010B500224FF40051024801F085FE002051
:1086D00010BD00000010014010B54FF400510248D9
:1086E00001F04CFE002010BD001001401A4810B5EA
:1086F000C1698EB041F00101C161C0694FF0804194
:1087000000F001000D901548002401604721C0E9E8
:10871000011442F20F71C0E9031403F0F7F84FF4AB
:108720008050079007A90D4803F0A6F90B4803F005
:108730003BFC0B940BA909480C9403F085F83020FE
:10874000CDE900040294042269460448049403F02D
:108750006DFB0EB0002010BD00100240682200200A
:1087600030B5104885B0816941F0040181618069AC
:108770004FF4004400F0040004900120CDE90040D3
:10878000002002900220084D03906946284601F01F
:1087900039FC01222146284601F01EFE05B00020CA
:1087A00030BD0000001002400008014010B5012259
:1087B000D103024801F010FE002010BD0008014066
:1087C00010B500224FF40041024801F005FE0020E0
:1087D00010BD000000080140FEE7002070470020A7
:1087E0007047000010B500220549064804F0BAFEA3
:1087F00003490448403904F0AFFE002010BD0000DA
:10880000A4230020D82F002010B5044604F06CFEED
:108810002146044804F0A0FE024804F081FE002036
:1088200010BD0000D82F00200A46094910B5D1F824
:108830001812D1F8141209B1012010BD01460448E4
:1088400004F090FEBDE81040014804F0CBBE0000EB
:10885000D82F00200549096801600449091D0968ED
:10886000416002490831096881607047E8F7FF1FDD
:1088700070B5044600200246064D07E0A65CC3B270
:108880007340521C35F8133083EA10208A42F5D326
:1088900070BD0000D8E6000870B504464FF6FF70C2
:1088A0000022064D07E0A65CC3B27340521C35F8A7
:1088B000133083EA10208A42F5D370BDD8E6000851
:1088C00010B588B00446032930D3207800F00F009B
:1088D000012802D0022813D028E0A27860780DF198
:1088E000010100F097F810F0FF0014D1207800F09B
:1088F000F000401C8DF80000A1786846491C13E088
:10890000A278D01C884205D16078E11C00F048F9BB
:10891000C0B200E00120217801F0F0018DF80010D4
:108920008DF801000221684600F004F808B000202C
:1089300010BD00002DE9F0411E4C0022251D3C23F6
:1089400053550122515502222260002206E026687A
:10895000835C735523685B1C521C23608A4201D2DE
:108960003C2AF4D3201D2168FFF796FF21684FF4BD
:10897000007648552168000A491C21604855256841
:108980000D486D1C002100F1080325600CE0621801
:1089900047681279FA544268521C4260B24202D3CC
:1089A000A2F500724260491C8D42F0D80020BDE85B
:1089B000F0810000DC360020883200201CB501F078
:1089C000FFFA114908604A68831A104AB2F8354024
:1089D000A34216D3486092F83400FE2811D080B12B
:1089E000F5208DF800000A48417C8DF80110817C4B
:1089F0008DF80210C07C8DF8030004216846FFF753
:108A000099FF00201CBD000090210020242C002094
:108A1000B82F002010B503005F4C4FF0000038D095
:108A2000012B3CD0022B3FD0062B42D00A2B46D044
:108A30000C2B48D00E2B4BD00F2B4ED0102B51D0DF
:108A4000112B54D0132B57D0544C202B59D0222B00
:108A50005BD0242B5DD0262B5FD0282B61D02A2B16
:108A600063D02C2B65D02E2B67D0312B69D0322BC5
:108A70006BD0332B6DD0342B75D0362B77D0382B71
:108A800079D03A2B7BD03C2B7DD03E2B7FD003205E
:108A900010BD012A01D1227D04E0012010BD012A70
:108AA000FBD1627D0A7010BD042AF6D1D4F81620DD
:108AB00003E0042AF1D1D4F81A200A6010BD022A7A
:108AC000EBD1E28B02E0022AE7D1228C0A8010BDB2
:108AD000012AE2D194F82220E4E7012ADDD194F8BA
:108AE0002320DFE7012AD8D194F83420DAE7022ADC
:108AF000D3D1B4F83520E9E7012ACED194F8372054
:108B0000D0E7022AC9D12288E0E7022AC5D16288CB
:108B1000DCE7022AC1D1A288D8E7022ABDD1E288C7
:108B2000D4E7022AB9D12289D0E7022AB5D16289D5
:108B3000CCE7022AB1D1A289C8E7022AADD1E289E5
:108B4000C4E7012AA9D1627CACE7012AA5D1A27CA5
:108B5000A8E7012AA1D1E27CA4E704E007E00AE04B
:108B60000DE010E013E0022A97D1A28AAEE7022AB4
:108B700093D1E28AAAE7022A8FD1228BA6E7022AA2
:108B80008BD1628BA2E7022A87D1A28B9EE7022AB1
:108B900083D1E28B9AE70000242C0020B82F00201C
:108BA0002DE9F041002430B3012828D0764F774DCD
:108BB000022826D006282AD00A282ED00C2831D008
:108BC0000E2834D00F2838D0102846D011284AD08B
:108BD00013284ED06E4E342855D0334636281B8885
:108BE0005DD0382875D03A2870D033463C285B8851
:108BF0006DD03E286CD003242046BDE8F0811024BF
:108C0000FAE7042A78D10868C5F8160036E0042A85
:108C100072D10868C5F81A0030E0022A6CD10888C1
:108C2000E8832BE0022A67D10888288426E0012AFD
:108C300062D1087885F82200DEE7012A5CD153482A
:108C4000102254493430FFF77DFA524801696964B3
:108C50004169A9648069E86410E0012A7ED108783E
:108C600085F834000AE0022A78D10888A5F8350092
:108C700004E0012A72D1087885F837004349384664
:108C800003F09EFDB8E7022A68D1088825F8440F52
:108C90003E49384603F094FD2888B082ACE7022AAA
:108CA0005CD10878FF2802D14878FF280AD00888CC
:108CB000A5F846003549384603F082FDB5F8460070
:108CC000F08299E7A5F84630F4E702E018E02DE0DD
:108CD00042E0022A42D10878FF2802D14878FF28D2
:108CE0000BD00888A5F848002849384603F068FDED
:108CF000B5F8480030837FE730E0A5F84830F3E767
:108D0000022A2BD10878FF2802D14878FF280AD000
:108D10000888A5F84A001D49384603F051FDB5F80A
:108D20004A00708368E7A5F84A30F4E7022A15D1B3
:108D30000878FF2802D14878FF280AD00888A5F8CB
:108D40004C001249384603F03BFDB5F84C00B083A7
:108D500052E7A5F84C30F4E7022A01D001244BE792
:108D60000878FF2802D14878FF280AD00888A5F89B
:108D70004E000649384603F023FDB5F84E00F08357
:108D80003AE7A5F84E30F4E700F00008242C002064
:108D9000B82F0020BCE60008114910B5002048603B
:108DA00044211048FFF7E7F944210F48FFF7E3F9A2
:108DB000FFF7D6FCFFF7FAFC00220C490C4804F040
:108DC0007AFD0C490A4804F01EFF0B49084804F0DC
:108DD000BBFB074804F064FFBDE81040FFF7F0BCA0
:108DE000882100208832002090340020302100208B
:108DF000D82F0020E82000202021002010B50020DE
:108E000000F030F8002000F097F80020FFF7D6FDC2
:108E10001149486868B101281CD1086890F8FC0124
:108E2000032817D000204860BDE810400B4803F02D
:108E300001BE086890F8FC0103280BD101204860AE
:108E40004C2207490548FFF77DF9BDE8104003486B
:108E500003F088BD10BD000088210020FC310020F7
:108E600070E600082DE9F047314D4FF4007905F523
:108E70000278D5E900010C1A04F500744C4552D370
:108E8000A4F500744FE02A49286808310027415CA6
:108E90003C293FD1A0F58071FF3903D02449093125
:108EA000415C00E0297A4646091DC8F80010A1423D
:108EB00030D8002109E02A187318127A401C1A7160
:108EC000484501D3A0F50070491C32688A4201D997
:108ED0004029F0D3911E301DFFF7DEFC154B3168A1
:108EE000C2B2CB5C9A4214D1124A521C895CB1EBDB
:108EF000102F0ED17179B01DFFF7E2FC28683168A0
:108F000008442860484502D3A0F500702860641A20
:108F100009E047B92868401C2860484502D3A0F5FD
:108F200000702860641E042CADD20020BDE8F087DC
:108F3000903400209A3600202DE9F041174D4FF46F
:108F40000077D5E90010411A01F50071B94201D34B
:108F5000A1F50071F1B1114B002005F10806403B6D
:108F60000AE02A68945D521C1C542A60BA4202D35B
:108F7000A2F500722A60401C884201D24028F0D33A
:108F8000074991F8FC11032904D181B20348403804
:108F9000FFF74AFC0020BDE8F08100008832002085
:108FA000D82F0020014800F04DBC0000D422002042
:108FB000014800F047BC0000F8210020014800F003
:108FC00041BC00003022002010B504686360436893
:108FD000102B036803D099600068C26010BD9A60CE
:108FE0000068C16010BD704710B5202000F0DCFFA4
:108FF000BDE81040402000F0D7BF000010B50128A8
:1090000004D040F26721084805F096FA074900208D
:10901000C8610748016941F004010161016941F03B
:109020004001016110BD000060E9000898210020A6
:1090300000200240064A0021D16106490A6942F037
:1090400002020A614861086940F040000861704707
:109050009821002000200240044B0022DA61044ADB
:10906000136943F0010313610180704798210020C8
:10907000002002400E49C868C2060E4803D5C269E6
:1090800042F00202C261CA68520703D5C26942F0C7
:109090000102C261CA69D20707D0C26942F0040264
:1090A000C261C86920F00100C8611420C86070471F
:1090B000002002409821002070B5044600F080FF97
:1090C0000546114E09E0601C07D024B100F078FF7E
:1090D000401BA04201D9032070BDF068C007F2D147
:1090E000F068800601D52020F060F068C00605D445
:1090F000F069C00702D1F068400703D5FFF7BAFF57
:10910000012070BD002070BD00200240F8B500268F
:109110000446009600683349884206D032498842A6
:1091200003D09721314805F007FA94F8240001286C
:1091300008D0012084F824002046FFF764F80700D7
:1091400002D04BE00220F8BDA06A20F4885040F025
:109150000200A062022001F0BDFC25490968B1FBB4
:10916000F0F0400000E0401E00900028FBD12046B7
:10917000FFF7A8F82068816841F00801816000F0DD
:109180001FFF054604E000F01BFF401B0A2811D812
:10919000206880680007F6D42068816841F00401E7
:1091A000816000F00DFF05460EE000F009FF401B56
:1091B0000A2809D9A06A20F0020040F01000A0623D
:1091C00084F824600120F8BD206880684007ECD452
:1091D000A06A20F0020040F00100A06284F8246040
:1091E0003846F8BD0024014000280140D8E80008B6
:1091F000002000202DE9F84300260546009600686F
:10920000DFF834820C46B146404507D08B4988428E
:1092100004D040F2AC618AA005F08EF9226832B326
:10922000012A24D0022A22D0032A20D0042A1ED0C8
:10923000052A1CD0062A1AD0072A18D0082A16D0C8
:10924000092A14D00A2A12D00B2A10D00C2A0ED0C8
:109250000D2A0CD00E2A0AD00F2A08D0102A06D0C8
:10926000112A04D040F2AD6175A005F065F960687F
:10927000012822D0022820D003281ED004281CD088
:1092800005281AD0062818D0072816D0082814D088
:10929000092812D00A2810D00B280ED00C280CD088
:1092A0000D280AD00E2808D00F2806D0102804D088
:1092B00040F2AE6162A005F03FF9A06890B10128CC
:1092C00010D002280ED003280CD004280AD005287C
:1092D00008D0062806D0072804D040F2AF6158A075
:1092E00005F02AF995F8240001281ED0012085F800
:1092F000240060681F234FF47872072818D2296869
:109300004F6B92FAA2FCBCFA8CFC401E00FB0CFCDA
:1093100003FA0CF39F4392FAA2F2B2FA82F22368A4
:10932000504383401F434F632EE00220BDE8F88383
:1093300029680D2814D20F6B92FAA2FCBCFA8CFC9F
:10934000C01F00FB0CFC03FA0CF39F4392FAA2F23D
:10935000B2FA82F22368504383401F430F6313E045
:10936000CF6A92FAA2FCBCFA8CFC0D3800FB0CFC14
:1093700003FA0CF39F4392FAA2F2B2FA82F2236844
:10938000504383401F43CF62206807233822296857
:109390000A2814D3CF6892FAA2FCBCFA8CFC0A38D3
:1093A00000FB0CFC03FA0CF39F4392FAA2F2B2FA10
:1093B00082F2A368504383401F43CF6012E00F69DD
:1093C00092FAA2FCBCFA8CFC00FB0CFC03FA0CF336
:1093D0009F4392FAA2F2B2FA82F2A368504383400A
:1093E0001F430F612068102801D011281FD1286861
:1093F000404517D18168090219D4816841F4000100
:1094000081602068102812D11D481E490068B0FBF9
:10941000F1F000EB8000400000E0401E00900028CA
:10942000FBD104E0A86A40F02000A862012685F87C
:10943000249030467AE700000024014000280140D3
:109440002E2E5C2E2E5C2E2E5C4472697665727315
:109450005C53544D3332463178785F48414C5F4419
:1094600072697665725C5372635C73746D333266D5
:109470003178785F68616C5F6164632E630000001F
:109480000020002040420F000349884202D10349D6
:109490000120486070470000A422002078210020AD
:1094A000704770472DE9F04104004FF0000577D078
:1094B00078492068884207D07749884204D04FF421
:1094C000C27176A005F038F8606838B1B0F5006F69
:1094D00004D040F2851171A005F02EF8A0684FF479
:1094E000807630B1B04204D04FF4C3716BA005F068
:1094F00023F8E06830B1012804D040F2871167A05A
:1095000005F01AF8E069B0B1B0F5003F13D0B0F53E
:10951000C02F10D0B0F5002F0DD0B0F5202F0AD0FD
:10952000B0F5402F07D0B0F5602F04D04FF4C471D0
:109530005AA005F001F8A06800281CD02069401E40
:109540000F2804D94FF4C67154A004F0F5FF6069E8
:1095500088B1012806D040F28D1150A004F0ECFF34
:10956000606940B1A069401E072804D94FF4C87152
:109570004AA004F0E1FFA06A002728B9E76284F856
:109580002470204600F0AEF82046FEF73CFEA16AAB
:1095900001F01001014304D0A06A40F01000A06265
:1095A00075E0A16A21F4885141F00201A16262686C
:1095B000E169E3680A43022191FAA1F1B1FA81F16C
:1095C00003FA01F10A43A168B14208D0012906D08B
:1095D0000021D4F814C0BCF1010F02D00AE03146DA
:1095E000F7E7F3B1A36A43F02003A362E36A43F011
:1095F0000103E3622368D3F804C02CF4694C4CEAFD
:10960000010CC3F804C021688B68DFF8D0C003EAFE
:109610000C0313438B60A168B14210D001290ED016
:1096200016E04FF4604CA3699CFAACFCBCFA8CFCCD
:109630005B1E03FA0CF30B4343F40061DAE74FF4CB
:109640007001256991FAA1F1B1FA81F16D1E8D4089
:109650002168CB6A23F470032B43CB6221688968AD
:109660001F4B1940914208D1E762A16A21F0020123
:1096700041F00101A162BDE8F081A06A20F0020082
:1096800040F01000A062E06A40F00100E0620120BA
:10969000F1E7000000240140002801402E2E5C2E3E
:1096A0002E5C2E2E5C447269766572735C53544D49
:1096B0003332463178785F48414C5F447269766551
:1096C000725C5372635C73746D3332663178785FA9
:1096D00068616C5F6164632E63000000FDF7E1FF69
:1096E000FE0E1FFF704700002DE9F047044600689A
:1096F0003F4D90468946A84204D040F2FE413DA02D
:1097000004F01AFF3A4E20684A4F361DA84201D095
:10971000B84207D1306810F4702F03D001252846D5
:10972000BDE8F08794F8240001280CD0012084F8CB
:1097300024002046FEF7C6FD05004FF0000104D0CE
:1097400084F82410EBE70220EAE7A06A40F6016201
:10975000904340F48070A0622068B84218D132680B
:1097600012F4702F14D0A06A40F48010A062306808
:10977000400505D5A06A20F4005040F48050A06256
:10978000A06AC0040AD5E06A20F00600E06206E0A4
:10979000A26A22F48012A2624068E9E7E16284F8DA
:1097A0002410216A24488862216A2448C862216AF8
:1097B0002348086321686FF0020008602068816810
:1097C00041F480718160216843464A464C31206AE9
:1097D00000F014FA20688168C1F3424107298168CA
:1097E00003D041F48011816099E741F4A001FAE7C8
:1097F000002401402E2E5C2E2E5C2E2E5C447269BD
:10980000766572735C53544D3332463178785F48D5
:10981000414C5F4472697665725C5372635C737429
:109820006D3332663178785F68616C5F6164632E96
:10983000630000000028014051820008B98200083E
:109840009F8200082DE9F05FDFF840820446D8F8D7
:1098500000C0DFF838B28D4D8C4E8C4F00684FF44D
:109860000061DFF82892DFF824A20BF1080B0B014E
:109870001C35303644374FF4002E09F158090AF1EF
:109880006C0A584501D1082216E0A84201D1802275
:1098900012E0B04201D10A460EE0B84201D11A46A8
:1098A0000AE0484501D1724606E0504502D14FF426
:1098B000000201E04FF000621CEA020F31D00268A2
:1098C000D24312072DD4026822F0080202602068F9
:1098D000584501D1082114E0A84201D1802110E0AF
:1098E000B0420ED0B84201D119460AE0484501D134
:1098F000714606E0504502D14FF4000101E04FF0FF
:109900000061C8F80410606B40F00100606304203F
:1099100084F82100002084F82000216B09B1204642
:1099200088475A48D0F800804FF4806120680B01C6
:109930004FF4802E4FF0806C584501D1042215E081
:10994000A84201D1402211E0B04201D10A460DE007
:10995000B84201D11A4609E0484501D1724605E0F6
:10996000504502D14FF4800200E0624618EA020F2F
:109970002CD00268D243520728D40268920603D43E
:10998000026822F0040202602068584501D10421D7
:1099900013E0A84201D140210FE0B0420DD0B842FF
:1099A00001D1194609E0484501D1714605E050450D
:1099B00002D14FF4800100E061463448416011203B
:1099C00084F82100E16A09B1204688472F4BD3F87B
:1099D0000080DC46206859154FF4005B4FF4003ED0
:1099E000604501D1022216E0A84201D1202212E0F6
:1099F000B04201D10A460EE0B84201D15A460AE00F
:109A0000484501D1724606E0504502D14FF400129C
:109A100001E04FF0007218EA020F34D00268D2431E
:109A2000920730D40268920603D4026822F0020240
:109A300002602068604501D1022114E0A84201D1F2
:109A4000202110E0B0420ED0B84201D159460AE0C0
:109A5000484501D1714606E0504502D14FF400114E
:109A600001E04FF000715960606B6063012084F881
:109A70002100002084F82000A16A002903D020469C
:109A8000BDE8F05F0847BDE8F09F0000000002401D
:109A900070B504006ED04849206888421BD0464902
:109AA0001431884217D044492831884213D04249A2
:109AB0003C3188420FD04049503188420BD03E495A
:109AC0006431884207D03C497831884203D0B521BF
:109AD0003AA004F031FD606840B1102806D0B0F51E
:109AE000804F03D0B62135A004F026FDA0684028A1
:109AF00004D018B1B72131A004F01EFDE068802821
:109B000004D018B1B8212DA004F016FD206948B189
:109B1000B0F5807F06D0B0F5007F03D0B92127A033
:109B200004F00AFD606948B1B0F5806F06D0B0F569
:109B3000006F03D0BA2121A004F0FEFCA06928B177
:109B4000202803D0BB211DA004F0F6FCE06960B121
:109B5000B0F5805F09D0B0F5005F06D0B0F5405F8A
:109B600003D0BC2115A004F0E7FC94F821000023E9
:109B700010B103E0012070BD84F82030022084F889
:109B800021002068026843F6F0718A43D4E9011588
:109B90002943D4E903563543294365692943A56917
:109BA0002943E5692943114301606363012084F877
:109BB0002100002070BD0000080002402E2E5C2E07
:109BC0002E5C2E2E5C447269766572735C53544D24
:109BD0003332463178785F48414C5F44726976652C
:109BE000725C5372635C73746D3332663178785F84
:109BF00068616C5F646D612E630000002DE9F041C7
:109C0000044690F820001D4616460F46012831D024
:109C1000012084F82000022084F82100681E4FF6FD
:109C2000FF71884204D340F2611113A004F084FC58
:109C30002068016821F0010101602B463246394657
:109C40002046FFF7C1F92068016841F00201016078
:109C50002068016841F0040101602068016841F05A
:109C6000080101602068016841F0010101600020E5
:109C7000BDE8F0810220FBE72E2E5C2E2E5C2E2EFE
:109C80005C447269766572735C53544D333246316D
:109C900078785F48414C5F4472697665725C5372B4
:109CA000635C73746D3332663178785F68616C5FC2
:109CB000646D612E6300000031B500F081F9044647
:109CC00000F07EF90099001B8842F9D338BD0000EE
:109CD0002DE9F05F044650480F460126017E012918
:109CE00041D001218146017620684CF2503840B1C4
:109CF00002283BD0B921494804F01EFC2068022804
:109D000034D0A068DFF818B1DFF818A14FF0FF35A4
:109D1000B0F1006F0AD3BAF80010802938D040297A
:109D200040D0202948D0404988420BD9FA213B48ED
:109D300004F002FCBAF8000080282BD0402834D070
:109D400020283CD0D4E9020105EB812101443648AA
:109D5000814203D9FB21314804F0EEFB4046FFF776
:109D6000ABF998B352E00220BDE8F09F444640466C
:109D7000FFF7A2F958BB0120FFF740F92046FFF793
:109D80009BF906462948016921F0040101613DE083
:109D90005845CBD8D4E9020105EB8121014459454E
:109DA000DCD9D7E722498842C0D8D4E9020105EBC3
:109DB000812101441E48CBE71E498842B6D8D4E928
:109DC000020105EB812101441A48C1E700E01DE0D2
:109DD0003D60C246DFF85480A56811E02846FFF7D1
:109DE00029F95046FFF768F9D8F81010060021F05D
:109DF0000201C8F8101001D03D6007E005F580654C
:109E0000D4E9020100EB8120A842E7D8002189F8BB
:109E100018103046A8E700009821002060E90008EB
:109E2000FFFF0108E0F7FF1FFF3F0008002002408E
:109E3000FFFF0008FF7F00080348016941F080012F
:109E40000161002070470000002002402DE9F05F12
:109E500006462E480D460024017E174698460129E5
:109E600025D0012181460176012E07D0022E05D092
:109E7000032E03D0C42126A004F05EFBB5F1006FD1
:109E80000AD333480088802814D0402814D02028D2
:109E900014D03048854203D9C5211DA004F04CFBE5
:109EA0004CF2503A5046FFF707F948B129E002203A
:109EB000BDE8F09F2848EDE72848EBE72848E9E7A8
:109EC000012E02D0022E00D00426D346DFF894A043
:109ED00015E0220141463846FEF724F981B205EB30
:109EE0004400FFF7B9F85846FFF7E6F8DAF8102013
:109EF00022F00102CAF8102018B9641CE4B2B4427E
:109F0000E7D3002289F81820D2E70000982100202A
:109F10002E2E5C2E2E5C2E2E5C447269766572733A
:109F20005C53544D3332463178785F48414C5F443E
:109F300072697665725C5372635C73746D333266FA
:109F40003178785F68616C5F666C6173682E63005E
:109F5000E0F7FF1FFF3F0008FFFF0108FFFF0008B9
:109F6000FF7F00080020024005480169090605D569
:109F70000449416004494160002070470120704756
:109F80000020024023016745AB89EFCD10B52028A2
:109F900004D0402801D100F005F810BD00F001F810
:109FA00010BD704770470000044910B50A680242AE
:109FB00002D00860FFF7EAFF10BD00001404014062
:109FC0000148006870470000042000200248016832
:109FD000491C01607047000004200020074810B5AC
:109FE000016841F010010160032000F0C5FA002073
:109FF00000F02AFA00F03AFA002010BD00200240DA
:10A00000FFFFFFFF2DE9F84FDFF890A20027DFF8F0
:10A0100090B20C46054650450ED05D450CD0A14887
:10A02000854209D0A048854206D0A048854203D089
:10A03000CF219FA004F080FA20880004000C03D1F7
:10A04000D0219BA004F078FA6068F8B101281DD0F7
:10A0500011281BD0022819D0122817D0A4498842F1
:10A0600014D0A449884211D0A34988420ED0A349F4
:10A0700088420BD0A249884208D0A249884205D024
:10A08000032803D0D1218AA004F056FA4FF000082B
:10A090000120266800FA08F906EA09064E456ED145
:10A0A00055450ED05D450CD07E48854209D07E488E
:10A0B000854206D07D48854203D0DF217CA004F094
:10A0C0003BFA8B4A6068811A904259D00EDC032813
:10A0D00070D006DC002853D0012819D002286AD19C
:10A0E00031E0112821D0122865D13AE0B1F5881F5E
:10A0F00046D006DCB1F5803F42D0B1F5801F5AD181
:10A100003EE0B1F5001F3BD0B1F5041F53D137E05D
:10A11000E068022807D0012805D0032803D0E721F2
:10A1200063A004F009FAE76845E0E068022807D078
:10A13000012805D0032803D0EE215DA004F0FCF92E
:10A14000E7683F1D37E0E068022807D0012805D006
:10A15000032803D0F52156A004F0EEF9E76808378C
:10A1600029E0E068022807D0012805D0032803D0A1
:10A17000FC214FA004F0E0F9E7680C371BE084E015
:10A18000A06880B1012810D0022808D040F209113F
:10A1900047A004F0D1F9A06828B1012805D008270C
:10A1A000C5F8149007E0042705E00827C5F81090CB
:10A1B00001E0FFE70027FF2E01D8294601E005F165
:10A1C00004014FEA880001D9A0F120000A684FF08D
:10A1D0000F0303FA00FC22EA0C0207FA00F042EA3D
:10A1E00000020A606068C0004FD54748816941F0AD
:10A1F00001018161806928F0030100F001000090F5
:10A2000042480A18D2F808C04FEA8870010F8B4004
:10A210002CEA030C554501D100200EE05D4501D12B
:10A2200001200AE01F48854201D1022005E01E48B6
:10A23000854201D1032000E00420884040EA0C0060
:10A2400090606068C0033248016801D5314300E086
:10A25000B1430160606880032E48016801D5314335
:10A2600000E0B14301606068C0022B48016801D57D
:10A27000314300E0B1430160606880022748016813
:10A2800001D5314300E0B143016008F10108B8F1A4
:10A29000100FFFF4FDAEBDE8F88F0000000801408C
:10A2A000000C014000100140001401400018014062
:10A2B0002E2E5C2E2E5C2E2E5C4472697665727397
:10A2C0005C53544D3332463178785F48414C5F449B
:10A2D00072697665725C5372635C73746D33326657
:10A2E0003178785F68616C5F6770696F2E6300001A
:10A2F00000001110000021100000311000001210A9
:10A300000000221000003210001002400000014046
:10A310000004014004040140080401400C04014011
:10A3200070B50C00054604D14FF4E27103A004F0AF
:10A3300003F9A868204000D0012070BD2E2E5C2EAD
:10A340002E5C2E2E5C447269766572735C53544D9C
:10A350003332463178785F48414C5F4472697665A4
:10A36000725C5372635C73746D3332663178785FFC
:10A3700068616C5F6770696F2E63000070B50C00D8
:10A38000054604D14FF4FD7103A004F0D5F8E86848
:10A390006040E86070BD00002E2E5C2E2E5C2E2EDC
:10A3A0005C447269766572735C53544D3332463146
:10A3B00078785F48414C5F4472697665725C53728D
:10A3C000635C73746D3332663178785F68616C5F9B
:10A3D0006770696F2E63000070B515460C00064665
:10A3E00004D14FF4F27108A004F0A6F845B1012D94
:10A3F00004D040F2E51104A004F09EF8346170BD71
:10A400002004306170BD00002E2E5C2E2E5C2E2E9E
:10A410005C447269766572735C53544D33324631D5
:10A4200078785F48414C5F4472697665725C53721C
:10A43000635C73746D3332663178785F68616C5F2A
:10A440006770696F2E63000010B5044600F0DCFDF4
:10A450004FF47A71B0FBF1F001F0DDF900222146F2
:10A46000501E00F057F8002010BD00001D4808B530
:10A47000816941F001018161806900F00100009073
:10A48000032000F079F8002211466FF00B0000F075
:10A4900041F8002211466FF00A0000F03BF800225C
:10A4A00011466FF0090000F035F800221146501FE8
:10A4B00000F030F800221146101F00F02BF80022A7
:10A4C0001146901E00F026F800221146501E00F0A2
:10A4D00021F80548416821F0E06141F000714160D8
:10A4E00008BD0000001002400000014010B504004B
:10A4F00003D5E621064804F01FF804F01F010120EF
:10A5000088406109890001F1E021C1F8000110BD16
:10A510001CE9000870B514460D460646102A03D300
:10A52000D221134804F008F8102D03D3D32110488A
:10A5300004F002F80F480068C0F30223C3F10700DB
:10A54000042800D90420191D072901D2002300E0A6
:10A55000DB1E012202FA00F1491E294099409A406F
:10A56000521E22403046BDE87040114301F064BEE7
:10A570001CE900080CED00E010B5044607280BD0DC
:10A58000062C09D0052C07D0042C05D0032C03D0B1
:10A59000BA21084803F0D0FF074A04F00701106809
:10A5A0004FF6FF03184040EA0120044908431060B9
:10A5B00010BD00001CE900080CED00E00000FA05E9
:10A5C00010B50C0605D501F07F0100EB41102830D5
:10A5D00003E000EB411000F5027099B232B10122A4
:10A5E0008272C180190C0181002010BD002282728C
:10A5F0008180F9E7704700EB4112D0F81C04D26B60
:10A6000003F07CB900EB4112D0F81C04D2F81C22F4
:10A6100003F0C9B910B504460A460B0601F07F00E5
:10A6200004EB401101D5283101E001F502710870F9
:10A63000D009487094F8E803012809D0012084F873
:10A64000E803206803F063FD002084F8E80310BDF0
:10A65000022010BD70B50A460446090602F07F00CC
:10A6600003D504EB4011283103E004EB421101F55E
:10A67000027100258D700870D009487094F8E803C5
:10A68000012809D0012084F8E803206803F0DDFDEB
:10A6900084F8E853002070BD022070BD01F07F01F6
:10A6A00000EB4110B0F8240280B2704770B5044648
:10A6B0000D460E0601F07F0004EB401101D5283154
:10A6C00001E001F502710870E80948700A61CB7079
:10A6D00094F8E803012809D0012084F8E8032068F1
:10A6E00003F0EAFB002084F8E80370BD022070BD8F
:10A6F00070B504460E4601F07F0004EB401101F5F1
:10A70000077100252CC101F81F5C01F8200D94F899
:10A71000E80301280AD0012084F8E80370062068C5
:10A7200003F0EDFD84F8E853002070BD022070BDF9
:10A7300070B50D460446090605F07F0003D504EB0D
:10A740004011283103E004EB451101F502710122AB
:10A750008A700870E809487094F8E803012807D067
:10A7600084F8E823206803F0A5FD680602D006E01F
:10A77000022070BD04F57B71206803F064FD0020A9
:10A7800084F8E80370BD70B504460E4601F07F0002
:10A7900004EB40113C3100252CC1012201F81F2C93
:10A7A00001F8200D94F8E803012809D084F8E82383
:10A7B0007006206803F0A3FD84F8E853002070BD04
:10A7C000022070BD10B50446006803F079FE000455
:10A7D00002D5204601F052FD206803F071FE4005CD
:10A7E0000CD5206830F8441F21F480610180204698
:10A7F00000F014F90021204600F025F9206803F04C
:10A800005FFE400405D5206830F8441F21F48041E4
:10A810000180206803F054FE800405D5206830F8DC
:10A82000441F21F400510180206803F049FEC00458
:10A8300013D5206830F8401F21F004010180216801
:10A840004FF43D40A1F84000204600F0F4F82068A5
:10A8500030F8441F21F480510180206803F030FE5D
:10A8600000051AD5206830F8441F21F400610180EA
:10A87000206830F8401F41F008010180206830F85E
:10A88000401F41F004010180206803F019FEC0431D
:10A89000C00402D5204600F00BF9206803F010FE3A
:10A8A000800508D5206830F8441F21F4007101802C
:10A8B000204600F0C4F8206803F002FEC00505D56C
:10A8C000206830F8441F21F48071018010BD000021
:10A8D0002DE9F04186B004004FF000050CD02F495F
:10A8E0002068884203D0A1212DA003F025FE94F812
:10A8F000E903002620B108E0012006B0BDE8F081A0
:10A9000084F8E863204600F06BF8032084F8E9033C
:10A91000206803F091FC04F1100114228846684677
:10A92000FDF710FC94E80F0003F0EFFB0021206816
:10A9300003F0D7FD012704EB451080F8297000F8DB
:10A94000285F8581C670066146616D1C86610F2D8A
:10A95000F1D3002104EB411080F8096280F808125D
:10A96000818680F80B62C0F81862C0F81C62491C2E
:10A97000C0F820620F29EDD3142241466846FDF746
:10A98000E1FB94E80F0003F04EFC84F8246084F8A7
:10A99000E973206803F045FC0020AEE7005C00404E
:10A9A0002E2E5C2E2E5C2E2E5C44726976657273A0
:10A9B0005C53544D3332463178785F48414C5F44A4
:10A9C00072697665725C5372635C73746D33326660
:10A9D0003178785F68616C5F7063642E630000009B
:10A9E00008B500680B49884212D10B48C16941F48F
:10A9F0000001C161C069002200F40000009005213F
:10AA00001420FFF787FDBDE808401420FFF76EBD56
:10AA100008BD0000005C00400010024010B5044674
:10AA20000121D0F81C0403F085F8D4F81C04BDE81B
:10AA3000104003F04EB8D0F81C0403F069B8D0F809
:10AA40001C0403F06BB810B5044690F8E803012825
:10AA50000BD0012084F8E80384F82410206803F068
:10AA600042FD002084F8E80310BD022010BDD0F89C
:10AA70001C2400F57B71104603F066B810B504463F
:10AA800090F8E803012810D0012084F8E80301467B
:10AA90002046FFF7AFFD206803F0C1FB206803F0FC
:10AAA00001FD002084F8E80310BD022010BD000065
:10AAB00010B50446D0F81C0403F081F8A069002802
:10AAC00004D00348016841F00601016010BD000098
:10AAD00010ED00E070B5054637A086B00FC88DE8D0
:10AAE0000F0039A0002400680490E80708D1A807E7
:10AAF00006D4E80604D44FF4CE71344803F01CFDAC
:10AB0000334E012D2ED0022D47D0102D42D170682A
:10AB10003168C9013ED54FF4701292FAA2F200F4E6
:10AB20007011B2FA82F2D140C0031DF801400FD576
:10AB30007068690391FAA1F100F40030B1FA81F173
:10AB4000C84004A9085C2349B1FBF0F0444301E08C
:10AB500021484443706840021CD460000321B0FBCC
:10AB6000F1F417E0316AC1F30120012803D189070C
:10AB700001D5C4030EE0022805D1716A890702D508
:10AB800049F6404406E0032804D13068800301D52B
:10AB90004FF2244406B0204670BD00F03BFA7168C5
:10ABA0004FF4804292FAA2F201F44041B2FA82F2EA
:10ABB000D140491C4900D2E70203040506070809F1
:10ABC0000A0B0C0D0E0F101001020000A4E9000882
:10ABD0000010024000127A0000093D002DE9F84300
:10ABE00004460068604EC1070AD181076FD4C006D1
:10ABF0006ED47E215D4803F09FFC2078C00768D0AA
:10AC0000606860B1B0F5807F09D0B0F5007F06D0F4
:10AC1000B0F5407F03D08421544803F08DFCF069E7
:10AC200040F08050F061F069514F00F0805000908A
:10AC3000386840F480703860FFF7C2F9054604E0D8
:10AC4000FFF7BEF9401B642832D83868C005F7D535
:10AC5000306A10F4407053D0A18801F440718142F1
:10AC60004ED0306A01273B0493FAA3F1B1FA81F187
:10AC70008A00404920F440700A44C2F8007493FAF4
:10AC8000A3F3B3FA83F301EB83010022C1F800249C
:10AC90003062C00734D0FFF793F9054641F2883996
:10ACA0004FF0020807E0FFF78BF9411B494502D935
:10ACB0000320BDE8F88398FAA8F0B0FA80F040F0DD
:10ACC00040004146B7EB501F04D130680EE020E051
:10ACD00037E01BE091FAA1F0B0FA80F040F04000BC
:10ACE000B1EB501F01D1306A00E0706A98FAA8F108
:10ACF000B1FA81F101F01F0207FA02F10842D2D045
:10AD0000306A616820F44070084330622078800720
:10AD100014D5A06860B1B0F5804F09D0B0F5004FF0
:10AD200006D0B0F5404F03D0BA21104803F004FC20
:10AD30007068A16820F44040084370602078C00625
:10AD40000FD5E068B0F5800F05D020B14FF48B71BE
:10AD5000064803F0F1FB7068E16820F480000843C6
:10AD600070600020A5E7000000100240A4E9000880
:10AD700000700040000042422DE9F0470D460400FB
:10AD800004D14FF42F718CA003F0D6FB2068C107CB
:10AD90000AD1810708D4410706D4000704D440F241
:10ADA000BD2185A003F0C8FB45B1012D06D0022DC1
:10ADB00004D040F2BE2180A003F0BEFBDFF8388251
:10ADC000D8F8000000F00700A8420CD2D8F8001014
:10ADD00021F007012943C8F80010D8F8000000F05E
:10ADE0000700A84279D12078844E80071CD5A0683E
:10ADF000A0B1802812D0902810D0A0280ED0B02862
:10AE00000CD0C0280AD0D02808D0E02806D0F028DE
:10AE100004D040F2D72168A003F08EFB7068A168CF
:10AE200020F0F000084370602078C00762D06068AE
:10AE3000012768B1012816D0022833D040F2DE2164
:10AE40005DA003F079FB606801280CD0022829D0AE
:10AE5000022191FAA1F0B0FA80F040F02000400900
:10AE600004D0306803E04FF40031F2E7706A91FAE1
:10AE7000A1F1B1FA81F101F01F018F4038424AD0AF
:10AE80007068616820F0030008437060FFF798F86D
:10AE90000746606841F2883101280CD002288946B3
:10AEA00015D023E04FF00071D3E7FFF789F8C11BFD
:10AEB000494501D917E089467068C0F3810001282F
:10AEC000F3D117E0FFF77CF8C11B49450BD8706838
:10AED000C0F381000228F5D10CE01CE0FFF770F808
:10AEE000C11B494502D90320BDE8F087706810F006
:10AEF0000C0FF3D1D8F80010404601F00701A94229
:10AF00000BD9016821F0070129430160006800F0B6
:10AF10000700A84201D00120E6E720784FF48065C1
:10AF200040074FF4A0674FF4C0684FF4E06914D5B0
:10AF3000E06860B1A8420AD0B84208D0404506D0C7
:10AF4000484504D040F232311BA003F0F5FA706896
:10AF5000E16820F4E060084370602078000715D5B0
:10AF6000206960B1A8420AD0B84208D0404506D056
:10AF7000484504D040F239310FA003F0DDFA706883
:10AF8000216920F4605040EAC100706000F05AF876
:10AF90007168F02292FAA2F201F0F001B2FA82F2A4
:10AFA000D140174A515CC840164908600020FFF79D
:10AFB0004BFA002098E700002E2E5C2E2E5C2E2EE1
:10AFC0005C447269766572735C53544D333246311A
:10AFD00078785F48414C5F4472697665725C537261
:10AFE000635C73746D3332663178785F68616C5F6F
:10AFF0007263632E630000000020024000100240D4
:10B0000058E5000800200020014800687047000053
:10B010000020002008480949006849684FF4605240
:10B0200092FAA2F201F46051B2FA82F2D140044ADB
:10B03000515CC84070470000002000200010024012
:10B0400068E5000810B519A085B00FC88DE80F009D
:10B050001AA01B4B0068049059681A4801F00C02B2
:10B06000042A1DD0082A1BD14FF4701494FAA4F4BA
:10B0700001F47012B4FA84F4E240C9031DF802200E
:10B0800010D559684FF4003393FAA3F301F400315B
:10B09000B3FA83F3D94004AB595CB0FBF1F05043F1
:10B0A00005B010BD08485043FAE70000020304054C
:10B0B000060708090A0B0C0D0E0F10100102000004
:10B0C0000010024000127A0000093D002DE9F84FFF
:10B0D000040004D14FF48771F2A003F02DFADFF8D9
:10B0E00004844FF4003B4FF0000A0226FE4F206814
:10B0F000012560B1C1070DD1810779D4010778D44A
:10B10000400777D440F20F11E6A003F015FA20783B
:10B11000C00732D060684FF4A02948B1B0F5803F35
:10B1200006D0484504D040F21511DEA003F004FA21
:10B130007868C0F38100012807D07868C0F38100E7
:10B1400002281BD17868C00318D59BFAABF0B0FA7F
:10B1500080F040F02000400901D0386800E0786AB3
:10B160009BFAABF1B1FA81F101F01F0105FA01F18F
:10B17000084260D0606800287ED05CE06068B0F56E
:10B18000803F0AD008B1484511D0386820F480309B
:10B190003860386820F4802002E0386840F480305D
:10B1A0003860606838B3FEF70BFF81460AE0386804
:10B1B00040F480203860F0E7FEF702FFA0EB0900C2
:10B1C00064287DD89BFAABF0B0FA80F040F0200004
:10B1D000400901D0386800E0786A9BFAABF1B1FA17
:10B1E00081F101F01F0105FA01F10842E4D022E0EB
:10B1F00024E0C6E040E1FFE7FEF7E2FE814605E01D
:10B20000FEF7DEFEA0EB09006428DAD89BFAABF06B
:10B21000B0FA80F040F02000400901D0386800E02A
:10B22000786A9BFAABF1B1FA81F101F01F0105FADE
:10B2300001F10842E4D12078800744D5206930B17B
:10B24000012804D040F2491196A003F075F9606915
:10B250001F2804D94FF4A57192A003F06DF9786806
:10B2600010F00C0F07D07868C0F3810002282BD1B2
:10B270007868C00328D400E095E096FAA6F0B0FA0A
:10B2800080F040F02000400901D0386800E0786A82
:10B2900096FAA6F1B1FA81F101F01F0105FA01F168
:10B2A000084202D0206901287DD13868F82220F0B8
:10B2B000F80192FAA2F26069B2FA82F2904000E0DC
:10B2C00073E20143396059E0206988B395FAA5F02B
:10B2D000B0FA80F048F82050FEF772FE814605E093
:10B2E000FEF76EFEA0EB090002288ED896FAA6F0B3
:10B2F000B0FA80F040F02000400901D0386800E04A
:10B30000786A96FAA6F1B1FA81F101F01F0105FA07
:10B3100001F10842E4D03868616920F0F802F820B1
:10B3200090FAA0F0B0FA80F081400A433A6025E03C
:10B33000FFE795FAA5F0B0FA80F048F820A0FEF7F4
:10B340003FFE814605E0FEF73BFEA0EB0900022828
:10B35000CBD896FAA6F0B0FA80F040F02000400971
:10B3600001D0386800E0786A96FAA6F1B1FA81F166
:10B3700001F01F0105FA01F10842E4D1207800072D
:10B3800077D5A06990B3012806D04FF4C57145A0C8
:10B3900003F0D2F8A06948B395FAA5F0B0FA80F0AE
:10B3A00008EB800000E0BDE1C0F88054FEF708FE25
:10B3B000814605E0FEF704FEA0EB0900022894D8C0
:10B3C00096FAA6F0B0FA80F040F06000B5EB501F9E
:10B3D00001D138680CE096FAA6F0B0FA80F040F09F
:10B3E0006000B6EB501F02D1386A01E00EE0786AC7
:10B3F00096FAA6F1B1FA81F101F01F0105FA01F206
:10B400001042D7D00120FEF757FC32E095FAA5F0A4
:10B41000B0FA80F008EB8000C0F880A4FEF7D0FD01
:10B42000814605E0FEF7CCFDA0EB090002288FD88D
:10B4300096FAA6F0B0FA80F040F06000B5EB501F2D
:10B4400001D138680BE096FAA6F0B0FA80F040F02F
:10B450006000B6EB501F01D1386A00E0786A96FAB6
:10B46000A6F1B1FA81F101F01F0105FA01F21042D3
:10B47000D8D1207840077CD5E06840B1012806D0BB
:10B48000052804D040F2B71106A003F055F8F8697A
:10B4900040F08050F861F86900F080500090134847
:10B4A000016825E02E2E5C2E2E5C2E2E5C447269E7
:10B4B000766572735C53544D3332463178785F4809
:10B4C000414C5F4472697665725C5372635C73745D
:10B4D0006D3332663178785F68616C5F7263632EBA
:10B4E0006300000000004242001002400070004073
:10B4F00041F480710160FEF763FD814605E0FEF7CF
:10B500005FFDA0EB0900642891D8B6480068C0052B
:10B51000F5D5E06801280AD008B1052811D0386AAD
:10B5200020F001003862386A20F0040002E0386A36
:10B5300040F001003862E06898B3FEF741FD8146B3
:10B540000CE0386A40F004003862F0E7FEF738FD9E
:10B55000A0EB090141F288308142D5D896FAA6F0D5
:10B56000B0FA80F040F04000B5EB501F02D13868CF
:10B570000CE044E096FAA6F0B0FA80F040F040000B
:10B58000B6EB501F01D1386A00E0786A96FAA6F14E
:10B59000B1FA81F101F01F0205FA02F10842D5D09B
:10B5A0002DE0FFE7FEF70CFD814607E0FEF708FD02
:10B5B000A0EB090141F288308142A5D896FAA6F0A5
:10B5C000B0FA80F040F04000B5EB501F01D1386870
:10B5D0000BE096FAA6F0B0FA80F040F04000B6EB2F
:10B5E000501F01D1386A00E0786A96FAA6F1B1FAE4
:10B5F00081F101F01F0205FA02F10842D6D1E0699B
:10B6000000286ED001280AD0022808D040F2472135
:10B61000AFF2701002F090FFE069002861D0786806
:10B62000C0F3810002287DD0E0694FF080760228C7
:10B630000AD096FAA6F1B1FA81F148F821A0FEF7F6
:10B64000BFFC04467600B3E0206A40B1B0F5803F0D
:10B6500005D04FF41471AFF2B41002F06DFF606AC0
:10B6600078B3B0F5802F2CD0B0F5002F29D0B0F5ED
:10B67000402F26D0B0F5801F23D0B0F5A01F20D0DA
:10B68000B0F5C01F1DD0B0F5E01F1AD0B0F5001FF7
:10B6900017D0B0F5101F14D0B0F5201F11D0B0F5A1
:10B6A000301F0ED0B0F5401F0BD0B0F5501F08D0A2
:10B6B000B0F5601F05D040F25121AFF2182002F022
:10B6C0003BFF96FAA6F15046B1FA81F1B246C14667
:10B6D00048F82100FEF774FCA84606464FF00075B6
:10B6E00005E07AE0FEF76CFC801B02285DD895FA35
:10B6F000A5F0B0FA80F040F02000400901D0386891
:10B7000000E0786A95FAA5F1B1FA81F101F01F0223
:10B7100008FA02F10842E5D1206AB0F5803F11D164
:10B72000A06800E05BE038B1584505D040F26721E1
:10B73000AFF2902002F000FF7868A16820F400309A
:10B7400008437860D4E908010843796821F474114A
:10B75000084378609AFAAAF0B0FA80F0464649F8B1
:10B760002080FEF72DFC044604E0FEF729FC001BB8
:10B7700002281AD895FAA5F0B0FA80F040F020001F
:10B78000400901D0386800E0786A95FAA5F1B1FA6D
:10B7900081F101F01F0106FA01F10842E5D01CE039
:10B7A000FEF70EFC001B022802D90320BDE8F88F2B
:10B7B00096FAA6F0B0FA80F040F02000400901D0DF
:10B7C000386800E0786A96FAA6F1B1FA81F101F0E2
:10B7D0001F0105FA01F10842E2D10020E6E701204D
:10B7E000E4E700000070004010B54FF0E0240428AA
:10B7F0000AD020B14FF4DF71054802F09DFE2069A8
:10B8000020F00400206110BD206940F00400F9E739
:10B810001CE90008704710B5401EB0F1807F01D3CD
:10B82000012010BD4FF0E02460610F21601700F08F
:10B8300003FD0020A06107202061002010BD10B58D
:10B84000FFF7E8FF10BD000070B50D460446006824
:10B850002A4988420DD0B0F1804F0AD02849884249
:10B8600007D02849884204D040F28C61264802F073
:10B8700063FE286890B1102810D020280ED0302800
:10B880000CD040280AD0502808D0602806D0702854
:10B8900004D040F28D611C4802F04EFE686880289A
:10B8A00005D020B140F28E61174802F045FE94F8B1
:10B8B000380001281FD0012184F83810022084F8B4
:10B8C00039002068426822F07002426020684268B5
:10B8D0002B681A4342602068826822F080028260EE
:10B8E000206882686B681A43826084F839100020EF
:10B8F00084F8380070BD022070BD0000002C0140AB
:10B900000004004000080040E8E9000810B5040009
:10B910002ED02149206888420CD0B0F1804F09D048
:10B920001E49884206D01E49884203D0D7211DA057
:10B9300002F002FEA06858B1102809D0202807D0D4
:10B94000402805D0602803D0D82116A002F0F4FDCD
:10B95000206948B1B0F5807F06D0B0F5007F03D0F4
:10B96000D92110A002F0E8FD94F8390010B107E0E9
:10B97000012010BD002084F83800204600F032F885
:10B98000022084F83900211D206801F071F901209E
:10B9900084F83900002010BD002C01400004004054
:10B9A000000800402E2E5C2E2E5C2E2E5C44726908
:10B9B000766572735C53544D3332463178785F4804
:10B9C000414C5F4472697665725C5372635C737458
:10B9D0006D3332663178785F68616C5F74696D2EA3
:10B9E000630000007047000010B5044600680F496E
:10B9F00088420DD0B0F1804F0AD00D49884207D05F
:10BA00000C49884204D04FF498710BA002F094FDC9
:10BA1000022084F839002068016841F001010160CA
:10BA2000012084F83900002010BD0000002C0140E6
:10BA300000040040000800402E2E5C2E2E5C2E2EAE
:10BA40005C447269766572735C53544D333246318F
:10BA500078785F48414C5F4472697665725C5372D6
:10BA6000635C73746D3332663178785F68616C5FE4
:10BA700074696D2E630000002DE9F047044690F8CC
:10BA800038000D4601283CD04FF0010984F8389069
:10BA9000022084F8390028684FF480574FF400588A
:10BAA000B84215D0404513D090B1102810D02028AE
:10BAB0000ED030280CD040280AD0502808D060285A
:10BAC00006D0702804D040F64B71C5A002F034FDBA
:10BAD0002068816821F0770121F47F418160D14A9B
:10BAE0002868CF49D04BD6134FF0804C50287DD0DA
:10BAF0000FDC20287BD007DC002879D0102878D1F3
:10BB00003BE10220BDE8F087302873D04028F6D111
:10BB1000F7E060286FD04FF4405A702851D0B842F7
:10BB20003CD04045EBD1206888420AD0604508D01F
:10BB3000904206D0984204D040F67A71A8A002F054
:10BB4000FBFCA86850B1B84208D0404506D050452B
:10BB500004D040F67D71A2A002F0EEFC6868B0420D
:10BB600009D040B1022806D00A2804D040F67E71E0
:10BB70009BA002F0E1FCE8680F2804D940F67F7131
:10BB800097A002F0D9FCD5E90121EB68206801F00B
:10BB9000F5F82068816841F4804153E020688842CC
:10BBA0000AD0604508D0904206D0984204D040F6B2
:10BBB00057718BA002F0C0FC2068816821F007015A
:10BBC00040E0206888420AD0604508D0904206D004
:10BBD000984204D04FF4766181A002F0ADFCA868D1
:10BBE00088B1B8420FD040450DD005E02CE0D5E03B
:10BBF000B2E080E0E3E052E0504504D040F66371EB
:10BC000077A002F099FC6868B04209D040B10228E0
:10BC100006D00A2804D040F6647171A002F08CFCB2
:10BC2000E8680F2804D940F665716DA002F084FC25
:10BC3000D5E90121EB68206801F0A0F8206881684F
:10BC400041F07701816056E0206888420AD0604563
:10BC500008D0904206D0984204D040F68E7160A081
:10BC600002F06AFC6868B04209D040B1022806D0F0
:10BC70000A2804D040F6917159A002F05DFCE868F2
:10BC80000F2804D940F6927155A002F055FCEA68DD
:10BC90006968206801F028FA5021206829E02068AE
:10BCA00088420AD0604508D0904206D0984204D01D
:10BCB00040F69D714AA002F03FFC6868B04209D08E
:10BCC00040B1022806D00A2804D04FF47A6144A07B
:10BCD00002F032FCE8680F2804D940F6A17140A0B8
:10BCE00002F02AFCEA686968206801F00EFA602117
:10BCF000206801F04DF884F83990002084F838006D
:10BD000000E7206888420AD0604508D0904206D0FB
:10BD1000984204D040F6AC7131A002F00DFC686886
:10BD2000B04209D040B1022806D00A2804D040F61B
:10BD3000AF712BA002F000FCE8680F2804D94FF483
:10BD40007B6127A002F0F8FBEA686968206801F0CF
:10BD5000CBF940212068CCE7206888420AD06045B2
:10BD600008D0904206D0984204D040F6BB711CA087
:10BD700002F0E2FB00212068BBE7206888420AD07D
:10BD8000604508D0904206D0984204D040F6C37176
:10BD900013A002F0D1FB10212068AAE72068884296
:10BDA0000AD0604508D0904206D0984204D040F6B0
:10BDB000CB710BA002F0C0FB2021206899E720681E
:10BDC00088420AD0604508D0904206D0984204D0FC
:10BDD00040F6D37102A002F0AFFB3021206888E763
:10BDE0002E2E5C2E2E5C2E2E5C447269766572734C
:10BDF0005C53544D3332463178785F48414C5F4450
:10BE000072697665725C5372635C73746D3332660B
:10BE10003178785F68616C5F74696D2E6300000033
:10BE2000002C014000040040000800402DE9F041D2
:10BE300015000E4604460CD0042D0AD0082D08D05B
:10BE40000C2D06D0182D04D040F6663143A002F028
:10BE500073FB306870B110280CD020280AD030282D
:10BE600008D0502806D0402804D040F667313BA0C7
:10BE700002F062FBB06830B1022804D040F66831AD
:10BE800036A002F059FB94F83800012812D001279F
:10BE900084F83870022084F839004049404A414B08
:10BEA0004FF0804C4DB1042D1AD0082D2BD00C2D05
:10BEB0004ED13BE00220BDE8F081206888420AD0E4
:10BEC000604508D0904206D0984204D040F67331C5
:10BED00022A002F031FB3146206800F061FF37E01C
:10BEE000206888420AD0604508D0904206D0984227
:10BEF00004D040F67B3119A002F01EFB31462068C9
:10BF000000F0BCFF24E0206888420AD0604508D0D9
:10BF1000904206D0984204D040F683310FA002F040
:10BF20000BFB3146206801F01BF811E020688842C5
:10BF30000AD0604508D0904206D0984204D040F61E
:10BF40008B3106A002F0F8FA3146206801F07AF849
:10BF500084F83970002084F83800ACE72E2E5C2E6F
:10BF60002E5C2E2E5C447269766572735C53544D60
:10BF70003332463178785F48414C5F447269766568
:10BF8000725C5372635C73746D3332663178785FC0
:10BF900068616C5F74696D2E63000000002C0140C5
:10BFA000000400400008004010B5040031D02349CF
:10BFB000206888420DD0B0F1804F0AD020498842D5
:10BFC00007D02049884204D04FF4F5711EA002F03A
:10BFD000B3FAA06860B110280AD0202808D0402801
:10BFE00006D0602804D040F2EB1117A002F0A4FAAA
:10BFF000206950B1B0F5807F07D0B0F5007F04D044
:10C000004FF4F67110A002F097FA94F8390010B1CD
:10C0100007E0012010BD002084F83800204600F021
:10C0200033F8022084F83900211D206800F020FE3A
:10C03000012084F83900002010BD0000002C0140D0
:10C0400000040040000800402E2E5C2E2E5C2E2E98
:10C050005C447269766572735C53544D3332463179
:10C0600078785F48414C5F4472697665725C5372C0
:10C07000635C73746D3332663178785F68616C5FCE
:10C0800074696D2E630000007047000070B50546AE
:10C0900000681D4E0C46B04206D10CB3042C1FD0D4
:10C0A000082C1DD00C2C1BD0B0F1804F0CD01749A0
:10C0B000884206D1A4B1042C12D0082C10D00C2C2C
:10C0C0000ED01349884206D154B1042C08D0082C54
:10C0D00006D00C2C04D04FF412710EA002F02CFAF2
:10C0E00001222146286800F0F5FD2868B04203D1FE
:10C0F000416C41F4004141642868016841F001014C
:10C100000160002070BD0000002C014000040040D0
:10C11000000800402E2E5C2E2E5C2E2E5C44726990
:10C12000766572735C53544D3332463178785F488C
:10C13000414C5F4472697665725C5372635C7374E0
:10C140006D3332663178785F68616C5F74696D2E2B
:10C1500063000000704738B5044600680168C26893
:10C16000C1F3000102F4807221B11AB1E16B41F018
:10C170000101E1630168C1F34002416901F001017D
:10C1800022B119B1E26B42F00402E2630268C2F329
:10C19000800222B119B1E26B42F00202E26302684E
:10C1A000C2F3C00222B119B1E16B41F00801E163B1
:10C1B0000168C068C1F3401100F0200019B110B14E
:10C1C000204601F057F820680168C068C1F3C0112B
:10C1D00000F0800019B110B1204601F09EF82168EE
:10C1E0000868CA68C0F3801002F04002012568B1F7
:10C1F00062B1CA68204622F04002CA6094F8391041
:10C20000322910D080F8395000F012F8E06B002885
:10C2100008D0206801684068009084F839502046B2
:10C22000FFF798FF38BD222180F83910ECE77047FE
:10C230007047FEE7FEE7FEE70907090E002806DA69
:10C2400000F00F0000F1E02080F8141D704700F1AD
:10C25000E02080F800147047BFF34F8F0548016855
:10C26000054A01F4E06111430160BFF34F8F00BF45
:10C27000FDE700000CED00E00400FA052DE9FC5F8D
:10C2800004460020ADF80000ADF8040040F68F7BB6
:10C290004FF006094FF0020A4FF4806884E1BDF8C0
:10C2A000001011F00F0628D030F82610ADF8041059
:10C2B000BDF80410090475D530F8261001EA0B0109
:10C2C00020F8261004EB461595F8120205F50275C4
:10C2D0000028206867D0297830F82120B0F8503045
:10C2E00052047CD50AEBC1015A1808EB4201415AAD
:10C2F0008F05BF0D74D0EA88C7E0BDF80010C906ED
:10C300002CD4018848F60F7211400180206804F196
:10C310002805B0F850202B780AEBC3010A4408EB3B
:10C320004201405AC0F309006064E16B0844E063D5
:10C3300000212046FEF75FF994F824000028ADD0D4
:10C34000A8690028AAD194F82400216840F0800050
:10C35000A1F84C00002084F8240025E1018804F5B0
:10C360000275ADF80410BDF8041009051CD5B0F82D
:10C3700050202B7809EBC3010A4408EB4201405AD4
:10C3800004F57B71C0F30903EB61AA88206802F011
:10C390009AF82068018801EA0B0101802046FEF727
:10C3A00066FB01E195E054E0BDF804100904D4D522
:10C3B000018801EA0B0101802068B0F850202B7839
:10C3C000464609EBC301114408EB4101405A83057D
:10C3D0009B0DEB610BD0AA886969206801E04AE0F7
:10C3E00057E002F070F8E969686908446861002163
:10C3F0002046FEF707F92068B0F85010891D06EBBB
:10C400004101421828693E280CD9C0F34F11C006DB
:10C4100001D1491E89B24FF6FF7000EA812040F435
:10C42000004009E0C0F34F01C00701D0491C89B2A8
:10C430004FF6FF7000EA81201060206801884BF6FB
:10C440008F72114081F4405148F280021143018003
:10C45000AAE0B0F850202B7809EBC3010A4408EB9E
:10C460004201415A8F05BF0D1FD0AA883B4669691A
:10C4700002F029F819E009EBC1015A1808EB420152
:10C48000415A8F05BF0D04D02A893B46696902F0E5
:10C490001AF82978206830F8212048F68F731A405E
:10C4A00048F2C0031A4320F82120E8693844E861C3
:10C4B0006869C2196A61AB6913B12869B84204D9C5
:10C4C00029782046FEF79EF803E029782046FEF7FB
:10C4D0000FF9BDF80400000666D5206804EB461588
:10C4E00030F8261048F60F72114020F8261095F803
:10C4F000320028350028206812D0297830F8212011
:10C50000B0F8503052061ED50AEBC1015A1808EB9C
:10C510004201405A83059B0DEB6123D0EA881DE060
:10C52000B0F850202B780AEBC3010A4408EB420113
:10C53000405A83059B0DEB6120D0AA886969206869
:10C5400001F0D7FF1AE009EBC1015A1808EB4201CC
:10C55000405A83059B0DEB6104D02A8969692068E4
:10C5600001F0C7FF2978206830F8212048F68F7342
:10C570001A404CF280031A4320F821202068B0F8BA
:10C5800050202B780AEBC3010A4408EB4201405AC1
:10C59000C0F30900E86169690A186A612978AB6922
:10C5A000204663B1FEF7EFF82068B0F84410ADF80C
:10C5B000001009043FF573AE0020BDE8FC9FFEF7B4
:10C5C0001AF8F1E77047704710B586B00024FDF700
:10C5D000CBFC0020009001900748039004200490B9
:10C5E000694601A8FDF774FB00B10124FDF724FCA6
:10C5F00006B0204610BD000000F000082DE9F04113
:10C6000090460D4606460027FDF7AEFC00240BE0E1
:10C6100055F8242006EB840100230220FDF716FCC8
:10C6200008B1012702E0641C4445F1D3FDF704FC86
:10C630003846BDE8F08110B5FFF7C6FF002010BDF9
:10C6400010B5FF2204211348FBF78EFD124C11494F
:10C65000204600F095F800281AD10E48FF22042148
:10C66000001FFBF781FD0B492046091F00F018F859
:10C6700000280DD1FF2250210848FBF775FD054821
:10C68000064A001F01682046BDE8104000F03AB895
:10C6900010BD00006821002000F00008242C0020BC
:10C6A00070B50D46040003D1CD210EA0FBF7FCFEB2
:10C6B0001DB9CE210BA0FBF7F7FE002110480A465A
:10C6C00004EB82035B68834204D12A60521C102A67
:10C6D000F6D305E004EB82004068401C00D0012145
:10C6E000084670BD2E2E5C4D6F64756C65735C736F
:10C6F00072635C73746F726167652E630000000083
:10C70000674523012DE9F04117460D46060004D187
:10C710004FF4A47113A0FBF7C7FE27B940F24911EB
:10C7200010A0FBF7C1FE0024102D11D205EB45002F
:10C7300000EBC50006EBC006706CA84208D106F1FC
:10C740004C0005465021FCF793F8B16C814201D0B2
:10C75000012404E0294650223846FBF7F3FC20462A
:10C76000BDE8F0812E2E5C4D6F64756C65735C7353
:10C7700072635C73746F726167652E630000000002
:10C7800070B50C46050003D19C2106A0FBF78CFE7A
:10C790001CB99D2103A0FBF787FE296800202160BA
:10C7A00070BD00002E2E5C4D6F64756C65735C73FC
:10C7B00072635C73746F726167652E6300000000C2
:10C7C0000A4602490968491C00F060B8642100204B
:10C7D00038B50C46050003D1AE210DA0FBF764FE71
:10C7E000102C03D3AF210AA0FBF75EFE05EB8403F8
:10C7F000002059680D4A4C1C03D0914200D0012002
:10C8000038BD009269460122181DFFF7F7FE38BDBA
:10C810002E2E5C4D6F64756C65735C7372635C7314
:10C82000746F726167652E63000000006745230125
:10C8300070B515460C46060003D1EF210CA0FBF79E
:10C8400033FE1DB9F0210AA0FBF72EFE102C01D3F8
:10C85000012070BD04EB440000EBC40006EBC000F7
:10C860002946BDE8704016224430FFF7C7BE0000DD
:10C870002E2E5C4D6F64756C65735C7372635C73B4
:10C88000746F726167652E6300000000F0B597B0A9
:10C8900015460C46060004D140F2251116A0FBF700
:10C8A00003FE25B94FF4937113A0FBF7FDFD02A819
:10C8B000502229460746FBF745FC164D2868A04242
:10C8C0000DD0102C06D30024FFF77EFE291D124840
:10C8D00000F024F8214630462C60FFF779FF502104
:10C8E00038460094FBF7C4FF01906A462146304663
:10C8F000FFF79EFF17B0F0BD2E2E5C4D6F64756C78
:10C9000065735C7372635C73746F726167652E63C9
:10C91000000000006421002000F0000838B50D463A
:10C92000040003D1802108A0FBF7BEFD2068401C55
:10C9300001D0012038BD29680091204669460122B6
:10C94000FFF75CFE38BD00002E2E5C4D6F64756CE9
:10C9500065735C7372635C73746F726167652E6379
:10C96000000000002DE9F04706003ED00027DFF868
:10C970008090DFF880803D4605EB450000EB051018
:10C9800008EB80044146E06840BBD9F80000306005
:10C990006060B068E0607068012740B9086800EB2B
:10C9A000400202EB001001EB80008068401CA06098
:10C9B00004F11000402206F10C01FBF7C3FBD9F88B
:10C9C00000100020491CC9F80010C8F80000A16838
:10C9D000D8F80800814201D9C8F800506D1C17B181
:10C9E0000020BDE8F0870A2DC6D30120F9E700003A
:10C9F0006C210020742C002010B5FBF731FE0A4892
:10CA000000214A1E0160C0E902124022074910308D
:10CA1000FBF798FB064C2068401C2060FDF7D0FA1D
:10CA2000A060606010BD0000742C002030E600089B
:10CA30006C210020F0B5A8B10024194B21462546F1
:10CA400001EB410202EB011203EB8202D66836B120
:10CA500056680768BE4202D1D56001249560491C22
:10CA600014B103E00120F0BD0A29E9D3002000EB56
:10CA7000400101EB001103EB8101CA685AB18A68D9
:10CA8000196801EB410404EB011103EB8101896892
:10CA90008A4200D91860401C0A28E8D30020F0BD63
:10CAA000742C00202DE9F041FDF78AFA3E494860D8
:10CAB0008A6890422AD03D4F8860A7F53F74396854
:10CAC0002568002604F54178A9420CD005EB450005
:10CAD00000EB051004EB8001C7E9005640224046F8
:10CAE000091DFBF72FFB786807EB800080680028A2
:10CAF0000EDDFBF7E5FD786807EB80018868401ED6
:10CB000088607968002801DC491C7960BDE8F08103
:10CB10000ADAFBF7CBFD786807EB80018868401CD8
:10CB200088607968F0D5F1E705EB450000EB05106A
:10CB300004EB8000C1684A1C09D0491EC16020680E
:10CB400000EB400202EB001004EB80000ED07E6090
:10CB50002068402200EB400101EB001004EB800153
:10CB60004046BDE8F0411031FBF7ECBA866000208A
:10CB700000EB400101EB001104EB8101CA685AB1DE
:10CB80008A68216801EB410303EB011104EB810189
:10CB900089688A4200D92060401C0A28E8D3BDE891
:10CBA000F041FBF783BD00006C210020702F0020B6
:10CBB00010B5FDF70BFABDE81040FEF740BE30B5EA
:10CBC00093B001210804CDE900100024029402254D
:10CBD0000491CDE907504FF4E01009906846FEF744
:10CBE00075FA0F20CDE90A056802CDE90C40022153
:10CBF0000AA80E94FEF7C0F810200F9012940FA808
:10CC0000FDF7ECFFFEF700FA4FF47A71B0FBF1F09C
:10CC1000FEF701FE0420FEF7E7FD00221146501E3C
:10CC2000FDF778FC13B030BD0D48016841F00101FB
:10CC3000016041680B4A1140416001680A4A114095
:10CC40000160016821F480210160416821F4FE0146
:10CC500041604FF41F0181600449C00308607047C0
:10CC6000001002400000FFF8FFFFF6FE08ED00E0B4
:10CC7000F0B50268144C154D154E4FF08047A04298
:10CC800005D0B84203D0A84201D0B04203D122F06F
:10CC900070034A681A43A04205D0B84203D0A842A4
:10CCA00001D0B04203D122F44073CA681A43026033
:10CCB0008A68C2620A688262A04201D1096901637E
:10CCC00001214161F0BD0000002C01400004004042
:10CCD0000008004070B50446154816460D468442CB
:10CCE0000DD0B4F1804F0AD01248844207D01248C8
:10CCF000844204D041F2EB4110A001F01DFC65B16B
:10CD0000042D0AD0082D08D00C2D06D0182D04D0E3
:10CD100041F2EC4109A001F00FFC0120216AA8407A
:10CD200081432162206AAE403043206270BD000022
:10CD3000002C014000040040000800402E2E5C2E14
:10CD40002E5C2E2E5C447269766572735C53544D72
:10CD50003332463178785F48414C5F44726976657A
:10CD6000725C5372635C73746D3332663178785FD2
:10CD700068616C5F74696D2E6300000010B5846893
:10CD800042EA032224F47F440A432243826010BD16
:10CD9000826822F070020A4342F007018160704706
:10CDA0002DE9F0470446006A0D4620F0010020629C
:10CDB000216A6768A0692A6820F0730042EA0008C7
:10CDC000AE6821F00200DFF8709006434C450ED1AA
:10CDD000E86830B1082804D041F2152117A001F00D
:10CDE000ABFBE96826F00800014321F004064C453E
:10CDF00019D1A869B0F5007F05D020B141F22221F8
:10CE00000EA001F099FB6869B0F5807F05D020B1D4
:10CE100041F2232109A001F08FFB27F440716869DA
:10CE2000AF69084307436760C4F8188068686063A7
:10CE30002662BDE8F0870000002C01402E2E5C2EFB
:10CE40002E5C2E2E5C447269766572735C53544D71
:10CE50003332463178785F48414C5F447269766579
:10CE6000725C5372635C73746D3332663178785FD1
:10CE700068616C5F74696D2E630000002DE9F047F6
:10CE80000446006A0D4620F010002062206A6768A0
:10CE9000A1692A6821F4E64141EA0228A968DFF87D
:10CEA0007C9020F0200040EA01164C450FD1E86844
:10CEB00030B1082804D041F25F2119A001F03CFBF9
:10CEC000E96826F0800040EA011020F040064C4559
:10CED0001BD1A869B0F5007F05D020B141F26D21CA
:10CEE0000FA001F029FB6869B0F5807F05D020B163
:10CEF00041F26E210AA001F01FFB696927F440602E
:10CF000040EA8100A96940EA81076760C4F8188097
:10CF10006868A0632662BDE8F0870000002C01402D
:10CF20002E2E5C2E2E5C2E2E5C44726976657273FA
:10CF30005C53544D3332463178785F48414C5F44FE
:10CF400072697665725C5372635C73746D333266BA
:10CF50003178785F68616C5F74696D2E63000000E2
:10CF60002DE9F0470446006A0D4620F480702062E7
:10CF7000206A6768E1692A6821F0730142EA0108C2
:10CF8000A968DFF87C9020F4007040EA01264C4547
:10CF90000FD1E86830B1082804D041F2AA2119A0C5
:10CFA00001F0CAFAE96826F4006040EA012020F4A2
:10CFB00080664C451BD1A869B0F5007F05D020B133
:10CFC00041F2B7210FA001F0B7FA6869B0F5807F90
:10CFD00005D020B141F2B8210AA001F0ADFA69698B
:10CFE00027F4405040EA0110A96940EA0117676040
:10CFF000C4F81C806868E0632662BDE8F087000022
:10D00000002C01402E2E5C2E2E5C2E2E5C4472696C
:10D01000766572735C53544D3332463178785F488D
:10D02000414C5F4472697665725C5372635C7374E1
:10D030006D3332663178785F68616C5F74696D2E2C
:10D04000630000002DE9F0410446006A0D4620F41B
:10D0500080502062206A6668E1692A6821F4E6410E
:10D0600041EA0228A96820F4005040EA01370D483F
:10D0700084420ED16869B0F5807F05D020B141F2BD
:10D08000F52109A001F058FA696926F4804040EAC8
:10D0900081166660C4F81C80686820642762BDE859
:10D0A000F0810000002C01402E2E5C2E2E5C2E2ED6
:10D0B0005C447269766572735C53544D3332463109
:10D0C00078785F48414C5F4472697665725C537250
:10D0D000635C73746D3332663178785F68616C5F5E
:10D0E00074696D2E6300000010B5046A036A23F0B2
:10D0F00001030362836923F0F00343EA021324F07F
:10D100000A020A438361026210BD10B5036A23F06C
:10D11000100303628469036A24F4704444EA02320F
:10D1200023F0A00343EA01118261016210BD0000F7
:10D1300010B5FBF7DBFAFBF7B9F9FBF737FAFBF7AA
:10D1400061FA1048104930F8442F8A824288CA8216
:10D1500082880A83C2884A8302898A834089C88375
:10D160000A48FBF7D3FF042209490848FCF7BCFA38
:10D170000848FEF739FCBDE8104004210548FEF7D9
:10D1800085BF0000242C0020B82F0020A4220020FE
:10D19000802100206822002070B5344D00242C70BE
:10D1A000FBF72AFA18B9287840F001002870FBF73D
:10D1B0004FFA18B9287840F0020028702C4B2878D4
:10D1C0005874686800284FD06C60284D00200835DE
:10D1D00033F810108A0035F8101001EB410102EB12
:10D1E0008101C1F30F1223F81020998A5143CA1705
:10D1F00001EB125103EB4002090B401C1181042882
:10D20000E6D31989DA8A6425914201D29C2011E083
:10D21000188B814205D2411A6FF063067143801A60
:10D2200006E05A8B914207D2091A64267143101AFC
:10D2300091FBF0F0987400E09D745989988B8142BD
:10D2400001D2DC740BE0DA8B914207D2091A642414
:10D250006143101A91FBF0F0D87400E0DD7493F98B
:10D260001300C0F16400D87470BD00007821002064
:10D27000B82F002010B590F83910222903D0322998
:10D2800001D0022010BD8168B1F5805F11D0016925
:10D29000002901681FD0496801F07F03816A4A1C98
:10D2A00082620B70C18D491E0904090CC18518D01A
:10D2B0002FE00269816A002A0268526805D0D2B262
:10D2C0000A80816A491C8162ECE7C2F308020A8085
:10D2D000816A891CF7E74A68816A4B1C83620A707D
:10D2E000E0E70168CA6822F02002CA6090F83910AD
:10D2F000322910D00168CA6822F48072CA600168BD
:10D300004A6922F001024A61012180F83910FEF7D2
:10D310008EFF002010BD1221F7E790F83910122976
:10D3200003D0322901D0022070478168B1F5805FB7
:10D33000016A0BD04A1C0262026809785160C18CF4
:10D34000491E0904090CC1840ED017E0098802683F
:10D35000C1F30801516001690029016A02D0491C2A
:10D360000162ECE7891CFBE70168CA6822F08002D1
:10D37000CA600068C16841F04001C1600020704788
:10D380000148FEF7E8BE0000B8210020D0F81802DE
:10D3900020B10021C0F814120846704702207047DF
:10D3A00070B50546D0F8184200F032FBC4F80C0204
:10D3B000D5F8180248B1D5F81C12D4F80402CA688E
:10D3C00004F503719047002070BD022070BD70B558
:10D3D00004460025812100F08AFA0121204600F050
:10D3E00086FA8221204600F082FAD4F8180250B161
:10D3F000D4F81C0204F5067440688047206800F0E9
:10D4000055FD00202060284670BD10B5D0E986414A
:10D4100059B194F80002FF2807D08B6894F80122D4
:10D4200021469847FF2084F80002002010BD00002C
:10D430000A2101800048704710200020432101800C
:10D440000048704760200020432101800048704759
:10D450001C2000204321018000487047A4200020A8
:10D460002DE9F0410546007C00264FF4007770B3AB
:10D47000402302228121284600F01AFB4023022289
:10D480000121284600F014FB0823032282212846AC
:10D4900000F00EFB4FF4077000F00AFDC5F818020B
:10D4A000F0B10446D5F81C02006880470021C4F89A
:10D4B0001412C4F81812287CD4F8042290B1402326
:10D4C0000121284600F0FEFA3046BDE8F081FFE772
:10D4D0003B4602228121284600F0EAFA3B46CEE78D
:10D4E0000126F1E73B46EBE7F0B50C4C002204F1D6
:10D4F00008054FF400760BE06768835C7B55636832
:10D500005B1C6360B34202D3A3F500736360521CDB
:10D510000B689342F0D80020F0BD0000903400204A
:10D5200010B5D0F8181269B1027C002AD1F8042293
:10D5300005D04023012100F0C5FA002010BD4FF4B2
:10D540000073F7E7022010BD02460220002902D036
:10D550000020C2F81C127047D0F81802C0F804125C
:10D5600000207047D0F81802C0F81022C0F8081246
:10D570000020704770B50646D0F8185208780C465F
:10D5800010F0600121D0202927D1E288AAB100063D
:10D59000607807D5D6F81C128B6829469847E28830
:10D5A000294617E085F80002A07985F80102E28893
:10D5B0002946304600F050F80FE0D6F81C1260788B
:10D5C00000228B682146984707E060780A2804D13A
:10D5D00003490122304600F059F8002070BD0000D8
:10D5E0000C20002010B5D0F8181289B1D1F81422FF
:10D5F0000AB1012010BD0122C1F81422B1F8102295
:10D6000093B2D1F80822812100F0E2FA002010BD87
:10D61000022010BD10B5D0F81422526890470020A7
:10D6200010BD134610B50A46002100F04BFA002049
:10D6300010BD134610B50A46002100F0C9FA0020BB
:10D6400010BD10B50446802100F0ABFA2046BDE8BD
:10D650001040002100F0A5BA10B50323C0F808213E
:10D66000C0F8F431C0F80C2113460A46002100F03E
:10D6700029FA002010BD10B505210023C0F8F411CF
:10D680001A46194600F01EFA002010BD10B50223FC
:10D690008261C0F8F431C26113460A46002100F0ED
:10D6A00097FA002010BD10B504210023C0F8F41132
:10D6B0001A46194600F08CFA002010BD10B50A4633
:10D6C000024903A000F0D4F8004810BD242A00202D
:10D6D00043444320436F6E66696700001220088050
:10D6E000004870475021002010B50A46024903A0A7
:10D6F00000F0BEF8004810BD242A00204344432017
:10D70000496E7465726661636500000004200880DC
:10D71000004870474C21002010B50A46024903A07A
:10D7200000F0A6F8004810BD242A002053544D698B
:10D7300063726F656C656374726F6E69637300000A
:10D7400010B50A46024903A000F092F8004810BD47
:10D75000242A002053544D33322056697274756167
:10D760006C20436F6D506F727400000010B50A4654
:10D77000024903A000F07CF8004810BD242A0020D4
:10D780003030303030303030303031410000000047
:10D79000F8B5044648880D46010A08294BD2DFE84F
:10D7A00001F04A0409174A4A4048D4F81012207C74
:10D7B0000A6832E0207C02260028D4F8140205D042
:10D7C000C16A684688470146467041E0816AF8E7C9
:10D7D000C0B206282FD2DFE800F003080D12171C94
:10D7E000D4F81012207C4A6817E0D4F81012207C7C
:10D7F0008A6812E0D4F81012207CCA680DE0D4F8D0
:10D800001012207C0A6908E0D4F81012207C4A69C2
:10D8100003E0D4F81012207C8A69694690470146DB
:10D8200016E0207C38B9D4F81402416B684688476A
:10D83000F5E7207C20B129462046FFF702FFF8BD1E
:10D84000D4F81402016B68468847014607204870E7
:10D85000BDF800000028F2D0EA88002AEFD082420A
:10D8600000D90246ADF800202046FFF70FFFF8BDB3
:10D8700070B5002300281DD00446002502E06D1C71
:10D88000EDB2641C2678002EF9D1022404EB450485
:10D890001480CC545B1C0322CA5400245B1C06E099
:10D8A000CA545B1CDAB28C54521CD3B2401C0278AE
:10D8B000002AF5D170BD10B580B1D0F8143213B183
:10D8C0000023C0F8143209B1C0F81012012180F809
:10D8D000FC11027000F0A0F8002010BD022010BD65
:10D8E00010B5D0F82002FCF7B5FE002010BD10B531
:10D8F000D0F82002FCF78EFE002010BD2DE9F0418B
:10D900001746044641B1D4F8140242698AB394F828
:10D91000FC01032842D043E0D4F8F411002504F1BF
:10D920001400022933D1D0E902639E4207D9F31AC9
:10D9300083609AB239462046FFF77BFE12E04068CA
:10D94000B0FBF3F103FB1101A1B9984212D3D4F853
:10D95000F81188420ED2002211462046FFF769FED8
:10D96000C4F8F85100231A461946204600F0AAF8D8
:10D970000DE012E0D4F81402C16829B194F8FC015A
:10D98000032801D1204688472046FFF774FE94F80B
:10D990000002012804D184F8005201E0204690479B
:10D9A0000020BDE8F08170B51546044641B1D4F8B9
:10D9B000140282693AB394F8FC01032824D025E0CC
:10D9C000D4F8F41104F5827003291FD1D0E9023193
:10D9D0008B420BD95B1A83600846834200D303460F
:10D9E0009AB229462046FFF71CFE0FE0D4F8140235
:10D9F000016929B194F8FC01032801D12046884728
:10DA00002046FFF750FE01E020469047002070BD01
:10DA1000D0F82002FCF742BE10B504461B481C4952
:10DA2000C0F81C44C4F820020160082141600221B2
:10DA300081600321C16000218161C161016204F53F
:10DA40000874FCF745FF0022182311462068FCF7F4
:10DA5000B7FD5823002280212068FCF7B1FDC023C8
:10DA6000002281212068FCF7ABFD4FF4887300226F
:10DA700001212068FCF7A4FD4FF48073002282216D
:10DA80002068FCF79DFD002010BD0000042600204A
:10DA9000005C00400A06D0F8200201F07F0100EB94
:10DAA000411002D590F82A00704790F80A0270479A
:10DAB00010B51C461346D0F820022246FCF7F6FDAE
:10DAC000002010BD10B5D0F82002FCF711FE002098
:10DAD00010BD70B50022044640231146FFF7E8FF51
